{
  "contractName": "BaseIndex",
  "abi": [
    {
      "inputs": [],
      "stateMutability": "nonpayable",
      "type": "constructor"
    },
    {
      "anonymous": false,
      "inputs": [
        {
          "indexed": true,
          "internalType": "address",
          "name": "previousOwner",
          "type": "address"
        },
        {
          "indexed": true,
          "internalType": "address",
          "name": "newOwner",
          "type": "address"
        }
      ],
      "name": "OwnershipTransferred",
      "type": "event"
    },
    {
      "anonymous": false,
      "inputs": [
        {
          "indexed": false,
          "internalType": "address",
          "name": "account",
          "type": "address"
        },
        {
          "indexed": false,
          "internalType": "uint256",
          "name": "buyTokenAmount",
          "type": "uint256"
        },
        {
          "indexed": false,
          "internalType": "uint256",
          "name": "indexTokenAmount",
          "type": "uint256"
        }
      ],
      "name": "ProductBuy",
      "type": "event"
    },
    {
      "anonymous": false,
      "inputs": [
        {
          "indexed": false,
          "internalType": "address",
          "name": "account",
          "type": "address"
        },
        {
          "indexed": false,
          "internalType": "uint256",
          "name": "buyTokenAmount",
          "type": "uint256"
        },
        {
          "indexed": false,
          "internalType": "uint256",
          "name": "indexTokenAmount",
          "type": "uint256"
        }
      ],
      "name": "ProductSell",
      "type": "event"
    },
    {
      "inputs": [],
      "name": "buyTokenAddress",
      "outputs": [
        {
          "internalType": "address",
          "name": "",
          "type": "address"
        }
      ],
      "stateMutability": "view",
      "type": "function"
    },
    {
      "inputs": [],
      "name": "indexToken",
      "outputs": [
        {
          "internalType": "contract IndexToken",
          "name": "",
          "type": "address"
        }
      ],
      "stateMutability": "view",
      "type": "function"
    },
    {
      "inputs": [],
      "name": "owner",
      "outputs": [
        {
          "internalType": "address",
          "name": "",
          "type": "address"
        }
      ],
      "stateMutability": "view",
      "type": "function"
    },
    {
      "inputs": [],
      "name": "renounceOwnership",
      "outputs": [],
      "stateMutability": "nonpayable",
      "type": "function"
    },
    {
      "inputs": [],
      "name": "retrieveFees",
      "outputs": [],
      "stateMutability": "nonpayable",
      "type": "function"
    },
    {
      "inputs": [
        {
          "internalType": "uint256",
          "name": "",
          "type": "uint256"
        }
      ],
      "name": "tokens",
      "outputs": [
        {
          "internalType": "address",
          "name": "tokenAddress",
          "type": "address"
        },
        {
          "internalType": "address",
          "name": "priceOracleAddress",
          "type": "address"
        },
        {
          "internalType": "uint24",
          "name": "poolFee",
          "type": "uint24"
        },
        {
          "internalType": "uint8",
          "name": "indexPercentage",
          "type": "uint8"
        }
      ],
      "stateMutability": "view",
      "type": "function"
    },
    {
      "inputs": [
        {
          "internalType": "address",
          "name": "newOwner",
          "type": "address"
        }
      ],
      "name": "transferOwnership",
      "outputs": [],
      "stateMutability": "nonpayable",
      "type": "function"
    },
    {
      "inputs": [],
      "name": "name",
      "outputs": [
        {
          "internalType": "string",
          "name": "",
          "type": "string"
        }
      ],
      "stateMutability": "pure",
      "type": "function"
    },
    {
      "inputs": [],
      "name": "symbol",
      "outputs": [
        {
          "internalType": "string",
          "name": "",
          "type": "string"
        }
      ],
      "stateMutability": "pure",
      "type": "function"
    },
    {
      "inputs": [],
      "name": "shortDescription",
      "outputs": [
        {
          "internalType": "string",
          "name": "",
          "type": "string"
        }
      ],
      "stateMutability": "pure",
      "type": "function"
    },
    {
      "inputs": [],
      "name": "longDescription",
      "outputs": [
        {
          "internalType": "string",
          "name": "",
          "type": "string"
        }
      ],
      "stateMutability": "pure",
      "type": "function"
    },
    {
      "inputs": [],
      "name": "getComponents",
      "outputs": [
        {
          "components": [
            {
              "internalType": "address",
              "name": "tokenAddress",
              "type": "address"
            },
            {
              "internalType": "address",
              "name": "priceOracleAddress",
              "type": "address"
            },
            {
              "internalType": "uint24",
              "name": "poolFee",
              "type": "uint24"
            },
            {
              "internalType": "uint8",
              "name": "indexPercentage",
              "type": "uint8"
            }
          ],
          "internalType": "struct BaseIndex.TokenInfo[]",
          "name": "",
          "type": "tuple[]"
        }
      ],
      "stateMutability": "view",
      "type": "function"
    },
    {
      "inputs": [
        {
          "internalType": "uint256",
          "name": "amount",
          "type": "uint256"
        }
      ],
      "name": "buy",
      "outputs": [],
      "stateMutability": "nonpayable",
      "type": "function"
    },
    {
      "inputs": [],
      "name": "getPrice",
      "outputs": [
        {
          "internalType": "uint256",
          "name": "",
          "type": "uint256"
        }
      ],
      "stateMutability": "view",
      "type": "function"
    },
    {
      "inputs": [
        {
          "internalType": "uint256",
          "name": "amount",
          "type": "uint256"
        }
      ],
      "name": "sell",
      "outputs": [],
      "stateMutability": "nonpayable",
      "type": "function"
    }
  ],
  "bytecode": "0x60a06040523480156200001157600080fd5b506000620000246200059d60201b60201c565b9050806000806101000a81548173ffffffffffffffffffffffffffffffffffffffff021916908373ffffffffffffffffffffffffffffffffffffffff1602179055508073ffffffffffffffffffffffffffffffffffffffff16600073ffffffffffffffffffffffffffffffffffffffff167f8be0079c531659141344cd1fd0a4f28419497f9722a3daafe3b4186f6b6457e060405160405180910390a35073e592427a0aece92de3edee1f18e0157c0586156473ffffffffffffffffffffffffffffffffffffffff1660808173ffffffffffffffffffffffffffffffffffffffff1660601b81525050736b175474e89094c44da98b954eedeac495271d0f600460006101000a81548173ffffffffffffffffffffffffffffffffffffffff021916908373ffffffffffffffffffffffffffffffffffffffff1602179055506005600060146101000a81548160ff021916908360ff1602179055506103e86001819055506305f5e100600381905550306012604051620001a390620005a5565b620001b092919062000667565b604051809103906000f080158015620001cd573d6000803e3d6000fd5b50600760006101000a81548173ffffffffffffffffffffffffffffffffffffffff021916908373ffffffffffffffffffffffffffffffffffffffff1602179055506040516200021c90620005b3565b604051809103906000f08015801562000239573d6000803e3d6000fd5b50600660006101000a81548173ffffffffffffffffffffffffffffffffffffffff021916908373ffffffffffffffffffffffffffffffffffffffff1602179055506000600260006101000a81548160ff0219169083151502179055506005604051806080016040528073c02aaa39b223fe8d0a0e5c4f27ead9083c756cc273ffffffffffffffffffffffffffffffffffffffff168152602001735f4ec3df9cbd43714fe2740f5e3616155c5b841973ffffffffffffffffffffffffffffffffffffffff168152602001610bb862ffffff168152602001604660ff16815250908060018154018082558091505060019003906000526020600020906002020160009091909190915060008201518160000160006101000a81548173ffffffffffffffffffffffffffffffffffffffff021916908373ffffffffffffffffffffffffffffffffffffffff16021790555060208201518160010160006101000a81548173ffffffffffffffffffffffffffffffffffffffff021916908373ffffffffffffffffffffffffffffffffffffffff16021790555060408201518160010160146101000a81548162ffffff021916908362ffffff16021790555060608201518160010160176101000a81548160ff021916908360ff16021790555050506005604051806080016040528073514910771af9ca656af840dff83e8264ecf986ca73ffffffffffffffffffffffffffffffffffffffff168152602001732c1d072e956affc0d435cb7ac38ef18d24d9127c73ffffffffffffffffffffffffffffffffffffffff168152602001610bb862ffffff168152602001601e60ff16815250908060018154018082558091505060019003906000526020600020906002020160009091909190915060008201518160000160006101000a81548173ffffffffffffffffffffffffffffffffffffffff021916908373ffffffffffffffffffffffffffffffffffffffff16021790555060208201518160010160006101000a81548173ffffffffffffffffffffffffffffffffffffffff021916908373ffffffffffffffffffffffffffffffffffffffff16021790555060408201518160010160146101000a81548162ffffff021916908362ffffff16021790555060608201518160010160176101000a81548160ff021916908360ff160217905550505062000724565b600033905090565b6112e98062002b8083390190565b61019f8062003e6983390190565b620005cc81620006cf565b82525050565b620005dd8162000710565b82525050565b6000620005f2600783620006be565b91507f43525950544958000000000000000000000000000000000000000000000000006000830152602082019050919050565b600062000634601283620006be565b91507f43727970746f20696e64657820746f6b656e00000000000000000000000000006000830152602082019050919050565b60006080820190506200067e6000830185620005c1565b8181036020830152620006918162000625565b9050620006a26040830184620005d2565b8181036060830152620006b581620005e3565b90509392505050565b600082825260208201905092915050565b6000620006dc82620006e3565b9050919050565b600073ffffffffffffffffffffffffffffffffffffffff82169050919050565b600060ff82169050919050565b60006200071d8262000703565b9050919050565b60805160601c61242f6200075160003980610b4b5280610b7452806110cf52806112fa525061242f6000f3fe608060405234801561001057600080fd5b50600436106100c55760003560e01c806306fdde03146100ca5780631da98960146100e85780634f64b2be1461010657806360ebbf8114610139578063715018a6146101575780638da5cb5b1461016157806395d89b411461017f57806398d5fdca1461019d57806399d50d5d146101bb578063ba25d944146101d9578063bae8cae5146101f7578063d96a094a14610201578063e4849b321461021d578063e7d015f214610239578063f2fde38b14610257575b600080fd5b6100d2610273565b6040516100df9190612155565b60405180910390f35b6100f06102b0565b6040516100fd9190612155565b60405180910390f35b610120600480360381019061011b9190611cec565b6102d0565b60405161013094939291906120aa565b60405180910390f35b61014161036c565b60405161014e919061202f565b60405180910390f35b61015f610392565b005b6101696104ff565b604051610176919061202f565b60405180910390f35b610187610528565b6040516101949190612155565b60405180910390f35b6101a5610565565b6040516101b291906121d3565b60405180910390f35b6101c361077a565b6040516101d09190612118565b60405180910390f35b6101e16108c5565b6040516101ee9190612155565b60405180910390f35b6101ff6108e5565b005b61021b60048036038101906102169190611cec565b610adb565b005b61023760048036038101906102329190611cec565b611003565b005b6102416114cb565b60405161024e919061213a565b60405180910390f35b610271600480360381019061026c9190611c9a565b6114f1565b005b60606040518060400160405280600b81526020017f43727970746f496e646578000000000000000000000000000000000000000000815250905090565b60606040518060800160405280604981526020016123b160499139905090565b600581815481106102e057600080fd5b90600052602060002090600202016000915090508060000160009054906101000a900473ffffffffffffffffffffffffffffffffffffffff16908060010160009054906101000a900473ffffffffffffffffffffffffffffffffffffffff16908060010160149054906101000a900462ffffff16908060010160179054906101000a900460ff16905084565b600460009054906101000a900473ffffffffffffffffffffffffffffffffffffffff1681565b61039a6116e3565b73ffffffffffffffffffffffffffffffffffffffff166103b86104ff565b73ffffffffffffffffffffffffffffffffffffffff1614610441576040517f08c379a00000000000000000000000000000000000000000000000000000000081526004018080602001828103825260208152602001807f4f776e61626c653a2063616c6c6572206973206e6f7420746865206f776e657281525060200191505060405180910390fd5b600073ffffffffffffffffffffffffffffffffffffffff1660008054906101000a900473ffffffffffffffffffffffffffffffffffffffff1673ffffffffffffffffffffffffffffffffffffffff167f8be0079c531659141344cd1fd0a4f28419497f9722a3daafe3b4186f6b6457e060405160405180910390a360008060006101000a81548173ffffffffffffffffffffffffffffffffffffffff021916908373ffffffffffffffffffffffffffffffffffffffff160217905550565b60008060009054906101000a900473ffffffffffffffffffffffffffffffffffffffff16905090565b60606040518060400160405280600781526020017f4352595054495800000000000000000000000000000000000000000000000000815250905090565b60008060005b60058054905081101561076e57610580611b48565b6005828154811061058d57fe5b90600052602060002090600202016040518060800160405290816000820160009054906101000a900473ffffffffffffffffffffffffffffffffffffffff1673ffffffffffffffffffffffffffffffffffffffff1673ffffffffffffffffffffffffffffffffffffffff1681526020016001820160009054906101000a900473ffffffffffffffffffffffffffffffffffffffff1673ffffffffffffffffffffffffffffffffffffffff1673ffffffffffffffffffffffffffffffffffffffff1681526020016001820160149054906101000a900462ffffff1662ffffff1662ffffff1681526020016001820160179054906101000a900460ff1660ff1660ff168152505090506000600660009054906101000a900473ffffffffffffffffffffffffffffffffffffffff1673ffffffffffffffffffffffffffffffffffffffff166341976e0983602001516040518263ffffffff1660e01b81526004016106f5919061202f565b60206040518083038186803b15801561070d57600080fd5b505afa158015610721573d6000803e3d6000fd5b505050506040513d601f19601f820116820180604052508101906107459190611d15565b9050816060015160ff166064828161075957fe5b0402840193505050808060010191505061056b565b50600354810291505090565b60606005805480602002602001604051908101604052809291908181526020016000905b828210156108bc57838290600052602060002090600202016040518060800160405290816000820160009054906101000a900473ffffffffffffffffffffffffffffffffffffffff1673ffffffffffffffffffffffffffffffffffffffff1673ffffffffffffffffffffffffffffffffffffffff1681526020016001820160009054906101000a900473ffffffffffffffffffffffffffffffffffffffff1673ffffffffffffffffffffffffffffffffffffffff1673ffffffffffffffffffffffffffffffffffffffff1681526020016001820160149054906101000a900462ffffff1662ffffff1662ffffff1681526020016001820160179054906101000a900460ff1660ff1660ff16815250508152602001906001019061079e565b50505050905090565b60606040518060800160405280604981526020016123b160499139905090565b6108ed6116e3565b73ffffffffffffffffffffffffffffffffffffffff1661090b6104ff565b73ffffffffffffffffffffffffffffffffffffffff1614610994576040517f08c379a00000000000000000000000000000000000000000000000000000000081526004018080602001828103825260208152602001807f4f776e61626c653a2063616c6c6572206973206e6f7420746865206f776e657281525060200191505060405180910390fd5b6000600460009054906101000a900473ffffffffffffffffffffffffffffffffffffffff1690508073ffffffffffffffffffffffffffffffffffffffff1663a9059cbb6109df6104ff565b8373ffffffffffffffffffffffffffffffffffffffff166370a08231306040518263ffffffff1660e01b8152600401610a18919061202f565b60206040518083038186803b158015610a3057600080fd5b505afa158015610a44573d6000803e3d6000fd5b505050506040513d601f19601f82011682018060405250810190610a689190611d15565b6040518363ffffffff1660e01b8152600401610a859291906120ef565b602060405180830381600087803b158015610a9f57600080fd5b505af1158015610ab3573d6000803e3d6000fd5b505050506040513d601f19601f82011682018060405250810190610ad79190611cc3565b5050565b6000610ae5610565565b90506000610af2836116eb565b915050610b23600460009054906101000a900473ffffffffffffffffffffffffffffffffffffffff16333086611725565b610b70600460009054906101000a900473ffffffffffffffffffffffffffffffffffffffff167f000000000000000000000000000000000000000000000000000000000000000083611946565b60007f00000000000000000000000000000000000000000000000000000000000000009050610b9d611b48565b60005b600580549050811015610ef75760058181548110610bba57fe5b90600052602060002090600202016040518060800160405290816000820160009054906101000a900473ffffffffffffffffffffffffffffffffffffffff1673ffffffffffffffffffffffffffffffffffffffff1673ffffffffffffffffffffffffffffffffffffffff1681526020016001820160009054906101000a900473ffffffffffffffffffffffffffffffffffffffff1673ffffffffffffffffffffffffffffffffffffffff1673ffffffffffffffffffffffffffffffffffffffff1681526020016001820160149054906101000a900462ffffff1662ffffff1662ffffff1681526020016001820160179054906101000a900460ff1660ff1660ff168152505091506000826060015160ff1660648681610cd557fe5b04029050610ce1611ba4565b604051806101000160405280600460009054906101000a900473ffffffffffffffffffffffffffffffffffffffff1673ffffffffffffffffffffffffffffffffffffffff168152602001856000015173ffffffffffffffffffffffffffffffffffffffff168152602001856040015162ffffff1681526020013073ffffffffffffffffffffffffffffffffffffffff168152602001428152602001838152602001600660009054906101000a900473ffffffffffffffffffffffffffffffffffffffff1673ffffffffffffffffffffffffffffffffffffffff166341976e0987602001516040518263ffffffff1660e01b8152600401610de1919061202f565b60206040518083038186803b158015610df957600080fd5b505afa158015610e0d573d6000803e3d6000fd5b505050506040513d601f19601f82011682018060405250810190610e319190611d15565b8481610e3957fe5b048152602001600073ffffffffffffffffffffffffffffffffffffffff1681525090508473ffffffffffffffffffffffffffffffffffffffff1663414bf389826040518263ffffffff1660e01b8152600401610e9591906121b7565b602060405180830381600087803b158015610eaf57600080fd5b505af1158015610ec3573d6000803e3d6000fd5b505050506040513d601f19601f82011682018060405250810190610ee79190611d15565b5050508080600101915050610ba0565b506000670de0b6b3a7640000858581610f0c57fe5b04029050600760009054906101000a900473ffffffffffffffffffffffffffffffffffffffff1673ffffffffffffffffffffffffffffffffffffffff1663a9059cbb33836040518363ffffffff1660e01b8152600401610f6d92919061204a565b602060405180830381600087803b158015610f8757600080fd5b505af1158015610f9b573d6000803e3d6000fd5b505050506040513d601f19601f82011682018060405250810190610fbf9190611cc3565b507f7ebc3084985b670898d058ca18fa1d6811ad46c72d545dc0af08c8946daaeb21338583604051610ff393929190612073565b60405180910390a1505050505050565b600260009054906101000a900460ff1615611053576040517f08c379a000000000000000000000000000000000000000000000000000000000815260040161104a90612177565b60405180910390fd5b670de0b6b3a7640000811161109d576040517f08c379a000000000000000000000000000000000000000000000000000000000815260040161109490612197565b60405180910390fd5b6110cb600760009054906101000a900473ffffffffffffffffffffffffffffffffffffffff16333084611725565b60007f00000000000000000000000000000000000000000000000000000000000000009050600080600090505b60058054905081101561148a5761110d611b48565b6005828154811061111a57fe5b90600052602060002090600202016040518060800160405290816000820160009054906101000a900473ffffffffffffffffffffffffffffffffffffffff1673ffffffffffffffffffffffffffffffffffffffff1673ffffffffffffffffffffffffffffffffffffffff1681526020016001820160009054906101000a900473ffffffffffffffffffffffffffffffffffffffff1673ffffffffffffffffffffffffffffffffffffffff1673ffffffffffffffffffffffffffffffffffffffff1681526020016001820160149054906101000a900462ffffff1662ffffff1662ffffff1681526020016001820160179054906101000a900460ff1660ff1660ff168152505090506000816060015160ff166064600660009054906101000a900473ffffffffffffffffffffffffffffffffffffffff1673ffffffffffffffffffffffffffffffffffffffff166341976e0985602001516040518263ffffffff1660e01b815260040161128c919061202f565b60206040518083038186803b1580156112a457600080fd5b505afa1580156112b8573d6000803e3d6000fd5b505050506040513d601f19601f820116820180604052508101906112dc9190611d15565b816112e357fe5b040286816112ed57fe5b04905061131f82600001517f000000000000000000000000000000000000000000000000000000000000000083611946565b611327611ba4565b604051806101000160405280846000015173ffffffffffffffffffffffffffffffffffffffff168152602001600460009054906101000a900473ffffffffffffffffffffffffffffffffffffffff1673ffffffffffffffffffffffffffffffffffffffff168152602001846040015162ffffff1681526020013373ffffffffffffffffffffffffffffffffffffffff168152602001428152602001838152602001838152602001600073ffffffffffffffffffffffffffffffffffffffff1681525090508573ffffffffffffffffffffffffffffffffffffffff1663414bf389826040518263ffffffff1660e01b815260040161142491906121b7565b602060405180830381600087803b15801561143e57600080fd5b505af1158015611452573d6000803e3d6000fd5b505050506040513d601f19601f820116820180604052508101906114769190611d15565b8501945050505080806001019150506110f8565b507f0d5a45cf7c9a0539a08a127c07e40d3d3b07823e2c09638a6415b83e59b2d9043382856040516114be93929190612073565b60405180910390a1505050565b600760009054906101000a900473ffffffffffffffffffffffffffffffffffffffff1681565b6114f96116e3565b73ffffffffffffffffffffffffffffffffffffffff166115176104ff565b73ffffffffffffffffffffffffffffffffffffffff16146115a0576040517f08c379a00000000000000000000000000000000000000000000000000000000081526004018080602001828103825260208152602001807f4f776e61626c653a2063616c6c6572206973206e6f7420746865206f776e657281525060200191505060405180910390fd5b600073ffffffffffffffffffffffffffffffffffffffff168173ffffffffffffffffffffffffffffffffffffffff161415611626576040517f08c379a000000000000000000000000000000000000000000000000000000000815260040180806020018281038252602681526020018061238b6026913960400191505060405180910390fd5b8073ffffffffffffffffffffffffffffffffffffffff1660008054906101000a900473ffffffffffffffffffffffffffffffffffffffff1673ffffffffffffffffffffffffffffffffffffffff167f8be0079c531659141344cd1fd0a4f28419497f9722a3daafe3b4186f6b6457e060405160405180910390a3806000806101000a81548173ffffffffffffffffffffffffffffffffffffffff021916908373ffffffffffffffffffffffffffffffffffffffff16021790555050565b600033905090565b60008060008060149054906101000a900460ff1660ff16600154858161170d57fe5b04029050600081850390508181935093505050915091565b600060608573ffffffffffffffffffffffffffffffffffffffff166323b872dd60e01b868686604051602401808473ffffffffffffffffffffffffffffffffffffffff1681526020018373ffffffffffffffffffffffffffffffffffffffff1681526020018281526020019350505050604051602081830303815290604052907bffffffffffffffffffffffffffffffffffffffffffffffffffffffff19166020820180517bffffffffffffffffffffffffffffffffffffffffffffffffffffffff83818316178352505050506040518082805190602001908083835b602083106118255780518252602082019150602081019050602083039250611802565b6001836020036101000a0380198251168184511680821785525050505050509050019150506000604051808303816000865af19150503d8060008114611887576040519150601f19603f3d011682016040523d82523d6000602084013e61188c565b606091505b50915091508180156118cc57506000815114806118cb57508080602001905160208110156118b957600080fd5b81019080805190602001909291905050505b5b61193e576040517f08c379a00000000000000000000000000000000000000000000000000000000081526004018080602001828103825260038152602001807f535446000000000000000000000000000000000000000000000000000000000081525060200191505060405180910390fd5b505050505050565b600060608473ffffffffffffffffffffffffffffffffffffffff1663095ea7b360e01b8585604051602401808373ffffffffffffffffffffffffffffffffffffffff16815260200182815260200192505050604051602081830303815290604052907bffffffffffffffffffffffffffffffffffffffffffffffffffffffff19166020820180517bffffffffffffffffffffffffffffffffffffffffffffffffffffffff83818316178352505050506040518082805190602001908083835b60208310611a285780518252602082019150602081019050602083039250611a05565b6001836020036101000a0380198251168184511680821785525050505050509050019150506000604051808303816000865af19150503d8060008114611a8a576040519150601f19603f3d011682016040523d82523d6000602084013e611a8f565b606091505b5091509150818015611acf5750600081511480611ace5750808060200190516020811015611abc57600080fd5b81019080805190602001909291905050505b5b611b41576040517f08c379a00000000000000000000000000000000000000000000000000000000081526004018080602001828103825260028152602001807f534100000000000000000000000000000000000000000000000000000000000081525060200191505060405180910390fd5b5050505050565b6040518060800160405280600073ffffffffffffffffffffffffffffffffffffffff168152602001600073ffffffffffffffffffffffffffffffffffffffff168152602001600062ffffff168152602001600060ff1681525090565b604051806101000160405280600073ffffffffffffffffffffffffffffffffffffffff168152602001600073ffffffffffffffffffffffffffffffffffffffff168152602001600062ffffff168152602001600073ffffffffffffffffffffffffffffffffffffffff168152602001600081526020016000815260200160008152602001600073ffffffffffffffffffffffffffffffffffffffff1681525090565b600081359050611c5581612345565b92915050565b600081519050611c6a8161235c565b92915050565b600081359050611c7f81612373565b92915050565b600081519050611c9481612373565b92915050565b600060208284031215611cac57600080fd5b6000611cba84828501611c46565b91505092915050565b600060208284031215611cd557600080fd5b6000611ce384828501611c5b565b91505092915050565b600060208284031215611cfe57600080fd5b6000611d0c84828501611c70565b91505092915050565b600060208284031215611d2757600080fd5b6000611d3584828501611c85565b91505092915050565b6000611d4a8383611f71565b60808301905092915050565b611d5f816122a7565b82525050565b611d6e81612243565b82525050565b611d7d81612243565b82525050565b6000611d8e826121fe565b611d988185612221565b9350611da3836121ee565b8060005b83811015611dd4578151611dbb8882611d3e565b9750611dc683612214565b925050600181019050611da7565b5085935050505092915050565b611dea816122b9565b82525050565b6000611dfb82612209565b611e058185612232565b9350611e15818560208601612301565b611e1e81612334565b840191505092915050565b6000611e36601183612232565b91507f50726f64756374206973206c6f636b65640000000000000000000000000000006000830152602082019050919050565b6000611e76602b83612232565b91507f596f75206d757374207769746864726177206d6f72652066756e64732066726f60008301527f6d2074686520696e6465780000000000000000000000000000000000000000006020830152604082019050919050565b61010082016000820151611ee66000850182611d65565b506020820151611ef96020850182611d65565b506040820151611f0c6040850182611fd5565b506060820151611f1f6060850182611d65565b506080820151611f326080850182611ff3565b5060a0820151611f4560a0850182611ff3565b5060c0820151611f5860c0850182611ff3565b5060e0820151611f6b60e0850182611fc6565b50505050565b608082016000820151611f876000850182611d65565b506020820151611f9a6020850182611d65565b506040820151611fad6040850182611fd5565b506060820151611fc06060850182612011565b50505050565b611fcf81612261565b82525050565b611fde81612281565b82525050565b611fed81612281565b82525050565b611ffc81612290565b82525050565b61200b81612290565b82525050565b61201a8161229a565b82525050565b6120298161229a565b82525050565b60006020820190506120446000830184611d74565b92915050565b600060408201905061205f6000830185611d56565b61206c6020830184612002565b9392505050565b60006060820190506120886000830186611d56565b6120956020830185612002565b6120a26040830184612002565b949350505050565b60006080820190506120bf6000830187611d74565b6120cc6020830186611d74565b6120d96040830185611fe4565b6120e66060830184612020565b95945050505050565b60006040820190506121046000830185611d74565b6121116020830184612002565b9392505050565b600060208201905081810360008301526121328184611d83565b905092915050565b600060208201905061214f6000830184611de1565b92915050565b6000602082019050818103600083015261216f8184611df0565b905092915050565b6000602082019050818103600083015261219081611e29565b9050919050565b600060208201905081810360008301526121b081611e69565b9050919050565b6000610100820190506121cd6000830184611ecf565b92915050565b60006020820190506121e86000830184612002565b92915050565b6000819050602082019050919050565b600081519050919050565b600081519050919050565b6000602082019050919050565b600082825260208201905092915050565b600082825260208201905092915050565b600061224e82612261565b9050919050565b60008115159050919050565b600073ffffffffffffffffffffffffffffffffffffffff82169050919050565b600062ffffff82169050919050565b6000819050919050565b600060ff82169050919050565b60006122b2826122dd565b9050919050565b60006122c4826122cb565b9050919050565b60006122d682612261565b9050919050565b60006122e8826122ef565b9050919050565b60006122fa82612261565b9050919050565b60005b8381101561231f578082015181840152602081019050612304565b8381111561232e576000848401525b50505050565b6000601f19601f8301169050919050565b61234e81612243565b811461235957600080fd5b50565b61236581612255565b811461237057600080fd5b50565b61237c81612290565b811461238757600080fd5b5056fe4f776e61626c653a206e6577206f776e657220697320746865207a65726f2061646472657373436f7272656c6174696f6e20696e646578206973206120746f6f6c207468617420616c6c6f777320796f7520746f2064697665727369667920796f757220696e766573746d656e7473a2646970667358221220bf960bc847c938de43a643d00b99f02e71520ebe438e1a72f25d70494e85ccb564736f6c6343000705003360806040523480156200001157600080fd5b50604051620012e9380380620012e983398181016040528101906200003791906200020f565b83600560006101000a81548173ffffffffffffffffffffffffffffffffffffffff021916908373ffffffffffffffffffffffffffffffffffffffff160217905550826002908051906020019062000090929190620000cf565b5081600360006101000a81548160ff021916908360ff1602179055508060049080519060200190620000c4929190620000cf565b5050505050620003c1565b828054600181600116156101000203166002900490600052602060002090601f01602090048101928262000107576000855562000153565b82601f106200012257805160ff191683800117855562000153565b8280016001018555821562000153579182015b828111156200015257825182559160200191906001019062000135565b5b50905062000162919062000166565b5090565b5b808211156200018157600081600090555060010162000167565b5090565b60008151905062000196816200038d565b92915050565b600082601f830112620001ae57600080fd5b8151620001c5620001bf82620002e1565b620002ad565b91508082526020830160208301858383011115620001e257600080fd5b620001ef83828462000355565b50505092915050565b6000815190506200020981620003a7565b92915050565b600080600080608085870312156200022657600080fd5b6000620002368782880162000185565b945050602085015167ffffffffffffffff8111156200025457600080fd5b62000262878288016200019c565b93505060406200027587828801620001f8565b925050606085015167ffffffffffffffff8111156200029357600080fd5b620002a1878288016200019c565b91505092959194509250565b6000604051905081810181811067ffffffffffffffff82111715620002d757620002d66200038b565b5b8060405250919050565b600067ffffffffffffffff821115620002ff57620002fe6200038b565b5b601f19601f8301169050602081019050919050565b6000620003218262000328565b9050919050565b600073ffffffffffffffffffffffffffffffffffffffff82169050919050565b600060ff82169050919050565b60005b838110156200037557808201518184015260208101905062000358565b8381111562000385576000848401525b50505050565bfe5b620003988162000314565b8114620003a457600080fd5b50565b620003b28162000348565b8114620003be57600080fd5b50565b610f1880620003d16000396000f3fe608060405234801561001057600080fd5b50600436106100995760003560e01c806306fdde031461009e578063095ea7b3146100bc5780630cf1fd36146100ec57806323b872dd1461010a57806327e235e31461013a578063313ce5671461016a5780635c6581651461018857806370a08231146101b857806395d89b41146101e8578063a9059cbb14610206578063dd62ed3e14610236575b600080fd5b6100a6610266565b6040516100b39190610d67565b60405180910390f35b6100d660048036038101906100d19190610bb4565b610304565b6040516100e39190610d4c565b60405180910390f35b6100f46103f6565b6040516101019190610d31565b60405180910390f35b610124600480360381019061011f9190610b65565b61041c565b6040516101319190610d4c565b60405180910390f35b610154600480360381019061014f9190610b00565b6106e7565b6040516101619190610dc9565b60405180910390f35b6101726106ff565b60405161017f9190610de4565b60405180910390f35b6101a2600480360381019061019d9190610b29565b610712565b6040516101af9190610dc9565b60405180910390f35b6101d260048036038101906101cd9190610b00565b610737565b6040516101df9190610dc9565b60405180910390f35b6101f061077f565b6040516101fd9190610d67565b60405180910390f35b610220600480360381019061021b9190610bb4565b61081d565b60405161022d9190610d4c565b60405180910390f35b610250600480360381019061024b9190610b29565b610a4f565b60405161025d9190610dc9565b60405180910390f35b60028054600181600116156101000203166002900480601f0160208091040260200160405190810160405280929190818152602001828054600181600116156101000203166002900480156102fc5780601f106102d1576101008083540402835291602001916102fc565b820191906000526020600020905b8154815290600101906020018083116102df57829003601f168201915b505050505081565b600081600160003373ffffffffffffffffffffffffffffffffffffffff1673ffffffffffffffffffffffffffffffffffffffff16815260200190815260200160002060008573ffffffffffffffffffffffffffffffffffffffff1673ffffffffffffffffffffffffffffffffffffffff168152602001908152602001600020819055508273ffffffffffffffffffffffffffffffffffffffff163373ffffffffffffffffffffffffffffffffffffffff167f8c5be1e5ebec7d5bd14f71427d1e84f3dd0314c0f7b2291e5b200ac8c7c3b925846040516103e49190610dc9565b60405180910390a36001905092915050565b600560009054906101000a900473ffffffffffffffffffffffffffffffffffffffff1681565b600080600160008673ffffffffffffffffffffffffffffffffffffffff1673ffffffffffffffffffffffffffffffffffffffff16815260200190815260200160002060003373ffffffffffffffffffffffffffffffffffffffff1673ffffffffffffffffffffffffffffffffffffffff168152602001908152602001600020549050826000808773ffffffffffffffffffffffffffffffffffffffff1673ffffffffffffffffffffffffffffffffffffffff16815260200190815260200160002054101580156104ec5750828110155b61052b576040517f08c379a000000000000000000000000000000000000000000000000000000000815260040161052290610da9565b60405180910390fd5b826000808673ffffffffffffffffffffffffffffffffffffffff1673ffffffffffffffffffffffffffffffffffffffff16815260200190815260200160002060008282540192505081905550826000808773ffffffffffffffffffffffffffffffffffffffff1673ffffffffffffffffffffffffffffffffffffffff168152602001908152602001600020600082825403925050819055507fffffffffffffffffffffffffffffffffffffffffffffffffffffffffffffffff8110156106765782600160008773ffffffffffffffffffffffffffffffffffffffff1673ffffffffffffffffffffffffffffffffffffffff16815260200190815260200160002060003373ffffffffffffffffffffffffffffffffffffffff1673ffffffffffffffffffffffffffffffffffffffff168152602001908152602001600020600082825403925050819055505b8373ffffffffffffffffffffffffffffffffffffffff168573ffffffffffffffffffffffffffffffffffffffff167fddf252ad1be2c89b69c2b068fc378daa952ba7f163c4a11628f55a4df523b3ef856040516106d39190610dc9565b60405180910390a360019150509392505050565b60006020528060005260406000206000915090505481565b600360009054906101000a900460ff1681565b6001602052816000526040600020602052806000526040600020600091509150505481565b60008060008373ffffffffffffffffffffffffffffffffffffffff1673ffffffffffffffffffffffffffffffffffffffff168152602001908152602001600020549050919050565b60048054600181600116156101000203166002900480601f0160208091040260200160405190810160405280929190818152602001828054600181600116156101000203166002900480156108155780601f106107ea57610100808354040283529160200191610815565b820191906000526020600020905b8154815290600101906020018083116107f857829003601f168201915b505050505081565b6000600560009054906101000a900473ffffffffffffffffffffffffffffffffffffffff1673ffffffffffffffffffffffffffffffffffffffff163373ffffffffffffffffffffffffffffffffffffffff1614156108c657816000808573ffffffffffffffffffffffffffffffffffffffff1673ffffffffffffffffffffffffffffffffffffffff16815260200190815260200160002060008282540192505081905550610994565b816000803373ffffffffffffffffffffffffffffffffffffffff1673ffffffffffffffffffffffffffffffffffffffff168152602001908152602001600020541015610947576040517f08c379a000000000000000000000000000000000000000000000000000000000815260040161093e90610d89565b60405180910390fd5b816000803373ffffffffffffffffffffffffffffffffffffffff1673ffffffffffffffffffffffffffffffffffffffff168152602001908152602001600020600082825403925050819055505b816000808573ffffffffffffffffffffffffffffffffffffffff1673ffffffffffffffffffffffffffffffffffffffff168152602001908152602001600020600082825401925050819055508273ffffffffffffffffffffffffffffffffffffffff163373ffffffffffffffffffffffffffffffffffffffff167fddf252ad1be2c89b69c2b068fc378daa952ba7f163c4a11628f55a4df523b3ef84604051610a3d9190610dc9565b60405180910390a36001905092915050565b6000600160008473ffffffffffffffffffffffffffffffffffffffff1673ffffffffffffffffffffffffffffffffffffffff16815260200190815260200160002060008373ffffffffffffffffffffffffffffffffffffffff1673ffffffffffffffffffffffffffffffffffffffff16815260200190815260200160002054905092915050565b600081359050610ae581610eb4565b92915050565b600081359050610afa81610ecb565b92915050565b600060208284031215610b1257600080fd5b6000610b2084828501610ad6565b91505092915050565b60008060408385031215610b3c57600080fd5b6000610b4a85828601610ad6565b9250506020610b5b85828601610ad6565b9150509250929050565b600080600060608486031215610b7a57600080fd5b6000610b8886828701610ad6565b9350506020610b9986828701610ad6565b9250506040610baa86828701610aeb565b9150509250925092565b60008060408385031215610bc757600080fd5b6000610bd585828601610ad6565b9250506020610be685828601610aeb565b9150509250929050565b610bf981610e1b565b82525050565b610c0881610e2d565b82525050565b6000610c1982610dff565b610c238185610e0a565b9350610c33818560208601610e70565b610c3c81610ea3565b840191505092915050565b6000610c54602f83610e0a565b91507f746f6b656e2062616c616e6365206973206c6f776572207468616e207468652060008301527f76616c75652072657175657374656400000000000000000000000000000000006020830152604082019050919050565b6000610cba603983610e0a565b91507f746f6b656e2062616c616e6365206f7220616c6c6f77616e6365206973206c6f60008301527f776572207468616e20616d6f756e7420726571756573746564000000000000006020830152604082019050919050565b610d1c81610e59565b82525050565b610d2b81610e63565b82525050565b6000602082019050610d466000830184610bf0565b92915050565b6000602082019050610d616000830184610bff565b92915050565b60006020820190508181036000830152610d818184610c0e565b905092915050565b60006020820190508181036000830152610da281610c47565b9050919050565b60006020820190508181036000830152610dc281610cad565b9050919050565b6000602082019050610dde6000830184610d13565b92915050565b6000602082019050610df96000830184610d22565b92915050565b600081519050919050565b600082825260208201905092915050565b6000610e2682610e39565b9050919050565b60008115159050919050565b600073ffffffffffffffffffffffffffffffffffffffff82169050919050565b6000819050919050565b600060ff82169050919050565b60005b83811015610e8e578082015181840152602081019050610e73565b83811115610e9d576000848401525b50505050565b6000601f19601f8301169050919050565b610ebd81610e1b565b8114610ec857600080fd5b50565b610ed481610e59565b8114610edf57600080fd5b5056fea2646970667358221220436d3543a213922d11dc974e97144f0938875094033c4fef647452f93c3f5b2764736f6c63430007050033608060405234801561001057600080fd5b5061017f806100206000396000f3fe608060405234801561001057600080fd5b506004361061002b5760003560e01c806341976e0914610030575b600080fd5b6100726004803603602081101561004657600080fd5b81019080803573ffffffffffffffffffffffffffffffffffffffff169060200190929190505050610088565b6040518082815260200191505060405180910390f35b60008082905060008173ffffffffffffffffffffffffffffffffffffffff1663feaf968c6040518163ffffffff1660e01b815260040160a06040518083038186803b1580156100d657600080fd5b505afa1580156100ea573d6000803e3d6000fd5b505050506040513d60a081101561010057600080fd5b810190808051906020019092919080519060200190929190805190602001909291908051906020019092919080519060200190929190505050505050915050809250505091905056fea264697066735822122091a6a7ae0028a114ff99e2284684fef05858df73df43f8e3873d1c9aeb3ae50664736f6c63430007050033",
  "immutableReferences": {
    "1435": [
      {
        "length": 32,
        "start": 2891
      },
      {
        "length": 32,
        "start": 2932
      },
      {
        "length": 32,
        "start": 4303
      },
      {
        "length": 32,
        "start": 4858
      }
    ]
  },
  "source": "// SPDX-License-Identifier: MIT\npragma solidity >=0.7.5;\npragma abicoder v2;\n\nimport \"@openzeppelin/contracts/token/ERC20/ERC20.sol\";\nimport \"@uniswap/v3-periphery/contracts/libraries/TransferHelper.sol\";\nimport \"@uniswap/v3-periphery/contracts/interfaces/ISwapRouter.sol\";\nimport \"@uniswap/v3-periphery/contracts/interfaces/IPeripheryPayments.sol\";\n\nimport \"./PriceOracle.sol\";\nimport \"./IndexToken.sol\";\nimport \"./BaseProduct.sol\";\n\n\ncontract BaseIndex is Product{\n    address private immutable dexRouterAddress;\n\n    struct TokenInfo{\n        address tokenAddress;\n        address priceOracleAddress;\n        uint24 poolFee;\n        uint8 indexPercentage;\n    }\n\n    TokenInfo[] public tokens;\n    PriceOracle private priceOracle;\n    IndexToken public indexToken;\n\n    function name() external override pure returns(string memory){\n        return 'CryptoIndex';\n    }\n\n    function symbol() external override pure returns(string memory){\n        return 'CRYPTIX';\n    }\n\n    function shortDescription() external override pure returns(string memory){\n        return 'Correlation index is a tool that allows you to diversify your investments';\n    }\n\n    function longDescription() external override pure returns(string memory){\n        return 'Correlation index is a tool that allows you to diversify your investments';\n    }\n\n    function getComponents() external view returns(TokenInfo[] memory){\n        return tokens;\n    }\n\n    constructor(){\n        dexRouterAddress = 0xE592427A0AEce92De3Edee1F18E0157C05861564;     // Uniswap V3 Router\n        buyTokenAddress = 0x6B175474E89094C44Da98b954EedeAC495271d0F;     // USDC\n        indexFee = 5;\n        indexFeeTotal = 1000;\n        indexPriceAdjustment = 100000000;\n        indexToken = new IndexToken(address(this), \"Crypto index token\", 18, \"CRYPTIX\");\n        priceOracle = new PriceOracle();\n        isLocked = false;\n\n        tokens.push(TokenInfo({     // WETH\n            tokenAddress: 0xC02aaA39b223FE8D0A0e5C4F27eAD9083C756Cc2,\n            priceOracleAddress: 0x5f4eC3Df9cbd43714FE2740f5E3616155c5b8419,\n            poolFee: 3000,\n            indexPercentage: 70\n        }));\n        tokens.push(TokenInfo({    // LINK\n            tokenAddress: 0x514910771AF9Ca656af840dff83E8264EcF986CA,\n            priceOracleAddress: 0x2c1d072e956AFFC0D435Cb7AC38EF18d24d9127c,\n            poolFee: 3000,\n            indexPercentage: 30\n        }));\n\n        // tokens.push(TokenInfo({    // UNI\n        //     tokenAddress: 0x1f9840a85d5aF5bf1D1762F925BDADdC4201F984,\n        //     priceOracleAddress: 0x553303d460EE0afB37EdFf9bE42922D8FF63220e,\n        //     poolFee: 3000,\n        // }));\n        // tokens.push(TokenInfo({    // BNB\n        //     tokenAddress: 0xB8c77482e45F1F44dE1745F52C74426C631bDD52,\n        //     priceOracleAddress: 0x14e613AC84a31f709eadbdF89C6CC390fDc9540A,\n        //     poolFee: 3000,\n        // }));\n        // tokens.push(TokenInfo({    //   SNX\n        //     tokenAddress: 0xC011a73ee8576Fb46F5E1c5751cA3B9Fe0af2a6F,\n        //     priceOracleAddress: 0xDC3EA94CD0AC27d9A86C180091e7f78C683d3699,\n        //     poolFee: 3000,\n        // }));\n        // tokens.push(TokenInfo({    //   YFI\n        //     tokenAddress: 0x0bc529c00C6401aEF6D220BE8C6Ea1667F6Ad93e,\n        //     priceOracleAddress: 0xA027702dbb89fbd58938e4324ac03B58d812b0E1,\n        //     poolFee: 3000,\n        // }));\n        // tokens.push(TokenInfo({    //   COMP\n        //     tokenAddress: 0xc00e94Cb662C3520282E6f5717214004A7f26888,\n        //     priceOracleAddress: 0xdbd020CAeF83eFd542f4De03e3cF0C28A4428bd5,\n        //     poolFee: 3000,\n        // }));\n        // tokens.push(TokenInfo({    //   1INCH\n        //     tokenAddress: 0x111111111117dC0aa78b770fA6A738034120C302,\n        //     priceOracleAddress: 0xc929ad75B72593967DE83E7F7Cda0493458261D9,\n        //     poolFee: 3000,\n        // }));\n        // tokens.push(TokenInfo({    //   MKR\n        //     tokenAddress: 0x9f8F72aA9304c8B593d555F12eF6589cC3A579A2,\n        //     priceOracleAddress: 0xec1D1B3b0443256cc3860e24a46F108e699484Aa,\n        //     poolFee: 3000,\n        // }));\n    }\n\n    function buy(uint amount) external override{\n        uint indexPrice = getPrice();\n        (, uint realAmount) = calculateFee(amount);\n\n        TransferHelper.safeTransferFrom(buyTokenAddress, msg.sender, address(this), amount);\n        TransferHelper.safeApprove(buyTokenAddress, dexRouterAddress, realAmount);\n        ISwapRouter dexRouter = ISwapRouter(dexRouterAddress);\n        TokenInfo memory token;\n\n        for (uint256 index = 0; index < tokens.length; index++) {\n            token = tokens[index];\n            uint tokenAmount = (realAmount / 100) * token.indexPercentage;\n\n            ISwapRouter.ExactInputSingleParams memory params = ISwapRouter.ExactInputSingleParams({\n                tokenIn: buyTokenAddress,\n                tokenOut: token.tokenAddress,\n                fee: token.poolFee,\n                recipient: address(this),\n                deadline: block.timestamp,\n                amountIn: tokenAmount,\n                amountOutMinimum: tokenAmount / priceOracle.getPrice(token.priceOracleAddress),\n                sqrtPriceLimitX96: 0\n            });\n\n            dexRouter.exactInputSingle(params);\n        }\n\n        uint indexTokens = (realAmount / indexPrice) * 1 ether;\n        indexToken.transfer(msg.sender, indexTokens);\n        emit ProductBuy(msg.sender, realAmount, indexTokens);\n    }\n\n    function getPrice() public override view returns(uint){\n        uint indexTotalPrice;\n\n        for(uint i = 0; i < tokens.length; i++){\n            TokenInfo memory token = tokens[i];\n            uint price = priceOracle.getPrice(token.priceOracleAddress);\n            indexTotalPrice += (price / 100) * token.indexPercentage;\n        }\n\n        return indexTotalPrice * indexPriceAdjustment;\n    }\n\n    function sell(uint amount) external override checkUnlocked{\n        require(amount > 1 ether, \"You must withdraw more funds from the index\");\n\n        TransferHelper.safeTransferFrom(address(indexToken), msg.sender, address(this), amount);\n        ISwapRouter dexRouter = ISwapRouter(dexRouterAddress);\n\n        uint buyTokenAmount;\n\n        for (uint256 index = 0; index < tokens.length; index++) {\n            TokenInfo memory token = tokens[index];\n            uint tokenAmount = amount / ((priceOracle.getPrice(token.priceOracleAddress) / 100) * token.indexPercentage);\n\n            // 100 tokens\n            // 500 usd\n\n            TransferHelper.safeApprove(token.tokenAddress, dexRouterAddress, tokenAmount);\n            ISwapRouter.ExactInputSingleParams memory params = ISwapRouter.ExactInputSingleParams({\n                tokenIn: token.tokenAddress,\n                tokenOut: buyTokenAddress,\n                fee: token.poolFee,\n                recipient: msg.sender,\n                deadline: block.timestamp,\n                amountIn: tokenAmount,\n                amountOutMinimum: tokenAmount,\n                sqrtPriceLimitX96: 0\n            });\n\n            buyTokenAmount += dexRouter.exactInputSingle(params);\n        }\n\n        emit ProductSell(msg.sender, buyTokenAmount, amount);\n    }\n\n}\n",
  "sourcePath": "D:\\JavascriptProjects\\crypto-index\\contracts\\BaseIndex.sol",
  "compiler": {
    "name": "solc",
    "version": "0.7.5+commit.eb77ed08.Linux.g++"
  },
  "schemaVersion": "3.4.6",
  "updatedAt": "2022-04-12T08:08:54.345Z",
  "devdoc": {
    "kind": "dev",
    "methods": {
      "owner()": {
        "details": "Returns the address of the current owner."
      },
      "renounceOwnership()": {
        "details": "Leaves the contract without owner. It will not be possible to call `onlyOwner` functions anymore. Can only be called by the current owner. NOTE: Renouncing ownership will leave the contract without an owner, thereby removing any functionality that is only available to the owner."
      },
      "transferOwnership(address)": {
        "details": "Transfers ownership of the contract to a new account (`newOwner`). Can only be called by the current owner."
      }
    },
    "version": 1
  },
  "userdoc": {
    "kind": "user",
    "methods": {},
    "version": 1
  }
}