{
  "contractName": "BaseIndex",
  "abi": [
    {
      "inputs": [],
      "stateMutability": "nonpayable",
      "type": "constructor"
    },
    {
      "anonymous": false,
      "inputs": [
        {
          "indexed": false,
          "internalType": "address",
          "name": "account",
          "type": "address"
        },
        {
          "indexed": false,
          "internalType": "uint256",
          "name": "debtAmount",
          "type": "uint256"
        }
      ],
      "name": "DebtRetrieved",
      "type": "event"
    },
    {
      "anonymous": false,
      "inputs": [
        {
          "indexed": true,
          "internalType": "address",
          "name": "previousOwner",
          "type": "address"
        },
        {
          "indexed": true,
          "internalType": "address",
          "name": "newOwner",
          "type": "address"
        }
      ],
      "name": "OwnershipTransferred",
      "type": "event"
    },
    {
      "anonymous": false,
      "inputs": [
        {
          "indexed": false,
          "internalType": "address",
          "name": "account",
          "type": "address"
        },
        {
          "indexed": false,
          "internalType": "uint256",
          "name": "buyTokenAmount",
          "type": "uint256"
        },
        {
          "indexed": false,
          "internalType": "uint256",
          "name": "indexTokenAmount",
          "type": "uint256"
        }
      ],
      "name": "ProductBought",
      "type": "event"
    },
    {
      "anonymous": false,
      "inputs": [
        {
          "indexed": false,
          "internalType": "address",
          "name": "account",
          "type": "address"
        },
        {
          "indexed": false,
          "internalType": "uint256",
          "name": "buyTokenAmount",
          "type": "uint256"
        },
        {
          "indexed": false,
          "internalType": "uint256",
          "name": "indexTokenAmount",
          "type": "uint256"
        }
      ],
      "name": "ProductSold",
      "type": "event"
    },
    {
      "inputs": [],
      "name": "WETH",
      "outputs": [
        {
          "internalType": "address",
          "name": "",
          "type": "address"
        }
      ],
      "stateMutability": "view",
      "type": "function"
    },
    {
      "inputs": [],
      "name": "buyTokenAddress",
      "outputs": [
        {
          "internalType": "address",
          "name": "",
          "type": "address"
        }
      ],
      "stateMutability": "view",
      "type": "function"
    },
    {
      "inputs": [
        {
          "internalType": "uint256",
          "name": "amount",
          "type": "uint256"
        }
      ],
      "name": "calculateFee",
      "outputs": [
        {
          "internalType": "uint256",
          "name": "",
          "type": "uint256"
        },
        {
          "internalType": "uint256",
          "name": "",
          "type": "uint256"
        }
      ],
      "stateMutability": "view",
      "type": "function"
    },
    {
      "inputs": [
        {
          "internalType": "uint8",
          "name": "_fee",
          "type": "uint8"
        },
        {
          "internalType": "uint256",
          "name": "_feeTotal",
          "type": "uint256"
        }
      ],
      "name": "changeFee",
      "outputs": [],
      "stateMutability": "nonpayable",
      "type": "function"
    },
    {
      "inputs": [],
      "name": "getFee",
      "outputs": [
        {
          "internalType": "uint256",
          "name": "",
          "type": "uint256"
        },
        {
          "internalType": "uint256",
          "name": "",
          "type": "uint256"
        }
      ],
      "stateMutability": "view",
      "type": "function"
    },
    {
      "inputs": [],
      "name": "indexToken",
      "outputs": [
        {
          "internalType": "contract IndexToken",
          "name": "",
          "type": "address"
        }
      ],
      "stateMutability": "view",
      "type": "function"
    },
    {
      "inputs": [],
      "name": "isLocked",
      "outputs": [
        {
          "internalType": "bool",
          "name": "",
          "type": "bool"
        }
      ],
      "stateMutability": "view",
      "type": "function"
    },
    {
      "inputs": [],
      "name": "isSettlementActive",
      "outputs": [
        {
          "internalType": "bool",
          "name": "",
          "type": "bool"
        }
      ],
      "stateMutability": "view",
      "type": "function"
    },
    {
      "inputs": [],
      "name": "lastManagedToken",
      "outputs": [
        {
          "internalType": "uint256",
          "name": "",
          "type": "uint256"
        }
      ],
      "stateMutability": "view",
      "type": "function"
    },
    {
      "inputs": [],
      "name": "owner",
      "outputs": [
        {
          "internalType": "address",
          "name": "",
          "type": "address"
        }
      ],
      "stateMutability": "view",
      "type": "function"
    },
    {
      "inputs": [],
      "name": "renounceOwnership",
      "outputs": [],
      "stateMutability": "nonpayable",
      "type": "function"
    },
    {
      "inputs": [
        {
          "internalType": "uint256",
          "name": "",
          "type": "uint256"
        }
      ],
      "name": "tokens",
      "outputs": [
        {
          "internalType": "uint8",
          "name": "indexPercentage",
          "type": "uint8"
        },
        {
          "internalType": "address",
          "name": "tokenAddress",
          "type": "address"
        },
        {
          "internalType": "address",
          "name": "priceOracleAddress",
          "type": "address"
        },
        {
          "internalType": "address",
          "name": "intermediateToken",
          "type": "address"
        }
      ],
      "stateMutability": "view",
      "type": "function"
    },
    {
      "inputs": [],
      "name": "tokensToBuy",
      "outputs": [
        {
          "internalType": "uint256",
          "name": "",
          "type": "uint256"
        }
      ],
      "stateMutability": "view",
      "type": "function"
    },
    {
      "inputs": [],
      "name": "tokensToSell",
      "outputs": [
        {
          "internalType": "uint256",
          "name": "",
          "type": "uint256"
        }
      ],
      "stateMutability": "view",
      "type": "function"
    },
    {
      "inputs": [],
      "name": "totalAvailableDebt",
      "outputs": [
        {
          "internalType": "uint256",
          "name": "",
          "type": "uint256"
        }
      ],
      "stateMutability": "view",
      "type": "function"
    },
    {
      "inputs": [
        {
          "internalType": "address",
          "name": "newOwner",
          "type": "address"
        }
      ],
      "name": "transferOwnership",
      "outputs": [],
      "stateMutability": "nonpayable",
      "type": "function"
    },
    {
      "inputs": [
        {
          "internalType": "address",
          "name": "",
          "type": "address"
        }
      ],
      "name": "usersDebt",
      "outputs": [
        {
          "internalType": "uint256",
          "name": "",
          "type": "uint256"
        }
      ],
      "stateMutability": "view",
      "type": "function"
    },
    {
      "inputs": [],
      "name": "name",
      "outputs": [
        {
          "internalType": "string",
          "name": "",
          "type": "string"
        }
      ],
      "stateMutability": "pure",
      "type": "function"
    },
    {
      "inputs": [],
      "name": "symbol",
      "outputs": [
        {
          "internalType": "string",
          "name": "",
          "type": "string"
        }
      ],
      "stateMutability": "pure",
      "type": "function"
    },
    {
      "inputs": [],
      "name": "getComponents",
      "outputs": [
        {
          "components": [
            {
              "internalType": "uint8",
              "name": "indexPercentage",
              "type": "uint8"
            },
            {
              "internalType": "address",
              "name": "tokenAddress",
              "type": "address"
            },
            {
              "internalType": "address",
              "name": "priceOracleAddress",
              "type": "address"
            },
            {
              "internalType": "uint24[2]",
              "name": "poolFees",
              "type": "uint24[2]"
            },
            {
              "internalType": "address",
              "name": "intermediateToken",
              "type": "address"
            }
          ],
          "internalType": "struct BaseIndex.TokenInfo[]",
          "name": "",
          "type": "tuple[]"
        }
      ],
      "stateMutability": "view",
      "type": "function"
    },
    {
      "inputs": [],
      "name": "shortDescription",
      "outputs": [
        {
          "internalType": "string",
          "name": "",
          "type": "string"
        }
      ],
      "stateMutability": "pure",
      "type": "function"
    },
    {
      "inputs": [],
      "name": "longDescription",
      "outputs": [
        {
          "internalType": "string",
          "name": "",
          "type": "string"
        }
      ],
      "stateMutability": "pure",
      "type": "function"
    },
    {
      "inputs": [
        {
          "components": [
            {
              "internalType": "uint8",
              "name": "indexPercentage",
              "type": "uint8"
            },
            {
              "internalType": "address",
              "name": "tokenAddress",
              "type": "address"
            },
            {
              "internalType": "address",
              "name": "priceOracleAddress",
              "type": "address"
            },
            {
              "internalType": "uint24[2]",
              "name": "poolFees",
              "type": "uint24[2]"
            },
            {
              "internalType": "address",
              "name": "intermediateToken",
              "type": "address"
            }
          ],
          "internalType": "struct BaseIndex.TokenInfo",
          "name": "token",
          "type": "tuple"
        }
      ],
      "name": "getTokenPrice",
      "outputs": [
        {
          "internalType": "uint256",
          "name": "",
          "type": "uint256"
        }
      ],
      "stateMutability": "view",
      "type": "function"
    },
    {
      "inputs": [],
      "name": "image",
      "outputs": [
        {
          "internalType": "string",
          "name": "",
          "type": "string"
        }
      ],
      "stateMutability": "pure",
      "type": "function"
    },
    {
      "inputs": [],
      "name": "getTotalLockedValue",
      "outputs": [
        {
          "internalType": "uint256",
          "name": "",
          "type": "uint256"
        }
      ],
      "stateMutability": "view",
      "type": "function"
    },
    {
      "inputs": [
        {
          "internalType": "uint256",
          "name": "amount",
          "type": "uint256"
        }
      ],
      "name": "buy",
      "outputs": [],
      "stateMutability": "nonpayable",
      "type": "function"
    },
    {
      "inputs": [
        {
          "internalType": "uint256",
          "name": "amount",
          "type": "uint256"
        }
      ],
      "name": "retrieveDebt",
      "outputs": [],
      "stateMutability": "nonpayable",
      "type": "function"
    },
    {
      "inputs": [
        {
          "internalType": "uint256",
          "name": "amount",
          "type": "uint256"
        }
      ],
      "name": "sell",
      "outputs": [],
      "stateMutability": "nonpayable",
      "type": "function"
    },
    {
      "inputs": [],
      "name": "beginSettlement",
      "outputs": [],
      "stateMutability": "nonpayable",
      "type": "function"
    },
    {
      "inputs": [],
      "name": "endSettlement",
      "outputs": [],
      "stateMutability": "nonpayable",
      "type": "function"
    },
    {
      "inputs": [],
      "name": "manageTokens",
      "outputs": [],
      "stateMutability": "payable",
      "type": "function"
    },
    {
      "inputs": [],
      "name": "getPrice",
      "outputs": [
        {
          "internalType": "uint256",
          "name": "",
          "type": "uint256"
        }
      ],
      "stateMutability": "view",
      "type": "function"
    }
  ],
  "bytecode": "0x60a06040526000600a553480156200001657600080fd5b5060006200002962001e6860201b60201c565b9050806000806101000a81548173ffffffffffffffffffffffffffffffffffffffff021916908373ffffffffffffffffffffffffffffffffffffffff1602179055508073ffffffffffffffffffffffffffffffffffffffff16600073ffffffffffffffffffffffffffffffffffffffff167f8be0079c531659141344cd1fd0a4f28419497f9722a3daafe3b4186f6b6457e060405160405180910390a3506001808190555073e592427a0aece92de3edee1f18e0157c0586156473ffffffffffffffffffffffffffffffffffffffff1660808173ffffffffffffffffffffffffffffffffffffffff1660601b81525050736b175474e89094c44da98b954eedeac495271d0f600260016101000a81548173ffffffffffffffffffffffffffffffffffffffff021916908373ffffffffffffffffffffffffffffffffffffffff16021790555073c02aaa39b223fe8d0a0e5c4f27ead9083c756cc2600960006101000a81548173ffffffffffffffffffffffffffffffffffffffff021916908373ffffffffffffffffffffffffffffffffffffffff160217905550600a600260156101000a81548160ff021916908360ff16021790555060646003819055506064600481905550306012604051620002009062001e70565b6200020d92919062001ff8565b604051809103906000f0801580156200022a573d6000803e3d6000fd5b50600860006101000a81548173ffffffffffffffffffffffffffffffffffffffff021916908373ffffffffffffffffffffffffffffffffffffffff160217905550604051620002799062001e7e565b604051809103906000f08015801562000296573d6000803e3d6000fd5b50600760006101000a81548173ffffffffffffffffffffffffffffffffffffffff021916908373ffffffffffffffffffffffffffffffffffffffff1602179055506000600260006101000a81548160ff02191690831515021790555060066040518060a00160405280600f60ff16815260200173c02aaa39b223fe8d0a0e5c4f27ead9083c756cc273ffffffffffffffffffffffffffffffffffffffff168152602001735f4ec3df9cbd43714fe2740f5e3616155c5b841973ffffffffffffffffffffffffffffffffffffffff1681526020016040518060400160405280610bb862ffffff1662ffffff168152602001610bb862ffffff1662ffffff168152508152602001600073ffffffffffffffffffffffffffffffffffffffff16815250908060018154018082558091505060019003906000526020600020906004020160009091909190915060008201518160000160006101000a81548160ff021916908360ff16021790555060208201518160000160016101000a81548173ffffffffffffffffffffffffffffffffffffffff021916908373ffffffffffffffffffffffffffffffffffffffff16021790555060408201518160010160006101000a81548173ffffffffffffffffffffffffffffffffffffffff021916908373ffffffffffffffffffffffffffffffffffffffff160217905550606082015181600201906002620004a792919062001e8c565b5060808201518160030160006101000a81548173ffffffffffffffffffffffffffffffffffffffff021916908373ffffffffffffffffffffffffffffffffffffffff160217905550505060066040518060a00160405280600560ff16815260200173514910771af9ca656af840dff83e8264ecf986ca73ffffffffffffffffffffffffffffffffffffffff168152602001732c1d072e956affc0d435cb7ac38ef18d24d9127c73ffffffffffffffffffffffffffffffffffffffff1681526020016040518060400160405280610bb862ffffff1662ffffff168152602001610bb862ffffff1662ffffff168152508152602001600960009054906101000a900473ffffffffffffffffffffffffffffffffffffffff1673ffffffffffffffffffffffffffffffffffffffff16815250908060018154018082558091505060019003906000526020600020906004020160009091909190915060008201518160000160006101000a81548160ff021916908360ff16021790555060208201518160000160016101000a81548173ffffffffffffffffffffffffffffffffffffffff021916908373ffffffffffffffffffffffffffffffffffffffff16021790555060408201518160010160006101000a81548173ffffffffffffffffffffffffffffffffffffffff021916908373ffffffffffffffffffffffffffffffffffffffff160217905550606082015181600201906002620006c792919062001e8c565b5060808201518160030160006101000a81548173ffffffffffffffffffffffffffffffffffffffff021916908373ffffffffffffffffffffffffffffffffffffffff160217905550505060066040518060a00160405280600560ff16815260200173418d75f65a02b3d53b2418fb8e1fe493759c760573ffffffffffffffffffffffffffffffffffffffff1681526020017314e613ac84a31f709eadbdf89c6cc390fdc9540a73ffffffffffffffffffffffffffffffffffffffff1681526020016040518060400160405280610bb862ffffff1662ffffff168152602001610bb862ffffff1662ffffff168152508152602001600960009054906101000a900473ffffffffffffffffffffffffffffffffffffffff1673ffffffffffffffffffffffffffffffffffffffff16815250908060018154018082558091505060019003906000526020600020906004020160009091909190915060008201518160000160006101000a81548160ff021916908360ff16021790555060208201518160000160016101000a81548173ffffffffffffffffffffffffffffffffffffffff021916908373ffffffffffffffffffffffffffffffffffffffff16021790555060408201518160010160006101000a81548173ffffffffffffffffffffffffffffffffffffffff021916908373ffffffffffffffffffffffffffffffffffffffff160217905550606082015181600201906002620008e792919062001e8c565b5060808201518160030160006101000a81548173ffffffffffffffffffffffffffffffffffffffff021916908373ffffffffffffffffffffffffffffffffffffffff160217905550505060066040518060a00160405280600a60ff168152602001731f9840a85d5af5bf1d1762f925bdaddc4201f98473ffffffffffffffffffffffffffffffffffffffff16815260200173553303d460ee0afb37edff9be42922d8ff63220e73ffffffffffffffffffffffffffffffffffffffff1681526020016040518060400160405280610bb862ffffff1662ffffff168152602001610bb862ffffff1662ffffff168152508152602001600960009054906101000a900473ffffffffffffffffffffffffffffffffffffffff1673ffffffffffffffffffffffffffffffffffffffff16815250908060018154018082558091505060019003906000526020600020906004020160009091909190915060008201518160000160006101000a81548160ff021916908360ff16021790555060208201518160000160016101000a81548173ffffffffffffffffffffffffffffffffffffffff021916908373ffffffffffffffffffffffffffffffffffffffff16021790555060408201518160010160006101000a81548173ffffffffffffffffffffffffffffffffffffffff021916908373ffffffffffffffffffffffffffffffffffffffff16021790555060608201518160020190600262000b0792919062001e8c565b5060808201518160030160006101000a81548173ffffffffffffffffffffffffffffffffffffffff021916908373ffffffffffffffffffffffffffffffffffffffff160217905550505060066040518060a00160405280600560ff16815260200173111111111117dc0aa78b770fa6a738034120c30273ffffffffffffffffffffffffffffffffffffffff16815260200173c929ad75b72593967de83e7f7cda0493458261d973ffffffffffffffffffffffffffffffffffffffff1681526020016040518060400160405280610bb862ffffff1662ffffff16815260200161271062ffffff168152508152602001600960009054906101000a900473ffffffffffffffffffffffffffffffffffffffff1673ffffffffffffffffffffffffffffffffffffffff16815250908060018154018082558091505060019003906000526020600020906004020160009091909190915060008201518160000160006101000a81548160ff021916908360ff16021790555060208201518160000160016101000a81548173ffffffffffffffffffffffffffffffffffffffff021916908373ffffffffffffffffffffffffffffffffffffffff16021790555060408201518160010160006101000a81548173ffffffffffffffffffffffffffffffffffffffff021916908373ffffffffffffffffffffffffffffffffffffffff16021790555060608201518160020190600262000d2292919062001e8c565b5060808201518160030160006101000a81548173ffffffffffffffffffffffffffffffffffffffff021916908373ffffffffffffffffffffffffffffffffffffffff160217905550505060066040518060a00160405280600560ff16815260200173c011a73ee8576fb46f5e1c5751ca3b9fe0af2a6f73ffffffffffffffffffffffffffffffffffffffff16815260200173dc3ea94cd0ac27d9a86c180091e7f78c683d369973ffffffffffffffffffffffffffffffffffffffff1681526020016040518060400160405280610bb862ffffff1662ffffff16815260200161271062ffffff168152508152602001600960009054906101000a900473ffffffffffffffffffffffffffffffffffffffff1673ffffffffffffffffffffffffffffffffffffffff16815250908060018154018082558091505060019003906000526020600020906004020160009091909190915060008201518160000160006101000a81548160ff021916908360ff16021790555060208201518160000160016101000a81548173ffffffffffffffffffffffffffffffffffffffff021916908373ffffffffffffffffffffffffffffffffffffffff16021790555060408201518160010160006101000a81548173ffffffffffffffffffffffffffffffffffffffff021916908373ffffffffffffffffffffffffffffffffffffffff16021790555060608201518160020190600262000f3d92919062001e8c565b5060808201518160030160006101000a81548173ffffffffffffffffffffffffffffffffffffffff021916908373ffffffffffffffffffffffffffffffffffffffff160217905550505060066040518060a00160405280600560ff168152602001730bc529c00c6401aef6d220be8c6ea1667f6ad93e73ffffffffffffffffffffffffffffffffffffffff16815260200173a027702dbb89fbd58938e4324ac03b58d812b0e173ffffffffffffffffffffffffffffffffffffffff1681526020016040518060400160405280610bb862ffffff1662ffffff168152602001610bb862ffffff1662ffffff168152508152602001600960009054906101000a900473ffffffffffffffffffffffffffffffffffffffff1673ffffffffffffffffffffffffffffffffffffffff16815250908060018154018082558091505060019003906000526020600020906004020160009091909190915060008201518160000160006101000a81548160ff021916908360ff16021790555060208201518160000160016101000a81548173ffffffffffffffffffffffffffffffffffffffff021916908373ffffffffffffffffffffffffffffffffffffffff16021790555060408201518160010160006101000a81548173ffffffffffffffffffffffffffffffffffffffff021916908373ffffffffffffffffffffffffffffffffffffffff1602179055506060820151816002019060026200115d92919062001e8c565b5060808201518160030160006101000a81548173ffffffffffffffffffffffffffffffffffffffff021916908373ffffffffffffffffffffffffffffffffffffffff160217905550505060066040518060a00160405280600560ff16815260200173c00e94cb662c3520282e6f5717214004a7f2688873ffffffffffffffffffffffffffffffffffffffff16815260200173dbd020caef83efd542f4de03e3cf0c28a4428bd573ffffffffffffffffffffffffffffffffffffffff1681526020016040518060400160405280610bb862ffffff1662ffffff168152602001610bb862ffffff1662ffffff168152508152602001600960009054906101000a900473ffffffffffffffffffffffffffffffffffffffff1673ffffffffffffffffffffffffffffffffffffffff16815250908060018154018082558091505060019003906000526020600020906004020160009091909190915060008201518160000160006101000a81548160ff021916908360ff16021790555060208201518160000160016101000a81548173ffffffffffffffffffffffffffffffffffffffff021916908373ffffffffffffffffffffffffffffffffffffffff16021790555060408201518160010160006101000a81548173ffffffffffffffffffffffffffffffffffffffff021916908373ffffffffffffffffffffffffffffffffffffffff1602179055506060820151816002019060026200137d92919062001e8c565b5060808201518160030160006101000a81548173ffffffffffffffffffffffffffffffffffffffff021916908373ffffffffffffffffffffffffffffffffffffffff160217905550505060066040518060a00160405280600560ff168152602001739f8f72aa9304c8b593d555f12ef6589cc3a579a273ffffffffffffffffffffffffffffffffffffffff16815260200173ec1d1b3b0443256cc3860e24a46f108e699484aa73ffffffffffffffffffffffffffffffffffffffff1681526020016040518060400160405280610bb862ffffff1662ffffff168152602001610bb862ffffff1662ffffff168152508152602001600960009054906101000a900473ffffffffffffffffffffffffffffffffffffffff1673ffffffffffffffffffffffffffffffffffffffff16815250908060018154018082558091505060019003906000526020600020906004020160009091909190915060008201518160000160006101000a81548160ff021916908360ff16021790555060208201518160000160016101000a81548173ffffffffffffffffffffffffffffffffffffffff021916908373ffffffffffffffffffffffffffffffffffffffff16021790555060408201518160010160006101000a81548173ffffffffffffffffffffffffffffffffffffffff021916908373ffffffffffffffffffffffffffffffffffffffff1602179055506060820151816002019060026200159d92919062001e8c565b5060808201518160030160006101000a81548173ffffffffffffffffffffffffffffffffffffffff021916908373ffffffffffffffffffffffffffffffffffffffff160217905550505060066040518060a00160405280600a60ff168152602001736b3595068778dd592e39a122f4f5a5cf09c90fe273ffffffffffffffffffffffffffffffffffffffff16815260200173cc70f09a6cc17553b2e31954cd36e4a2d89501f773ffffffffffffffffffffffffffffffffffffffff1681526020016040518060400160405280610bb862ffffff1662ffffff168152602001610bb862ffffff1662ffffff168152508152602001600960009054906101000a900473ffffffffffffffffffffffffffffffffffffffff1673ffffffffffffffffffffffffffffffffffffffff16815250908060018154018082558091505060019003906000526020600020906004020160009091909190915060008201518160000160006101000a81548160ff021916908360ff16021790555060208201518160000160016101000a81548173ffffffffffffffffffffffffffffffffffffffff021916908373ffffffffffffffffffffffffffffffffffffffff16021790555060408201518160010160006101000a81548173ffffffffffffffffffffffffffffffffffffffff021916908373ffffffffffffffffffffffffffffffffffffffff160217905550606082015181600201906002620017bd92919062001e8c565b5060808201518160030160006101000a81548173ffffffffffffffffffffffffffffffffffffffff021916908373ffffffffffffffffffffffffffffffffffffffff160217905550505060066040518060a00160405280600a60ff168152602001734d224452801aced8b2f0aebe155379bb5d59438173ffffffffffffffffffffffffffffffffffffffff16815260200173d10abbc76679a20055e167bb80a24ac851b3705673ffffffffffffffffffffffffffffffffffffffff1681526020016040518060400160405280610bb862ffffff1662ffffff168152602001610bb862ffffff1662ffffff168152508152602001600960009054906101000a900473ffffffffffffffffffffffffffffffffffffffff1673ffffffffffffffffffffffffffffffffffffffff16815250908060018154018082558091505060019003906000526020600020906004020160009091909190915060008201518160000160006101000a81548160ff021916908360ff16021790555060208201518160000160016101000a81548173ffffffffffffffffffffffffffffffffffffffff021916908373ffffffffffffffffffffffffffffffffffffffff16021790555060408201518160010160006101000a81548173ffffffffffffffffffffffffffffffffffffffff021916908373ffffffffffffffffffffffffffffffffffffffff160217905550606082015181600201906002620019dd92919062001e8c565b5060808201518160030160006101000a81548173ffffffffffffffffffffffffffffffffffffffff021916908373ffffffffffffffffffffffffffffffffffffffff160217905550505060066040518060a00160405280600560ff16815260200173d533a949740bb3306d119cc777fa900ba034cd5273ffffffffffffffffffffffffffffffffffffffff16815260200173cd627aa160a6fa45eb793d19ef54f5062f20f33f73ffffffffffffffffffffffffffffffffffffffff1681526020016040518060400160405280610bb862ffffff1662ffffff16815260200161271062ffffff168152508152602001600960009054906101000a900473ffffffffffffffffffffffffffffffffffffffff1673ffffffffffffffffffffffffffffffffffffffff16815250908060018154018082558091505060019003906000526020600020906004020160009091909190915060008201518160000160006101000a81548160ff021916908360ff16021790555060208201518160000160016101000a81548173ffffffffffffffffffffffffffffffffffffffff021916908373ffffffffffffffffffffffffffffffffffffffff16021790555060408201518160010160006101000a81548173ffffffffffffffffffffffffffffffffffffffff021916908373ffffffffffffffffffffffffffffffffffffffff16021790555060608201518160020190600262001bf892919062001e8c565b5060808201518160030160006101000a81548173ffffffffffffffffffffffffffffffffffffffff021916908373ffffffffffffffffffffffffffffffffffffffff160217905550505060066040518060a00160405280600560ff16815260200173e28b3b32b6c345a34ff64674606124dd5aceca3073ffffffffffffffffffffffffffffffffffffffff16815260200173ae2ebe3c4d20ce13ce47cbb49b6d7ee631cd816e73ffffffffffffffffffffffffffffffffffffffff1681526020016040518060400160405280610bb862ffffff1662ffffff168152602001610bb862ffffff1662ffffff168152508152602001600960009054906101000a900473ffffffffffffffffffffffffffffffffffffffff1673ffffffffffffffffffffffffffffffffffffffff16815250908060018154018082558091505060019003906000526020600020906004020160009091909190915060008201518160000160006101000a81548160ff021916908360ff16021790555060208201518160000160016101000a81548173ffffffffffffffffffffffffffffffffffffffff021916908373ffffffffffffffffffffffffffffffffffffffff16021790555060408201518160010160006101000a81548173ffffffffffffffffffffffffffffffffffffffff021916908373ffffffffffffffffffffffffffffffffffffffff16021790555060608201518160020190600262001e1892919062001e8c565b5060808201518160030160006101000a81548173ffffffffffffffffffffffffffffffffffffffff021916908373ffffffffffffffffffffffffffffffffffffffff1602179055505050620020b5565b600033905090565b6112e9806200626d83390190565b61025d806200755683390190565b826002600901600a9004810192821562001f205791602002820160005b8382111562001eed57835183826101000a81548162ffffff021916908362ffffff160217905550926020019260030160208160020104928301926001030262001ea9565b801562001f1e5782816101000a81549062ffffff021916905560030160208160020104928301926001030262001eed565b505b50905062001f2f919062001f33565b5090565b5b8082111562001f4e57600081600090555060010162001f34565b5090565b62001f5d8162002060565b82525050565b62001f6e81620020a1565b82525050565b600062001f836007836200204f565b91507f43525950544958000000000000000000000000000000000000000000000000006000830152602082019050919050565b600062001fc56012836200204f565b91507f43727970746f20696e64657820746f6b656e00000000000000000000000000006000830152602082019050919050565b60006080820190506200200f600083018562001f52565b8181036020830152620020228162001fb6565b905062002033604083018462001f63565b8181036060830152620020468162001f74565b90509392505050565b600082825260208201905092915050565b60006200206d8262002074565b9050919050565b600073ffffffffffffffffffffffffffffffffffffffff82169050919050565b600060ff82169050919050565b6000620020ae8262002094565b9050919050565b60805160601c614190620020dd600039806121fd5280612afb5280612b4a52506141906000f3fe6080604052600436106101735760003560e01c806306fdde031461017857806313a7e54e146101a35780631da98960146101cc57806339cb683d146101f75780633d956691146102205780634f64b2be1461024b57806360ebbf811461028b57806366869d95146102b6578063715018a6146102e15780638da5cb5b146102f85780638e96347b1461032357806395d89b411461034e57806398d5fdca1461037957806399a5d747146103a457806399d50d5d146103e2578063a4e2d6341461040d578063ad5c464814610438578063b759791414610463578063ba25d9441461048e578063c20120b5146104b9578063cd844554146104e4578063ced72f8714610521578063d96a094a1461054d578063e4849b3214610576578063e7d015f21461059f578063ea4c1b45146105ca578063eed8c66d146105d4578063ef5bf5c8146105ff578063f2fde38b1461063c578063f3ccaac014610665578063f510d90814610690578063fa2dcd93146106a7575b600080fd5b34801561018457600080fd5b5061018d6106be565b60405161019a9190613c44565b60405180910390f35b3480156101af57600080fd5b506101ca60048036038101906101c59190613577565b6106fb565b005b3480156101d857600080fd5b506101e16107d0565b6040516101ee9190613c44565b60405180910390f35b34801561020357600080fd5b5061021e60048036038101906102199190613525565b6107f0565b005b34801561022c57600080fd5b50610235610b48565b6040516102429190613d44565b60405180910390f35b34801561025757600080fd5b50610272600480360381019061026d9190613525565b610b4e565b6040516102829493929190613d88565b60405180910390f35b34801561029757600080fd5b506102a0610bfb565b6040516102ad9190613b48565b60405180910390f35b3480156102c257600080fd5b506102cb610c21565b6040516102d89190613d44565b60405180910390f35b3480156102ed57600080fd5b506102f6610c27565b005b34801561030457600080fd5b5061030d610d94565b60405161031a9190613b48565b60405180910390f35b34801561032f57600080fd5b50610338610dbd565b6040516103459190613d44565b60405180910390f35b34801561035a57600080fd5b50610363610dc3565b6040516103709190613c44565b60405180910390f35b34801561038557600080fd5b5061038e610e00565b60405161039b9190613d44565b60405180910390f35b3480156103b057600080fd5b506103cb60048036038101906103c69190613525565b6110ea565b6040516103d9929190613d5f565b60405180910390f35b3480156103ee57600080fd5b506103f761114e565b6040516104049190613bec565b60405180910390f35b34801561041957600080fd5b5061042261133b565b60405161042f9190613c0e565b60405180910390f35b34801561044457600080fd5b5061044d61134e565b60405161045a9190613b48565b60405180910390f35b34801561046f57600080fd5b50610478611374565b6040516104859190613d44565b60405180910390f35b34801561049a57600080fd5b506104a36116e2565b6040516104b09190613c44565b60405180910390f35b3480156104c557600080fd5b506104ce611702565b6040516104db9190613c0e565b60405180910390f35b3480156104f057600080fd5b5061050b600480360381019061050691906134fc565b611719565b6040516105189190613d44565b60405180910390f35b34801561052d57600080fd5b506105366117d1565b604051610544929190613d5f565b60405180910390f35b34801561055957600080fd5b50610574600480360381019061056f9190613525565b6117f5565b005b34801561058257600080fd5b5061059d60048036038101906105989190613525565b611bae565b005b3480156105ab57600080fd5b506105b4611f38565b6040516105c19190613c29565b60405180910390f35b6105d2611f5e565b005b3480156105e057600080fd5b506105e96127d9565b6040516105f69190613d44565b60405180910390f35b34801561060b57600080fd5b50610626600480360381019061062191906134aa565b6127df565b6040516106339190613d44565b60405180910390f35b34801561064857600080fd5b50610663600480360381019061065e91906134aa565b6127f7565b005b34801561067157600080fd5b5061067a6129e9565b6040516106879190613c44565b60405180910390f35b34801561069c57600080fd5b506106a5612a09565b005b3480156106b357600080fd5b506106bc612b73565b005b60606040518060400160405280600b81526020017f43727970746f496e646578000000000000000000000000000000000000000000815250905090565b610703612c4f565b73ffffffffffffffffffffffffffffffffffffffff16610721610d94565b73ffffffffffffffffffffffffffffffffffffffff16146107aa576040517f08c379a00000000000000000000000000000000000000000000000000000000081526004018080602001828103825260208152602001807f4f776e61626c653a2063616c6c6572206973206e6f7420746865206f776e657281525060200191505060405180910390fd5b81600260156101000a81548160ff021916908360ff160217905550806003819055505050565b606060405180608001604052806049815260200161411260499139905090565b60026001541415610869576040517f08c379a000000000000000000000000000000000000000000000000000000000815260040180806020018281038252601f8152602001807f5265656e7472616e637947756172643a207265656e7472616e742063616c6c0081525060200191505060405180910390fd5b6002600181905550600560009054906101000a900460ff16156108c1576040517f08c379a00000000000000000000000000000000000000000000000000000000081526004016108b890613ca6565b60405180910390fd5b600260009054906101000a900460ff1615610911576040517f08c379a000000000000000000000000000000000000000000000000000000000815260040161090890613cc6565b60405180910390fd5b600061096582600e60003373ffffffffffffffffffffffffffffffffffffffff1673ffffffffffffffffffffffffffffffffffffffff16815260200190815260200160002054612c5790919063ffffffff16565b116109a5576040517f08c379a000000000000000000000000000000000000000000000000000000000815260040161099c90613c66565b60405180910390fd5b6109f781600e60003373ffffffffffffffffffffffffffffffffffffffff1673ffffffffffffffffffffffffffffffffffffffff16815260200190815260200160002054612c5790919063ffffffff16565b600e60003373ffffffffffffffffffffffffffffffffffffffff1673ffffffffffffffffffffffffffffffffffffffff16815260200190815260200160002081905550610a4f81600d54612c5790919063ffffffff16565b600d81905550600260019054906101000a900473ffffffffffffffffffffffffffffffffffffffff1673ffffffffffffffffffffffffffffffffffffffff1663a9059cbb33836040518363ffffffff1660e01b8152600401610ab2929190613b63565b602060405180830381600087803b158015610acc57600080fd5b505af1158015610ae0573d6000803e3d6000fd5b505050506040513d601f19601f82011682018060405250810190610b0491906134d3565b507f152a793a1c0b3c4f63c36f92139ab735e60f27cd005a6dd2fd0154687bfeded13382604051610b36929190613b63565b60405180910390a16001808190555050565b600b5481565b60068181548110610b5e57600080fd5b90600052602060002090600402016000915090508060000160009054906101000a900460ff16908060000160019054906101000a900473ffffffffffffffffffffffffffffffffffffffff16908060010160009054906101000a900473ffffffffffffffffffffffffffffffffffffffff16908060030160009054906101000a900473ffffffffffffffffffffffffffffffffffffffff16905084565b600260019054906101000a900473ffffffffffffffffffffffffffffffffffffffff1681565b600d5481565b610c2f612c4f565b73ffffffffffffffffffffffffffffffffffffffff16610c4d610d94565b73ffffffffffffffffffffffffffffffffffffffff1614610cd6576040517f08c379a00000000000000000000000000000000000000000000000000000000081526004018080602001828103825260208152602001807f4f776e61626c653a2063616c6c6572206973206e6f7420746865206f776e657281525060200191505060405180910390fd5b600073ffffffffffffffffffffffffffffffffffffffff1660008054906101000a900473ffffffffffffffffffffffffffffffffffffffff1673ffffffffffffffffffffffffffffffffffffffff167f8be0079c531659141344cd1fd0a4f28419497f9722a3daafe3b4186f6b6457e060405160405180910390a360008060006101000a81548173ffffffffffffffffffffffffffffffffffffffff021916908373ffffffffffffffffffffffffffffffffffffffff160217905550565b60008060009054906101000a900473ffffffffffffffffffffffffffffffffffffffff16905090565b600c5481565b60606040518060400160405280600781526020017f4352595054495800000000000000000000000000000000000000000000000000815250905090565b60008060005b6006805490508110156110ce57610e1b613294565b60068281548110610e2857fe5b90600052602060002090600402016040518060a00160405290816000820160009054906101000a900460ff1660ff1660ff1681526020016000820160019054906101000a900473ffffffffffffffffffffffffffffffffffffffff1673ffffffffffffffffffffffffffffffffffffffff1673ffffffffffffffffffffffffffffffffffffffff1681526020016001820160009054906101000a900473ffffffffffffffffffffffffffffffffffffffff1673ffffffffffffffffffffffffffffffffffffffff1673ffffffffffffffffffffffffffffffffffffffff16815260200160028201600280602002604051908101604052809291908260028015610f70576020028201916000905b82829054906101000a900462ffffff1662ffffff1681526020019060030190602082600201049283019260010382029150808411610f355790505b505050505081526020016003820160009054906101000a900473ffffffffffffffffffffffffffffffffffffffff1673ffffffffffffffffffffffffffffffffffffffff1673ffffffffffffffffffffffffffffffffffffffff168152505090506110be6110af826000015160ff166110a16064600760009054906101000a900473ffffffffffffffffffffffffffffffffffffffff1673ffffffffffffffffffffffffffffffffffffffff166341976e0987604001516040518263ffffffff1660e01b81526004016110439190613b48565b60206040518083038186803b15801561105b57600080fd5b505afa15801561106f573d6000803e3d6000fd5b505050506040513d601f19601f82011682018060405250810190611093919061354e565b612cda90919063ffffffff16565b612d6390919063ffffffff16565b84612de990919063ffffffff16565b9250508080600101915050610e06565b506110e460045482612cda90919063ffffffff16565b91505090565b6000806000611128600260159054906101000a900460ff1660ff1661111a60035487612cda90919063ffffffff16565b612d6390919063ffffffff16565b9050600061113f8286612c5790919063ffffffff16565b90508181935093505050915091565b60606006805480602002602001604051908101604052809291908181526020016000905b8282101561133257838290600052602060002090600402016040518060a00160405290816000820160009054906101000a900460ff1660ff1660ff1681526020016000820160019054906101000a900473ffffffffffffffffffffffffffffffffffffffff1673ffffffffffffffffffffffffffffffffffffffff1673ffffffffffffffffffffffffffffffffffffffff1681526020016001820160009054906101000a900473ffffffffffffffffffffffffffffffffffffffff1673ffffffffffffffffffffffffffffffffffffffff1673ffffffffffffffffffffffffffffffffffffffff168152602001600282016002806020026040519081016040528092919082600280156112c4576020028201916000905b82829054906101000a900462ffffff1662ffffff16815260200190600301906020826002010492830192600103820291508084116112895790505b505050505081526020016003820160009054906101000a900473ffffffffffffffffffffffffffffffffffffffff1673ffffffffffffffffffffffffffffffffffffffff1673ffffffffffffffffffffffffffffffffffffffff168152505081526020019060010190611172565b50505050905090565b600260009054906101000a900460ff1681565b600960009054906101000a900473ffffffffffffffffffffffffffffffffffffffff1681565b60008060005b6006805490508110156116da5761138f613294565b6006828154811061139c57fe5b90600052602060002090600402016040518060a00160405290816000820160009054906101000a900460ff1660ff1660ff1681526020016000820160019054906101000a900473ffffffffffffffffffffffffffffffffffffffff1673ffffffffffffffffffffffffffffffffffffffff1673ffffffffffffffffffffffffffffffffffffffff1681526020016001820160009054906101000a900473ffffffffffffffffffffffffffffffffffffffff1673ffffffffffffffffffffffffffffffffffffffff1673ffffffffffffffffffffffffffffffffffffffff168152602001600282016002806020026040519081016040528092919082600280156114e4576020028201916000905b82829054906101000a900462ffffff1662ffffff16815260200190600301906020826002010492830192600103820291508084116114a95790505b505050505081526020016003820160009054906101000a900473ffffffffffffffffffffffffffffffffffffffff1673ffffffffffffffffffffffffffffffffffffffff1673ffffffffffffffffffffffffffffffffffffffff168152505090506000816020015190506000611699600760009054906101000a900473ffffffffffffffffffffffffffffffffffffffff1673ffffffffffffffffffffffffffffffffffffffff166341976e0985604001516040518263ffffffff1660e01b81526004016115b29190613b48565b60206040518083038186803b1580156115ca57600080fd5b505afa1580156115de573d6000803e3d6000fd5b505050506040513d601f19601f82011682018060405250810190611602919061354e565b8373ffffffffffffffffffffffffffffffffffffffff166370a08231306040518263ffffffff1660e01b815260040161163b9190613b48565b60206040518083038186803b15801561165357600080fd5b505afa158015611667573d6000803e3d6000fd5b505050506040513d601f19601f8201168201806040525081019061168b919061354e565b612d6390919063ffffffff16565b90506116c86116b9670de0b6b3a764000083612cda90919063ffffffff16565b86612de990919063ffffffff16565b9450505050808060010191505061137a565b508091505090565b606060405180608001604052806049815260200161411260499139905090565b6000600560009054906101000a900460ff16905090565b6000600760009054906101000a900473ffffffffffffffffffffffffffffffffffffffff1673ffffffffffffffffffffffffffffffffffffffff166341976e0983604001516040518263ffffffff1660e01b815260040161177a9190613b48565b60206040518083038186803b15801561179257600080fd5b505afa1580156117a6573d6000803e3d6000fd5b505050506040513d601f19601f820116820180604052508101906117ca919061354e565b9050919050565b600080600260159054906101000a900460ff166003548160ff169150915091509091565b6002600154141561186e576040517f08c379a000000000000000000000000000000000000000000000000000000000815260040180806020018281038252601f8152602001807f5265656e7472616e637947756172643a207265656e7472616e742063616c6c0081525060200191505060405180910390fd5b6002600181905550600560009054906101000a900460ff16156118c6576040517f08c379a00000000000000000000000000000000000000000000000000000000081526004016118bd90613ca6565b60405180910390fd5b60006118d0610e00565b90506000806118de846110ea565b915091506001811015611926576040517f08c379a000000000000000000000000000000000000000000000000000000000815260040161191d90613c86565b60405180910390fd5b6000611955670de0b6b3a76400006119478685612d6390919063ffffffff16565b612cda90919063ffffffff16565b905061196c81600c54612de990919063ffffffff16565b600c81905550600860009054906101000a900473ffffffffffffffffffffffffffffffffffffffff1673ffffffffffffffffffffffffffffffffffffffff1663a9059cbb33846040518363ffffffff1660e01b81526004016119cf929190613b63565b602060405180830381600087803b1580156119e957600080fd5b505af11580156119fd573d6000803e3d6000fd5b505050506040513d601f19601f82011682018060405250810190611a2191906134d3565b50611a7c600260019054906101000a900473ffffffffffffffffffffffffffffffffffffffff163330611a77670de0b6b3a7640000611a698a8c612d6390919063ffffffff16565b612cda90919063ffffffff16565b612e71565b6000600260019054906101000a900473ffffffffffffffffffffffffffffffffffffffff1690508073ffffffffffffffffffffffffffffffffffffffff1663a9059cbb611ac7610d94565b611af4670de0b6b3a7640000611ae68a8a612d6390919063ffffffff16565b612cda90919063ffffffff16565b6040518363ffffffff1660e01b8152600401611b11929190613bc3565b602060405180830381600087803b158015611b2b57600080fd5b505af1158015611b3f573d6000803e3d6000fd5b505050506040513d601f19601f82011682018060405250810190611b6391906134d3565b507fc032f62758cac23a902e648ab54b6825665b9bc19e7cd0a8ab915cbf3eea4fa0338385604051611b9793929190613b8c565b60405180910390a150505050506001808190555050565b60026001541415611c27576040517f08c379a000000000000000000000000000000000000000000000000000000000815260040180806020018281038252601f8152602001807f5265656e7472616e637947756172643a207265656e7472616e742063616c6c0081525060200191505060405180910390fd5b6002600181905550600560009054906101000a900460ff1615611c7f576040517f08c379a0000000000000000000000000000000000000000000000000000000008152600401611c7690613ca6565b60405180910390fd5b600260009054906101000a900460ff1615611ccf576040517f08c379a0000000000000000000000000000000000000000000000000000000008152600401611cc690613cc6565b60405180910390fd5b600080611cdb836110ea565b915091506001811015611d23576040517f08c379a0000000000000000000000000000000000000000000000000000000008152600401611d1a90613ce6565b60405180910390fd5b6000611d59670de0b6b3a7640000611d4b611d3c610e00565b85612d6390919063ffffffff16565b612cda90919063ffffffff16565b9050611dad81600e60003373ffffffffffffffffffffffffffffffffffffffff1673ffffffffffffffffffffffffffffffffffffffff16815260200190815260200160002054612de990919063ffffffff16565b600e60003373ffffffffffffffffffffffffffffffffffffffff1673ffffffffffffffffffffffffffffffffffffffff16815260200190815260200160002081905550611e05600b5483612de990919063ffffffff16565b600b81905550611e39600860009054906101000a900473ffffffffffffffffffffffffffffffffffffffff16333087612e71565b600860009054906101000a900473ffffffffffffffffffffffffffffffffffffffff1673ffffffffffffffffffffffffffffffffffffffff1663a9059cbb611e7f610d94565b856040518363ffffffff1660e01b8152600401611e9d929190613bc3565b602060405180830381600087803b158015611eb757600080fd5b505af1158015611ecb573d6000803e3d6000fd5b505050506040513d601f19601f82011682018060405250810190611eef91906134d3565b507fc779ed4173ee0a3293a6575326fb4fcb5c81023bbc481cf910100c0fbe836e33338284604051611f2393929190613b8c565b60405180910390a15050506001808190555050565b600860009054906101000a900473ffffffffffffffffffffffffffffffffffffffff1681565b611f66612c4f565b73ffffffffffffffffffffffffffffffffffffffff16611f84610d94565b73ffffffffffffffffffffffffffffffffffffffff161461200d576040517f08c379a00000000000000000000000000000000000000000000000000000000081526004018080602001828103825260208152602001807f4f776e61626c653a2063616c6c6572206973206e6f7420746865206f776e657281525060200191505060405180910390fd5b6001600a60008282540192505081905550600160068054905003600a541115612039576000600a819055505b612041613294565b6006600a548154811061205057fe5b90600052602060002090600402016040518060a00160405290816000820160009054906101000a900460ff1660ff1660ff1681526020016000820160019054906101000a900473ffffffffffffffffffffffffffffffffffffffff1673ffffffffffffffffffffffffffffffffffffffff1673ffffffffffffffffffffffffffffffffffffffff1681526020016001820160009054906101000a900473ffffffffffffffffffffffffffffffffffffffff1673ffffffffffffffffffffffffffffffffffffffff1673ffffffffffffffffffffffffffffffffffffffff16815260200160028201600280602002604051908101604052809291908260028015612198576020028201916000905b82829054906101000a900462ffffff1662ffffff168152602001906003019060208260020104928301926001038202915080841161215d5790505b505050505081526020016003820160009054906101000a900473ffffffffffffffffffffffffffffffffffffffff1673ffffffffffffffffffffffffffffffffffffffff1673ffffffffffffffffffffffffffffffffffffffff1681525050905060007f00000000000000000000000000000000000000000000000000000000000000009050600061224f836000015160ff166122416064600c54612cda90919063ffffffff16565b612d6390919063ffffffff16565b90506000612282846000015160ff166122746064600b54612cda90919063ffffffff16565b612d6390919063ffffffff16565b90506000600760009054906101000a900473ffffffffffffffffffffffffffffffffffffffff1673ffffffffffffffffffffffffffffffffffffffff166341976e0986604001516040518263ffffffff1660e01b81526004016122e59190613b48565b60206040518083038186803b1580156122fd57600080fd5b505afa158015612311573d6000803e3d6000fd5b505050506040513d601f19601f82011682018060405250810190612335919061354e565b9050600083111561264557600073ffffffffffffffffffffffffffffffffffffffff16856080015173ffffffffffffffffffffffffffffffffffffffff1614156124ee578373ffffffffffffffffffffffffffffffffffffffff1663414bf389604051806101000160405280600260019054906101000a900473ffffffffffffffffffffffffffffffffffffffff1673ffffffffffffffffffffffffffffffffffffffff168152602001886020015173ffffffffffffffffffffffffffffffffffffffff168152602001886060015160006002811061241057fe5b602002015162ffffff1681526020013073ffffffffffffffffffffffffffffffffffffffff16815260200142815260200186815260200161245a8588612cda90919063ffffffff16565b8152602001600073ffffffffffffffffffffffffffffffffffffffff168152506040518263ffffffff1660e01b81526004016124969190613d28565b602060405180830381600087803b1580156124b057600080fd5b505af11580156124c4573d6000803e3d6000fd5b505050506040513d601f19601f820116820180604052508101906124e8919061354e565b50612644565b8373ffffffffffffffffffffffffffffffffffffffff1663c04b8d596040518060a00160405280600260019054906101000a900473ffffffffffffffffffffffffffffffffffffffff16896060015160006002811061254957fe5b60200201518a608001518b6060015160016002811061256457fe5b60200201518c60200151604051602001612582959493929190613ae9565b60405160208183030381529060405281526020013073ffffffffffffffffffffffffffffffffffffffff1681526020014281526020018681526020016125d18588612cda90919063ffffffff16565b8152506040518263ffffffff1660e01b81526004016125f09190613d06565b602060405180830381600087803b15801561260a57600080fd5b505af115801561261e573d6000803e3d6000fd5b505050506040513d601f19601f82011682018060405250810190612642919061354e565b505b5b60008211156127d2576127d08473ffffffffffffffffffffffffffffffffffffffff1663c04b8d596040518060a0016040528089602001518a6060015160016002811061268e57fe5b60200201518b608001518c606001516000600281106126a957fe5b6020020151600260019054906101000a900473ffffffffffffffffffffffffffffffffffffffff166040516020016126e5959493929190613ae9565b60405160208183030381529060405281526020013073ffffffffffffffffffffffffffffffffffffffff16815260200142815260200186815260200161274e670de0b6b3a7640000612740888a612d6390919063ffffffff16565b612cda90919063ffffffff16565b8152506040518263ffffffff1660e01b815260040161276d9190613d06565b602060405180830381600087803b15801561278757600080fd5b505af115801561279b573d6000803e3d6000fd5b505050506040513d601f19601f820116820180604052508101906127bf919061354e565b600d54612de990919063ffffffff16565b505b5050505050565b600a5481565b600e6020528060005260406000206000915090505481565b6127ff612c4f565b73ffffffffffffffffffffffffffffffffffffffff1661281d610d94565b73ffffffffffffffffffffffffffffffffffffffff16146128a6576040517f08c379a00000000000000000000000000000000000000000000000000000000081526004018080602001828103825260208152602001807f4f776e61626c653a2063616c6c6572206973206e6f7420746865206f776e657281525060200191505060405180910390fd5b600073ffffffffffffffffffffffffffffffffffffffff168173ffffffffffffffffffffffffffffffffffffffff16141561292c576040517f08c379a000000000000000000000000000000000000000000000000000000000815260040180806020018281038252602681526020018061408a6026913960400191505060405180910390fd5b8073ffffffffffffffffffffffffffffffffffffffff1660008054906101000a900473ffffffffffffffffffffffffffffffffffffffff1673ffffffffffffffffffffffffffffffffffffffff167f8be0079c531659141344cd1fd0a4f28419497f9722a3daafe3b4186f6b6457e060405160405180910390a3806000806101000a81548173ffffffffffffffffffffffffffffffffffffffff021916908373ffffffffffffffffffffffffffffffffffffffff16021790555050565b60606040518060800160405280604181526020016140b060419139905090565b612a11612c4f565b73ffffffffffffffffffffffffffffffffffffffff16612a2f610d94565b73ffffffffffffffffffffffffffffffffffffffff1614612ab8576040517f08c379a00000000000000000000000000000000000000000000000000000000081526004018080602001828103825260208152602001807f4f776e61626c653a2063616c6c6572206973206e6f7420746865206f776e657281525060200191505060405180910390fd5b6001600560006101000a81548160ff021916908315150217905550612b22600260019054906101000a900473ffffffffffffffffffffffffffffffffffffffff167f0000000000000000000000000000000000000000000000000000000000000000600c54613092565b612b71600860009054906101000a900473ffffffffffffffffffffffffffffffffffffffff167f0000000000000000000000000000000000000000000000000000000000000000600b54613092565b565b612b7b612c4f565b73ffffffffffffffffffffffffffffffffffffffff16612b99610d94565b73ffffffffffffffffffffffffffffffffffffffff1614612c22576040517f08c379a00000000000000000000000000000000000000000000000000000000081526004018080602001828103825260208152602001807f4f776e61626c653a2063616c6c6572206973206e6f7420746865206f776e657281525060200191505060405180910390fd5b6000600c819055506000600b819055506000600560006101000a81548160ff021916908315150217905550565b600033905090565b600082821115612ccf576040517f08c379a000000000000000000000000000000000000000000000000000000000815260040180806020018281038252601e8152602001807f536166654d6174683a207375627472616374696f6e206f766572666c6f77000081525060200191505060405180910390fd5b818303905092915050565b6000808211612d51576040517f08c379a000000000000000000000000000000000000000000000000000000000815260040180806020018281038252601a8152602001807f536166654d6174683a206469766973696f6e206279207a65726f00000000000081525060200191505060405180910390fd5b818381612d5a57fe5b04905092915050565b600080831415612d765760009050612de3565b6000828402905082848281612d8757fe5b0414612dde576040517f08c379a00000000000000000000000000000000000000000000000000000000081526004018080602001828103825260218152602001806140f16021913960400191505060405180910390fd5b809150505b92915050565b600080828401905083811015612e67576040517f08c379a000000000000000000000000000000000000000000000000000000000815260040180806020018281038252601b8152602001807f536166654d6174683a206164646974696f6e206f766572666c6f77000000000081525060200191505060405180910390fd5b8091505092915050565b600060608573ffffffffffffffffffffffffffffffffffffffff166323b872dd60e01b868686604051602401808473ffffffffffffffffffffffffffffffffffffffff1681526020018373ffffffffffffffffffffffffffffffffffffffff1681526020018281526020019350505050604051602081830303815290604052907bffffffffffffffffffffffffffffffffffffffffffffffffffffffff19166020820180517bffffffffffffffffffffffffffffffffffffffffffffffffffffffff83818316178352505050506040518082805190602001908083835b60208310612f715780518252602082019150602081019050602083039250612f4e565b6001836020036101000a0380198251168184511680821785525050505050509050019150506000604051808303816000865af19150503d8060008114612fd3576040519150601f19603f3d011682016040523d82523d6000602084013e612fd8565b606091505b50915091508180156130185750600081511480613017575080806020019051602081101561300557600080fd5b81019080805190602001909291905050505b5b61308a576040517f08c379a00000000000000000000000000000000000000000000000000000000081526004018080602001828103825260038152602001807f535446000000000000000000000000000000000000000000000000000000000081525060200191505060405180910390fd5b505050505050565b600060608473ffffffffffffffffffffffffffffffffffffffff1663095ea7b360e01b8585604051602401808373ffffffffffffffffffffffffffffffffffffffff16815260200182815260200192505050604051602081830303815290604052907bffffffffffffffffffffffffffffffffffffffffffffffffffffffff19166020820180517bffffffffffffffffffffffffffffffffffffffffffffffffffffffff83818316178352505050506040518082805190602001908083835b602083106131745780518252602082019150602081019050602083039250613151565b6001836020036101000a0380198251168184511680821785525050505050509050019150506000604051808303816000865af19150503d80600081146131d6576040519150601f19603f3d011682016040523d82523d6000602084013e6131db565b606091505b509150915081801561321b575060008151148061321a575080806020019051602081101561320857600080fd5b81019080805190602001909291905050505b5b61328d576040517f08c379a00000000000000000000000000000000000000000000000000000000081526004018080602001828103825260028152602001807f534100000000000000000000000000000000000000000000000000000000000081525060200191505060405180910390fd5b5050505050565b6040518060a00160405280600060ff168152602001600073ffffffffffffffffffffffffffffffffffffffff168152602001600073ffffffffffffffffffffffffffffffffffffffff1681526020016132eb61330e565b8152602001600073ffffffffffffffffffffffffffffffffffffffff1681525090565b6040518060400160405280600290602082028036833780820191505090505090565b60008135905061333f81614016565b92915050565b600082601f83011261335657600080fd5b600261336961336482613dfe565b613dcd565b9150818385602084028201111561337f57600080fd5b60005b838110156133af57816133958882613456565b845260208401935060208301925050600181019050613382565b5050505092915050565b6000815190506133c88161402d565b92915050565b600060c082840312156133e057600080fd5b6133ea60a0613dcd565b905060006133fa84828501613495565b600083015250602061340e84828501613330565b602083015250604061342284828501613330565b604083015250606061343684828501613345565b60608301525060a061344a84828501613330565b60808301525092915050565b60008135905061346581614044565b92915050565b60008135905061347a8161405b565b92915050565b60008151905061348f8161405b565b92915050565b6000813590506134a481614072565b92915050565b6000602082840312156134bc57600080fd5b60006134ca84828501613330565b91505092915050565b6000602082840312156134e557600080fd5b60006134f3848285016133b9565b91505092915050565b600060c0828403121561350e57600080fd5b600061351c848285016133ce565b91505092915050565b60006020828403121561353757600080fd5b60006135458482850161346b565b91505092915050565b60006020828403121561356057600080fd5b600061356e84828501613480565b91505092915050565b6000806040838503121561358a57600080fd5b600061359885828601613495565b92505060206135a98582860161346b565b9150509250929050565b60006135bf8383613a10565b60c08301905092915050565b60006135d78383613a87565b60208301905092915050565b6135ec81613f26565b82525050565b6135fb81613ec2565b82525050565b61360a81613ec2565b82525050565b61362161361c82613ec2565b613fb3565b82525050565b600061363282613e3e565b61363c8185613e84565b935061364783613e24565b8060005b8381101561367857815161365f88826135b3565b975061366a83613e6a565b92505060018101905061364b565b5085935050505092915050565b61368e81613e49565b6136988184613e95565b92506136a382613e34565b8060005b838110156136d45781516136bb87826135cb565b96506136c683613e77565b9250506001810190506136a7565b505050505050565b6136e581613ed4565b82525050565b60006136f682613e54565b6137008185613ea0565b9350613710818560208601613f80565b61371981613feb565b840191505092915050565b61372d81613f38565b82525050565b600061373e82613e5f565b6137488185613eb1565b9350613758818560208601613f80565b61376181613feb565b840191505092915050565b6000613779602e83613eb1565b91507f4e6f7420656e6f75676820646562742c207472792073656c6c696e6720796f7560008301527f7220746f6b656e732066697273740000000000000000000000000000000000006020830152604082019050919050565b60006137df601683613eb1565b91507f4e6f7420656e6f75676820746f6b656e732073656e74000000000000000000006000830152602082019050919050565b600061381f602983613eb1565b91507f50726f64756374206973206265696e6720736574746c65642c2074727920616760008301527f61696e206c6174657200000000000000000000000000000000000000000000006020830152604082019050919050565b6000613885601183613eb1565b91507f50726f64756374206973206c6f636b65640000000000000000000000000000006000830152602082019050919050565b60006138c5601983613eb1565b91507f596f75206d7573742073656c6c206d6f726520746f6b656e73000000000000006000830152602082019050919050565b600060a083016000830151848203600086015261391582826136eb565b915050602083015161392a60208601826135f2565b50604083015161393d6040860182613aad565b5060608301516139506060860182613aad565b5060808301516139636080860182613aad565b508091505092915050565b6101008201600082015161398560008501826135f2565b50602082015161399860208501826135f2565b5060408201516139ab6040850182613a87565b5060608201516139be60608501826135f2565b5060808201516139d16080850182613aad565b5060a08201516139e460a0850182613aad565b5060c08201516139f760c0850182613aad565b5060e0820151613a0a60e0850182613a78565b50505050565b60c082016000820151613a266000850182613acb565b506020820151613a3960208501826135f2565b506040820151613a4c60408501826135f2565b506060820151613a5f6060850182613685565b506080820151613a7260a08501826135f2565b50505050565b613a8181613ee0565b82525050565b613a9081613f00565b82525050565b613aa7613aa282613f00565b613fd7565b82525050565b613ab681613f0f565b82525050565b613ac581613f0f565b82525050565b613ad481613f19565b82525050565b613ae381613f19565b82525050565b6000613af58288613610565b601482019150613b058287613a96565b600382019150613b158286613610565b601482019150613b258285613a96565b600382019150613b358284613610565b6014820191508190509695505050505050565b6000602082019050613b5d6000830184613601565b92915050565b6000604082019050613b7860008301856135e3565b613b856020830184613abc565b9392505050565b6000606082019050613ba160008301866135e3565b613bae6020830185613abc565b613bbb6040830184613abc565b949350505050565b6000604082019050613bd86000830185613601565b613be56020830184613abc565b9392505050565b60006020820190508181036000830152613c068184613627565b905092915050565b6000602082019050613c2360008301846136dc565b92915050565b6000602082019050613c3e6000830184613724565b92915050565b60006020820190508181036000830152613c5e8184613733565b905092915050565b60006020820190508181036000830152613c7f8161376c565b9050919050565b60006020820190508181036000830152613c9f816137d2565b9050919050565b60006020820190508181036000830152613cbf81613812565b9050919050565b60006020820190508181036000830152613cdf81613878565b9050919050565b60006020820190508181036000830152613cff816138b8565b9050919050565b60006020820190508181036000830152613d2081846138f8565b905092915050565b600061010082019050613d3e600083018461396e565b92915050565b6000602082019050613d596000830184613abc565b92915050565b6000604082019050613d746000830185613abc565b613d816020830184613abc565b9392505050565b6000608082019050613d9d6000830187613ada565b613daa6020830186613601565b613db76040830185613601565b613dc46060830184613601565b95945050505050565b6000604051905081810181811067ffffffffffffffff82111715613df457613df3613fe9565b5b8060405250919050565b600067ffffffffffffffff821115613e1957613e18613fe9565b5b602082029050919050565b6000819050602082019050919050565b6000819050919050565b600081519050919050565b600060029050919050565b600081519050919050565b600081519050919050565b6000602082019050919050565b6000602082019050919050565b600082825260208201905092915050565b600081905092915050565b600082825260208201905092915050565b600082825260208201905092915050565b6000613ecd82613ee0565b9050919050565b60008115159050919050565b600073ffffffffffffffffffffffffffffffffffffffff82169050919050565b600062ffffff82169050919050565b6000819050919050565b600060ff82169050919050565b6000613f3182613f5c565b9050919050565b6000613f4382613f4a565b9050919050565b6000613f5582613ee0565b9050919050565b6000613f6782613f6e565b9050919050565b6000613f7982613ee0565b9050919050565b60005b83811015613f9e578082015181840152602081019050613f83565b83811115613fad576000848401525b50505050565b6000613fbe82613fc5565b9050919050565b6000613fd082614009565b9050919050565b6000613fe282613ffc565b9050919050565bfe5b6000601f19601f8301169050919050565b60008160e81b9050919050565b60008160601b9050919050565b61401f81613ec2565b811461402a57600080fd5b50565b61403681613ed4565b811461404157600080fd5b50565b61404d81613f00565b811461405857600080fd5b50565b61406481613f0f565b811461406f57600080fd5b50565b61407b81613f19565b811461408657600080fd5b5056fe4f776e61626c653a206e6577206f776e657220697320746865207a65726f206164647265737368747470733a2f2f63727970746f6c6f676f732e63632f6c6f676f732f706f6c796d6174682d6e6574776f726b2d706f6c792d6c6f676f2e706e673f763d303232536166654d6174683a206d756c7469706c69636174696f6e206f766572666c6f77436f7272656c6174696f6e20696e646578206973206120746f6f6c207468617420616c6c6f777320796f7520746f2064697665727369667920796f757220696e766573746d656e7473a2646970667358221220058263e267681fa349d3837ae749396c06d7008a82de089dc59d489cbcee8ae764736f6c6343000705003360806040523480156200001157600080fd5b50604051620012e9380380620012e983398181016040528101906200003791906200020f565b83600560006101000a81548173ffffffffffffffffffffffffffffffffffffffff021916908373ffffffffffffffffffffffffffffffffffffffff160217905550826002908051906020019062000090929190620000cf565b5081600360006101000a81548160ff021916908360ff1602179055508060049080519060200190620000c4929190620000cf565b5050505050620003c1565b828054600181600116156101000203166002900490600052602060002090601f01602090048101928262000107576000855562000153565b82601f106200012257805160ff191683800117855562000153565b8280016001018555821562000153579182015b828111156200015257825182559160200191906001019062000135565b5b50905062000162919062000166565b5090565b5b808211156200018157600081600090555060010162000167565b5090565b60008151905062000196816200038d565b92915050565b600082601f830112620001ae57600080fd5b8151620001c5620001bf82620002e1565b620002ad565b91508082526020830160208301858383011115620001e257600080fd5b620001ef83828462000355565b50505092915050565b6000815190506200020981620003a7565b92915050565b600080600080608085870312156200022657600080fd5b6000620002368782880162000185565b945050602085015167ffffffffffffffff8111156200025457600080fd5b62000262878288016200019c565b93505060406200027587828801620001f8565b925050606085015167ffffffffffffffff8111156200029357600080fd5b620002a1878288016200019c565b91505092959194509250565b6000604051905081810181811067ffffffffffffffff82111715620002d757620002d66200038b565b5b8060405250919050565b600067ffffffffffffffff821115620002ff57620002fe6200038b565b5b601f19601f8301169050602081019050919050565b6000620003218262000328565b9050919050565b600073ffffffffffffffffffffffffffffffffffffffff82169050919050565b600060ff82169050919050565b60005b838110156200037557808201518184015260208101905062000358565b8381111562000385576000848401525b50505050565bfe5b620003988162000314565b8114620003a457600080fd5b50565b620003b28162000348565b8114620003be57600080fd5b50565b610f1880620003d16000396000f3fe608060405234801561001057600080fd5b50600436106100995760003560e01c806306fdde031461009e578063095ea7b3146100bc5780630cf1fd36146100ec57806323b872dd1461010a57806327e235e31461013a578063313ce5671461016a5780635c6581651461018857806370a08231146101b857806395d89b41146101e8578063a9059cbb14610206578063dd62ed3e14610236575b600080fd5b6100a6610266565b6040516100b39190610d67565b60405180910390f35b6100d660048036038101906100d19190610bb4565b610304565b6040516100e39190610d4c565b60405180910390f35b6100f46103f6565b6040516101019190610d31565b60405180910390f35b610124600480360381019061011f9190610b65565b61041c565b6040516101319190610d4c565b60405180910390f35b610154600480360381019061014f9190610b00565b6106e7565b6040516101619190610dc9565b60405180910390f35b6101726106ff565b60405161017f9190610de4565b60405180910390f35b6101a2600480360381019061019d9190610b29565b610712565b6040516101af9190610dc9565b60405180910390f35b6101d260048036038101906101cd9190610b00565b610737565b6040516101df9190610dc9565b60405180910390f35b6101f061077f565b6040516101fd9190610d67565b60405180910390f35b610220600480360381019061021b9190610bb4565b61081d565b60405161022d9190610d4c565b60405180910390f35b610250600480360381019061024b9190610b29565b610a4f565b60405161025d9190610dc9565b60405180910390f35b60028054600181600116156101000203166002900480601f0160208091040260200160405190810160405280929190818152602001828054600181600116156101000203166002900480156102fc5780601f106102d1576101008083540402835291602001916102fc565b820191906000526020600020905b8154815290600101906020018083116102df57829003601f168201915b505050505081565b600081600160003373ffffffffffffffffffffffffffffffffffffffff1673ffffffffffffffffffffffffffffffffffffffff16815260200190815260200160002060008573ffffffffffffffffffffffffffffffffffffffff1673ffffffffffffffffffffffffffffffffffffffff168152602001908152602001600020819055508273ffffffffffffffffffffffffffffffffffffffff163373ffffffffffffffffffffffffffffffffffffffff167f8c5be1e5ebec7d5bd14f71427d1e84f3dd0314c0f7b2291e5b200ac8c7c3b925846040516103e49190610dc9565b60405180910390a36001905092915050565b600560009054906101000a900473ffffffffffffffffffffffffffffffffffffffff1681565b600080600160008673ffffffffffffffffffffffffffffffffffffffff1673ffffffffffffffffffffffffffffffffffffffff16815260200190815260200160002060003373ffffffffffffffffffffffffffffffffffffffff1673ffffffffffffffffffffffffffffffffffffffff168152602001908152602001600020549050826000808773ffffffffffffffffffffffffffffffffffffffff1673ffffffffffffffffffffffffffffffffffffffff16815260200190815260200160002054101580156104ec5750828110155b61052b576040517f08c379a000000000000000000000000000000000000000000000000000000000815260040161052290610da9565b60405180910390fd5b826000808673ffffffffffffffffffffffffffffffffffffffff1673ffffffffffffffffffffffffffffffffffffffff16815260200190815260200160002060008282540192505081905550826000808773ffffffffffffffffffffffffffffffffffffffff1673ffffffffffffffffffffffffffffffffffffffff168152602001908152602001600020600082825403925050819055507fffffffffffffffffffffffffffffffffffffffffffffffffffffffffffffffff8110156106765782600160008773ffffffffffffffffffffffffffffffffffffffff1673ffffffffffffffffffffffffffffffffffffffff16815260200190815260200160002060003373ffffffffffffffffffffffffffffffffffffffff1673ffffffffffffffffffffffffffffffffffffffff168152602001908152602001600020600082825403925050819055505b8373ffffffffffffffffffffffffffffffffffffffff168573ffffffffffffffffffffffffffffffffffffffff167fddf252ad1be2c89b69c2b068fc378daa952ba7f163c4a11628f55a4df523b3ef856040516106d39190610dc9565b60405180910390a360019150509392505050565b60006020528060005260406000206000915090505481565b600360009054906101000a900460ff1681565b6001602052816000526040600020602052806000526040600020600091509150505481565b60008060008373ffffffffffffffffffffffffffffffffffffffff1673ffffffffffffffffffffffffffffffffffffffff168152602001908152602001600020549050919050565b60048054600181600116156101000203166002900480601f0160208091040260200160405190810160405280929190818152602001828054600181600116156101000203166002900480156108155780601f106107ea57610100808354040283529160200191610815565b820191906000526020600020905b8154815290600101906020018083116107f857829003601f168201915b505050505081565b6000600560009054906101000a900473ffffffffffffffffffffffffffffffffffffffff1673ffffffffffffffffffffffffffffffffffffffff163373ffffffffffffffffffffffffffffffffffffffff1614156108c657816000808573ffffffffffffffffffffffffffffffffffffffff1673ffffffffffffffffffffffffffffffffffffffff168152602001908152602001600020600082825401925050819055506109e0565b816000803373ffffffffffffffffffffffffffffffffffffffff1673ffffffffffffffffffffffffffffffffffffffff168152602001908152602001600020541015610947576040517f08c379a000000000000000000000000000000000000000000000000000000000815260040161093e90610d89565b60405180910390fd5b816000803373ffffffffffffffffffffffffffffffffffffffff1673ffffffffffffffffffffffffffffffffffffffff16815260200190815260200160002060008282540392505081905550816000808573ffffffffffffffffffffffffffffffffffffffff1673ffffffffffffffffffffffffffffffffffffffff168152602001908152602001600020600082825401925050819055505b8273ffffffffffffffffffffffffffffffffffffffff163373ffffffffffffffffffffffffffffffffffffffff167fddf252ad1be2c89b69c2b068fc378daa952ba7f163c4a11628f55a4df523b3ef84604051610a3d9190610dc9565b60405180910390a36001905092915050565b6000600160008473ffffffffffffffffffffffffffffffffffffffff1673ffffffffffffffffffffffffffffffffffffffff16815260200190815260200160002060008373ffffffffffffffffffffffffffffffffffffffff1673ffffffffffffffffffffffffffffffffffffffff16815260200190815260200160002054905092915050565b600081359050610ae581610eb4565b92915050565b600081359050610afa81610ecb565b92915050565b600060208284031215610b1257600080fd5b6000610b2084828501610ad6565b91505092915050565b60008060408385031215610b3c57600080fd5b6000610b4a85828601610ad6565b9250506020610b5b85828601610ad6565b9150509250929050565b600080600060608486031215610b7a57600080fd5b6000610b8886828701610ad6565b9350506020610b9986828701610ad6565b9250506040610baa86828701610aeb565b9150509250925092565b60008060408385031215610bc757600080fd5b6000610bd585828601610ad6565b9250506020610be685828601610aeb565b9150509250929050565b610bf981610e1b565b82525050565b610c0881610e2d565b82525050565b6000610c1982610dff565b610c238185610e0a565b9350610c33818560208601610e70565b610c3c81610ea3565b840191505092915050565b6000610c54602f83610e0a565b91507f746f6b656e2062616c616e6365206973206c6f776572207468616e207468652060008301527f76616c75652072657175657374656400000000000000000000000000000000006020830152604082019050919050565b6000610cba603983610e0a565b91507f746f6b656e2062616c616e6365206f7220616c6c6f77616e6365206973206c6f60008301527f776572207468616e20616d6f756e7420726571756573746564000000000000006020830152604082019050919050565b610d1c81610e59565b82525050565b610d2b81610e63565b82525050565b6000602082019050610d466000830184610bf0565b92915050565b6000602082019050610d616000830184610bff565b92915050565b60006020820190508181036000830152610d818184610c0e565b905092915050565b60006020820190508181036000830152610da281610c47565b9050919050565b60006020820190508181036000830152610dc281610cad565b9050919050565b6000602082019050610dde6000830184610d13565b92915050565b6000602082019050610df96000830184610d22565b92915050565b600081519050919050565b600082825260208201905092915050565b6000610e2682610e39565b9050919050565b60008115159050919050565b600073ffffffffffffffffffffffffffffffffffffffff82169050919050565b6000819050919050565b600060ff82169050919050565b60005b83811015610e8e578082015181840152602081019050610e73565b83811115610e9d576000848401525b50505050565b6000601f19601f8301169050919050565b610ebd81610e1b565b8114610ec857600080fd5b50565b610ed481610e59565b8114610edf57600080fd5b5056fea2646970667358221220781e953a89882f00d397f0719fd4367e831cdd640dd456555fbc8c21ac4b60cf64736f6c63430007050033608060405234801561001057600080fd5b5061023d806100206000396000f3fe608060405234801561001057600080fd5b506004361061002b5760003560e01c806341976e0914610030575b600080fd5b6100726004803603602081101561004657600080fd5b81019080803573ffffffffffffffffffffffffffffffffffffffff169060200190929190505050610088565b6040518082815260200191505060405180910390f35b60008082905060008173ffffffffffffffffffffffffffffffffffffffff1663feaf968c6040518163ffffffff1660e01b815260040160a06040518083038186803b1580156100d657600080fd5b505afa1580156100ea573d6000803e3d6000fd5b505050506040513d60a081101561010057600080fd5b8101908080519060200190929190805190602001909291908051906020019092919080519060200190929190805190602001909291905050505050509150506101576402540be4008261016090919063ffffffff16565b92505050919050565b60008083141561017357600090506101e0565b600082840290508284828161018457fe5b04146101db576040517f08c379a00000000000000000000000000000000000000000000000000000000081526004018080602001828103825260218152602001806101e76021913960400191505060405180910390fd5b809150505b9291505056fe536166654d6174683a206d756c7469706c69636174696f6e206f766572666c6f77a2646970667358221220f371fb219942c072d9a9f75422d0ddd3437b8e588d416c36a9fbf948f52f590a64736f6c63430007050033",
  "immutableReferences": {
    "1534": [
      {
        "length": 32,
        "start": 8701
      },
      {
        "length": 32,
        "start": 11003
      },
      {
        "length": 32,
        "start": 11082
      }
    ]
  },
  "source": "// SPDX-License-Identifier: MIT\r\npragma solidity 0.7.5;\r\npragma abicoder v2;\r\n\r\nimport \"@openzeppelin/contracts/token/ERC20/ERC20.sol\";\r\nimport \"@openzeppelin/contracts/math/SafeMath.sol\";\r\nimport \"@uniswap/v3-periphery/contracts/libraries/TransferHelper.sol\";\r\nimport \"@uniswap/v3-periphery/contracts/interfaces/ISwapRouter.sol\";\r\nimport \"@uniswap/v3-periphery/contracts/interfaces/IPeripheryPayments.sol\";\r\n\r\nimport \"./PriceOracle.sol\";\r\nimport \"./IndexToken.sol\";\r\nimport \"../management/BaseProduct.sol\";\r\n\r\ncontract BaseIndex is Product {\r\n    using SafeMath for uint256;\r\n\r\n    struct TokenInfo {\r\n        uint8 indexPercentage;\r\n        address tokenAddress;\r\n        address priceOracleAddress;\r\n        uint24[2] poolFees;\r\n        address intermediateToken;\r\n    }\r\n\r\n    TokenInfo[] public tokens;\r\n    PriceOracle private priceOracle;\r\n    IndexToken public indexToken;\r\n\r\n    address public WETH;\r\n    address private immutable dexRouterAddress;\r\n\r\n    uint public lastManagedToken = 0;   // TODO: change the visibility\r\n    uint public tokensToSell;    // index tokens that will be sold\r\n    uint public tokensToBuy;    // usd tokens that will be bought\r\n    uint public totalAvailableDebt;    // total debt for the index\r\n    mapping(address => uint) public usersDebt;    // debt to each user\r\n\r\n    event DebtRetrieved(address account, uint debtAmount);\r\n\r\n    function name() external pure override returns (string memory) { return \"CryptoIndex\"; }\r\n    function symbol() external pure override returns (string memory) { return \"CRYPTIX\"; }\r\n    function getComponents() external view returns (TokenInfo[] memory) { return tokens; }\r\n\r\n    function shortDescription() external pure override returns (string memory) {\r\n        return \"Correlation index is a tool that allows you to diversify your investments\";\r\n    }\r\n\r\n    function longDescription() external pure override returns (string memory) {\r\n        return \"Correlation index is a tool that allows you to diversify your investments\";\r\n    }\r\n\r\n    function getTokenPrice(TokenInfo memory token) external view returns (uint256) {\r\n        return priceOracle.getPrice(token.priceOracleAddress);\r\n    }\r\n\r\n    function image() external pure override returns (string memory) {\r\n        return \"https://cryptologos.cc/logos/polymath-network-poly-logo.png?v=022\";\r\n    }\r\n\r\n    function getTotalLockedValue() external view override returns (uint256) {\r\n        uint totalValue;\r\n\r\n        for (uint i = 0; i < tokens.length; i++) {\r\n            TokenInfo memory tokenInfo = tokens[i];\r\n            IERC20 token = IERC20(tokenInfo.tokenAddress);\r\n\r\n            uint tokenBalance = token.balanceOf(address(this)).mul(priceOracle.getPrice(tokenInfo.priceOracleAddress));\r\n            totalValue = totalValue.add(tokenBalance.div(1 ether));\r\n        }\r\n\r\n        return totalValue;\r\n    }\r\n\r\n    constructor() {\r\n        dexRouterAddress = 0xE592427A0AEce92De3Edee1F18E0157C05861564;  // Uniswap V3 Router\r\n        buyTokenAddress =  0x6B175474E89094C44Da98b954EedeAC495271d0F; // DAI\r\n        WETH = 0xC02aaA39b223FE8D0A0e5C4F27eAD9083C756Cc2;\r\n\r\n        productFee = 10;\r\n        productFeeTotal = 100;\r\n        indexPriceAdjustment = 100;\r\n        \r\n        indexToken = new IndexToken(address(this), \"Crypto index token\", 18, \"CRYPTIX\");\r\n        priceOracle = new PriceOracle();\r\n        isLocked = false;\r\n\r\n        tokens.push(TokenInfo({ // WETH\r\n            tokenAddress: 0xC02aaA39b223FE8D0A0e5C4F27eAD9083C756Cc2,\r\n            priceOracleAddress: 0x5f4eC3Df9cbd43714FE2740f5E3616155c5b8419,\r\n            poolFees: [uint24(3000), uint24(3000)],\r\n            intermediateToken: address(0),\r\n            indexPercentage: 15\r\n        }));\r\n        tokens.push(TokenInfo({ // LINK\r\n            tokenAddress: 0x514910771AF9Ca656af840dff83E8264EcF986CA,\r\n            priceOracleAddress: 0x2c1d072e956AFFC0D435Cb7AC38EF18d24d9127c,\r\n            poolFees: [uint24(3000), uint24(3000)],\r\n            intermediateToken: WETH,\r\n            indexPercentage: 5\r\n        }));\r\n        tokens.push(TokenInfo({ // WBNB\r\n            tokenAddress: 0x418D75f65a02b3D53B2418FB8E1fe493759c7605,\r\n            priceOracleAddress: 0x14e613AC84a31f709eadbdF89C6CC390fDc9540A,\r\n            poolFees: [uint24(3000), uint24(3000)],\r\n            intermediateToken: WETH,\r\n            indexPercentage: 5\r\n        }));\r\n        tokens.push(TokenInfo({ // UNI\r\n            tokenAddress: 0x1f9840a85d5aF5bf1D1762F925BDADdC4201F984,\r\n            priceOracleAddress: 0x553303d460EE0afB37EdFf9bE42922D8FF63220e,\r\n            poolFees: [uint24(3000), uint24(3000)],\r\n            intermediateToken: WETH,\r\n            indexPercentage: 10\r\n        }));\r\n        tokens.push(TokenInfo({ //   1INCH\r\n            tokenAddress: 0x111111111117dC0aa78b770fA6A738034120C302,\r\n            priceOracleAddress: 0xc929ad75B72593967DE83E7F7Cda0493458261D9,\r\n            poolFees: [uint24(3000), 10000],\r\n            intermediateToken: WETH,\r\n            indexPercentage: 5\r\n        }));\r\n        tokens.push(TokenInfo({    //   SNX\r\n            tokenAddress: 0xC011a73ee8576Fb46F5E1c5751cA3B9Fe0af2a6F,\r\n            priceOracleAddress: 0xDC3EA94CD0AC27d9A86C180091e7f78C683d3699,\r\n            poolFees: [uint24(3000), 10000],\r\n            intermediateToken: WETH,\r\n            indexPercentage: 5\r\n        }));\r\n        tokens.push(TokenInfo({    //   YFI\r\n            tokenAddress: 0x0bc529c00C6401aEF6D220BE8C6Ea1667F6Ad93e,\r\n            priceOracleAddress: 0xA027702dbb89fbd58938e4324ac03B58d812b0E1,\r\n            poolFees: [uint24(3000), uint24(3000)],\r\n            intermediateToken: WETH,\r\n            indexPercentage: 5\r\n        }));\r\n        tokens.push(TokenInfo({    //   COMP\r\n            tokenAddress: 0xc00e94Cb662C3520282E6f5717214004A7f26888,\r\n            priceOracleAddress: 0xdbd020CAeF83eFd542f4De03e3cF0C28A4428bd5,\r\n            poolFees: [uint24(3000), uint24(3000)],\r\n            intermediateToken: WETH,\r\n            indexPercentage: 5\r\n        }));\r\n        tokens.push(TokenInfo({    //   MKR\r\n            tokenAddress: 0x9f8F72aA9304c8B593d555F12eF6589cC3A579A2,\r\n            priceOracleAddress: 0xec1D1B3b0443256cc3860e24a46F108e699484Aa,\r\n            poolFees: [uint24(3000), uint24(3000)],\r\n            intermediateToken: WETH,\r\n            indexPercentage: 5\r\n        }));\r\n        tokens.push(TokenInfo({    //   SUSHI\r\n            tokenAddress: 0x6B3595068778DD592e39A122f4f5a5cF09C90fE2,\r\n            priceOracleAddress: 0xCc70F09A6CC17553b2E31954cD36E4A2d89501f7,\r\n            poolFees: [uint24(3000), uint24(3000)],\r\n            intermediateToken: WETH,\r\n            indexPercentage: 10\r\n        }));\r\n        tokens.push(TokenInfo({    //   APE\r\n            tokenAddress: 0x4d224452801ACEd8B2F0aebE155379bb5D594381,\r\n            priceOracleAddress: 0xD10aBbC76679a20055E167BB80A24ac851b37056,\r\n            poolFees: [uint24(3000), uint24(3000)],\r\n            intermediateToken: WETH,\r\n            indexPercentage: 10\r\n        }));\r\n        tokens.push(TokenInfo({    //   CRV\r\n            tokenAddress: 0xD533a949740bb3306d119CC777fa900bA034cd52,\r\n            priceOracleAddress: 0xCd627aA160A6fA45Eb793D19Ef54f5062F20f33f,\r\n            poolFees: [uint24(3000), 10000],\r\n            intermediateToken: WETH,\r\n            indexPercentage: 5\r\n        }));\r\n        // tokens.push(TokenInfo({    //   Huobi Token\r\n        //     tokenAddress: 0x6f259637dcD74C767781E37Bc6133cd6A68aa161,\r\n        //     priceOracleAddress: 0xE1329B3f6513912CAf589659777b66011AEE5880,\r\n        //     poolFees: [10000, uint24(3000)],\r\n        //     intermediateToken: 0xA0b86991c6218b36c1d19D4a2e9Eb0cE3606eB48,\r\n        //     indexPercentage: 5\r\n        // }));\r\n        // tokens.push(TokenInfo({    //   BNT\r\n        //     tokenAddress: 0x1F573D6Fb3F13d689FF844B4cE37794d79a7FF1C,\r\n        //     priceOracleAddress: 0x1E6cF0D433de4FE882A437ABC654F58E1e78548c,\r\n        //     poolFee: uint24(3000),\r\n        //     indexPercentage: 5\r\n        // }));\r\n        tokens.push(TokenInfo({    //   INJ\r\n            tokenAddress: 0xe28b3B32B6c345A34Ff64674606124Dd5Aceca30,\r\n            priceOracleAddress: 0xaE2EbE3c4D20cE13cE47cbb49b6d7ee631Cd816e,\r\n            poolFees: [uint24(3000), uint24(3000)],\r\n            intermediateToken: WETH,\r\n            indexPercentage: 5\r\n        }));\r\n    }\r\n\r\n    function buy(uint256 amount) external nonReentrant checkSettlement override {\r\n        uint256 indexPrice = getPrice();\r\n        (uint productFee, uint256 realAmount) = calculateFee(amount);\r\n        require(realAmount >= 1, \"Not enough tokens sent\");\r\n\r\n        uint buyTokenAmount = realAmount.mul(indexPrice).div(1 ether);\r\n        tokensToBuy = tokensToBuy.add(buyTokenAmount);\r\n\r\n        indexToken.transfer(msg.sender, realAmount);\r\n        TransferHelper.safeTransferFrom(\r\n            buyTokenAddress, msg.sender, address(this), amount.mul(indexPrice).div(1 ether)\r\n        );\r\n\r\n        IERC20 _buyToken = IERC20(buyTokenAddress);\r\n        _buyToken.transfer(owner(), productFee.mul(indexPrice).div(1 ether));\r\n\r\n        emit ProductBought(msg.sender, buyTokenAmount, realAmount);\r\n    }\r\n\r\n    function retrieveDebt(uint amount) external nonReentrant checkSettlement checkUnlocked{\r\n        require(usersDebt[msg.sender].sub(amount) > 0, \"Not enough debt, try selling your tokens first\");\r\n        \r\n        usersDebt[msg.sender] = usersDebt[msg.sender].sub(amount);\r\n        totalAvailableDebt = totalAvailableDebt.sub(amount);\r\n\r\n        IERC20(buyTokenAddress).transfer(msg.sender, amount);\r\n        emit DebtRetrieved(msg.sender, amount);\r\n    }\r\n\r\n    function sell(uint amount) external override nonReentrant checkSettlement checkUnlocked {\r\n        (uint productFee, uint256 realAmount) = calculateFee(amount);\r\n        require(realAmount >= 1, \"You must sell more tokens\");\r\n\r\n        uint newUserDebt = realAmount.mul(getPrice()).div(1 ether);\r\n        usersDebt[msg.sender] = usersDebt[msg.sender].add(newUserDebt);\r\n        tokensToSell = realAmount.add(tokensToSell);\r\n\r\n        TransferHelper.safeTransferFrom(address(indexToken), msg.sender, address(this), amount);\r\n        indexToken.transfer(owner(), productFee);\r\n\r\n        emit ProductSold(msg.sender, newUserDebt, realAmount);\r\n    }\r\n\r\n    function beginSettlement() override external onlyOwner{\r\n        isSettlement = true;\r\n        TransferHelper.safeApprove(buyTokenAddress, dexRouterAddress, tokensToBuy);\r\n        TransferHelper.safeApprove(address(indexToken), dexRouterAddress, tokensToSell);\r\n    }\r\n\r\n    function endSettlement() override external onlyOwner {\r\n        tokensToBuy = 0;\r\n        tokensToSell = 0;\r\n        isSettlement = false;\r\n    }\r\n\r\n    function manageTokens() external payable onlyOwner {\r\n        lastManagedToken += 1;\r\n        if(lastManagedToken > tokens.length - 1){\r\n            lastManagedToken = 0;\r\n        }\r\n\r\n        TokenInfo memory token = tokens[lastManagedToken];\r\n        ISwapRouter dexRouter = ISwapRouter(dexRouterAddress);\r\n\r\n        uint tokensToBuyAmount = tokensToBuy.div(100).mul(token.indexPercentage);\r\n        uint tokensToSellAmount = tokensToSell.div(100).mul(token.indexPercentage);\r\n        uint tokenPrice = priceOracle.getPrice(token.priceOracleAddress);\r\n\r\n        if(tokensToBuyAmount > 0){\r\n            if(token.intermediateToken == address(0)){\r\n                dexRouter.exactInputSingle(\r\n                    ISwapRouter.ExactInputSingleParams({\r\n                        tokenIn: buyTokenAddress,\r\n                        tokenOut: token.tokenAddress,\r\n                        fee: token.poolFees[0],\r\n                        recipient: address(this),\r\n                        deadline: block.timestamp,\r\n                        amountIn: tokensToBuyAmount,\r\n                        amountOutMinimum: tokensToBuyAmount.div(tokenPrice),\r\n                        sqrtPriceLimitX96: 0\r\n                    })\r\n                );\r\n            }else{\r\n                dexRouter.exactInput(\r\n                    ISwapRouter.ExactInputParams({\r\n                        path: abi.encodePacked(\r\n                            buyTokenAddress,\r\n                            token.poolFees[0],\r\n                            token.intermediateToken,\r\n                            token.poolFees[1],\r\n                            token.tokenAddress\r\n                        ),\r\n                        recipient: address(this),\r\n                        deadline: block.timestamp,\r\n                        amountIn: tokensToBuyAmount,\r\n                        amountOutMinimum: tokensToBuyAmount.div(tokenPrice)\r\n                    })\r\n                );\r\n            }\r\n        }\r\n\r\n        if(tokensToSellAmount > 0){\r\n            totalAvailableDebt.add(dexRouter.exactInput(\r\n                ISwapRouter.ExactInputParams({\r\n                    path: abi.encodePacked(\r\n                        token.tokenAddress,\r\n                        token.poolFees[1],\r\n                        token.intermediateToken,\r\n                        token.poolFees[0],\r\n                        buyTokenAddress\r\n                    ),\r\n                    recipient: address(this),\r\n                    deadline: block.timestamp,\r\n                    amountIn: tokensToSellAmount,\r\n                    amountOutMinimum: tokensToSellAmount.mul(tokenPrice).div(1 ether)\r\n                })\r\n            ));\r\n        }\r\n    }\r\n\r\n    function getPrice() public view override returns (uint256) {\r\n        uint256 indexTotalPrice;\r\n\r\n        for (uint256 i = 0; i < tokens.length; i++) {\r\n            TokenInfo memory token = tokens[i];\r\n            indexTotalPrice = indexTotalPrice.add(\r\n                priceOracle.getPrice(token.priceOracleAddress).div(100).mul(token.indexPercentage)\r\n            );\r\n        }\r\n\r\n        return indexTotalPrice.div(indexPriceAdjustment);\r\n    }\r\n\r\n}\r\n",
  "sourcePath": "D:\\JavascriptProjects\\crypto-index\\contracts\\indices\\BaseIndex.sol",
  "compiler": {
    "name": "solc",
    "version": "0.7.5+commit.eb77ed08.Linux.g++"
  },
  "schemaVersion": "3.4.6",
  "updatedAt": "2022-05-10T17:36:58.985Z",
  "devdoc": {
    "kind": "dev",
    "methods": {
      "owner()": {
        "details": "Returns the address of the current owner."
      },
      "renounceOwnership()": {
        "details": "Leaves the contract without owner. It will not be possible to call `onlyOwner` functions anymore. Can only be called by the current owner. NOTE: Renouncing ownership will leave the contract without an owner, thereby removing any functionality that is only available to the owner."
      },
      "transferOwnership(address)": {
        "details": "Transfers ownership of the contract to a new account (`newOwner`). Can only be called by the current owner."
      }
    },
    "version": 1
  },
  "userdoc": {
    "kind": "user",
    "methods": {},
    "version": 1
  }
}