{
  "contractName": "BaseIndex",
  "abi": [
    {
      "inputs": [],
      "stateMutability": "nonpayable",
      "type": "constructor"
    },
    {
      "anonymous": false,
      "inputs": [
        {
          "indexed": true,
          "internalType": "address",
          "name": "previousOwner",
          "type": "address"
        },
        {
          "indexed": true,
          "internalType": "address",
          "name": "newOwner",
          "type": "address"
        }
      ],
      "name": "OwnershipTransferred",
      "type": "event"
    },
    {
      "anonymous": false,
      "inputs": [
        {
          "indexed": false,
          "internalType": "address",
          "name": "account",
          "type": "address"
        },
        {
          "indexed": false,
          "internalType": "uint256",
          "name": "buyTokenAmount",
          "type": "uint256"
        },
        {
          "indexed": false,
          "internalType": "uint256",
          "name": "indexTokenAmount",
          "type": "uint256"
        }
      ],
      "name": "ProductBought",
      "type": "event"
    },
    {
      "anonymous": false,
      "inputs": [
        {
          "indexed": false,
          "internalType": "address",
          "name": "account",
          "type": "address"
        },
        {
          "indexed": false,
          "internalType": "uint256",
          "name": "buyTokenAmount",
          "type": "uint256"
        },
        {
          "indexed": false,
          "internalType": "uint256",
          "name": "indexTokenAmount",
          "type": "uint256"
        }
      ],
      "name": "ProductSold",
      "type": "event"
    },
    {
      "inputs": [],
      "name": "WETH",
      "outputs": [
        {
          "internalType": "address",
          "name": "",
          "type": "address"
        }
      ],
      "stateMutability": "view",
      "type": "function"
    },
    {
      "inputs": [],
      "name": "buyTokenAddress",
      "outputs": [
        {
          "internalType": "address",
          "name": "",
          "type": "address"
        }
      ],
      "stateMutability": "view",
      "type": "function"
    },
    {
      "inputs": [
        {
          "internalType": "uint256",
          "name": "amount",
          "type": "uint256"
        }
      ],
      "name": "calculateFee",
      "outputs": [
        {
          "internalType": "uint256",
          "name": "",
          "type": "uint256"
        },
        {
          "internalType": "uint256",
          "name": "",
          "type": "uint256"
        }
      ],
      "stateMutability": "view",
      "type": "function"
    },
    {
      "inputs": [
        {
          "internalType": "uint8",
          "name": "_fee",
          "type": "uint8"
        },
        {
          "internalType": "uint256",
          "name": "_feeTotal",
          "type": "uint256"
        }
      ],
      "name": "changeFee",
      "outputs": [],
      "stateMutability": "nonpayable",
      "type": "function"
    },
    {
      "inputs": [],
      "name": "getFee",
      "outputs": [
        {
          "internalType": "uint256",
          "name": "",
          "type": "uint256"
        },
        {
          "internalType": "uint256",
          "name": "",
          "type": "uint256"
        }
      ],
      "stateMutability": "view",
      "type": "function"
    },
    {
      "inputs": [],
      "name": "indexToken",
      "outputs": [
        {
          "internalType": "contract IndexToken",
          "name": "",
          "type": "address"
        }
      ],
      "stateMutability": "view",
      "type": "function"
    },
    {
      "inputs": [],
      "name": "isLocked",
      "outputs": [
        {
          "internalType": "bool",
          "name": "",
          "type": "bool"
        }
      ],
      "stateMutability": "view",
      "type": "function"
    },
    {
      "inputs": [],
      "name": "isSettlementActive",
      "outputs": [
        {
          "internalType": "bool",
          "name": "",
          "type": "bool"
        }
      ],
      "stateMutability": "view",
      "type": "function"
    },
    {
      "inputs": [],
      "name": "lastManagedToken",
      "outputs": [
        {
          "internalType": "uint256",
          "name": "",
          "type": "uint256"
        }
      ],
      "stateMutability": "view",
      "type": "function"
    },
    {
      "inputs": [],
      "name": "owner",
      "outputs": [
        {
          "internalType": "address",
          "name": "",
          "type": "address"
        }
      ],
      "stateMutability": "view",
      "type": "function"
    },
    {
      "inputs": [],
      "name": "renounceOwnership",
      "outputs": [],
      "stateMutability": "nonpayable",
      "type": "function"
    },
    {
      "inputs": [
        {
          "internalType": "uint256",
          "name": "",
          "type": "uint256"
        }
      ],
      "name": "tokens",
      "outputs": [
        {
          "internalType": "uint8",
          "name": "indexPercentage",
          "type": "uint8"
        },
        {
          "internalType": "address",
          "name": "tokenAddress",
          "type": "address"
        },
        {
          "internalType": "address",
          "name": "priceOracleAddress",
          "type": "address"
        },
        {
          "internalType": "address",
          "name": "intermediateToken",
          "type": "address"
        }
      ],
      "stateMutability": "view",
      "type": "function"
    },
    {
      "inputs": [],
      "name": "tokensSold",
      "outputs": [
        {
          "internalType": "uint256",
          "name": "",
          "type": "uint256"
        }
      ],
      "stateMutability": "view",
      "type": "function"
    },
    {
      "inputs": [],
      "name": "tokensToBuy",
      "outputs": [
        {
          "internalType": "uint256",
          "name": "",
          "type": "uint256"
        }
      ],
      "stateMutability": "view",
      "type": "function"
    },
    {
      "inputs": [],
      "name": "tokensToSell",
      "outputs": [
        {
          "internalType": "uint256",
          "name": "",
          "type": "uint256"
        }
      ],
      "stateMutability": "view",
      "type": "function"
    },
    {
      "inputs": [
        {
          "internalType": "address",
          "name": "newOwner",
          "type": "address"
        }
      ],
      "name": "transferOwnership",
      "outputs": [],
      "stateMutability": "nonpayable",
      "type": "function"
    },
    {
      "inputs": [],
      "name": "name",
      "outputs": [
        {
          "internalType": "string",
          "name": "",
          "type": "string"
        }
      ],
      "stateMutability": "pure",
      "type": "function"
    },
    {
      "inputs": [],
      "name": "symbol",
      "outputs": [
        {
          "internalType": "string",
          "name": "",
          "type": "string"
        }
      ],
      "stateMutability": "pure",
      "type": "function"
    },
    {
      "inputs": [],
      "name": "getComponents",
      "outputs": [
        {
          "components": [
            {
              "internalType": "uint8",
              "name": "indexPercentage",
              "type": "uint8"
            },
            {
              "internalType": "address",
              "name": "tokenAddress",
              "type": "address"
            },
            {
              "internalType": "address",
              "name": "priceOracleAddress",
              "type": "address"
            },
            {
              "internalType": "uint24[2]",
              "name": "poolFees",
              "type": "uint24[2]"
            },
            {
              "internalType": "address",
              "name": "intermediateToken",
              "type": "address"
            }
          ],
          "internalType": "struct BaseIndex.TokenInfo[]",
          "name": "",
          "type": "tuple[]"
        }
      ],
      "stateMutability": "view",
      "type": "function"
    },
    {
      "inputs": [],
      "name": "shortDescription",
      "outputs": [
        {
          "internalType": "string",
          "name": "",
          "type": "string"
        }
      ],
      "stateMutability": "pure",
      "type": "function"
    },
    {
      "inputs": [],
      "name": "longDescription",
      "outputs": [
        {
          "internalType": "string",
          "name": "",
          "type": "string"
        }
      ],
      "stateMutability": "pure",
      "type": "function"
    },
    {
      "inputs": [
        {
          "components": [
            {
              "internalType": "uint8",
              "name": "indexPercentage",
              "type": "uint8"
            },
            {
              "internalType": "address",
              "name": "tokenAddress",
              "type": "address"
            },
            {
              "internalType": "address",
              "name": "priceOracleAddress",
              "type": "address"
            },
            {
              "internalType": "uint24[2]",
              "name": "poolFees",
              "type": "uint24[2]"
            },
            {
              "internalType": "address",
              "name": "intermediateToken",
              "type": "address"
            }
          ],
          "internalType": "struct BaseIndex.TokenInfo",
          "name": "token",
          "type": "tuple"
        },
        {
          "internalType": "bool",
          "name": "isReverse",
          "type": "bool"
        }
      ],
      "name": "getTokenPrice",
      "outputs": [
        {
          "internalType": "uint256",
          "name": "",
          "type": "uint256"
        }
      ],
      "stateMutability": "view",
      "type": "function"
    },
    {
      "inputs": [],
      "name": "image",
      "outputs": [
        {
          "internalType": "string",
          "name": "",
          "type": "string"
        }
      ],
      "stateMutability": "pure",
      "type": "function"
    },
    {
      "inputs": [],
      "name": "getTotalLockedValue",
      "outputs": [
        {
          "internalType": "uint256",
          "name": "",
          "type": "uint256"
        }
      ],
      "stateMutability": "view",
      "type": "function"
    },
    {
      "inputs": [
        {
          "internalType": "uint256",
          "name": "amount",
          "type": "uint256"
        }
      ],
      "name": "buy",
      "outputs": [],
      "stateMutability": "nonpayable",
      "type": "function"
    },
    {
      "inputs": [
        {
          "internalType": "uint256",
          "name": "amount",
          "type": "uint256"
        }
      ],
      "name": "sell",
      "outputs": [],
      "stateMutability": "nonpayable",
      "type": "function"
    },
    {
      "inputs": [
        {
          "internalType": "uint256",
          "name": "amount",
          "type": "uint256"
        },
        {
          "internalType": "bool",
          "name": "isBuyDebt",
          "type": "bool"
        }
      ],
      "name": "retrieveDebt",
      "outputs": [],
      "stateMutability": "nonpayable",
      "type": "function"
    },
    {
      "inputs": [
        {
          "internalType": "bool",
          "name": "isBuy",
          "type": "bool"
        }
      ],
      "name": "getTotalDebt",
      "outputs": [
        {
          "internalType": "uint256",
          "name": "",
          "type": "uint256"
        }
      ],
      "stateMutability": "view",
      "type": "function"
    },
    {
      "inputs": [
        {
          "internalType": "address",
          "name": "user",
          "type": "address"
        },
        {
          "internalType": "bool",
          "name": "isBuy",
          "type": "bool"
        }
      ],
      "name": "getUserDebt",
      "outputs": [
        {
          "internalType": "uint256",
          "name": "",
          "type": "uint256"
        }
      ],
      "stateMutability": "view",
      "type": "function"
    },
    {
      "inputs": [],
      "name": "beginSettlement",
      "outputs": [],
      "stateMutability": "nonpayable",
      "type": "function"
    },
    {
      "inputs": [],
      "name": "endSettlement",
      "outputs": [],
      "stateMutability": "nonpayable",
      "type": "function"
    },
    {
      "inputs": [],
      "name": "manageTokens",
      "outputs": [],
      "stateMutability": "nonpayable",
      "type": "function"
    },
    {
      "inputs": [],
      "name": "getPrice",
      "outputs": [
        {
          "internalType": "uint256",
          "name": "",
          "type": "uint256"
        }
      ],
      "stateMutability": "view",
      "type": "function"
    }
  ],
  "bytecode": "0x60a0604052604051620000129062001d47565b604051809103906000f0801580156200002f573d6000803e3d6000fd5b50600960006101000a81548173ffffffffffffffffffffffffffffffffffffffff021916908373ffffffffffffffffffffffffffffffffffffffff1602179055506040516200007e9062001d47565b604051809103906000f0801580156200009b573d6000803e3d6000fd5b50600a60006101000a81548173ffffffffffffffffffffffffffffffffffffffff021916908373ffffffffffffffffffffffffffffffffffffffff160217905550604051620000ea9062001d55565b604051809103906000f08015801562000107573d6000803e3d6000fd5b50600b60006101000a81548173ffffffffffffffffffffffffffffffffffffffff021916908373ffffffffffffffffffffffffffffffffffffffff1602179055506000600c55678ac7230489e80000600d556000600f553480156200016b57600080fd5b5060006200017e62001d3f60201b60201c565b9050806000806101000a81548173ffffffffffffffffffffffffffffffffffffffff021916908373ffffffffffffffffffffffffffffffffffffffff1602179055508073ffffffffffffffffffffffffffffffffffffffff16600073ffffffffffffffffffffffffffffffffffffffff167f8be0079c531659141344cd1fd0a4f28419497f9722a3daafe3b4186f6b6457e060405160405180910390a3506001808190555073e592427a0aece92de3edee1f18e0157c0586156473ffffffffffffffffffffffffffffffffffffffff1660808173ffffffffffffffffffffffffffffffffffffffff1660601b81525050736b175474e89094c44da98b954eedeac495271d0f600260016101000a81548173ffffffffffffffffffffffffffffffffffffffff021916908373ffffffffffffffffffffffffffffffffffffffff16021790555073c02aaa39b223fe8d0a0e5c4f27ead9083c756cc2600860006101000a81548173ffffffffffffffffffffffffffffffffffffffff021916908373ffffffffffffffffffffffffffffffffffffffff160217905550600a600260156101000a81548160ff021916908360ff16021790555060646003819055506064600481905550306012604051620003559062001d63565b6200036292919062001edd565b604051809103906000f0801580156200037f573d6000803e3d6000fd5b50600760006101000a81548173ffffffffffffffffffffffffffffffffffffffff021916908373ffffffffffffffffffffffffffffffffffffffff1602179055506000600260006101000a81548160ff02191690831515021790555060066040518060a00160405280600f60ff168152602001600860009054906101000a900473ffffffffffffffffffffffffffffffffffffffff1673ffffffffffffffffffffffffffffffffffffffff168152602001735f4ec3df9cbd43714fe2740f5e3616155c5b841973ffffffffffffffffffffffffffffffffffffffff1681526020016040518060400160405280610bb862ffffff1662ffffff168152602001610bb862ffffff1662ffffff168152508152602001600073ffffffffffffffffffffffffffffffffffffffff16815250908060018154018082558091505060019003906000526020600020906004020160009091909190915060008201518160000160006101000a81548160ff021916908360ff16021790555060208201518160000160016101000a81548173ffffffffffffffffffffffffffffffffffffffff021916908373ffffffffffffffffffffffffffffffffffffffff16021790555060408201518160010160006101000a81548173ffffffffffffffffffffffffffffffffffffffff021916908373ffffffffffffffffffffffffffffffffffffffff1602179055506060820151816002019060026200059e92919062001d71565b5060808201518160030160006101000a81548173ffffffffffffffffffffffffffffffffffffffff021916908373ffffffffffffffffffffffffffffffffffffffff160217905550505060066040518060a00160405280600560ff16815260200173514910771af9ca656af840dff83e8264ecf986ca73ffffffffffffffffffffffffffffffffffffffff168152602001732c1d072e956affc0d435cb7ac38ef18d24d9127c73ffffffffffffffffffffffffffffffffffffffff1681526020016040518060400160405280610bb862ffffff1662ffffff168152602001610bb862ffffff1662ffffff168152508152602001600860009054906101000a900473ffffffffffffffffffffffffffffffffffffffff1673ffffffffffffffffffffffffffffffffffffffff16815250908060018154018082558091505060019003906000526020600020906004020160009091909190915060008201518160000160006101000a81548160ff021916908360ff16021790555060208201518160000160016101000a81548173ffffffffffffffffffffffffffffffffffffffff021916908373ffffffffffffffffffffffffffffffffffffffff16021790555060408201518160010160006101000a81548173ffffffffffffffffffffffffffffffffffffffff021916908373ffffffffffffffffffffffffffffffffffffffff160217905550606082015181600201906002620007be92919062001d71565b5060808201518160030160006101000a81548173ffffffffffffffffffffffffffffffffffffffff021916908373ffffffffffffffffffffffffffffffffffffffff160217905550505060066040518060a00160405280600a60ff16815260200173418d75f65a02b3d53b2418fb8e1fe493759c760573ffffffffffffffffffffffffffffffffffffffff1681526020017314e613ac84a31f709eadbdf89c6cc390fdc9540a73ffffffffffffffffffffffffffffffffffffffff1681526020016040518060400160405280610bb862ffffff1662ffffff168152602001610bb862ffffff1662ffffff168152508152602001600860009054906101000a900473ffffffffffffffffffffffffffffffffffffffff1673ffffffffffffffffffffffffffffffffffffffff16815250908060018154018082558091505060019003906000526020600020906004020160009091909190915060008201518160000160006101000a81548160ff021916908360ff16021790555060208201518160000160016101000a81548173ffffffffffffffffffffffffffffffffffffffff021916908373ffffffffffffffffffffffffffffffffffffffff16021790555060408201518160010160006101000a81548173ffffffffffffffffffffffffffffffffffffffff021916908373ffffffffffffffffffffffffffffffffffffffff160217905550606082015181600201906002620009de92919062001d71565b5060808201518160030160006101000a81548173ffffffffffffffffffffffffffffffffffffffff021916908373ffffffffffffffffffffffffffffffffffffffff160217905550505060066040518060a00160405280600a60ff168152602001731f9840a85d5af5bf1d1762f925bdaddc4201f98473ffffffffffffffffffffffffffffffffffffffff16815260200173553303d460ee0afb37edff9be42922d8ff63220e73ffffffffffffffffffffffffffffffffffffffff1681526020016040518060400160405280610bb862ffffff1662ffffff168152602001610bb862ffffff1662ffffff168152508152602001600860009054906101000a900473ffffffffffffffffffffffffffffffffffffffff1673ffffffffffffffffffffffffffffffffffffffff16815250908060018154018082558091505060019003906000526020600020906004020160009091909190915060008201518160000160006101000a81548160ff021916908360ff16021790555060208201518160000160016101000a81548173ffffffffffffffffffffffffffffffffffffffff021916908373ffffffffffffffffffffffffffffffffffffffff16021790555060408201518160010160006101000a81548173ffffffffffffffffffffffffffffffffffffffff021916908373ffffffffffffffffffffffffffffffffffffffff16021790555060608201518160020190600262000bfe92919062001d71565b5060808201518160030160006101000a81548173ffffffffffffffffffffffffffffffffffffffff021916908373ffffffffffffffffffffffffffffffffffffffff160217905550505060066040518060a00160405280600a60ff16815260200173111111111117dc0aa78b770fa6a738034120c30273ffffffffffffffffffffffffffffffffffffffff16815260200173c929ad75b72593967de83e7f7cda0493458261d973ffffffffffffffffffffffffffffffffffffffff1681526020016040518060400160405280610bb862ffffff1662ffffff16815260200161271062ffffff168152508152602001600860009054906101000a900473ffffffffffffffffffffffffffffffffffffffff1673ffffffffffffffffffffffffffffffffffffffff16815250908060018154018082558091505060019003906000526020600020906004020160009091909190915060008201518160000160006101000a81548160ff021916908360ff16021790555060208201518160000160016101000a81548173ffffffffffffffffffffffffffffffffffffffff021916908373ffffffffffffffffffffffffffffffffffffffff16021790555060408201518160010160006101000a81548173ffffffffffffffffffffffffffffffffffffffff021916908373ffffffffffffffffffffffffffffffffffffffff16021790555060608201518160020190600262000e1992919062001d71565b5060808201518160030160006101000a81548173ffffffffffffffffffffffffffffffffffffffff021916908373ffffffffffffffffffffffffffffffffffffffff160217905550505060066040518060a00160405280600560ff16815260200173c011a73ee8576fb46f5e1c5751ca3b9fe0af2a6f73ffffffffffffffffffffffffffffffffffffffff16815260200173dc3ea94cd0ac27d9a86c180091e7f78c683d369973ffffffffffffffffffffffffffffffffffffffff1681526020016040518060400160405280610bb862ffffff1662ffffff16815260200161271062ffffff168152508152602001600860009054906101000a900473ffffffffffffffffffffffffffffffffffffffff1673ffffffffffffffffffffffffffffffffffffffff16815250908060018154018082558091505060019003906000526020600020906004020160009091909190915060008201518160000160006101000a81548160ff021916908360ff16021790555060208201518160000160016101000a81548173ffffffffffffffffffffffffffffffffffffffff021916908373ffffffffffffffffffffffffffffffffffffffff16021790555060408201518160010160006101000a81548173ffffffffffffffffffffffffffffffffffffffff021916908373ffffffffffffffffffffffffffffffffffffffff1602179055506060820151816002019060026200103492919062001d71565b5060808201518160030160006101000a81548173ffffffffffffffffffffffffffffffffffffffff021916908373ffffffffffffffffffffffffffffffffffffffff160217905550505060066040518060a00160405280600560ff168152602001730bc529c00c6401aef6d220be8c6ea1667f6ad93e73ffffffffffffffffffffffffffffffffffffffff16815260200173a027702dbb89fbd58938e4324ac03b58d812b0e173ffffffffffffffffffffffffffffffffffffffff1681526020016040518060400160405280610bb862ffffff1662ffffff168152602001610bb862ffffff1662ffffff168152508152602001600860009054906101000a900473ffffffffffffffffffffffffffffffffffffffff1673ffffffffffffffffffffffffffffffffffffffff16815250908060018154018082558091505060019003906000526020600020906004020160009091909190915060008201518160000160006101000a81548160ff021916908360ff16021790555060208201518160000160016101000a81548173ffffffffffffffffffffffffffffffffffffffff021916908373ffffffffffffffffffffffffffffffffffffffff16021790555060408201518160010160006101000a81548173ffffffffffffffffffffffffffffffffffffffff021916908373ffffffffffffffffffffffffffffffffffffffff1602179055506060820151816002019060026200125492919062001d71565b5060808201518160030160006101000a81548173ffffffffffffffffffffffffffffffffffffffff021916908373ffffffffffffffffffffffffffffffffffffffff160217905550505060066040518060a00160405280600560ff16815260200173c00e94cb662c3520282e6f5717214004a7f2688873ffffffffffffffffffffffffffffffffffffffff16815260200173dbd020caef83efd542f4de03e3cf0c28a4428bd573ffffffffffffffffffffffffffffffffffffffff1681526020016040518060400160405280610bb862ffffff1662ffffff168152602001610bb862ffffff1662ffffff168152508152602001600860009054906101000a900473ffffffffffffffffffffffffffffffffffffffff1673ffffffffffffffffffffffffffffffffffffffff16815250908060018154018082558091505060019003906000526020600020906004020160009091909190915060008201518160000160006101000a81548160ff021916908360ff16021790555060208201518160000160016101000a81548173ffffffffffffffffffffffffffffffffffffffff021916908373ffffffffffffffffffffffffffffffffffffffff16021790555060408201518160010160006101000a81548173ffffffffffffffffffffffffffffffffffffffff021916908373ffffffffffffffffffffffffffffffffffffffff1602179055506060820151816002019060026200147492919062001d71565b5060808201518160030160006101000a81548173ffffffffffffffffffffffffffffffffffffffff021916908373ffffffffffffffffffffffffffffffffffffffff160217905550505060066040518060a00160405280600560ff168152602001739f8f72aa9304c8b593d555f12ef6589cc3a579a273ffffffffffffffffffffffffffffffffffffffff16815260200173ec1d1b3b0443256cc3860e24a46f108e699484aa73ffffffffffffffffffffffffffffffffffffffff1681526020016040518060400160405280610bb862ffffff1662ffffff168152602001610bb862ffffff1662ffffff168152508152602001600860009054906101000a900473ffffffffffffffffffffffffffffffffffffffff1673ffffffffffffffffffffffffffffffffffffffff16815250908060018154018082558091505060019003906000526020600020906004020160009091909190915060008201518160000160006101000a81548160ff021916908360ff16021790555060208201518160000160016101000a81548173ffffffffffffffffffffffffffffffffffffffff021916908373ffffffffffffffffffffffffffffffffffffffff16021790555060408201518160010160006101000a81548173ffffffffffffffffffffffffffffffffffffffff021916908373ffffffffffffffffffffffffffffffffffffffff1602179055506060820151816002019060026200169492919062001d71565b5060808201518160030160006101000a81548173ffffffffffffffffffffffffffffffffffffffff021916908373ffffffffffffffffffffffffffffffffffffffff160217905550505060066040518060a00160405280600a60ff168152602001736b3595068778dd592e39a122f4f5a5cf09c90fe273ffffffffffffffffffffffffffffffffffffffff16815260200173cc70f09a6cc17553b2e31954cd36e4a2d89501f773ffffffffffffffffffffffffffffffffffffffff1681526020016040518060400160405280610bb862ffffff1662ffffff168152602001610bb862ffffff1662ffffff168152508152602001600860009054906101000a900473ffffffffffffffffffffffffffffffffffffffff1673ffffffffffffffffffffffffffffffffffffffff16815250908060018154018082558091505060019003906000526020600020906004020160009091909190915060008201518160000160006101000a81548160ff021916908360ff16021790555060208201518160000160016101000a81548173ffffffffffffffffffffffffffffffffffffffff021916908373ffffffffffffffffffffffffffffffffffffffff16021790555060408201518160010160006101000a81548173ffffffffffffffffffffffffffffffffffffffff021916908373ffffffffffffffffffffffffffffffffffffffff160217905550606082015181600201906002620018b492919062001d71565b5060808201518160030160006101000a81548173ffffffffffffffffffffffffffffffffffffffff021916908373ffffffffffffffffffffffffffffffffffffffff160217905550505060066040518060a00160405280600a60ff168152602001734d224452801aced8b2f0aebe155379bb5d59438173ffffffffffffffffffffffffffffffffffffffff16815260200173d10abbc76679a20055e167bb80a24ac851b3705673ffffffffffffffffffffffffffffffffffffffff1681526020016040518060400160405280610bb862ffffff1662ffffff168152602001610bb862ffffff1662ffffff168152508152602001600860009054906101000a900473ffffffffffffffffffffffffffffffffffffffff1673ffffffffffffffffffffffffffffffffffffffff16815250908060018154018082558091505060019003906000526020600020906004020160009091909190915060008201518160000160006101000a81548160ff021916908360ff16021790555060208201518160000160016101000a81548173ffffffffffffffffffffffffffffffffffffffff021916908373ffffffffffffffffffffffffffffffffffffffff16021790555060408201518160010160006101000a81548173ffffffffffffffffffffffffffffffffffffffff021916908373ffffffffffffffffffffffffffffffffffffffff16021790555060608201518160020190600262001ad492919062001d71565b5060808201518160030160006101000a81548173ffffffffffffffffffffffffffffffffffffffff021916908373ffffffffffffffffffffffffffffffffffffffff160217905550505060066040518060a00160405280600a60ff16815260200173d533a949740bb3306d119cc777fa900ba034cd5273ffffffffffffffffffffffffffffffffffffffff16815260200173cd627aa160a6fa45eb793d19ef54f5062f20f33f73ffffffffffffffffffffffffffffffffffffffff1681526020016040518060400160405280610bb862ffffff1662ffffff16815260200161271062ffffff168152508152602001600860009054906101000a900473ffffffffffffffffffffffffffffffffffffffff1673ffffffffffffffffffffffffffffffffffffffff16815250908060018154018082558091505060019003906000526020600020906004020160009091909190915060008201518160000160006101000a81548160ff021916908360ff16021790555060208201518160000160016101000a81548173ffffffffffffffffffffffffffffffffffffffff021916908373ffffffffffffffffffffffffffffffffffffffff16021790555060408201518160010160006101000a81548173ffffffffffffffffffffffffffffffffffffffff021916908373ffffffffffffffffffffffffffffffffffffffff16021790555060608201518160020190600262001cef92919062001d71565b5060808201518160030160006101000a81548173ffffffffffffffffffffffffffffffffffffffff021916908373ffffffffffffffffffffffffffffffffffffffff160217905550505062001f9a565b600033905090565b610da280620067f783390190565b610c74806200759983390190565b6112ff806200820d83390190565b826002600901600a9004810192821562001e055791602002820160005b8382111562001dd257835183826101000a81548162ffffff021916908362ffffff160217905550926020019260030160208160020104928301926001030262001d8e565b801562001e035782816101000a81549062ffffff021916905560030160208160020104928301926001030262001dd2565b505b50905062001e14919062001e18565b5090565b5b8082111562001e3357600081600090555060010162001e19565b5090565b62001e428162001f45565b82525050565b62001e538162001f86565b82525050565b600062001e6860078362001f34565b91507f43525950544958000000000000000000000000000000000000000000000000006000830152602082019050919050565b600062001eaa60128362001f34565b91507f43727970746f20696e64657820746f6b656e00000000000000000000000000006000830152602082019050919050565b600060808201905062001ef4600083018562001e37565b818103602083015262001f078162001e9b565b905062001f18604083018462001e48565b818103606083015262001f2b8162001e59565b90509392505050565b600082825260208201905092915050565b600062001f528262001f59565b9050919050565b600073ffffffffffffffffffffffffffffffffffffffff82169050919050565b600060ff82169050919050565b600062001f938262001f79565b9050919050565b60805160601c61483062001fc7600039806124fa5280612ccc5280613059528061310652506148306000f3fe608060405234801561001057600080fd5b506004361061018b5760003560e01c806306fdde031461019057806313a7e54e146101ae5780631da98960146101ca57806336e087d7146101e85780633d956691146102185780634f64b2be14610236578063518ab2a81461026957806360ebbf8114610287578063715018a6146102a55780637805d4be146102af578063782fa9c9146102df5780638da5cb5b146102fb5780638e96347b1461031957806395d89b411461033757806398d5fdca1461035557806399a5d7471461037357806399d50d5d146103a4578063a4e2d634146103c2578063ad5c4648146103e0578063b7597914146103fe578063ba25d9441461041c578063c20120b51461043a578063ced72f8714610458578063d96a094a14610477578063e4849b3214610493578063e7d015f2146104af578063ea4c1b45146104cd578063eed8c66d146104d7578063f2fde38b146104f5578063f3ccaac014610511578063f510d9081461052f578063f76f691c14610539578063fa2dcd9314610569575b600080fd5b610198610573565b6040516101a59190614272565b60405180910390f35b6101c860048036038101906101c3919061398e565b6105b0565b005b6101d2610685565b6040516101df9190614272565b60405180910390f35b61020260048036038101906101fd91906138c4565b6106a5565b60405161020f91906143b0565b60405180910390f35b61022061076c565b60405161022d91906143b0565b60405180910390f35b610250600480360381019061024b9190613900565b610772565b604051610260949392919061441d565b60405180910390f35b61027161081f565b60405161027e91906143b0565b60405180910390f35b61028f610825565b60405161029c91906140a8565b60405180910390f35b6102ad61084b565b005b6102c960048036038101906102c49190613872565b6109b8565b6040516102d691906143b0565b60405180910390f35b6102f960048036038101906102f49190613952565b610a8f565b005b610303610f21565b60405161031091906140a8565b60405180910390f35b610321610f4a565b60405161032e91906143b0565b60405180910390f35b61033f610f50565b60405161034c9190614272565b60405180910390f35b61035d610f8d565b60405161036a91906143b0565b60405180910390f35b61038d60048036038101906103889190613900565b6111b9565b60405161039b9291906143f4565b60405180910390f35b6103ac61121d565b6040516103b9919061421a565b60405180910390f35b6103ca61140a565b6040516103d7919061423c565b60405180910390f35b6103e861141d565b6040516103f591906140a8565b60405180910390f35b610406611443565b60405161041391906143b0565b60405180910390f35b610424611701565b6040516104319190614272565b60405180910390f35b610442611721565b60405161044f919061423c565b60405180910390f35b610460611738565b60405161046e9291906143f4565b60405180910390f35b610491600480360381019061048c9190613900565b61175c565b005b6104ad60048036038101906104a89190613900565b611b04565b005b6104b7611e4d565b6040516104c49190614257565b60405180910390f35b6104d5611e73565b005b6104df6121b1565b6040516104ec91906143b0565b60405180910390f35b61050f600480360381019061050a919061380d565b6121b7565b005b6105196123a9565b6040516105269190614272565b60405180910390f35b6105376123c9565b005b610553600480360381019061054e9190613836565b612536565b60405161056091906143b0565b60405180910390f35b610571612619565b005b60606040518060400160405280600b81526020017f43727970746f496e646578000000000000000000000000000000000000000000815250905090565b6105b8612886565b73ffffffffffffffffffffffffffffffffffffffff166105d6610f21565b73ffffffffffffffffffffffffffffffffffffffff161461065f576040517f08c379a00000000000000000000000000000000000000000000000000000000081526004018080602001828103825260208152602001807f4f776e61626c653a2063616c6c6572206973206e6f7420746865206f776e657281525060200191505060405180910390fd5b81600260156101000a81548160ff021916908360ff160217905550806003819055505050565b60606040518060800160405280604981526020016147b260499139905090565b6000600b60009054906101000a900473ffffffffffffffffffffffffffffffffffffffff1673ffffffffffffffffffffffffffffffffffffffff1663e5d5ed19846020015185606001518660800151866040518563ffffffff1660e01b81526004016107149493929190614175565b60206040518083038186803b15801561072c57600080fd5b505afa158015610740573d6000803e3d6000fd5b505050506040513d601f19601f820116820180604052508101906107649190613929565b905092915050565b600d5481565b6006818154811061078257600080fd5b90600052602060002090600402016000915090508060000160009054906101000a900460ff16908060000160019054906101000a900473ffffffffffffffffffffffffffffffffffffffff16908060010160009054906101000a900473ffffffffffffffffffffffffffffffffffffffff16908060030160009054906101000a900473ffffffffffffffffffffffffffffffffffffffff16905084565b600f5481565b600260019054906101000a900473ffffffffffffffffffffffffffffffffffffffff1681565b610853612886565b73ffffffffffffffffffffffffffffffffffffffff16610871610f21565b73ffffffffffffffffffffffffffffffffffffffff16146108fa576040517f08c379a00000000000000000000000000000000000000000000000000000000081526004018080602001828103825260208152602001807f4f776e61626c653a2063616c6c6572206973206e6f7420746865206f776e657281525060200191505060405180910390fd5b600073ffffffffffffffffffffffffffffffffffffffff1660008054906101000a900473ffffffffffffffffffffffffffffffffffffffff1673ffffffffffffffffffffffffffffffffffffffff167f8be0079c531659141344cd1fd0a4f28419497f9722a3daafe3b4186f6b6457e060405160405180910390a360008060006101000a81548173ffffffffffffffffffffffffffffffffffffffff021916908373ffffffffffffffffffffffffffffffffffffffff160217905550565b6000816109e757600960009054906101000a900473ffffffffffffffffffffffffffffffffffffffff16610a0b565b600a60009054906101000a900473ffffffffffffffffffffffffffffffffffffffff165b73ffffffffffffffffffffffffffffffffffffffff166334ce998a6040518163ffffffff1660e01b815260040160206040518083038186803b158015610a5057600080fd5b505afa158015610a64573d6000803e3d6000fd5b505050506040513d601f19601f82011682018060405250810190610a889190613929565b9050919050565b60026001541415610b08576040517f08c379a000000000000000000000000000000000000000000000000000000000815260040180806020018281038252601f8152602001807f5265656e7472616e637947756172643a207265656e7472616e742063616c6c0081525060200191505060405180910390fd5b6002600181905550600560009054906101000a900460ff1615610b60576040517f08c379a0000000000000000000000000000000000000000000000000000000008152600401610b57906142d4565b60405180910390fd5b600260009054906101000a900460ff1615610bb0576040517f08c379a0000000000000000000000000000000000000000000000000000000008152600401610ba7906142f4565b60405180910390fd5b600081610bdf57600960009054906101000a900473ffffffffffffffffffffffffffffffffffffffff16610c03565b600a60009054906101000a900473ffffffffffffffffffffffffffffffffffffffff165b9050828173ffffffffffffffffffffffffffffffffffffffff166334ce998a6040518163ffffffff1660e01b815260040160206040518083038186803b158015610c4c57600080fd5b505afa158015610c60573d6000803e3d6000fd5b505050506040513d601f19601f82011682018060405250810190610c849190613929565b10158015610d1a5750828173ffffffffffffffffffffffffffffffffffffffff1663e65896c9336040518263ffffffff1660e01b8152600401610cc791906140c3565b60206040518083038186803b158015610cdf57600080fd5b505afa158015610cf3573d6000803e3d6000fd5b505050506040513d601f19601f82011682018060405250810190610d179190613929565b10155b610d59576040517f08c379a0000000000000000000000000000000000000000000000000000000008152600401610d50906142b4565b60405180910390fd5b81610d8657600260019054906101000a900473ffffffffffffffffffffffffffffffffffffffff16610daa565b600760009054906101000a900473ffffffffffffffffffffffffffffffffffffffff165b73ffffffffffffffffffffffffffffffffffffffff1663a9059cbb33856040518363ffffffff1660e01b8152600401610de49291906140de565b602060405180830381600087803b158015610dfe57600080fd5b505af1158015610e12573d6000803e3d6000fd5b505050506040513d601f19601f82011682018060405250810190610e36919061389b565b508073ffffffffffffffffffffffffffffffffffffffff1663cca5e4b1338560006040518463ffffffff1660e01b8152600401610e7593929190614107565b600060405180830381600087803b158015610e8f57600080fd5b505af1158015610ea3573d6000803e3d6000fd5b505050508073ffffffffffffffffffffffffffffffffffffffff1663f8c493d68460006040518363ffffffff1660e01b8152600401610ee39291906143cb565b600060405180830381600087803b158015610efd57600080fd5b505af1158015610f11573d6000803e3d6000fd5b5050505050600180819055505050565b60008060009054906101000a900473ffffffffffffffffffffffffffffffffffffffff16905090565b600e5481565b60606040518060400160405280600781526020017f4352595054495800000000000000000000000000000000000000000000000000815250905090565b60008060005b6006805490508110156111b157600060068281548110610faf57fe5b90600052602060002090600402016040518060a00160405290816000820160009054906101000a900460ff1660ff1660ff1681526020016000820160019054906101000a900473ffffffffffffffffffffffffffffffffffffffff1673ffffffffffffffffffffffffffffffffffffffff1673ffffffffffffffffffffffffffffffffffffffff1681526020016001820160009054906101000a900473ffffffffffffffffffffffffffffffffffffffff1673ffffffffffffffffffffffffffffffffffffffff1673ffffffffffffffffffffffffffffffffffffffff168152602001600282016002806020026040519081016040528092919082600280156110f7576020028201916000905b82829054906101000a900462ffffff1662ffffff16815260200190600301906020826002010492830192600103820291508084116110bc5790505b505050505081526020016003820160009054906101000a900473ffffffffffffffffffffffffffffffffffffffff1673ffffffffffffffffffffffffffffffffffffffff1673ffffffffffffffffffffffffffffffffffffffff168152505090506111a16111926064611184846000015160ff166111768660006106a5565b61288e90919063ffffffff16565b61291490919063ffffffff16565b8461299d90919063ffffffff16565b9250508080600101915050610f93565b508091505090565b60008060006111f7600260159054906101000a900460ff1660ff166111e96003548761291490919063ffffffff16565b61288e90919063ffffffff16565b9050600061120e8286612a2590919063ffffffff16565b90508181935093505050915091565b60606006805480602002602001604051908101604052809291908181526020016000905b8282101561140157838290600052602060002090600402016040518060a00160405290816000820160009054906101000a900460ff1660ff1660ff1681526020016000820160019054906101000a900473ffffffffffffffffffffffffffffffffffffffff1673ffffffffffffffffffffffffffffffffffffffff1673ffffffffffffffffffffffffffffffffffffffff1681526020016001820160009054906101000a900473ffffffffffffffffffffffffffffffffffffffff1673ffffffffffffffffffffffffffffffffffffffff1673ffffffffffffffffffffffffffffffffffffffff16815260200160028201600280602002604051908101604052809291908260028015611393576020028201916000905b82829054906101000a900462ffffff1662ffffff16815260200190600301906020826002010492830192600103820291508084116113585790505b505050505081526020016003820160009054906101000a900473ffffffffffffffffffffffffffffffffffffffff1673ffffffffffffffffffffffffffffffffffffffff1673ffffffffffffffffffffffffffffffffffffffff168152505081526020019060010190611241565b50505050905090565b600260009054906101000a900460ff1681565b600860009054906101000a900473ffffffffffffffffffffffffffffffffffffffff1681565b60008060005b6006805490508110156116f95760006006828154811061146557fe5b90600052602060002090600402016040518060a00160405290816000820160009054906101000a900460ff1660ff1660ff1681526020016000820160019054906101000a900473ffffffffffffffffffffffffffffffffffffffff1673ffffffffffffffffffffffffffffffffffffffff1673ffffffffffffffffffffffffffffffffffffffff1681526020016001820160009054906101000a900473ffffffffffffffffffffffffffffffffffffffff1673ffffffffffffffffffffffffffffffffffffffff1673ffffffffffffffffffffffffffffffffffffffff168152602001600282016002806020026040519081016040528092919082600280156115ad576020028201916000905b82829054906101000a900462ffffff1662ffffff16815260200190600301906020826002010492830192600103820291508084116115725790505b505050505081526020016003820160009054906101000a900473ffffffffffffffffffffffffffffffffffffffff1673ffffffffffffffffffffffffffffffffffffffff1673ffffffffffffffffffffffffffffffffffffffff1681525050905060006116b961161e8360006106a5565b836020015173ffffffffffffffffffffffffffffffffffffffff166370a08231306040518263ffffffff1660e01b815260040161165b91906140a8565b60206040518083038186803b15801561167357600080fd5b505afa158015611687573d6000803e3d6000fd5b505050506040513d601f19601f820116820180604052508101906116ab9190613929565b61288e90919063ffffffff16565b90506116e86116d9670de0b6b3a76400008361291490919063ffffffff16565b8561299d90919063ffffffff16565b935050508080600101915050611449565b508091505090565b60606040518060800160405280604981526020016147b260499139905090565b6000600560009054906101000a900460ff16905090565b600080600260159054906101000a900460ff166003548160ff169150915091509091565b600260015414156117d5576040517f08c379a000000000000000000000000000000000000000000000000000000000815260040180806020018281038252601f8152602001807f5265656e7472616e637947756172643a207265656e7472616e742063616c6c0081525060200191505060405180910390fd5b6002600181905550600560009054906101000a900460ff161561182d576040517f08c379a0000000000000000000000000000000000000000000000000000000008152600401611824906142d4565b60405180910390fd5b600080611839836111b9565b915091506001811015611881576040517f08c379a000000000000000000000000000000000000000000000000000000000815260040161187890614294565b60405180910390fd5b600061188b610f8d565b905060006118bc670de0b6b3a76400006118ae848661288e90919063ffffffff16565b61291490919063ffffffff16565b90506118d381600e5461299d90919063ffffffff16565b600e81905550600a60009054906101000a900473ffffffffffffffffffffffffffffffffffffffff1673ffffffffffffffffffffffffffffffffffffffff1663cca5e4b1338560016040518463ffffffff1660e01b815260040161193993929190614107565b600060405180830381600087803b15801561195357600080fd5b505af1158015611967573d6000803e3d6000fd5b505050506119c5600260019054906101000a900473ffffffffffffffffffffffffffffffffffffffff1633306119c0670de0b6b3a76400006119b2888c61288e90919063ffffffff16565b61291490919063ffffffff16565b612aa8565b600260019054906101000a900473ffffffffffffffffffffffffffffffffffffffff1673ffffffffffffffffffffffffffffffffffffffff1663a9059cbb611a0b610f21565b611a4b670de0b6b3a7640000611a3d6002611a2f898c61288e90919063ffffffff16565b61291490919063ffffffff16565b61291490919063ffffffff16565b6040518363ffffffff1660e01b8152600401611a689291906141ba565b602060405180830381600087803b158015611a8257600080fd5b505af1158015611a96573d6000803e3d6000fd5b505050506040513d601f19601f82011682018060405250810190611aba919061389b565b507fc032f62758cac23a902e648ab54b6825665b9bc19e7cd0a8ab915cbf3eea4fa0338285604051611aee9392919061413e565b60405180910390a1505050506001808190555050565b60026001541415611b7d576040517f08c379a000000000000000000000000000000000000000000000000000000000815260040180806020018281038252601f8152602001807f5265656e7472616e637947756172643a207265656e7472616e742063616c6c0081525060200191505060405180910390fd5b6002600181905550600560009054906101000a900460ff1615611bd5576040517f08c379a0000000000000000000000000000000000000000000000000000000008152600401611bcc906142d4565b60405180910390fd5b600260009054906101000a900460ff1615611c25576040517f08c379a0000000000000000000000000000000000000000000000000000000008152600401611c1c906142f4565b60405180910390fd5b600080611c31836111b9565b915091506001811015611c79576040517f08c379a0000000000000000000000000000000000000000000000000000000008152600401611c7090614314565b60405180910390fd5b611c8e83600d5461299d90919063ffffffff16565b600d81905550600960009054906101000a900473ffffffffffffffffffffffffffffffffffffffff1673ffffffffffffffffffffffffffffffffffffffff1663cca5e4b1338360016040518463ffffffff1660e01b8152600401611cf493929190614107565b600060405180830381600087803b158015611d0e57600080fd5b505af1158015611d22573d6000803e3d6000fd5b50505050600960009054906101000a900473ffffffffffffffffffffffffffffffffffffffff1673ffffffffffffffffffffffffffffffffffffffff1663cca5e4b1611d6c610f21565b8460016040518463ffffffff1660e01b8152600401611d8d939291906141e3565b600060405180830381600087803b158015611da757600080fd5b505af1158015611dbb573d6000803e3d6000fd5b50505050611ded600760009054906101000a900473ffffffffffffffffffffffffffffffffffffffff16333086612aa8565b7fc779ed4173ee0a3293a6575326fb4fcb5c81023bbc481cf910100c0fbe836e3333611e29611e1a610f8d565b8461288e90919063ffffffff16565b83604051611e399392919061413e565b60405180910390a150506001808190555050565b600760009054906101000a900473ffffffffffffffffffffffffffffffffffffffff1681565b611e7b612886565b73ffffffffffffffffffffffffffffffffffffffff16611e99610f21565b73ffffffffffffffffffffffffffffffffffffffff1614611f22576040517f08c379a00000000000000000000000000000000000000000000000000000000081526004018080602001828103825260208152602001807f4f776e61626c653a2063616c6c6572206973206e6f7420746865206f776e657281525060200191505060405180910390fd5b6001600c60008282540192505081905550600160068054905003600c541115611f4e576000600c819055505b60006006600c5481548110611f5f57fe5b90600052602060002090600402016040518060a00160405290816000820160009054906101000a900460ff1660ff1660ff1681526020016000820160019054906101000a900473ffffffffffffffffffffffffffffffffffffffff1673ffffffffffffffffffffffffffffffffffffffff1673ffffffffffffffffffffffffffffffffffffffff1681526020016001820160009054906101000a900473ffffffffffffffffffffffffffffffffffffffff1673ffffffffffffffffffffffffffffffffffffffff1673ffffffffffffffffffffffffffffffffffffffff168152602001600282016002806020026040519081016040528092919082600280156120a7576020028201916000905b82829054906101000a900462ffffff1662ffffff168152602001906003019060208260020104928301926001038202915080841161206c5790505b505050505081526020016003820160009054906101000a900473ffffffffffffffffffffffffffffffffffffffff1673ffffffffffffffffffffffffffffffffffffffff1673ffffffffffffffffffffffffffffffffffffffff168152505090506000612139606461212b846000015160ff16600e5461288e90919063ffffffff16565b61291490919063ffffffff16565b9050600061216c606461215e856000015160ff16600d5461288e90919063ffffffff16565b61291490919063ffffffff16565b9050600082111561218d5761218c83836121878660006106a5565b612cc8565b5b60008111156121ac576121ab83826121a68660016106a5565b613055565b5b505050565b600c5481565b6121bf612886565b73ffffffffffffffffffffffffffffffffffffffff166121dd610f21565b73ffffffffffffffffffffffffffffffffffffffff1614612266576040517f08c379a00000000000000000000000000000000000000000000000000000000081526004018080602001828103825260208152602001807f4f776e61626c653a2063616c6c6572206973206e6f7420746865206f776e657281525060200191505060405180910390fd5b600073ffffffffffffffffffffffffffffffffffffffff168173ffffffffffffffffffffffffffffffffffffffff1614156122ec576040517f08c379a000000000000000000000000000000000000000000000000000000000815260040180806020018281038252602681526020018061472a6026913960400191505060405180910390fd5b8073ffffffffffffffffffffffffffffffffffffffff1660008054906101000a900473ffffffffffffffffffffffffffffffffffffffff1673ffffffffffffffffffffffffffffffffffffffff167f8be0079c531659141344cd1fd0a4f28419497f9722a3daafe3b4186f6b6457e060405160405180910390a3806000806101000a81548173ffffffffffffffffffffffffffffffffffffffff021916908373ffffffffffffffffffffffffffffffffffffffff16021790555050565b606060405180608001604052806041815260200161475060419139905090565b6123d1612886565b73ffffffffffffffffffffffffffffffffffffffff166123ef610f21565b73ffffffffffffffffffffffffffffffffffffffff1614612478576040517f08c379a00000000000000000000000000000000000000000000000000000000081526004018080602001828103825260208152602001807f4f776e61626c653a2063616c6c6572206973206e6f7420746865206f776e657281525060200191505060405180910390fd5b6001600560006101000a81548160ff02191690831515021790555060006124d06003546124c2600260159054906101000a900460ff1660ff16600e5461288e90919063ffffffff16565b61291490919063ffffffff16565b9050612533600260019054906101000a900473ffffffffffffffffffffffffffffffffffffffff167f000000000000000000000000000000000000000000000000000000000000000061252e84600e5461299d90919063ffffffff16565b613467565b50565b60008161256557600960009054906101000a900473ffffffffffffffffffffffffffffffffffffffff16612589565b600a60009054906101000a900473ffffffffffffffffffffffffffffffffffffffff165b73ffffffffffffffffffffffffffffffffffffffff1663e65896c9846040518263ffffffff1660e01b81526004016125c191906140a8565b60206040518083038186803b1580156125d957600080fd5b505afa1580156125ed573d6000803e3d6000fd5b505050506040513d601f19601f820116820180604052508101906126119190613929565b905092915050565b612621612886565b73ffffffffffffffffffffffffffffffffffffffff1661263f610f21565b73ffffffffffffffffffffffffffffffffffffffff16146126c8576040517f08c379a00000000000000000000000000000000000000000000000000000000081526004018080602001828103825260208152602001807f4f776e61626c653a2063616c6c6572206973206e6f7420746865206f776e657281525060200191505060405180910390fd5b60006126d2610f8d565b9050600a60009054906101000a900473ffffffffffffffffffffffffffffffffffffffff1673ffffffffffffffffffffffffffffffffffffffff1663f8c493d661274183612733670de0b6b3a7640000600e5461288e90919063ffffffff16565b61291490919063ffffffff16565b60016040518363ffffffff1660e01b81526004016127609291906143cb565b600060405180830381600087803b15801561277a57600080fd5b505af115801561278e573d6000803e3d6000fd5b50505050600960009054906101000a900473ffffffffffffffffffffffffffffffffffffffff1673ffffffffffffffffffffffffffffffffffffffff1663f8c493d66127ff836127f1670de0b6b3a7640000600f5461288e90919063ffffffff16565b61291490919063ffffffff16565b60016040518363ffffffff1660e01b815260040161281e9291906143cb565b600060405180830381600087803b15801561283857600080fd5b505af115801561284c573d6000803e3d6000fd5b505050506000600e819055506000600d819055506000600f819055506000600560006101000a81548160ff02191690831515021790555050565b600033905090565b6000808314156128a1576000905061290e565b60008284029050828482816128b257fe5b0414612909576040517f08c379a00000000000000000000000000000000000000000000000000000000081526004018080602001828103825260218152602001806147916021913960400191505060405180910390fd5b809150505b92915050565b600080821161298b576040517f08c379a000000000000000000000000000000000000000000000000000000000815260040180806020018281038252601a8152602001807f536166654d6174683a206469766973696f6e206279207a65726f00000000000081525060200191505060405180910390fd5b81838161299457fe5b04905092915050565b600080828401905083811015612a1b576040517f08c379a000000000000000000000000000000000000000000000000000000000815260040180806020018281038252601b8152602001807f536166654d6174683a206164646974696f6e206f766572666c6f77000000000081525060200191505060405180910390fd5b8091505092915050565b600082821115612a9d576040517f08c379a000000000000000000000000000000000000000000000000000000000815260040180806020018281038252601e8152602001807f536166654d6174683a207375627472616374696f6e206f766572666c6f77000081525060200191505060405180910390fd5b818303905092915050565b6000808573ffffffffffffffffffffffffffffffffffffffff166323b872dd60e01b868686604051602401808473ffffffffffffffffffffffffffffffffffffffff1681526020018373ffffffffffffffffffffffffffffffffffffffff1681526020018281526020019350505050604051602081830303815290604052907bffffffffffffffffffffffffffffffffffffffffffffffffffffffff19166020820180517bffffffffffffffffffffffffffffffffffffffffffffffffffffffff83818316178352505050506040518082805190602001908083835b60208310612ba75780518252602082019150602081019050602083039250612b84565b6001836020036101000a0380198251168184511680821785525050505050509050019150506000604051808303816000865af19150503d8060008114612c09576040519150601f19603f3d011682016040523d82523d6000602084013e612c0e565b606091505b5091509150818015612c4e5750600081511480612c4d5750808060200190516020811015612c3b57600080fd5b81019080805190602001909291905050505b5b612cc0576040517f08c379a00000000000000000000000000000000000000000000000000000000081526004018080602001828103825260038152602001807f535446000000000000000000000000000000000000000000000000000000000081525060200191505060405180910390fd5b505050505050565b60007f000000000000000000000000000000000000000000000000000000000000000090506000612d1c83612d0e670de0b6b3a76400008761288e90919063ffffffff16565b61291490919063ffffffff16565b90506000612d6b612d5c600354612d4e600260159054906101000a900460ff1660ff168961288e90919063ffffffff16565b61291490919063ffffffff16565b8661299d90919063ffffffff16565b9050600073ffffffffffffffffffffffffffffffffffffffff16866080015173ffffffffffffffffffffffffffffffffffffffff161415612f09578273ffffffffffffffffffffffffffffffffffffffff1663db3e2198604051806101000160405280600260019054906101000a900473ffffffffffffffffffffffffffffffffffffffff1673ffffffffffffffffffffffffffffffffffffffff168152602001896020015173ffffffffffffffffffffffffffffffffffffffff1681526020018960600151600060028110612e3d57fe5b602002015162ffffff1681526020013073ffffffffffffffffffffffffffffffffffffffff168152602001428152602001858152602001848152602001600073ffffffffffffffffffffffffffffffffffffffff168152506040518263ffffffff1660e01b8152600401612eb19190614394565b602060405180830381600087803b158015612ecb57600080fd5b505af1158015612edf573d6000803e3d6000fd5b505050506040513d601f19601f82011682018060405250810190612f039190613929565b5061304d565b8273ffffffffffffffffffffffffffffffffffffffff1663f28c04986040518060a0016040528089602001518a60600151600160028110612f4657fe5b60200201518b608001518c60600151600060028110612f6157fe5b6020020151600260019054906101000a900473ffffffffffffffffffffffffffffffffffffffff16604051602001612f9d959493929190614049565b60405160208183030381529060405281526020013073ffffffffffffffffffffffffffffffffffffffff168152602001428152602001858152602001848152506040518263ffffffff1660e01b8152600401612ff99190614372565b602060405180830381600087803b15801561301357600080fd5b505af1158015613027573d6000803e3d6000fd5b505050506040513d601f19601f8201168201806040525081019061304b9190613929565b505b505050505050565b60007f0000000000000000000000000000000000000000000000000000000000000000905060006130a9670de0b6b3a764000061309b858761288e90919063ffffffff16565b61291490919063ffffffff16565b905060006130f86130e96003546130db600260159054906101000a900460ff1660ff168961288e90919063ffffffff16565b61291490919063ffffffff16565b86612a2590919063ffffffff16565b9050600061312b87602001517f000000000000000000000000000000000000000000000000000000000000000085613467565b600073ffffffffffffffffffffffffffffffffffffffff16876080015173ffffffffffffffffffffffffffffffffffffffff1614156132c8578373ffffffffffffffffffffffffffffffffffffffff1663414bf3896040518061010001604052808a6020015173ffffffffffffffffffffffffffffffffffffffff168152602001600260019054906101000a900473ffffffffffffffffffffffffffffffffffffffff1673ffffffffffffffffffffffffffffffffffffffff1681526020018a606001516000600281106131fb57fe5b602002015162ffffff1681526020013073ffffffffffffffffffffffffffffffffffffffff168152602001428152602001868152602001858152602001600073ffffffffffffffffffffffffffffffffffffffff168152506040518263ffffffff1660e01b815260040161326f9190614356565b602060405180830381600087803b15801561328957600080fd5b505af115801561329d573d6000803e3d6000fd5b505050506040513d601f19601f820116820180604052508101906132c19190613929565b905061340d565b8373ffffffffffffffffffffffffffffffffffffffff1663c04b8d596040518060a001604052808a602001518b6060015160016002811061330557fe5b60200201518c608001518d6060015160006002811061332057fe5b6020020151600260019054906101000a900473ffffffffffffffffffffffffffffffffffffffff1660405160200161335c959493929190614049565b60405160208183030381529060405281526020013073ffffffffffffffffffffffffffffffffffffffff168152602001428152602001868152602001858152506040518263ffffffff1660e01b81526004016133b89190614334565b602060405180830381600087803b1580156133d257600080fd5b505af11580156133e6573d6000803e3d6000fd5b505050506040513d601f19601f8201168201806040525081019061340a9190613929565b90505b600061343c886000015160ff1661342e60648561288e90919063ffffffff16565b61291490919063ffffffff16565b9050600f5481108061345057506000600f54145b1561345d5780600f819055505b5050505050505050565b6000808473ffffffffffffffffffffffffffffffffffffffff1663095ea7b360e01b8585604051602401808373ffffffffffffffffffffffffffffffffffffffff16815260200182815260200192505050604051602081830303815290604052907bffffffffffffffffffffffffffffffffffffffffffffffffffffffff19166020820180517bffffffffffffffffffffffffffffffffffffffffffffffffffffffff83818316178352505050506040518082805190602001908083835b602083106135485780518252602082019150602081019050602083039250613525565b6001836020036101000a0380198251168184511680821785525050505050509050019150506000604051808303816000865af19150503d80600081146135aa576040519150601f19603f3d011682016040523d82523d6000602084013e6135af565b606091505b50915091508180156135ef57506000815114806135ee57508080602001905160208110156135dc57600080fd5b81019080805190602001909291905050505b5b613661576040517f08c379a00000000000000000000000000000000000000000000000000000000081526004018080602001828103825260028152602001807f534100000000000000000000000000000000000000000000000000000000000081525060200191505060405180910390fd5b5050505050565b600061367b61367684614493565b614462565b9050808285602086028201111561369157600080fd5b60005b858110156136c157816136a788826137b9565b845260208401935060208301925050600181019050613694565b5050509392505050565b6000813590506136da816146b6565b92915050565b600082601f8301126136f157600080fd5b60026136fe848285613668565b91505092915050565b600081359050613716816146cd565b92915050565b60008151905061372b816146cd565b92915050565b600060c0828403121561374357600080fd5b61374d60a0614462565b9050600061375d848285016137f8565b6000830152506020613771848285016136cb565b6020830152506040613785848285016136cb565b6040830152506060613799848285016136e0565b60608301525060a06137ad848285016136cb565b60808301525092915050565b6000813590506137c8816146e4565b92915050565b6000813590506137dd816146fb565b92915050565b6000815190506137f2816146fb565b92915050565b60008135905061380781614712565b92915050565b60006020828403121561381f57600080fd5b600061382d848285016136cb565b91505092915050565b6000806040838503121561384957600080fd5b6000613857858286016136cb565b925050602061386885828601613707565b9150509250929050565b60006020828403121561388457600080fd5b600061389284828501613707565b91505092915050565b6000602082840312156138ad57600080fd5b60006138bb8482850161371c565b91505092915050565b60008060e083850312156138d757600080fd5b60006138e585828601613731565b92505060c06138f685828601613707565b9150509250929050565b60006020828403121561391257600080fd5b6000613920848285016137ce565b91505092915050565b60006020828403121561393b57600080fd5b6000613949848285016137e3565b91505092915050565b6000806040838503121561396557600080fd5b6000613973858286016137ce565b925050602061398485828601613707565b9150509250929050565b600080604083850312156139a157600080fd5b60006139af858286016137f8565b92505060206139c0858286016137ce565b9150509250929050565b60006139d68383613f70565b60c08301905092915050565b60006139ee8383613fe7565b60208301905092915050565b613a03816145c6565b82525050565b613a1281614562565b82525050565b613a2181614562565b82525050565b613a38613a3382614562565b614653565b82525050565b6000613a49826144d3565b613a538185614519565b9350613a5e836144b9565b8060005b83811015613a8f578151613a7688826139ca565b9750613a81836144ff565b925050600181019050613a62565b5085935050505092915050565b613aa5816144de565b613aaf818461452a565b9250613aba826144c9565b8060005b83811015613aeb578151613ad287826139e2565b9650613add8361450c565b925050600181019050613abe565b505050505050565b613afc816144de565b613b068184614535565b9250613b11826144c9565b8060005b83811015613b42578151613b2987826139e2565b9650613b348361450c565b925050600181019050613b15565b505050505050565b613b5381614574565b82525050565b6000613b64826144e9565b613b6e8185614540565b9350613b7e818560208601614620565b613b878161468b565b840191505092915050565b613b9b816145d8565b82525050565b6000613bac826144f4565b613bb68185614551565b9350613bc6818560208601614620565b613bcf8161468b565b840191505092915050565b6000613be7601683614551565b91507f4e6f7420656e6f75676820746f6b656e732073656e74000000000000000000006000830152602082019050919050565b6000613c27600f83614551565b91507f4e6f7420656e6f756768206465627400000000000000000000000000000000006000830152602082019050919050565b6000613c67602983614551565b91507f50726f64756374206973206265696e6720736574746c65642c2074727920616760008301527f61696e206c6174657200000000000000000000000000000000000000000000006020830152604082019050919050565b6000613ccd601183614551565b91507f50726f64756374206973206c6f636b65640000000000000000000000000000006000830152602082019050919050565b6000613d0d601983614551565b91507f596f75206d7573742073656c6c206d6f726520746f6b656e73000000000000006000830152602082019050919050565b600060a0830160008301518482036000860152613d5d8282613b59565b9150506020830151613d726020860182613a09565b506040830151613d85604086018261400d565b506060830151613d98606086018261400d565b506080830151613dab608086018261400d565b508091505092915050565b61010082016000820151613dcd6000850182613a09565b506020820151613de06020850182613a09565b506040820151613df36040850182613fe7565b506060820151613e066060850182613a09565b506080820151613e19608085018261400d565b5060a0820151613e2c60a085018261400d565b5060c0820151613e3f60c085018261400d565b5060e0820151613e5260e0850182613fd8565b50505050565b600060a0830160008301518482036000860152613e758282613b59565b9150506020830151613e8a6020860182613a09565b506040830151613e9d604086018261400d565b506060830151613eb0606086018261400d565b506080830151613ec3608086018261400d565b508091505092915050565b61010082016000820151613ee56000850182613a09565b506020820151613ef86020850182613a09565b506040820151613f0b6040850182613fe7565b506060820151613f1e6060850182613a09565b506080820151613f31608085018261400d565b5060a0820151613f4460a085018261400d565b5060c0820151613f5760c085018261400d565b5060e0820151613f6a60e0850182613fd8565b50505050565b60c082016000820151613f86600085018261402b565b506020820151613f996020850182613a09565b506040820151613fac6040850182613a09565b506060820151613fbf6060850182613a9c565b506080820151613fd260a0850182613a09565b50505050565b613fe181614580565b82525050565b613ff0816145a0565b82525050565b614007614002826145a0565b614677565b82525050565b614016816145af565b82525050565b614025816145af565b82525050565b614034816145b9565b82525050565b614043816145b9565b82525050565b60006140558288613a27565b6014820191506140658287613ff6565b6003820191506140758286613a27565b6014820191506140858285613ff6565b6003820191506140958284613a27565b6014820191508190509695505050505050565b60006020820190506140bd6000830184613a18565b92915050565b60006020820190506140d860008301846139fa565b92915050565b60006040820190506140f360008301856139fa565b614100602083018461401c565b9392505050565b600060608201905061411c60008301866139fa565b614129602083018561401c565b6141366040830184613b4a565b949350505050565b600060608201905061415360008301866139fa565b614160602083018561401c565b61416d604083018461401c565b949350505050565b600060a08201905061418a6000830187613a18565b6141976020830186613af3565b6141a46060830185613a18565b6141b16080830184613b4a565b95945050505050565b60006040820190506141cf6000830185613a18565b6141dc602083018461401c565b9392505050565b60006060820190506141f86000830186613a18565b614205602083018561401c565b6142126040830184613b4a565b949350505050565b600060208201905081810360008301526142348184613a3e565b905092915050565b60006020820190506142516000830184613b4a565b92915050565b600060208201905061426c6000830184613b92565b92915050565b6000602082019050818103600083015261428c8184613ba1565b905092915050565b600060208201905081810360008301526142ad81613bda565b9050919050565b600060208201905081810360008301526142cd81613c1a565b9050919050565b600060208201905081810360008301526142ed81613c5a565b9050919050565b6000602082019050818103600083015261430d81613cc0565b9050919050565b6000602082019050818103600083015261432d81613d00565b9050919050565b6000602082019050818103600083015261434e8184613d40565b905092915050565b60006101008201905061436c6000830184613db6565b92915050565b6000602082019050818103600083015261438c8184613e58565b905092915050565b6000610100820190506143aa6000830184613ece565b92915050565b60006020820190506143c5600083018461401c565b92915050565b60006040820190506143e0600083018561401c565b6143ed6020830184613b4a565b9392505050565b6000604082019050614409600083018561401c565b614416602083018461401c565b9392505050565b6000608082019050614432600083018761403a565b61443f6020830186613a18565b61444c6040830185613a18565b6144596060830184613a18565b95945050505050565b6000604051905081810181811067ffffffffffffffff8211171561448957614488614689565b5b8060405250919050565b600067ffffffffffffffff8211156144ae576144ad614689565b5b602082029050919050565b6000819050602082019050919050565b6000819050919050565b600081519050919050565b600060029050919050565b600081519050919050565b600081519050919050565b6000602082019050919050565b6000602082019050919050565b600082825260208201905092915050565b600081905092915050565b600081905092915050565b600082825260208201905092915050565b600082825260208201905092915050565b600061456d82614580565b9050919050565b60008115159050919050565b600073ffffffffffffffffffffffffffffffffffffffff82169050919050565b600062ffffff82169050919050565b6000819050919050565b600060ff82169050919050565b60006145d1826145fc565b9050919050565b60006145e3826145ea565b9050919050565b60006145f582614580565b9050919050565b60006146078261460e565b9050919050565b600061461982614580565b9050919050565b60005b8381101561463e578082015181840152602081019050614623565b8381111561464d576000848401525b50505050565b600061465e82614665565b9050919050565b6000614670826146a9565b9050919050565b60006146828261469c565b9050919050565bfe5b6000601f19601f8301169050919050565b60008160e81b9050919050565b60008160601b9050919050565b6146bf81614562565b81146146ca57600080fd5b50565b6146d681614574565b81146146e157600080fd5b50565b6146ed816145a0565b81146146f857600080fd5b50565b614704816145af565b811461470f57600080fd5b50565b61471b816145b9565b811461472657600080fd5b5056fe4f776e61626c653a206e6577206f776e657220697320746865207a65726f206164647265737368747470733a2f2f63727970746f6c6f676f732e63632f6c6f676f732f706f6c796d6174682d6e6574776f726b2d706f6c792d6c6f676f2e706e673f763d303232536166654d6174683a206d756c7469706c69636174696f6e206f766572666c6f77436f7272656c6174696f6e20696e646578206973206120746f6f6c207468617420616c6c6f777320796f7520746f2064697665727369667920796f757220696e766573746d656e7473a264697066735822122005ed8377136473f890e1cee2ab12ce28756aead62f6ad17027b4dacdeecba94564736f6c6343000706003360806040526040516100109061007f565b604051809103906000f08015801561002c573d6000803e3d6000fd5b50600160006101000a81548173ffffffffffffffffffffffffffffffffffffffff021916908373ffffffffffffffffffffffffffffffffffffffff16021790555034801561007957600080fd5b5061008c565b6106928061071083390190565b6106758061009b6000396000f3fe608060405234801561001057600080fd5b50600436106100575760003560e01c806334ce998a1461005c578063cca5e4b11461007a578063e2842d79146100d4578063e65896c914610133578063f8c493d61461018b575b600080fd5b6100646101c5565b6040518082815260200191505060405180910390f35b6100d26004803603606081101561009057600080fd5b81019080803573ffffffffffffffffffffffffffffffffffffffff169060200190929190803590602001909291908035151590602001909291905050506101ce565b005b6100dc6102dd565b6040518080602001828103825283818151815260200191508051906020019060200280838360005b8381101561011f578082015181840152602081019050610104565b505050509050019250505060405180910390f35b6101756004803603602081101561014957600080fd5b81019080803573ffffffffffffffffffffffffffffffffffffffff169060200190929190505050610421565b6040518082815260200191505060405180910390f35b6101c3600480360360408110156101a157600080fd5b81019080803590602001909291908035151590602001909291905050506104ee565b005b60008054905090565b600160009054906101000a900473ffffffffffffffffffffffffffffffffffffffff1673ffffffffffffffffffffffffffffffffffffffff1663cca5e4b18484846040518463ffffffff1660e01b8152600401808473ffffffffffffffffffffffffffffffffffffffff16815260200183815260200182151581526020019350505050600060405180830381600087803b15801561026b57600080fd5b505af115801561027f573d6000803e3d6000fd5b505050507f206b7154b31a11c2b2e6152606cd086dfceae80d3b4e43cefa0f0b39ea0e1c638383604051808373ffffffffffffffffffffffffffffffffffffffff1681526020018281526020019250505060405180910390a1505050565b6060600160009054906101000a900473ffffffffffffffffffffffffffffffffffffffff1673ffffffffffffffffffffffffffffffffffffffff1663e2842d796040518163ffffffff1660e01b815260040160006040518083038186803b15801561034757600080fd5b505afa15801561035b573d6000803e3d6000fd5b505050506040513d6000823e3d601f19601f82011682018060405250602081101561038557600080fd5b81019080805160405193929190846401000000008211156103a557600080fd5b838201915060208201858111156103bb57600080fd5b82518660208202830111640100000000821117156103d857600080fd5b8083526020830192505050908051906020019060200280838360005b8381101561040f5780820151818401526020810190506103f4565b50505050905001604052505050905090565b6000600160009054906101000a900473ffffffffffffffffffffffffffffffffffffffff1673ffffffffffffffffffffffffffffffffffffffff1663e65896c9836040518263ffffffff1660e01b8152600401808273ffffffffffffffffffffffffffffffffffffffff16815260200191505060206040518083038186803b1580156104ac57600080fd5b505afa1580156104c0573d6000803e3d6000fd5b505050506040513d60208110156104d657600080fd5b81019080805190602001909291905050509050919050565b8015610514576105098260005461053490919063ffffffff16565b600081905550610530565b610529826000546105bc90919063ffffffff16565b6000819055505b5050565b6000808284019050838110156105b2576040517f08c379a000000000000000000000000000000000000000000000000000000000815260040180806020018281038252601b8152602001807f536166654d6174683a206164646974696f6e206f766572666c6f77000000000081525060200191505060405180910390fd5b8091505092915050565b600082821115610634576040517f08c379a000000000000000000000000000000000000000000000000000000000815260040180806020018281038252601e8152602001807f536166654d6174683a207375627472616374696f6e206f766572666c6f77000081525060200191505060405180910390fd5b81830390509291505056fea2646970667358221220b175b75cabd20a9ce180ef4c6f71d0a65c894b12c7a17f8ae8159a12b391254264736f6c63430007060033608060405234801561001057600080fd5b50610672806100206000396000f3fe608060405234801561001057600080fd5b50600436106100415760003560e01c8063cca5e4b114610046578063e2842d79146100a0578063e65896c9146100ff575b600080fd5b61009e6004803603606081101561005c57600080fd5b81019080803573ffffffffffffffffffffffffffffffffffffffff16906020019092919080359060200190929190803515159060200190929190505050610157565b005b6100a861034c565b6040518080602001828103825283818151815260200191508051906020019060200280838360005b838110156100eb5780820151818401526020810190506100d0565b505050509050019250505060405180910390f35b6101416004803603602081101561011557600080fd5b81019080803573ffffffffffffffffffffffffffffffffffffffff1690602001909291905050506103da565b6040518082815260200191505060405180910390f35b80156101f5576101ae826000808673ffffffffffffffffffffffffffffffffffffffff1673ffffffffffffffffffffffffffffffffffffffff1681526020019081526020016000205461042290919063ffffffff16565b6000808573ffffffffffffffffffffffffffffffffffffffff1673ffffffffffffffffffffffffffffffffffffffff16815260200190815260200160002081905550610289565b610246826000808673ffffffffffffffffffffffffffffffffffffffff1673ffffffffffffffffffffffffffffffffffffffff168152602001908152602001600020546104aa90919063ffffffff16565b6000808573ffffffffffffffffffffffffffffffffffffffff1673ffffffffffffffffffffffffffffffffffffffff168152602001908152602001600020819055505b6102928361052d565b60008060008573ffffffffffffffffffffffffffffffffffffffff1673ffffffffffffffffffffffffffffffffffffffff168152602001908152602001600020541015610347576040517f08c379a00000000000000000000000000000000000000000000000000000000081526004018080602001828103825260178152602001807f446562742063616e6e6f74206265206e6567617469766500000000000000000081525060200191505060405180910390fd5b505050565b606060028054806020026020016040519081016040528092919081815260200182805480156103d057602002820191906000526020600020905b8160009054906101000a900473ffffffffffffffffffffffffffffffffffffffff1673ffffffffffffffffffffffffffffffffffffffff1681526020019060010190808311610386575b5050505050905090565b60008060008373ffffffffffffffffffffffffffffffffffffffff1673ffffffffffffffffffffffffffffffffffffffff168152602001908152602001600020549050919050565b6000808284019050838110156104a0576040517f08c379a000000000000000000000000000000000000000000000000000000000815260040180806020018281038252601b8152602001807f536166654d6174683a206164646974696f6e206f766572666c6f77000000000081525060200191505060405180910390fd5b8091505092915050565b600082821115610522576040517f08c379a000000000000000000000000000000000000000000000000000000000815260040180806020018281038252601e8152602001807f536166654d6174683a207375627472616374696f6e206f766572666c6f77000081525060200191505060405180910390fd5b818303905092915050565b600160008273ffffffffffffffffffffffffffffffffffffffff1673ffffffffffffffffffffffffffffffffffffffff16815260200190815260200160002060009054906101000a900460ff166106395760018060008373ffffffffffffffffffffffffffffffffffffffff1673ffffffffffffffffffffffffffffffffffffffff16815260200190815260200160002060006101000a81548160ff0219169083151502179055506002819080600181540180825580915050600190039060005260206000200160009091909190916101000a81548173ffffffffffffffffffffffffffffffffffffffff021916908373ffffffffffffffffffffffffffffffffffffffff1602179055505b5056fea2646970667358221220f79b75dcb3bbf1bd65f99e6fb7a1ac8b8aab6ba30d0842d5343110101d3614a864736f6c63430007060033608060405234801561001057600080fd5b50731f98431c8ad98523631ae4a59f267346ea31f9846000806101000a81548173ffffffffffffffffffffffffffffffffffffffff021916908373ffffffffffffffffffffffffffffffffffffffff160217905550736b175474e89094c44da98b954eedeac495271d0f600160006101000a81548173ffffffffffffffffffffffffffffffffffffffff021916908373ffffffffffffffffffffffffffffffffffffffff16021790555073c02aaa39b223fe8d0a0e5c4f27ead9083c756cc2600260006101000a81548173ffffffffffffffffffffffffffffffffffffffff021916908373ffffffffffffffffffffffffffffffffffffffff160217905550610b568061011e6000396000f3fe608060405234801561001057600080fd5b506004361061002b5760003560e01c8063e5d5ed1914610030575b600080fd5b6100df600480360360a081101561004657600080fd5b81019080803573ffffffffffffffffffffffffffffffffffffffff16906020019092919080604001906002806020026040519081016040528092919082600260200280828437600081840152601f19601f8201169050808301925050505050509192919290803573ffffffffffffffffffffffffffffffffffffffff1690602001909291908035151590602001909291905050506100f5565b6040518082815260200191505060405180910390f35b6000806000831561012d57869150600160009054906101000a900473ffffffffffffffffffffffffffffffffffffffff169050610156565b600160009054906101000a900473ffffffffffffffffffffffffffffffffffffffff1691508690505b600073ffffffffffffffffffffffffffffffffffffffff168573ffffffffffffffffffffffffffffffffffffffff1614156101c95760006101a983838960006002811061019f57fe5b6020020151610243565b90506101bf81670de0b6b3a76400008486610408565b935050505061023b565b60006101e78683896001600281106101dd57fe5b6020020151610243565b905060006101ff82670de0b6b3a7640000858a610408565b9050600061021f85898b60006002811061021557fe5b6020020151610243565b9050600061022f82848b89610408565b90508096505050505050505b949350505050565b60008060008054906101000a900473ffffffffffffffffffffffffffffffffffffffff1673ffffffffffffffffffffffffffffffffffffffff16631698ee828686866040518463ffffffff1660e01b8152600401808473ffffffffffffffffffffffffffffffffffffffff1681526020018373ffffffffffffffffffffffffffffffffffffffff1681526020018262ffffff168152602001935050505060206040518083038186803b1580156102f857600080fd5b505afa15801561030c573d6000803e3d6000fd5b505050506040513d602081101561032257600080fd5b8101908080519060200190929190505050905060008173ffffffffffffffffffffffffffffffffffffffff16633850c7bd6040518163ffffffff1660e01b815260040160e06040518083038186803b15801561037d57600080fd5b505afa158015610391573d6000803e3d6000fd5b505050506040513d60e08110156103a757600080fd5b8101908080519060200190929190805190602001909291908051906020019092919080519060200190929190805190602001909291908051906020019092919080519060200190929190505050505050505091505080925050509392505050565b6000806104148661060b565b90506fffffffffffffffffffffffffffffffff80168173ffffffffffffffffffffffffffffffffffffffff16116105255760008173ffffffffffffffffffffffffffffffffffffffff168273ffffffffffffffffffffffffffffffffffffffff160290508373ffffffffffffffffffffffffffffffffffffffff168573ffffffffffffffffffffffffffffffffffffffff16106104e6576104e17801000000000000000000000000000000000000000000000000876fffffffffffffffffffffffffffffffff1683610a46565b61051d565b61051c81876fffffffffffffffffffffffffffffffff167801000000000000000000000000000000000000000000000000610a46565b5b925050610602565b60006105678273ffffffffffffffffffffffffffffffffffffffff168373ffffffffffffffffffffffffffffffffffffffff1668010000000000000000610a46565b90508373ffffffffffffffffffffffffffffffffffffffff168573ffffffffffffffffffffffffffffffffffffffff16106105cf576105ca700100000000000000000000000000000000876fffffffffffffffffffffffffffffffff1683610a46565b6105fe565b6105fd81876fffffffffffffffffffffffffffffffff16700100000000000000000000000000000000610a46565b5b9250505b50949350505050565b60008060008360020b12610622578260020b61062a565b8260020b6000035b90507ffffffffffffffffffffffffffffffffffffffffffffffffffffffffffff2761860000360020b8111156106c8576040517f08c379a00000000000000000000000000000000000000000000000000000000081526004018080602001828103825260018152602001807f540000000000000000000000000000000000000000000000000000000000000081525060200191505060405180910390fd5b6000806001831614156106ec577001000000000000000000000000000000006106fe565b6ffffcb933bd6fad37aa2d162d1a5940015b70ffffffffffffffffffffffffffffffffff169050600060028316146107385760806ffff97272373d413259a46990580e213a8202901c90505b6000600483161461075d5760806ffff2e50f5f656932ef12357cf3c7fdcc8202901c90505b600060088316146107825760806fffe5caca7e10e4e61c3624eaa0941cd08202901c90505b600060108316146107a75760806fffcb9843d60f6159c9db58835c9266448202901c90505b600060208316146107cc5760806fff973b41fa98c081472e6896dfb254c08202901c90505b600060408316146107f15760806fff2ea16466c96a3843ec78b326b528618202901c90505b600060808316146108165760806ffe5dee046a99a2a811c461f1969c30538202901c90505b600061010083161461083c5760806ffcbe86c7900a88aedcffc83b479aa3a48202901c90505b60006102008316146108625760806ff987a7253ac413176f2b074cf7815e548202901c90505b60006104008316146108885760806ff3392b0822b70005940c7a398e4b70f38202901c90505b60006108008316146108ae5760806fe7159475a2c29b7443b29c7fa6e889d98202901c90505b60006110008316146108d45760806fd097f3bdfd2022b8845ad8f792aa58258202901c90505b60006120008316146108fa5760806fa9f746462d870fdf8a65dc1f90e061e58202901c90505b60006140008316146109205760806f70d869a156d2a1b890bb3df62baf32f78202901c90505b60006180008316146109465760806f31be135f97d08fd981231505542fcfa68202901c90505b60006201000083161461096d5760806f09aa508b5b7a84e1c677de54f3e99bc98202901c90505b6000620200008316146109935760806e5d6af8dedb81196699c329225ee6048202901c90505b6000620400008316146109b85760806d2216e584f5fa1ea926041bedfe988202901c90505b6000620800008316146109db5760806b048a170391f7dc42444e8fa28202901c90505b60008460020b1315610a1457807fffffffffffffffffffffffffffffffffffffffffffffffffffffffffffffffff81610a1057fe5b0490505b60006401000000008281610a2457fe5b0614610a31576001610a34565b60005b60ff16602082901c0192505050919050565b600080600080198587098587029250828110838203039150506000811415610a815760008411610a7557600080fd5b83820492505050610b19565b808411610a8d57600080fd5b600084868809905082811182039150808303925060008586600003169050808604955080840493506001818260000304019050808302841793506000600287600302189050808702600203810290508087026002038102905080870260020381029050808702600203810290508087026002038102905080870260020381029050808502955050505050505b939250505056fea2646970667358221220b36141bb7a5a736dd9f483ec06c904d6891c51cd4cd61dfaf71efb761ede5f0064736f6c6343000706003360806040523480156200001157600080fd5b50604051620012ff380380620012ff833981810160405281019062000037919062000225565b83600560006101000a81548173ffffffffffffffffffffffffffffffffffffffff021916908373ffffffffffffffffffffffffffffffffffffffff160217905550826002908051906020019062000090929190620000cf565b5081600360006101000a81548160ff021916908360ff1602179055508060049080519060200190620000c4929190620000cf565b5050505050620003d7565b828054600181600116156101000203166002900490600052602060002090601f01602090048101928262000107576000855562000153565b82601f106200012257805160ff191683800117855562000153565b8280016001018555821562000153579182015b828111156200015257825182559160200191906001019062000135565b5b50905062000162919062000166565b5090565b5b808211156200018157600081600090555060010162000167565b5090565b60006200019c6200019684620002f7565b620002c3565b905082815260208101848484011115620001b557600080fd5b620001c28482856200036b565b509392505050565b600081519050620001db81620003a3565b92915050565b600082601f830112620001f357600080fd5b81516200020584826020860162000185565b91505092915050565b6000815190506200021f81620003bd565b92915050565b600080600080608085870312156200023c57600080fd5b60006200024c87828801620001ca565b945050602085015167ffffffffffffffff8111156200026a57600080fd5b6200027887828801620001e1565b93505060406200028b878288016200020e565b925050606085015167ffffffffffffffff811115620002a957600080fd5b620002b787828801620001e1565b91505092959194509250565b6000604051905081810181811067ffffffffffffffff82111715620002ed57620002ec620003a1565b5b8060405250919050565b600067ffffffffffffffff821115620003155762000314620003a1565b5b601f19601f8301169050602081019050919050565b600062000337826200033e565b9050919050565b600073ffffffffffffffffffffffffffffffffffffffff82169050919050565b600060ff82169050919050565b60005b838110156200038b5780820151818401526020810190506200036e565b838111156200039b576000848401525b50505050565bfe5b620003ae816200032a565b8114620003ba57600080fd5b50565b620003c8816200035e565b8114620003d457600080fd5b50565b610f1880620003e76000396000f3fe608060405234801561001057600080fd5b50600436106100995760003560e01c806306fdde031461009e578063095ea7b3146100bc5780630cf1fd36146100ec57806323b872dd1461010a57806327e235e31461013a578063313ce5671461016a5780635c6581651461018857806370a08231146101b857806395d89b41146101e8578063a9059cbb14610206578063dd62ed3e14610236575b600080fd5b6100a6610266565b6040516100b39190610d67565b60405180910390f35b6100d660048036038101906100d19190610bb4565b610304565b6040516100e39190610d4c565b60405180910390f35b6100f46103f6565b6040516101019190610d31565b60405180910390f35b610124600480360381019061011f9190610b65565b61041c565b6040516101319190610d4c565b60405180910390f35b610154600480360381019061014f9190610b00565b6106e7565b6040516101619190610dc9565b60405180910390f35b6101726106ff565b60405161017f9190610de4565b60405180910390f35b6101a2600480360381019061019d9190610b29565b610712565b6040516101af9190610dc9565b60405180910390f35b6101d260048036038101906101cd9190610b00565b610737565b6040516101df9190610dc9565b60405180910390f35b6101f061077f565b6040516101fd9190610d67565b60405180910390f35b610220600480360381019061021b9190610bb4565b61081d565b60405161022d9190610d4c565b60405180910390f35b610250600480360381019061024b9190610b29565b610a4f565b60405161025d9190610dc9565b60405180910390f35b60028054600181600116156101000203166002900480601f0160208091040260200160405190810160405280929190818152602001828054600181600116156101000203166002900480156102fc5780601f106102d1576101008083540402835291602001916102fc565b820191906000526020600020905b8154815290600101906020018083116102df57829003601f168201915b505050505081565b600081600160003373ffffffffffffffffffffffffffffffffffffffff1673ffffffffffffffffffffffffffffffffffffffff16815260200190815260200160002060008573ffffffffffffffffffffffffffffffffffffffff1673ffffffffffffffffffffffffffffffffffffffff168152602001908152602001600020819055508273ffffffffffffffffffffffffffffffffffffffff163373ffffffffffffffffffffffffffffffffffffffff167f8c5be1e5ebec7d5bd14f71427d1e84f3dd0314c0f7b2291e5b200ac8c7c3b925846040516103e49190610dc9565b60405180910390a36001905092915050565b600560009054906101000a900473ffffffffffffffffffffffffffffffffffffffff1681565b600080600160008673ffffffffffffffffffffffffffffffffffffffff1673ffffffffffffffffffffffffffffffffffffffff16815260200190815260200160002060003373ffffffffffffffffffffffffffffffffffffffff1673ffffffffffffffffffffffffffffffffffffffff168152602001908152602001600020549050826000808773ffffffffffffffffffffffffffffffffffffffff1673ffffffffffffffffffffffffffffffffffffffff16815260200190815260200160002054101580156104ec5750828110155b61052b576040517f08c379a000000000000000000000000000000000000000000000000000000000815260040161052290610da9565b60405180910390fd5b826000808673ffffffffffffffffffffffffffffffffffffffff1673ffffffffffffffffffffffffffffffffffffffff16815260200190815260200160002060008282540192505081905550826000808773ffffffffffffffffffffffffffffffffffffffff1673ffffffffffffffffffffffffffffffffffffffff168152602001908152602001600020600082825403925050819055507fffffffffffffffffffffffffffffffffffffffffffffffffffffffffffffffff8110156106765782600160008773ffffffffffffffffffffffffffffffffffffffff1673ffffffffffffffffffffffffffffffffffffffff16815260200190815260200160002060003373ffffffffffffffffffffffffffffffffffffffff1673ffffffffffffffffffffffffffffffffffffffff168152602001908152602001600020600082825403925050819055505b8373ffffffffffffffffffffffffffffffffffffffff168573ffffffffffffffffffffffffffffffffffffffff167fddf252ad1be2c89b69c2b068fc378daa952ba7f163c4a11628f55a4df523b3ef856040516106d39190610dc9565b60405180910390a360019150509392505050565b60006020528060005260406000206000915090505481565b600360009054906101000a900460ff1681565b6001602052816000526040600020602052806000526040600020600091509150505481565b60008060008373ffffffffffffffffffffffffffffffffffffffff1673ffffffffffffffffffffffffffffffffffffffff168152602001908152602001600020549050919050565b60048054600181600116156101000203166002900480601f0160208091040260200160405190810160405280929190818152602001828054600181600116156101000203166002900480156108155780601f106107ea57610100808354040283529160200191610815565b820191906000526020600020905b8154815290600101906020018083116107f857829003601f168201915b505050505081565b6000600560009054906101000a900473ffffffffffffffffffffffffffffffffffffffff1673ffffffffffffffffffffffffffffffffffffffff163373ffffffffffffffffffffffffffffffffffffffff1614156108c657816000808573ffffffffffffffffffffffffffffffffffffffff1673ffffffffffffffffffffffffffffffffffffffff168152602001908152602001600020600082825401925050819055506109e0565b816000803373ffffffffffffffffffffffffffffffffffffffff1673ffffffffffffffffffffffffffffffffffffffff168152602001908152602001600020541015610947576040517f08c379a000000000000000000000000000000000000000000000000000000000815260040161093e90610d89565b60405180910390fd5b816000803373ffffffffffffffffffffffffffffffffffffffff1673ffffffffffffffffffffffffffffffffffffffff16815260200190815260200160002060008282540392505081905550816000808573ffffffffffffffffffffffffffffffffffffffff1673ffffffffffffffffffffffffffffffffffffffff168152602001908152602001600020600082825401925050819055505b8273ffffffffffffffffffffffffffffffffffffffff163373ffffffffffffffffffffffffffffffffffffffff167fddf252ad1be2c89b69c2b068fc378daa952ba7f163c4a11628f55a4df523b3ef84604051610a3d9190610dc9565b60405180910390a36001905092915050565b6000600160008473ffffffffffffffffffffffffffffffffffffffff1673ffffffffffffffffffffffffffffffffffffffff16815260200190815260200160002060008373ffffffffffffffffffffffffffffffffffffffff1673ffffffffffffffffffffffffffffffffffffffff16815260200190815260200160002054905092915050565b600081359050610ae581610eb4565b92915050565b600081359050610afa81610ecb565b92915050565b600060208284031215610b1257600080fd5b6000610b2084828501610ad6565b91505092915050565b60008060408385031215610b3c57600080fd5b6000610b4a85828601610ad6565b9250506020610b5b85828601610ad6565b9150509250929050565b600080600060608486031215610b7a57600080fd5b6000610b8886828701610ad6565b9350506020610b9986828701610ad6565b9250506040610baa86828701610aeb565b9150509250925092565b60008060408385031215610bc757600080fd5b6000610bd585828601610ad6565b9250506020610be685828601610aeb565b9150509250929050565b610bf981610e1b565b82525050565b610c0881610e2d565b82525050565b6000610c1982610dff565b610c238185610e0a565b9350610c33818560208601610e70565b610c3c81610ea3565b840191505092915050565b6000610c54602f83610e0a565b91507f746f6b656e2062616c616e6365206973206c6f776572207468616e207468652060008301527f76616c75652072657175657374656400000000000000000000000000000000006020830152604082019050919050565b6000610cba603983610e0a565b91507f746f6b656e2062616c616e6365206f7220616c6c6f77616e6365206973206c6f60008301527f776572207468616e20616d6f756e7420726571756573746564000000000000006020830152604082019050919050565b610d1c81610e59565b82525050565b610d2b81610e63565b82525050565b6000602082019050610d466000830184610bf0565b92915050565b6000602082019050610d616000830184610bff565b92915050565b60006020820190508181036000830152610d818184610c0e565b905092915050565b60006020820190508181036000830152610da281610c47565b9050919050565b60006020820190508181036000830152610dc281610cad565b9050919050565b6000602082019050610dde6000830184610d13565b92915050565b6000602082019050610df96000830184610d22565b92915050565b600081519050919050565b600082825260208201905092915050565b6000610e2682610e39565b9050919050565b60008115159050919050565b600073ffffffffffffffffffffffffffffffffffffffff82169050919050565b6000819050919050565b600060ff82169050919050565b60005b83811015610e8e578082015181840152602081019050610e73565b83811115610e9d576000848401525b50505050565b6000601f19601f8301169050919050565b610ebd81610e1b565b8114610ec857600080fd5b50565b610ed481610e59565b8114610edf57600080fd5b5056fea26469706673582212206d7b471248b37aa2cced2e9e54fa45f3c316e94e0de8f17e320014f8e6608f3c64736f6c63430007060033",
  "immutableReferences": {
    "3348": [
      {
        "length": 32,
        "start": 9466
      },
      {
        "length": 32,
        "start": 11468
      },
      {
        "length": 32,
        "start": 12377
      },
      {
        "length": 32,
        "start": 12550
      }
    ]
  },
  "source": "// SPDX-License-Identifier: MIT\r\npragma solidity 0.7.6;\r\npragma abicoder v2;\r\n\r\nimport \"@openzeppelin/contracts/token/ERC20/ERC20.sol\";\r\nimport \"@openzeppelin/contracts/math/SafeMath.sol\";\r\nimport \"@uniswap/v3-periphery/contracts/libraries/TransferHelper.sol\";\r\nimport \"@uniswap/v3-periphery/contracts/interfaces/ISwapRouter.sol\";\r\nimport \"@uniswap/v3-periphery/contracts/interfaces/IPeripheryPayments.sol\";\r\n\r\nimport \"./PriceOracle.sol\";\r\nimport \"./IndexToken.sol\";\r\nimport \"./DebtManager.sol\";\r\nimport \"../management/BaseProduct.sol\";\r\n\r\n\r\ncontract BaseIndex is Product {\r\n    using SafeMath for uint256;\r\n\r\n    struct TokenInfo {\r\n        uint8 indexPercentage;\r\n        address tokenAddress;\r\n        address priceOracleAddress;\r\n        uint24[2] poolFees;\r\n        address intermediateToken;\r\n    }\r\n\r\n    TokenInfo[] public tokens;\r\n    IndexToken public indexToken;\r\n\r\n    address public WETH;\r\n    address private immutable dexRouterAddress;\r\n\r\n    DebtManager private sellDebtManager = new DebtManager();\r\n    DebtManager private buyDebtManager = new DebtManager();\r\n    PriceOracle private priceOracle = new PriceOracle();\r\n\r\n    uint public lastManagedToken = 0;   // TODO: change the visibility\r\n    uint public tokensToSell = 10 ether;    // TODO: remove 10 eth index tokens that will be sold\r\n    uint public tokensToBuy;    // usd tokens that will be bought\r\n    uint public tokensSold = 0;    // index tokens that have been sold\r\n\r\n    function name() external pure override returns (string memory) { return \"CryptoIndex\"; }\r\n    function symbol() external pure override returns (string memory) { return \"CRYPTIX\"; }\r\n    function getComponents() external view returns (TokenInfo[] memory) { return tokens; }\r\n\r\n    function shortDescription() external pure override returns (string memory) {\r\n        return \"Correlation index is a tool that allows you to diversify your investments\";\r\n    }\r\n\r\n    function longDescription() external pure override returns (string memory) {\r\n        return \"Correlation index is a tool that allows you to diversify your investments\";\r\n    }\r\n\r\n    function getTokenPrice(TokenInfo memory token, bool isReverse) public view returns (uint256) {\r\n        return priceOracle.getPrice(token.tokenAddress, token.poolFees, token.intermediateToken, isReverse);\r\n    }\r\n\r\n    function image() external pure override returns (string memory) {\r\n        return \"https://cryptologos.cc/logos/polymath-network-poly-logo.png?v=022\";\r\n    }\r\n\r\n    function getTotalLockedValue() external view override returns (uint256) {\r\n        uint totalValue;\r\n\r\n        for (uint i = 0; i < tokens.length; i++) {\r\n            TokenInfo memory tokenInfo = tokens[i];\r\n            uint tokenBalance = IERC20(tokenInfo.tokenAddress).balanceOf(address(this))\r\n                .mul(getTokenPrice(tokenInfo, false));\r\n            totalValue = totalValue.add(tokenBalance.div(1 ether));\r\n        }\r\n\r\n        return totalValue;\r\n    }\r\n\r\n    constructor() {\r\n        dexRouterAddress = 0xE592427A0AEce92De3Edee1F18E0157C05861564;      // Uniswap V3 Router\r\n        buyTokenAddress =  0x6B175474E89094C44Da98b954EedeAC495271d0F;      // DAI\r\n        WETH = 0xC02aaA39b223FE8D0A0e5C4F27eAD9083C756Cc2;\r\n\r\n        productFee = 10;\r\n        productFeeTotal = 100;\r\n        indexPriceAdjustment = 100;\r\n\r\n        indexToken = new IndexToken(address(this), \"Crypto index token\", 18, \"CRYPTIX\");\r\n        isLocked = false;\r\n\r\n        tokens.push(TokenInfo({ // 0) WETH\r\n            tokenAddress: WETH,\r\n            priceOracleAddress: 0x5f4eC3Df9cbd43714FE2740f5E3616155c5b8419,\r\n            poolFees: [uint24(3000), uint24(3000)],\r\n            intermediateToken: address(0),\r\n            indexPercentage: 15\r\n        }));\r\n        tokens.push(TokenInfo({ // 1) LINK\r\n            tokenAddress: 0x514910771AF9Ca656af840dff83E8264EcF986CA,\r\n            priceOracleAddress: 0x2c1d072e956AFFC0D435Cb7AC38EF18d24d9127c,\r\n            poolFees: [uint24(3000), uint24(3000)],\r\n            intermediateToken: WETH,\r\n            indexPercentage: 5\r\n        }));\r\n        tokens.push(TokenInfo({ // 2) WBNB\r\n            tokenAddress: 0x418D75f65a02b3D53B2418FB8E1fe493759c7605,\r\n            priceOracleAddress: 0x14e613AC84a31f709eadbdF89C6CC390fDc9540A,\r\n            poolFees: [uint24(3000), uint24(3000)],\r\n            intermediateToken: WETH,\r\n            indexPercentage: 10\r\n        }));\r\n        tokens.push(TokenInfo({ // 3) UNI\r\n            tokenAddress: 0x1f9840a85d5aF5bf1D1762F925BDADdC4201F984,\r\n            priceOracleAddress: 0x553303d460EE0afB37EdFf9bE42922D8FF63220e,\r\n            poolFees: [uint24(3000), uint24(3000)],\r\n            intermediateToken: WETH,\r\n            indexPercentage: 10\r\n        }));\r\n        tokens.push(TokenInfo({ // 4) 1INCH\r\n            tokenAddress: 0x111111111117dC0aa78b770fA6A738034120C302,\r\n            priceOracleAddress: 0xc929ad75B72593967DE83E7F7Cda0493458261D9,\r\n            poolFees: [uint24(3000), 10000],\r\n            intermediateToken: WETH,\r\n            indexPercentage: 10\r\n        }));\r\n        tokens.push(TokenInfo({ // 5) SNX\r\n            tokenAddress: 0xC011a73ee8576Fb46F5E1c5751cA3B9Fe0af2a6F,\r\n            priceOracleAddress: 0xDC3EA94CD0AC27d9A86C180091e7f78C683d3699,\r\n            poolFees: [uint24(3000), 10000],\r\n            intermediateToken: WETH,\r\n            indexPercentage: 5\r\n        }));\r\n        tokens.push(TokenInfo({ // 6) YFI\r\n            tokenAddress: 0x0bc529c00C6401aEF6D220BE8C6Ea1667F6Ad93e,\r\n            priceOracleAddress: 0xA027702dbb89fbd58938e4324ac03B58d812b0E1,\r\n            poolFees: [uint24(3000), uint24(3000)],\r\n            intermediateToken: WETH,\r\n            indexPercentage: 5\r\n        }));\r\n        tokens.push(TokenInfo({ // 7) COMP\r\n            tokenAddress: 0xc00e94Cb662C3520282E6f5717214004A7f26888,\r\n            priceOracleAddress: 0xdbd020CAeF83eFd542f4De03e3cF0C28A4428bd5,\r\n            poolFees: [uint24(3000), uint24(3000)],\r\n            intermediateToken: WETH,\r\n            indexPercentage: 5\r\n        }));\r\n        tokens.push(TokenInfo({ // 8) MKR\r\n            tokenAddress: 0x9f8F72aA9304c8B593d555F12eF6589cC3A579A2,\r\n            priceOracleAddress: 0xec1D1B3b0443256cc3860e24a46F108e699484Aa,\r\n            poolFees: [uint24(3000), uint24(3000)],\r\n            intermediateToken: WETH,\r\n            indexPercentage: 5\r\n        }));\r\n        tokens.push(TokenInfo({ // 9) SUSHI\r\n            tokenAddress: 0x6B3595068778DD592e39A122f4f5a5cF09C90fE2,\r\n            priceOracleAddress: 0xCc70F09A6CC17553b2E31954cD36E4A2d89501f7,\r\n            poolFees: [uint24(3000), uint24(3000)],\r\n            intermediateToken: WETH,\r\n            indexPercentage: 10\r\n        }));\r\n        tokens.push(TokenInfo({ // 10) APE\r\n            tokenAddress: 0x4d224452801ACEd8B2F0aebE155379bb5D594381,\r\n            priceOracleAddress: 0xD10aBbC76679a20055E167BB80A24ac851b37056,\r\n            poolFees: [uint24(3000), uint24(3000)],\r\n            intermediateToken: WETH,\r\n            indexPercentage: 10\r\n        }));\r\n        tokens.push(TokenInfo({ // 11) CRV\r\n            tokenAddress: 0xD533a949740bb3306d119CC777fa900bA034cd52,\r\n            priceOracleAddress: 0xCd627aA160A6fA45Eb793D19Ef54f5062F20f33f,\r\n            poolFees: [uint24(3000), 10000],\r\n            intermediateToken: WETH,\r\n            indexPercentage: 10\r\n        }));\r\n    }\r\n\r\n    function buy(uint256 amount) external override nonReentrant checkSettlement {\r\n        (uint productFee, uint256 realAmount) = calculateFee(amount);\r\n        require(realAmount >= 1, \"Not enough tokens sent\");\r\n\r\n        uint256 indexPrice = getPrice();\r\n        uint buyTokenAmount = realAmount.mul(indexPrice).div(1 ether);\r\n        tokensToBuy = tokensToBuy.add(buyTokenAmount);\r\n        buyDebtManager.changeDebt(msg.sender, realAmount, true);\r\n\r\n        TransferHelper.safeTransferFrom(\r\n            buyTokenAddress, msg.sender, address(this), amount.mul(indexPrice).div(1 ether)\r\n        );\r\n        IERC20(buyTokenAddress).transfer(owner(), productFee.mul(indexPrice).div(2).div(1 ether));\r\n        emit ProductBought(msg.sender, buyTokenAmount, realAmount);\r\n    }\r\n\r\n    function sell(uint amount) external override nonReentrant checkSettlement checkUnlocked {\r\n        (uint productFee, uint256 realAmount) = calculateFee(amount);\r\n        require(realAmount >= 1, \"You must sell more tokens\");\r\n\r\n        tokensToSell = tokensToSell.add(amount);\r\n        sellDebtManager.changeDebt(msg.sender, realAmount, true);\r\n        sellDebtManager.changeDebt(owner(), productFee, true);\r\n\r\n        TransferHelper.safeTransferFrom(address(indexToken), msg.sender, address(this), amount);\r\n        emit ProductSold(msg.sender, realAmount.mul(getPrice()), realAmount);\r\n    }\r\n\r\n    function retrieveDebt(uint amount, bool isBuyDebt) external nonReentrant checkSettlement checkUnlocked{\r\n        DebtManager manager = isBuyDebt ? buyDebtManager : sellDebtManager;\r\n        require(manager.getTotalDebt() >= amount && manager.getUserDebt(msg.sender) >= amount, \"Not enough debt\");\r\n\r\n        ERC20(isBuyDebt ? address(indexToken) : buyTokenAddress).transfer(msg.sender, amount);\r\n        manager.changeDebt(msg.sender, amount, false);\r\n        manager.changeTotalDebt(amount, false);\r\n    }\r\n\r\n    function getTotalDebt(bool isBuy) external view returns (uint) {\r\n        return (isBuy ? buyDebtManager : sellDebtManager).getTotalDebt();\r\n    }\r\n\r\n    function getUserDebt(address user, bool isBuy) external view returns (uint) {\r\n        return (isBuy ? buyDebtManager : sellDebtManager).getUserDebt(user);\r\n    }\r\n\r\n    function beginSettlement() override external onlyOwner{\r\n        isSettlement = true;\r\n\r\n        uint totalBuyFees = tokensToBuy.mul(productFee).div(productFeeTotal);\r\n        TransferHelper.safeApprove(buyTokenAddress, dexRouterAddress, tokensToBuy.add(totalBuyFees));\r\n    }\r\n\r\n    function endSettlement() override external onlyOwner {\r\n        uint productPrice = getPrice();\r\n\r\n        buyDebtManager.changeTotalDebt(tokensToBuy.mul(1 ether).div(productPrice), true);\r\n        sellDebtManager.changeTotalDebt(tokensSold.mul(1 ether).div(productPrice), true);\r\n        tokensToBuy = 0;\r\n        tokensToSell = 0;\r\n        tokensSold = 0;\r\n        isSettlement = false;\r\n    }\r\n\r\n    function manageTokensSell(TokenInfo memory token, uint amount, uint tokenPrice) private {\r\n        ISwapRouter dexRouter = ISwapRouter(dexRouterAddress);\r\n\r\n        uint amountIn = amount.mul(tokenPrice).div(1 ether);\r\n        uint amountOutMinimum = amount.sub(amount.mul(productFee).div(productFeeTotal));\r\n\r\n        uint amountOut;\r\n        TransferHelper.safeApprove(token.tokenAddress, dexRouterAddress, amountIn);\r\n\r\n        if(token.intermediateToken == address(0)){\r\n            amountOut = dexRouter.exactInputSingle(\r\n                ISwapRouter.ExactInputSingleParams({\r\n                    tokenIn: token.tokenAddress,\r\n                    tokenOut: buyTokenAddress,\r\n                    fee: token.poolFees[0],\r\n                    recipient: address(this),\r\n                    deadline: block.timestamp,\r\n                    amountIn: amountIn,\r\n                    amountOutMinimum: amountOutMinimum,\r\n                    sqrtPriceLimitX96: 0\r\n                })\r\n            );\r\n        }else{\r\n            amountOut = dexRouter.exactInput(\r\n                ISwapRouter.ExactInputParams({\r\n                    path: abi.encodePacked(\r\n                        token.tokenAddress,\r\n                        token.poolFees[1],\r\n                        token.intermediateToken,\r\n                        token.poolFees[0],\r\n                        buyTokenAddress\r\n                    ),\r\n                    recipient: address(this),\r\n                    deadline: block.timestamp,\r\n                    amountIn: amountIn,\r\n                    amountOutMinimum: amountOutMinimum\r\n                })\r\n            );\r\n        }\r\n\r\n        uint currentTokensSold = amountOut.mul(100).div(token.indexPercentage);\r\n\r\n        if(currentTokensSold < tokensSold || tokensSold == 0){\r\n            tokensSold = currentTokensSold;\r\n        }\r\n\r\n    }\r\n\r\n    function manageTokensBuy(TokenInfo memory token, uint amount, uint tokenPrice) private {\r\n        ISwapRouter dexRouter = ISwapRouter(dexRouterAddress);\r\n        uint amountOut = amount.mul(1 ether).div(tokenPrice);\r\n        uint amountInMaximum = amount.add(amount.mul(productFee).div(productFeeTotal));\r\n\r\n        if(token.intermediateToken == address(0)){\r\n            dexRouter.exactOutputSingle(\r\n                ISwapRouter.ExactOutputSingleParams({\r\n                    tokenIn: buyTokenAddress,\r\n                    tokenOut: token.tokenAddress,\r\n                    fee: token.poolFees[0],\r\n                    recipient: address(this),\r\n                    deadline: block.timestamp,\r\n                    amountOut: amountOut,\r\n                    amountInMaximum: amountInMaximum,\r\n                    sqrtPriceLimitX96: 0\r\n                })\r\n            );\r\n        }else{\r\n            dexRouter.exactOutput(\r\n                ISwapRouter.ExactOutputParams({\r\n                    path: abi.encodePacked(\r\n                        token.tokenAddress,\r\n                        token.poolFees[1],\r\n                        token.intermediateToken,\r\n                        token.poolFees[0],\r\n                        buyTokenAddress\r\n                    ),\r\n                    recipient: address(this),\r\n                    deadline: block.timestamp,\r\n                    amountOut: amountOut,\r\n                    amountInMaximum: amountInMaximum\r\n                })\r\n            );\r\n        }\r\n    }\r\n\r\n    function manageTokens() external onlyOwner {\r\n        lastManagedToken += 1;\r\n        if(lastManagedToken > tokens.length - 1){ lastManagedToken = 0; }\r\n\r\n        TokenInfo memory token = tokens[lastManagedToken];\r\n        uint tokensToBuyAmount = tokensToBuy.mul(token.indexPercentage).div(100);\r\n        uint tokensToSellAmount = tokensToSell.mul(token.indexPercentage).div(100);\r\n\r\n        if(tokensToBuyAmount > 0){ manageTokensBuy(token, tokensToBuyAmount, getTokenPrice(token, false)); }\r\n        if(tokensToSellAmount > 0){ manageTokensSell(token, tokensToSellAmount, getTokenPrice(token, true)); }\r\n\r\n    }\r\n\r\n    function getPrice() public view override returns (uint256) {\r\n        uint256 indexTotalPrice;\r\n\r\n        for (uint256 i = 0; i < tokens.length; i++) {\r\n            TokenInfo memory token = tokens[i];\r\n            indexTotalPrice = indexTotalPrice.add(getTokenPrice(token, false).mul(token.indexPercentage).div(100));\r\n        }\r\n\r\n        return indexTotalPrice;//.div(indexPriceAdjustment);\r\n    }\r\n\r\n}\r\n",
  "sourcePath": "D:\\JavascriptProjects\\crypto-index\\contracts\\indices\\BaseIndex.sol",
  "compiler": {
    "name": "solc",
    "version": "0.7.6+commit.7338295f.Emscripten.clang"
  },
  "schemaVersion": "3.4.6",
  "updatedAt": "2022-05-27T18:13:26.808Z",
  "devdoc": {
    "kind": "dev",
    "methods": {
      "owner()": {
        "details": "Returns the address of the current owner."
      },
      "renounceOwnership()": {
        "details": "Leaves the contract without owner. It will not be possible to call `onlyOwner` functions anymore. Can only be called by the current owner. NOTE: Renouncing ownership will leave the contract without an owner, thereby removing any functionality that is only available to the owner."
      },
      "transferOwnership(address)": {
        "details": "Transfers ownership of the contract to a new account (`newOwner`). Can only be called by the current owner."
      }
    },
    "version": 1
  },
  "userdoc": {
    "kind": "user",
    "methods": {},
    "version": 1
  }
}