{
  "contractName": "ETHIndex",
  "abi": [
    {
      "inputs": [],
      "stateMutability": "nonpayable",
      "type": "constructor"
    },
    {
      "anonymous": false,
      "inputs": [
        {
          "indexed": true,
          "internalType": "address",
          "name": "previousOwner",
          "type": "address"
        },
        {
          "indexed": true,
          "internalType": "address",
          "name": "newOwner",
          "type": "address"
        }
      ],
      "name": "OwnershipTransferred",
      "type": "event"
    },
    {
      "anonymous": false,
      "inputs": [
        {
          "indexed": false,
          "internalType": "address",
          "name": "account",
          "type": "address"
        },
        {
          "indexed": false,
          "internalType": "uint256",
          "name": "buyTokenAmount",
          "type": "uint256"
        },
        {
          "indexed": false,
          "internalType": "uint256",
          "name": "indexTokenAmount",
          "type": "uint256"
        }
      ],
      "name": "ProductBought",
      "type": "event"
    },
    {
      "anonymous": false,
      "inputs": [
        {
          "indexed": false,
          "internalType": "address",
          "name": "account",
          "type": "address"
        },
        {
          "indexed": false,
          "internalType": "uint256",
          "name": "buyTokenAmount",
          "type": "uint256"
        },
        {
          "indexed": false,
          "internalType": "uint256",
          "name": "indexTokenAmount",
          "type": "uint256"
        }
      ],
      "name": "ProductSold",
      "type": "event"
    },
    {
      "inputs": [],
      "name": "availableTokens",
      "outputs": [
        {
          "internalType": "uint256",
          "name": "",
          "type": "uint256"
        }
      ],
      "stateMutability": "view",
      "type": "function"
    },
    {
      "inputs": [],
      "name": "buyTokenAddress",
      "outputs": [
        {
          "internalType": "address",
          "name": "",
          "type": "address"
        }
      ],
      "stateMutability": "view",
      "type": "function"
    },
    {
      "inputs": [
        {
          "internalType": "uint256",
          "name": "amount",
          "type": "uint256"
        }
      ],
      "name": "calculateFee",
      "outputs": [
        {
          "internalType": "uint256",
          "name": "",
          "type": "uint256"
        },
        {
          "internalType": "uint256",
          "name": "",
          "type": "uint256"
        }
      ],
      "stateMutability": "view",
      "type": "function"
    },
    {
      "inputs": [],
      "name": "cancellationActive",
      "outputs": [
        {
          "internalType": "bool",
          "name": "",
          "type": "bool"
        }
      ],
      "stateMutability": "view",
      "type": "function"
    },
    {
      "inputs": [
        {
          "internalType": "uint8",
          "name": "_fee",
          "type": "uint8"
        },
        {
          "internalType": "uint256",
          "name": "_feeTotal",
          "type": "uint256"
        }
      ],
      "name": "changeFee",
      "outputs": [],
      "stateMutability": "nonpayable",
      "type": "function"
    },
    {
      "inputs": [],
      "name": "getFee",
      "outputs": [
        {
          "internalType": "uint256",
          "name": "",
          "type": "uint256"
        },
        {
          "internalType": "uint256",
          "name": "",
          "type": "uint256"
        }
      ],
      "stateMutability": "view",
      "type": "function"
    },
    {
      "inputs": [],
      "name": "indexToken",
      "outputs": [
        {
          "internalType": "contract IndexToken",
          "name": "",
          "type": "address"
        }
      ],
      "stateMutability": "view",
      "type": "function"
    },
    {
      "inputs": [],
      "name": "isSettlementActive",
      "outputs": [
        {
          "internalType": "bool",
          "name": "",
          "type": "bool"
        }
      ],
      "stateMutability": "view",
      "type": "function"
    },
    {
      "inputs": [],
      "name": "owner",
      "outputs": [
        {
          "internalType": "address",
          "name": "",
          "type": "address"
        }
      ],
      "stateMutability": "view",
      "type": "function"
    },
    {
      "inputs": [],
      "name": "renounceOwnership",
      "outputs": [],
      "stateMutability": "nonpayable",
      "type": "function"
    },
    {
      "inputs": [],
      "name": "tokensToBuy",
      "outputs": [
        {
          "internalType": "uint256",
          "name": "",
          "type": "uint256"
        }
      ],
      "stateMutability": "view",
      "type": "function"
    },
    {
      "inputs": [],
      "name": "tokensToSell",
      "outputs": [
        {
          "internalType": "uint256",
          "name": "",
          "type": "uint256"
        }
      ],
      "stateMutability": "view",
      "type": "function"
    },
    {
      "inputs": [
        {
          "internalType": "address",
          "name": "newOwner",
          "type": "address"
        }
      ],
      "name": "transferOwnership",
      "outputs": [],
      "stateMutability": "nonpayable",
      "type": "function"
    },
    {
      "inputs": [],
      "name": "name",
      "outputs": [
        {
          "internalType": "string",
          "name": "",
          "type": "string"
        }
      ],
      "stateMutability": "pure",
      "type": "function"
    },
    {
      "inputs": [],
      "name": "symbol",
      "outputs": [
        {
          "internalType": "string",
          "name": "",
          "type": "string"
        }
      ],
      "stateMutability": "pure",
      "type": "function"
    },
    {
      "inputs": [],
      "name": "getComponents",
      "outputs": [
        {
          "components": [
            {
              "internalType": "uint8",
              "name": "indexPercentage",
              "type": "uint8"
            },
            {
              "internalType": "address",
              "name": "tokenAddress",
              "type": "address"
            },
            {
              "internalType": "uint24",
              "name": "poolFee",
              "type": "uint24"
            }
          ],
          "internalType": "struct ETHIndex.TokenInfo[10]",
          "name": "",
          "type": "tuple[10]"
        }
      ],
      "stateMutability": "view",
      "type": "function"
    },
    {
      "inputs": [],
      "name": "shortDescription",
      "outputs": [
        {
          "internalType": "string",
          "name": "",
          "type": "string"
        }
      ],
      "stateMutability": "pure",
      "type": "function"
    },
    {
      "inputs": [],
      "name": "longDescription",
      "outputs": [
        {
          "internalType": "string",
          "name": "",
          "type": "string"
        }
      ],
      "stateMutability": "pure",
      "type": "function"
    },
    {
      "inputs": [
        {
          "components": [
            {
              "internalType": "uint8",
              "name": "indexPercentage",
              "type": "uint8"
            },
            {
              "internalType": "address",
              "name": "tokenAddress",
              "type": "address"
            },
            {
              "internalType": "uint24",
              "name": "poolFee",
              "type": "uint24"
            }
          ],
          "internalType": "struct ETHIndex.TokenInfo",
          "name": "token",
          "type": "tuple"
        }
      ],
      "name": "getTokenPrice",
      "outputs": [
        {
          "internalType": "uint256",
          "name": "",
          "type": "uint256"
        }
      ],
      "stateMutability": "view",
      "type": "function"
    },
    {
      "inputs": [],
      "name": "image",
      "outputs": [
        {
          "internalType": "string",
          "name": "",
          "type": "string"
        }
      ],
      "stateMutability": "pure",
      "type": "function"
    },
    {
      "inputs": [],
      "name": "getTotalLockedValue",
      "outputs": [
        {
          "internalType": "uint256",
          "name": "",
          "type": "uint256"
        }
      ],
      "stateMutability": "view",
      "type": "function"
    },
    {
      "inputs": [],
      "name": "getAvailableLiquidity",
      "outputs": [
        {
          "internalType": "uint256",
          "name": "",
          "type": "uint256"
        }
      ],
      "stateMutability": "view",
      "type": "function"
    },
    {
      "inputs": [
        {
          "internalType": "uint256",
          "name": "_",
          "type": "uint256"
        }
      ],
      "name": "buy",
      "outputs": [],
      "stateMutability": "pure",
      "type": "function"
    },
    {
      "inputs": [
        {
          "internalType": "uint256",
          "name": "amount",
          "type": "uint256"
        }
      ],
      "name": "buyETH",
      "outputs": [],
      "stateMutability": "payable",
      "type": "function"
    },
    {
      "inputs": [],
      "name": "changeCancellation",
      "outputs": [],
      "stateMutability": "nonpayable",
      "type": "function"
    },
    {
      "inputs": [
        {
          "internalType": "uint256",
          "name": "amount",
          "type": "uint256"
        }
      ],
      "name": "cancelDebt",
      "outputs": [],
      "stateMutability": "payable",
      "type": "function"
    },
    {
      "inputs": [
        {
          "internalType": "uint256",
          "name": "amount",
          "type": "uint256"
        }
      ],
      "name": "sell",
      "outputs": [],
      "stateMutability": "nonpayable",
      "type": "function"
    },
    {
      "inputs": [
        {
          "internalType": "uint256",
          "name": "amount",
          "type": "uint256"
        },
        {
          "internalType": "bool",
          "name": "isBuyDebt",
          "type": "bool"
        }
      ],
      "name": "retrieveDebt",
      "outputs": [],
      "stateMutability": "nonpayable",
      "type": "function"
    },
    {
      "inputs": [
        {
          "internalType": "bool",
          "name": "isBuy",
          "type": "bool"
        }
      ],
      "name": "getTotalDebt",
      "outputs": [
        {
          "internalType": "uint256",
          "name": "",
          "type": "uint256"
        }
      ],
      "stateMutability": "view",
      "type": "function"
    },
    {
      "inputs": [
        {
          "internalType": "address",
          "name": "user",
          "type": "address"
        },
        {
          "internalType": "bool",
          "name": "isBuy",
          "type": "bool"
        }
      ],
      "name": "getUserDebt",
      "outputs": [
        {
          "internalType": "uint256",
          "name": "",
          "type": "uint256"
        }
      ],
      "stateMutability": "view",
      "type": "function"
    },
    {
      "inputs": [],
      "name": "beginSettlement",
      "outputs": [],
      "stateMutability": "nonpayable",
      "type": "function"
    },
    {
      "inputs": [],
      "name": "endSettlement",
      "outputs": [],
      "stateMutability": "nonpayable",
      "type": "function"
    },
    {
      "inputs": [],
      "name": "manageTokens",
      "outputs": [],
      "stateMutability": "nonpayable",
      "type": "function"
    },
    {
      "inputs": [],
      "name": "getPrice",
      "outputs": [
        {
          "internalType": "uint256",
          "name": "",
          "type": "uint256"
        }
      ],
      "stateMutability": "view",
      "type": "function"
    }
  ],
  "bytecode": "0x61014060408190526002805460ff191660051790556064600355600f80546001600160a01b03191673c02aaa39b223fe8d0a0e5c4f27ead9083c756cc21790557fe592427a0aece92de3edee1f18e0157c0586156400000000000000000000000060a0527f91ae842a5ffd8d12023116943e72a606179294f300000000000000000000000060c052620000929062000595565b604051809103906000f080158015620000af573d6000803e3d6000fd5b5060601b6001600160601b03191660e052604051620000ce9062000595565b604051809103906000f080158015620000eb573d6000803e3d6000fd5b5060601b6001600160601b031916610100526040516200010b90620005a3565b604051809103906000f08015801562000128573d6000803e3d6000fd5b5060601b6001600160601b03191661012052600060108190556011819055601281905560138190556014556015805461ffff19169055685150ae84a8cdf000006016553480156200017857600080fd5b5060006200018562000591565b600080546001600160a01b0319166001600160a01b0383169081178255604051929350917f8be0079c531659141344cd1fd0a4f28419497f9722a3daafe3b4186f6b6457e0908290a35060018055601654604051309190620001e790620005b1565b620001f4929190620005bf565b604051809103906000f08015801562000211573d6000803e3d6000fd5b506001600160601b0319606091821b16608052604080518083018252601980825273418d75f65a02b3d53b2418fb8e1fe493759c7605602080840191909152610bb89284018390526005805460ff19908116909317610100600160a81b031990811674418d75f65a02b3d53b2418fb8e1fe493759c7605001762ffffff60a81b1990811661017760ab1b90811784558751808a018952600f80825273514910771af9ca656af840dff83e8264ecf986ca82880152908901889052600680548816909117841674514910771af9ca656af840dff83e8264ecf986ca00178316821790558751808a0189526014808252731f9840a85d5af5bf1d1762f925bdaddc4201f984828801529089018890526007805488169091178416741f9840a85d5af5bf1d1762f925bdaddc4201f98400178316821781558851808b018a52600a80825273111111111117dc0aa78b770fa6a738034120c30282890152612710918b01829052600880548a168217871674111111111117dc0aa78b770fa6a738034120c3020017861661027160ac1b9081179091558b51808e018d5288815273c011a73ee8576fb46f5e1c5751ca3b9fe0af2a6f818b01528c0192909252600980548a168817871674c011a73ee8576fb46f5e1c5751ca3b9fe0af2a6f001786169092179091558951808c018b5286815273c00e94cb662c3520282e6f5717214004a7f26888818901528a01899052805488168617851674c00e94cb662c3520282e6f5717214004a7f2688800178416831790558851808b018a526003808252739f8f72aa9304c8b593d555f12ef6589cc3a579a282890152908a01899052600b805489169091178516749f8f72aa9304c8b593d555f12ef6589cc3a579a200178416831790558851808b018a52818152734d224452801aced8b2f0aebe155379bb5d594381818801528901889052600c805488169091178416744d224452801aced8b2f0aebe155379bb5d59438100178316821790558751808a018952848152737fc66500c84a76ad7e9c93437bfc5ac33e2ddae9818701528801879052600d8054871685178416747fc66500c84a76ad7e9c93437bfc5ac33e2ddae9001783168217905587519889018852838952737d1afa7b718fb893db30a3abc0cfc608aacfebb0948901949094529690950193909352600e8054747d1afa7b718fb893db30a3abc0cfc608aacfebb000931690931790931617909216179055620005d8565b3390565b610ae3806200405e83390190565b6112758062004b4183390190565b6109158062005db683390190565b6001600160a01b03929092168252602082015260400190565b60805160601c60a05160601c60c05160601c60e05160601c6101005160601c6101205160601c6139e46200067a6000398061103052806111465250806109285280610ab95280611b035280611f6c52806121af52806123505250806109025280610a9352806114e252806115725280611f465280612439525050806118925280611f135280612e69525080610c4b528061162152806116a152506139e46000f3fe6080604052600436106102195760003560e01c8063a7c555401161011d578063e84e2dda116100b0578063f3ccaac01161007f578063f76f691c11610064578063f76f691c14610559578063f96db92514610579578063fa2dcd931461058c57610219565b8063f3ccaac01461052f578063f510d9081461054457610219565b8063e84e2dda146104d2578063ea4c1b45146104e7578063efbf8185146104fc578063f2fde38b1461050f57610219565b8063ced72f87116100ec578063ced72f8714610468578063d96a094a1461047d578063e4849b321461049d578063e7d015f2146104bd57610219565b8063a7c55540146103fc578063b75979141461041c578063ba25d94414610431578063c20120b51461044657610219565b80637805d4be116101b057806395d89b411161017f57806399a5d7471161016457806399a5d7471461039757806399d50d5d146103c55780639b745aec146103e757610219565b806395d89b411461036d57806398d5fdca1461038257610219565b80637805d4be14610303578063782fa9c9146103235780638da5cb5b146103435780638e96347b1461035857610219565b80633d956691116101ec5780633d9566911461029557806360ebbf81146102b757806369bb4dc2146102d9578063715018a6146102ee57610219565b806306fdde031461021e57806313a7e54e146102495780631da989601461026b5780633216428a14610280575b600080fd5b34801561022a57600080fd5b506102336105a1565b60405161024091906134e5565b60405180910390f35b34801561025557600080fd5b50610269610264366004613327565b6105d8565b005b34801561027757600080fd5b506102336106b8565b34801561028c57600080fd5b506102696106d8565b3480156102a157600080fd5b506102aa6107ba565b60405161024091906137ec565b3480156102c357600080fd5b506102cc6107c0565b60405161024091906133bd565b3480156102e557600080fd5b506102aa6107dc565b3480156102fa57600080fd5b506102696107e2565b34801561030f57600080fd5b506102aa61031e36600461324d565b6108f9565b34801561032f57600080fd5b5061026961033e366004613305565b6109cd565b34801561034f57600080fd5b506102cc610d99565b34801561036457600080fd5b506102aa610db5565b34801561037957600080fd5b50610233610dbb565b34801561038e57600080fd5b506102aa610df2565b3480156103a357600080fd5b506103b76103b23660046132d5565b610eaf565b604051610240929190613805565b3480156103d157600080fd5b506103da610eeb565b6040516102409190613471565b3480156103f357600080fd5b506102aa610f84565b34801561040857600080fd5b506102aa610417366004613267565b6110f9565b34801561042857600080fd5b506102aa61119a565b34801561043d57600080fd5b506102336112d3565b34801561045257600080fd5b5061045b6112f4565b60405161024091906134da565b34801561047457600080fd5b506103b76112fd565b34801561048957600080fd5b506102696104983660046132d5565b61130b565b3480156104a957600080fd5b506102696104b83660046132d5565b61133d565b3480156104c957600080fd5b506102cc61169f565b3480156104de57600080fd5b5061045b6116c3565b3480156104f357600080fd5b506102696116d1565b61026961050a3660046132d5565b6118df565b34801561051b57600080fd5b5061026961052a366004613201565b611bdc565b34801561053b57600080fd5b50610233611d7d565b34801561055057600080fd5b50610269611d9d565b34801561056557600080fd5b506102aa61057436600461321b565b611f3d565b6102696105873660046132d5565b61201d565b34801561059857600080fd5b5061026961226a565b60408051808201909152600981527f496e646578204554480000000000000000000000000000000000000000000000602082015290565b6105e06125a9565b73ffffffffffffffffffffffffffffffffffffffff166105fe610d99565b73ffffffffffffffffffffffffffffffffffffffff161461068057604080517f08c379a000000000000000000000000000000000000000000000000000000000815260206004820181905260248201527f4f776e61626c653a2063616c6c6572206973206e6f7420746865206f776e6572604482015290519081900360640190fd5b600280547fffffffffffffffffffffffffffffffffffffffffffffffffffffffffffffff001660ff9390931692909217909155600355565b606060405180608001604052806046815260200161381460469139905090565b6106e06125a9565b73ffffffffffffffffffffffffffffffffffffffff166106fe610d99565b73ffffffffffffffffffffffffffffffffffffffff161461078057604080517f08c379a000000000000000000000000000000000000000000000000000000000815260206004820181905260248201527f4f776e61626c653a2063616c6c6572206973206e6f7420746865206f776e6572604482015290519081900360640190fd5b601580547fffffffffffffffffffffffffffffffffffffffffffffffffffffffffffff00ff81166101009182900460ff1615909102179055565b60115481565b600f5473ffffffffffffffffffffffffffffffffffffffff1681565b60165481565b6107ea6125a9565b73ffffffffffffffffffffffffffffffffffffffff16610808610d99565b73ffffffffffffffffffffffffffffffffffffffff161461088a57604080517f08c379a000000000000000000000000000000000000000000000000000000000815260206004820181905260248201527f4f776e61626c653a2063616c6c6572206973206e6f7420746865206f776e6572604482015290519081900360640190fd5b6000805460405173ffffffffffffffffffffffffffffffffffffffff909116907f8be0079c531659141344cd1fd0a4f28419497f9722a3daafe3b4186f6b6457e0908390a3600080547fffffffffffffffffffffffff0000000000000000000000000000000000000000169055565b600081610926577f0000000000000000000000000000000000000000000000000000000000000000610948565b7f00000000000000000000000000000000000000000000000000000000000000005b73ffffffffffffffffffffffffffffffffffffffff166334ce998a6040518163ffffffff1660e01b815260040160206040518083038186803b15801561098d57600080fd5b505afa1580156109a1573d6000803e3d6000fd5b505050506040513d601f19601f820116820180604052508101906109c591906132ed565b90505b919050565b60026001541415610a3f57604080517f08c379a000000000000000000000000000000000000000000000000000000000815260206004820152601f60248201527f5265656e7472616e637947756172643a207265656e7472616e742063616c6c00604482015290519081900360640190fd5b600260015560045460ff1615610a8a576040517f08c379a0000000000000000000000000000000000000000000000000000000008152600401610a81906135c4565b60405180910390fd5b600081610ab7577f0000000000000000000000000000000000000000000000000000000000000000610ad9565b7f00000000000000000000000000000000000000000000000000000000000000005b9050828173ffffffffffffffffffffffffffffffffffffffff166334ce998a6040518163ffffffff1660e01b815260040160206040518083038186803b158015610b2257600080fd5b505afa158015610b36573d6000803e3d6000fd5b505050506040513d601f19601f82011682018060405250810190610b5a91906132ed565b10158015610c0a57506040517fe65896c9000000000000000000000000000000000000000000000000000000008152839073ffffffffffffffffffffffffffffffffffffffff83169063e65896c990610bb79033906004016133bd565b60206040518083038186803b158015610bcf57600080fd5b505afa158015610be3573d6000803e3d6000fd5b505050506040513d601f19601f82011682018060405250810190610c0791906132ed565b10155b610c40576040517f08c379a0000000000000000000000000000000000000000000000000000000008152600401610a819061358d565b8115610c7657610c717f000000000000000000000000000000000000000000000000000000000000000033856125ad565b610c80565b610c803384612789565b6040517fcca5e4b100000000000000000000000000000000000000000000000000000000815273ffffffffffffffffffffffffffffffffffffffff82169063cca5e4b190610cd790339087906000906004016133de565b600060405180830381600087803b158015610cf157600080fd5b505af1158015610d05573d6000803e3d6000fd5b50506040517ff8c493d600000000000000000000000000000000000000000000000000000000815273ffffffffffffffffffffffffffffffffffffffff8416925063f8c493d69150610d5e9086906000906004016137f5565b600060405180830381600087803b158015610d7857600080fd5b505af1158015610d8c573d6000803e3d6000fd5b5050600180555050505050565b60005473ffffffffffffffffffffffffffffffffffffffff1690565b60125481565b60408051808201909152600881527f5649442845544829000000000000000000000000000000000000000000000000602082015290565b600080805b600a811015610e9c57610e92610e8b600583600a8110610e1357fe5b015460ff16610e85600585600a8110610e2857fe5b60408051606081018252929091015460ff8116835273ffffffffffffffffffffffffffffffffffffffff610100820416602084015262ffffff750100000000000000000000000000000000000000000090910416908201526110f9565b906128dc565b839061294f565b9150600101610df7565b50610ea9816103e86129c3565b91505090565b60035460025460009182918291610ed491610ece90879060ff166128dc565b906129c3565b905080610ee18582612a44565b9250925050915091565b610ef361316e565b6040805161014081019091526005600a6000835b82821015610f7b57604080516060810182528584015460ff81168252610100810473ffffffffffffffffffffffffffffffffffffffff16602080840191909152750100000000000000000000000000000000000000000090910462ffffff1692820192909252825260019092019101610f07565b50505050905090565b60008060005b600a8110156110db576000600582600a8110610fa257fe5b60408051606081018252919092015460ff81168252610100810473ffffffffffffffffffffffffffffffffffffffff90811660208401819052750100000000000000000000000000000000000000000090920462ffffff16838501819052600f5494517fd6556a300000000000000000000000000000000000000000000000000000000081529395506000947f000000000000000000000000000000000000000000000000000000000000000083169463d6556a309461106a9492909216929060040161343c565b60206040518083038186803b15801561108257600080fd5b505afa158015611096573d6000803e3d6000fd5b505050506040513d601f19601f820116820180604052508101906110ba91906132ed565b9050838110806110c8575083155b156110d1578093505b5050600101610f8a565b50610ea96110e7610df2565b610ece83670de0b6b3a76400006128dc565b600f54602082015160408084015190517f4613d13500000000000000000000000000000000000000000000000000000000815260009373ffffffffffffffffffffffffffffffffffffffff7f0000000000000000000000000000000000000000000000000000000000000000811694634613d1359461118294939092169290919060040161343c565b60206040518083038186803b15801561098d57600080fd5b60008060005b600a8110156112c0576000600582600a81106111b857fe5b60408051606081018252929091015460ff8116835273ffffffffffffffffffffffffffffffffffffffff610100820416602084015262ffffff7501000000000000000000000000000000000000000000909104169082015290506112b56112ae611221836110f9565b836020015173ffffffffffffffffffffffffffffffffffffffff166370a08231306040518263ffffffff1660e01b815260040161125e91906133bd565b60206040518083038186803b15801561127657600080fd5b505afa15801561128a573d6000803e3d6000fd5b505050506040513d601f19601f82011682018060405250810190610e8591906132ed565b849061294f565b9250506001016111a0565b50610ea981670de0b6b3a76400006129c3565b606060405180610100016040528060c5815260200161385a60c59139905090565b60045460ff1690565b60025460035460ff90911691565b6040517f08c379a0000000000000000000000000000000000000000000000000000000008152600401610a819061368f565b600260015414156113af57604080517f08c379a000000000000000000000000000000000000000000000000000000000815260206004820152601f60248201527f5265656e7472616e637947756172643a207265656e7472616e742063616c6c00604482015290519081900360640190fd5b600260015560045460ff16156113f1576040517f08c379a0000000000000000000000000000000000000000000000000000000008152600401610a81906135c4565b6000806113fd83610eaf565b915091506000811180156114115750600082115b611447576040517f08c379a0000000000000000000000000000000000000000000000000000000008152600401610a81906137a6565b6000611451610f84565b905083811015801561147857508061147660115460125461294f90919063ffffffff16565b105b6114ae576040517f08c379a0000000000000000000000000000000000000000000000000000000008152600401610a81906136ec565b60006114b8610df2565b6011549091506114c8908661294f565b60115573ffffffffffffffffffffffffffffffffffffffff7f00000000000000000000000000000000000000000000000000000000000000001663cca5e4b13361151e670de0b6b3a7640000610ece88876128dc565b60016040518463ffffffff1660e01b815260040161153e939291906133de565b600060405180830381600087803b15801561155857600080fd5b505af115801561156c573d6000803e3d6000fd5b505050507f000000000000000000000000000000000000000000000000000000000000000073ffffffffffffffffffffffffffffffffffffffff1663cca5e4b16115b4610d99565b6115ca670de0b6b3a7640000610ece89876128dc565b60016040518463ffffffff1660e01b81526004016115ea939291906133de565b600060405180830381600087803b15801561160457600080fd5b505af1158015611618573d6000803e3d6000fd5b505050506116487f0000000000000000000000000000000000000000000000000000000000000000333088612abb565b7fc779ed4173ee0a3293a6575326fb4fcb5c81023bbc481cf910100c0fbe836e333361167c611675610df2565b86906128dc565b8560405161168c9392919061340e565b60405180910390a1505060018055505050565b7f000000000000000000000000000000000000000000000000000000000000000081565b601554610100900460ff1681565b6116d96125a9565b73ffffffffffffffffffffffffffffffffffffffff166116f7610d99565b73ffffffffffffffffffffffffffffffffffffffff161461177957604080517f08c379a000000000000000000000000000000000000000000000000000000000815260206004820181905260248201527f4f776e61626c653a2063616c6c6572206973206e6f7420746865206f776e6572604482015290519081900360640190fd5b60155460ff16156117b6576040517f08c379a0000000000000000000000000000000000000000000000000000000008152600401610a8190613723565b6010805460010190819055600910156117fa576000601055601580547fffffffffffffffffffffffffffffffffffffffffffffffffffffffffffffff001660011790555b60006005601054600a811061180b57fe5b60408051606081018252919092015460ff8116808352610100820473ffffffffffffffffffffffffffffffffffffffff166020840152750100000000000000000000000000000000000000000090910462ffffff169282019290925260125490925060009161188191606491610ece91906128dc565b9050600061188e836110f9565b90507f000000000000000000000000000000000000000000000000000000000000000082156118c3576118c384828585612ca0565b601154156118d9576118d9848260115485612deb565b50505050565b6002600154141561195157604080517f08c379a000000000000000000000000000000000000000000000000000000000815260206004820152601f60248201527f5265656e7472616e637947756172643a207265656e7472616e742063616c6c00604482015290519081900360640190fd5b600260015560045460ff1615611993576040517f08c379a0000000000000000000000000000000000000000000000000000000008152600401610a81906135c4565b60008061199f83610eaf565b9150915060006119ad610df2565b90506000821180156119bf5750600083115b80156119e05750346119dd670de0b6b3a7640000610ece87856128dc565b11155b611a16576040517f08c379a0000000000000000000000000000000000000000000000000000000008152600401610a8190613556565b6000611a20610f84565b9050848110158015611a3457506016548311155b8015611a55575080611a5360115460125461294f90919063ffffffff16565b105b611a8b576040517f08c379a0000000000000000000000000000000000000000000000000000000008152600401610a81906136ec565b601654611a989084612a44565b6016556000611ab3670de0b6b3a7640000610ece86866128dc565b601254909150611ac3908261294f565b6012556040517fcca5e4b100000000000000000000000000000000000000000000000000000000815273ffffffffffffffffffffffffffffffffffffffff7f0000000000000000000000000000000000000000000000000000000000000000169063cca5e4b190611b3d90339088906001906004016133de565b600060405180830381600087803b158015611b5757600080fd5b505af1158015611b6b573d6000803e3d6000fd5b50505050611b95611b7a610d99565b611b9067120a871cc0020000610ece89886128dc565b612789565b7fc032f62758cac23a902e648ab54b6825665b9bc19e7cd0a8ab915cbf3eea4fa0338286604051611bc89392919061340e565b60405180910390a150506001805550505050565b611be46125a9565b73ffffffffffffffffffffffffffffffffffffffff16611c02610d99565b73ffffffffffffffffffffffffffffffffffffffff1614611c8457604080517f08c379a000000000000000000000000000000000000000000000000000000000815260206004820181905260248201527f4f776e61626c653a2063616c6c6572206973206e6f7420746865206f776e6572604482015290519081900360640190fd5b73ffffffffffffffffffffffffffffffffffffffff8116611cf0576040517f08c379a000000000000000000000000000000000000000000000000000000000815260040180806020018281038252602681526020018061391f6026913960400191505060405180910390fd5b6000805460405173ffffffffffffffffffffffffffffffffffffffff808516939216917f8be0079c531659141344cd1fd0a4f28419497f9722a3daafe3b4186f6b6457e091a3600080547fffffffffffffffffffffffff00000000000000000000000000000000000000001673ffffffffffffffffffffffffffffffffffffffff92909216919091179055565b606060405180608001604052806049815260200161396660499139905090565b611da56125a9565b73ffffffffffffffffffffffffffffffffffffffff16611dc3610d99565b73ffffffffffffffffffffffffffffffffffffffff1614611e4557604080517f08c379a000000000000000000000000000000000000000000000000000000000815260206004820181905260248201527f4f776e61626c653a2063616c6c6572206973206e6f7420746865206f776e6572604482015290519081900360640190fd5b600480547fffffffffffffffffffffffffffffffffffffffffffffffffffffffffffffff00166001178155600f54604080517fd0e30db00000000000000000000000000000000000000000000000000000000081529051479373ffffffffffffffffffffffffffffffffffffffff9093169263d0e30db09285928183019260009282900301818588803b158015611edb57600080fd5b505af1158015611eef573d6000803e3d6000fd5b5050600f54611f3a935073ffffffffffffffffffffffffffffffffffffffff1691507f0000000000000000000000000000000000000000000000000000000000000000905083612f99565b50565b600081611f6a577f0000000000000000000000000000000000000000000000000000000000000000611f8c565b7f00000000000000000000000000000000000000000000000000000000000000005b73ffffffffffffffffffffffffffffffffffffffff1663e65896c9846040518263ffffffff1660e01b8152600401611fc491906133bd565b60206040518083038186803b158015611fdc57600080fd5b505afa158015611ff0573d6000803e3d6000fd5b505050506040513d601f19601f8201168201806040525081019061201491906132ed565b90505b92915050565b6002600154141561208f57604080517f08c379a000000000000000000000000000000000000000000000000000000000815260206004820152601f60248201527f5265656e7472616e637947756172643a207265656e7472616e742063616c6c00604482015290519081900360640190fd5b6002600155601554610100900460ff166120d5576040517f08c379a0000000000000000000000000000000000000000000000000000000008152600401610a8190613658565b6000806120e183610eaf565b915091506000811180156120f55750600082115b61212b576040517f08c379a0000000000000000000000000000000000000000000000000000000008152600401610a8190613556565b601654612138908261294f565b6016556000612145610df2565b9050600061215f670de0b6b3a7640000610ece85856128dc565b60125490915061216f9082612a44565b6012556040517fcca5e4b100000000000000000000000000000000000000000000000000000000815273ffffffffffffffffffffffffffffffffffffffff7f0000000000000000000000000000000000000000000000000000000000000000169063cca5e4b1906121e990339087906000906004016133de565b600060405180830381600087803b15801561220357600080fd5b505af1158015612217573d6000803e3d6000fd5b5050505061223e33611b90670de0b6b3a7640000610ece868a6128dc90919063ffffffff16565b61225f612249610d99565b611b9067120a871cc0020000610ece88876128dc565b505060018055505050565b6122726125a9565b73ffffffffffffffffffffffffffffffffffffffff16612290610d99565b73ffffffffffffffffffffffffffffffffffffffff161461231257604080517f08c379a000000000000000000000000000000000000000000000000000000000815260206004820181905260248201527f4f776e61626c653a2063616c6c6572206973206e6f7420746865206f776e6572604482015290519081900360640190fd5b60155460ff1661234e576040517f08c379a0000000000000000000000000000000000000000000000000000000008152600401610a8190613621565b7f000000000000000000000000000000000000000000000000000000000000000073ffffffffffffffffffffffffffffffffffffffff1663f8c493d66123aa612395610df2565b601254610ece90670de0b6b3a76400006128dc565b60016040518363ffffffff1660e01b81526004016123c99291906137f5565b600060405180830381600087803b1580156123e357600080fd5b505af11580156123f7573d6000803e3d6000fd5b50506013546040517ff8c493d600000000000000000000000000000000000000000000000000000000815273ffffffffffffffffffffffffffffffffffffffff7f000000000000000000000000000000000000000000000000000000000000000016935063f8c493d6925061247291906001906004016137f5565b600060405180830381600087803b15801561248c57600080fd5b505af11580156124a0573d6000803e3d6000fd5b5050505060125460145410156124ca576124ca6124bb610d99565b601454601254611b9091612a44565b6013541561255c57600f546013546040517f2e1a7d4d00000000000000000000000000000000000000000000000000000000815273ffffffffffffffffffffffffffffffffffffffff90921691632e1a7d4d91612529916004016137ec565b600060405180830381600087803b15801561254357600080fd5b505af1158015612557573d6000803e3d6000fd5b505050505b60006012819055601580547fffffffffffffffffffffffffffffffffffffffffffffffffffffffffffffff0090811690915560148290556011829055601391909155600480549091169055565b3390565b6040805173ffffffffffffffffffffffffffffffffffffffff8481166024830152604480830185905283518084039091018152606490920183526020820180517bffffffffffffffffffffffffffffffffffffffffffffffffffffffff167fa9059cbb000000000000000000000000000000000000000000000000000000001781529251825160009485949389169392918291908083835b6020831061268257805182527fffffffffffffffffffffffffffffffffffffffffffffffffffffffffffffffe09092019160209182019101612645565b6001836020036101000a0380198251168184511680821785525050505050509050019150506000604051808303816000865af19150503d80600081146126e4576040519150601f19603f3d011682016040523d82523d6000602084013e6126e9565b606091505b5091509150818015612717575080511580612717575080806020019051602081101561271457600080fd5b50515b61278257604080517f08c379a000000000000000000000000000000000000000000000000000000000815260206004820152600260248201527f5354000000000000000000000000000000000000000000000000000000000000604482015290519081900360640190fd5b5050505050565b6040805160008082526020820190925273ffffffffffffffffffffffffffffffffffffffff84169083906040518082805190602001908083835b6020831061280057805182527fffffffffffffffffffffffffffffffffffffffffffffffffffffffffffffffe090920191602091820191016127c3565b6001836020036101000a03801982511681845116808217855250505050505090500191505060006040518083038185875af1925050503d8060008114612862576040519150601f19603f3d011682016040523d82523d6000602084013e612867565b606091505b50509050806128d757604080517f08c379a000000000000000000000000000000000000000000000000000000000815260206004820152600360248201527f5354450000000000000000000000000000000000000000000000000000000000604482015290519081900360640190fd5b505050565b6000826128eb57506000612017565b828202828482816128f857fe5b0414612014576040517f08c379a00000000000000000000000000000000000000000000000000000000081526004018080602001828103825260218152602001806139456021913960400191505060405180910390fd5b60008282018381101561201457604080517f08c379a000000000000000000000000000000000000000000000000000000000815260206004820152601b60248201527f536166654d6174683a206164646974696f6e206f766572666c6f770000000000604482015290519081900360640190fd5b6000808211612a3357604080517f08c379a000000000000000000000000000000000000000000000000000000000815260206004820152601a60248201527f536166654d6174683a206469766973696f6e206279207a65726f000000000000604482015290519081900360640190fd5b818381612a3c57fe5b049392505050565b600082821115612ab557604080517f08c379a000000000000000000000000000000000000000000000000000000000815260206004820152601e60248201527f536166654d6174683a207375627472616374696f6e206f766572666c6f770000604482015290519081900360640190fd5b50900390565b6040805173ffffffffffffffffffffffffffffffffffffffff85811660248301528481166044830152606480830185905283518084039091018152608490920183526020820180517bffffffffffffffffffffffffffffffffffffffffffffffffffffffff167f23b872dd00000000000000000000000000000000000000000000000000000000178152925182516000948594938a169392918291908083835b60208310612b9857805182527fffffffffffffffffffffffffffffffffffffffffffffffffffffffffffffffe09092019160209182019101612b5b565b6001836020036101000a0380198251168184511680821785525050505050509050019150506000604051808303816000865af19150503d8060008114612bfa576040519150601f19603f3d011682016040523d82523d6000602084013e612bff565b606091505b5091509150818015612c2d575080511580612c2d5750808060200190516020811015612c2a57600080fd5b50515b612c9857604080517f08c379a000000000000000000000000000000000000000000000000000000000815260206004820152600360248201527f5354460000000000000000000000000000000000000000000000000000000000604482015290519081900360640190fd5b505050505050565b6000612cb882610ece85670de0b6b3a76400006128dc565b600354600254919250600091612ce191612cda91610ece90889060ff166128dc565b859061294f565b6040805161010081018252600f5473ffffffffffffffffffffffffffffffffffffffff908116825260208a8101518216908301528983015162ffffff168284015230606083015242608083015260a0820186905260c08201849052600060e083015291517fdb3e2198000000000000000000000000000000000000000000000000000000008152929350612de0929188169163db3e219891612d85916004016137dd565b602060405180830381600087803b158015612d9f57600080fd5b505af1158015612db3573d6000803e3d6000fd5b505050506040513d601f19601f82011682018060405250810190612dd791906132ed565b6014549061294f565b601455505050505050565b6000612e1382610ece6064610ece896000015160ff16610e85612e0c610df2565b8a906128dc565b90506000612e2d670de0b6b3a7640000610ece84866128dc565b600354600254919250600091612e5d91612e5691610ece90600a90610e8590889060ff166128dc565b8390612a44565b9050612e8e87602001517f000000000000000000000000000000000000000000000000000000000000000085612f99565b60408051610100810182526020808a015173ffffffffffffffffffffffffffffffffffffffff9081168352600f548116918301919091528983015162ffffff168284015230606083015242608083015260a0820186905260c08201849052600060e083015291517f414bf389000000000000000000000000000000000000000000000000000000008152612f8d9289169163414bf38991612f3291906004016137dd565b602060405180830381600087803b158015612f4c57600080fd5b505af1158015612f60573d6000803e3d6000fd5b505050506040513d601f19601f82011682018060405250810190612f8491906132ed565b6013549061294f565b60135550505050505050565b6040805173ffffffffffffffffffffffffffffffffffffffff8481166024830152604480830185905283518084039091018152606490920183526020820180517bffffffffffffffffffffffffffffffffffffffffffffffffffffffff167f095ea7b3000000000000000000000000000000000000000000000000000000001781529251825160009485949389169392918291908083835b6020831061306e57805182527fffffffffffffffffffffffffffffffffffffffffffffffffffffffffffffffe09092019160209182019101613031565b6001836020036101000a0380198251168184511680821785525050505050509050019150506000604051808303816000865af19150503d80600081146130d0576040519150601f19603f3d011682016040523d82523d6000602084013e6130d5565b606091505b5091509150818015613103575080511580613103575080806020019051602081101561310057600080fd5b50515b61278257604080517f08c379a000000000000000000000000000000000000000000000000000000000815260206004820152600260248201527f5341000000000000000000000000000000000000000000000000000000000000604482015290519081900360640190fd5b604051806101400160405280600a905b61318661319c565b81526020019060019003908161317e5790505090565b604080516060810182526000808252602082018190529181019190915290565b803573ffffffffffffffffffffffffffffffffffffffff811681146109c857600080fd5b803580151581146109c857600080fd5b803560ff811681146109c857600080fd5b600060208284031215613212578081fd5b612014826131bc565b6000806040838503121561322d578081fd5b613236836131bc565b9150613244602084016131e0565b90509250929050565b60006020828403121561325e578081fd5b612014826131e0565b600060608284031215613278578081fd5b6040516060810167ffffffffffffffff8111828210171561329557fe5b6040526132a1836131f0565b81526132af602084016131bc565b6020820152604083013562ffffff811681146132c9578283fd5b60408201529392505050565b6000602082840312156132e6578081fd5b5035919050565b6000602082840312156132fe578081fd5b5051919050565b60008060408385031215613317578182fd5b82359150613244602084016131e0565b60008060408385031215613339578182fd5b613342836131f0565b946020939093013593505050565b805173ffffffffffffffffffffffffffffffffffffffff908116835260208083015182169084015260408083015162ffffff16908401526060808301518216908401526080808301519084015260a0828101519084015260c0808301519084015260e09182015116910152565b73ffffffffffffffffffffffffffffffffffffffff91909116815260200190565b73ffffffffffffffffffffffffffffffffffffffff93909316835260208301919091521515604082015260600190565b73ffffffffffffffffffffffffffffffffffffffff9390931683526020830191909152604082015260600190565b73ffffffffffffffffffffffffffffffffffffffff938416815291909216602082015262ffffff909116604082015260600190565b6103c08101818360005b600a8110156134d1578151805160ff16845260208082015173ffffffffffffffffffffffffffffffffffffffff168186015260409182015162ffffff16918501919091526060909301929091019060010161347b565b50505092915050565b901515815260200190565b6000602080835283518082850152825b81811015613511578581018301518582016040015282016134f5565b818111156135225783604083870101525b50601f017fffffffffffffffffffffffffffffffffffffffffffffffffffffffffffffffe016929092016040019392505050565b60208082526016908201527f4e6f7420656e6f75676820746f6b656e732073656e7400000000000000000000604082015260600190565b6020808252600f908201527f4e6f7420656e6f75676820646562740000000000000000000000000000000000604082015260600190565b60208082526029908201527f50726f64756374206973206265696e6720736574746c65642c2074727920616760408201527f61696e206c617465720000000000000000000000000000000000000000000000606082015260800190565b6020808252601b908201527f4e6f7420616c6c20746f6b656e732077657265206d616e616765640000000000604082015260600190565b6020808252601a908201527f43616e63656c6c6174696f6e206973206e6f7420616374697665000000000000604082015260600190565b60208082526021908201527f557365206275794554482066756e6374696f6e20746f2062757920746f6b656e60408201527f7300000000000000000000000000000000000000000000000000000000000000606082015260800190565b60208082526014908201527f4e6f7420656e6f756768206c6971756964697479000000000000000000000000604082015260600190565b60208082526046908201527f546f6b656e732061726520616c7265616479206d616e61676564206f7220616e60408201527f6f74686572206d616e6167656d656e74207472616e73616374696f6e2069732060608201527f6163746976650000000000000000000000000000000000000000000000000000608082015260a00190565b60208082526019908201527f596f75206d7573742073656c6c206d6f726520746f6b656e7300000000000000604082015260600190565b61010081016120178284613350565b90815260200190565b9182521515602082015260400190565b91825260208201526040019056fe566f696420496e6465782845544829202d2066756c6c7920646563656e7472616c697a656420696e64657820776974682045544820617320746865206261736520746f6b656e566f696420496e6465782845544829202d2066756c6c7920646563656e7472616c697a656420696e64657820776974682045544820617320746865206261736520746f6b656e2e20497420666561747572657320313020455243323020746f6b656e732c20616e6420616c6c6f777320796f7520746f20627579206f722073656c6c207468656d206174206f6e63652e20596f7520726563656976652056494420746f6b656e7320617320612070726f6f66206f662066756e6473206f776e6572736869704f776e61626c653a206e6577206f776e657220697320746865207a65726f2061646472657373536166654d6174683a206d756c7469706c69636174696f6e206f766572666c6f7768747470733a2f2f766f69646d616e6167656d656e7473746f726167652e626c6f622e636f72652e77696e646f77732e6e65742f6173736574732f6c6f676f5f696e6465782e706e67a2646970667358221220ae545945a492743a18ed10226d48237908cfd3517cf14f214f1310c1ccba3eb064736f6c6343000706003360806040526040516100109061005f565b604051809103906000f08015801561002c573d6000803e3d6000fd5b50600180546001600160a01b0319166001600160a01b039290921691909117905534801561005957600080fd5b5061006c565b61045d8061068683390190565b61060b8061007b6000396000f3fe608060405234801561001057600080fd5b50600436106100675760003560e01c8063e2842d7911610050578063e2842d79146100c9578063e65896c914610121578063f8c493d61461015457610067565b806334ce998a1461006c578063cca5e4b114610086575b600080fd5b610074610179565b60408051918252519081900360200190f35b6100c76004803603606081101561009c57600080fd5b5073ffffffffffffffffffffffffffffffffffffffff8135169060208101359060400135151561017f565b005b6100d1610270565b60408051602080825283518183015283519192839290830191858101910280838360005b8381101561010d5781810151838201526020016100f5565b505050509050019250505060405180910390f35b6100746004803603602081101561013757600080fd5b503573ffffffffffffffffffffffffffffffffffffffff166103c7565b6100c76004803603604081101561016a57600080fd5b50803590602001351515610470565b60005490565b600154604080517fcca5e4b100000000000000000000000000000000000000000000000000000000815273ffffffffffffffffffffffffffffffffffffffff86811660048301526024820186905284151560448301529151919092169163cca5e4b191606480830192600092919082900301818387803b15801561020257600080fd5b505af1158015610216573d6000803e3d6000fd5b50506040805173ffffffffffffffffffffffffffffffffffffffff871681526020810186905281517fbdbcd24495abd6f63a1ff87418df04429000c6f9d53015ef4d5c91f353d827429450908190039091019150a1505050565b600154604080517fe2842d79000000000000000000000000000000000000000000000000000000008152905160609273ffffffffffffffffffffffffffffffffffffffff169163e2842d79916004808301926000929190829003018186803b1580156102db57600080fd5b505afa1580156102ef573d6000803e3d6000fd5b505050506040513d6000823e601f3d9081017fffffffffffffffffffffffffffffffffffffffffffffffffffffffffffffffe0168201604052602081101561033657600080fd5b810190808051604051939291908464010000000082111561035657600080fd5b90830190602082018581111561036b57600080fd5b825186602082028301116401000000008211171561038857600080fd5b82525081516020918201928201910280838360005b838110156103b557818101518382015260200161039d565b50505050905001604052505050905090565b600154604080517fe65896c900000000000000000000000000000000000000000000000000000000815273ffffffffffffffffffffffffffffffffffffffff84811660048301529151600093929092169163e65896c991602480820192602092909190829003018186803b15801561043e57600080fd5b505afa158015610452573d6000803e3d6000fd5b505050506040513d602081101561046857600080fd5b505192915050565b801561048b5760005461048390836104e3565b60005561049c565b600054610498908361055e565b6000555b600054604080519182526020820184905282151582820152517fe3a346931856fab43b7f9bcf4167ed53663e69d0195323a374d0f89a432d0f439181900360600190a15050565b60008282018381101561055757604080517f08c379a000000000000000000000000000000000000000000000000000000000815260206004820152601b60248201527f536166654d6174683a206164646974696f6e206f766572666c6f770000000000604482015290519081900360640190fd5b9392505050565b6000828211156105cf57604080517f08c379a000000000000000000000000000000000000000000000000000000000815260206004820152601e60248201527f536166654d6174683a207375627472616374696f6e206f766572666c6f770000604482015290519081900360640190fd5b5090039056fea2646970667358221220208857a3067afb5832338ff9a6b9dc3d23a3043010bc4cc771ef56da940cc28f64736f6c63430007060033608060405234801561001057600080fd5b5061043d806100206000396000f3fe608060405234801561001057600080fd5b50600436106100415760003560e01c8063cca5e4b114610046578063e2842d7914610089578063e65896c9146100e1575b600080fd5b6100876004803603606081101561005c57600080fd5b5073ffffffffffffffffffffffffffffffffffffffff81351690602081013590604001351515610126565b005b6100916101a7565b60408051602080825283518183015283519192839290830191858101910280838360005b838110156100cd5781810151838201526020016100b5565b505050509050019250505060405180910390f35b610114600480360360208110156100f757600080fd5b503573ffffffffffffffffffffffffffffffffffffffff16610216565b60408051918252519081900360200190f35b73ffffffffffffffffffffffffffffffffffffffff831660009081526020819052604090205481156101635761015c818461023e565b9050610170565b61016d81846102b9565b90505b73ffffffffffffffffffffffffffffffffffffffff841660009081526020819052604090208190556101a184610330565b50505050565b6060600280548060200260200160405190810160405280929190818152602001828054801561020c57602002820191906000526020600020905b815473ffffffffffffffffffffffffffffffffffffffff1681526001909101906020018083116101e1575b5050505050905090565b73ffffffffffffffffffffffffffffffffffffffff1660009081526020819052604090205490565b6000828201838110156102b257604080517f08c379a000000000000000000000000000000000000000000000000000000000815260206004820152601b60248201527f536166654d6174683a206164646974696f6e206f766572666c6f770000000000604482015290519081900360640190fd5b9392505050565b60008282111561032a57604080517f08c379a000000000000000000000000000000000000000000000000000000000815260206004820152601e60248201527f536166654d6174683a207375627472616374696f6e206f766572666c6f770000604482015290519081900360640190fd5b50900390565b73ffffffffffffffffffffffffffffffffffffffff811660009081526001602052604090205460ff166104045773ffffffffffffffffffffffffffffffffffffffff81166000818152600160208190526040822080547fffffffffffffffffffffffffffffffffffffffffffffffffffffffffffffff0016821790556002805491820181559091527f405787fa12a823e0f2b7631cc41b3ba8828b3321ca811111fa75cd3aa3bb5ace0180547fffffffffffffffffffffffff00000000000000000000000000000000000000001690911790555b5056fea2646970667358221220687dc2a43aa21187a93147969b0c6d21b545c3e3424529d1b183d503bc62c18864736f6c634300070600336080604052600080546001600160a01b031916731f98431c8ad98523631ae4a59f267346ea31f98417905534801561003657600080fd5b5061122f806100466000396000f3fe608060405234801561001057600080fd5b50600436106100365760003560e01c80634613d1351461003b578063d6556a3014610064575b600080fd5b61004e610049366004611054565b610077565b60405161005b91906111aa565b60405180910390f35b61004e610072366004611054565b6100a6565b60008061008585858561017c565b905061009b81670de0b6b3a764000086886102ba565b9150505b9392505050565b60008060008060006100b9888888610463565b93509350935093506000808973ffffffffffffffffffffffffffffffffffffffff168473ffffffffffffffffffffffffffffffffffffffff16141561012e57600061010585858b610077565b9050610123670de0b6b3a764000061011d88846107b8565b90610834565b92508691505061015a565b600061013b84868b610077565b9050610153670de0b6b3a764000061011d89846107b8565b9250859150505b8181111561016f5750945061009f9350505050565b955061009f945050505050565b600080546040517f1698ee82000000000000000000000000000000000000000000000000000000008152829173ffffffffffffffffffffffffffffffffffffffff1690631698ee82906101d790889088908890600401611175565b60206040518083038186803b1580156101ef57600080fd5b505afa158015610203573d6000803e3d6000fd5b505050506040513d601f19601f820116820180604052508101906102279190611038565b905060008173ffffffffffffffffffffffffffffffffffffffff16633850c7bd6040518163ffffffff1660e01b815260040160e06040518083038186803b15801561027157600080fd5b505afa158015610285573d6000803e3d6000fd5b505050506040513d601f19601f820116820180604052508101906102a991906110d5565b50939b9a5050505050505050505050565b6000806102c6866108b5565b90506fffffffffffffffffffffffffffffffff73ffffffffffffffffffffffffffffffffffffffff8216116103945773ffffffffffffffffffffffffffffffffffffffff80821680029084811690861610610356576103517801000000000000000000000000000000000000000000000000876fffffffffffffffffffffffffffffffff1683610c48565b61038c565b61038c81876fffffffffffffffffffffffffffffffff167801000000000000000000000000000000000000000000000000610c48565b92505061045a565b60006103c073ffffffffffffffffffffffffffffffffffffffff83168068010000000000000000610c48565b90508373ffffffffffffffffffffffffffffffffffffffff168573ffffffffffffffffffffffffffffffffffffffff161061042857610423700100000000000000000000000000000000876fffffffffffffffffffffffffffffffff1683610c48565b610456565b61045681876fffffffffffffffffffffffffffffffff16700100000000000000000000000000000000610c48565b9250505b50949350505050565b600080546040517f1698ee82000000000000000000000000000000000000000000000000000000008152829182918291829173ffffffffffffffffffffffffffffffffffffffff90911690631698ee82906104c6908b908b908b90600401611175565b60206040518083038186803b1580156104de57600080fd5b505afa1580156104f2573d6000803e3d6000fd5b505050506040513d601f19601f820116820180604052508101906105169190611038565b905060008173ffffffffffffffffffffffffffffffffffffffff16633850c7bd6040518163ffffffff1660e01b815260040160e06040518083038186803b15801561056057600080fd5b505afa158015610574573d6000803e3d6000fd5b505050506040513d601f19601f8201168201806040525081019061059891906110d5565b505050505050905060006105ed6105d06127108473ffffffffffffffffffffffffffffffffffffffff166107b890919063ffffffff16565b73ffffffffffffffffffffffffffffffffffffffff841690610d15565b9050600061061173ffffffffffffffffffffffffffffffffffffffff841680610d89565b905060008061069f8584868973ffffffffffffffffffffffffffffffffffffffff16631a6865026040518163ffffffff1660e01b815260040160206040518083038186803b15801561066257600080fd5b505afa158015610676573d6000803e3d6000fd5b505050506040513d601f19601f8201168201806040525081019061069a91906110a5565b610e00565b9150915081818773ffffffffffffffffffffffffffffffffffffffff16630dfe16816040518163ffffffff1660e01b815260040160206040518083038186803b1580156106eb57600080fd5b505afa1580156106ff573d6000803e3d6000fd5b505050506040513d601f19601f820116820180604052508101906107239190611038565b8873ffffffffffffffffffffffffffffffffffffffff1663d21220a76040518163ffffffff1660e01b815260040160206040518083038186803b15801561076957600080fd5b505afa15801561077d573d6000803e3d6000fd5b505050506040513d601f19601f820116820180604052508101906107a19190611038565b995099509950995050505050505093509350935093565b6000826107c75750600061082e565b828202828482816107d457fe5b041461082b576040517f08c379a00000000000000000000000000000000000000000000000000000000081526004018080602001828103825260218152602001806111d96021913960400191505060405180910390fd5b90505b92915050565b60008082116108a457604080517f08c379a000000000000000000000000000000000000000000000000000000000815260206004820152601a60248201527f536166654d6174683a206469766973696f6e206279207a65726f000000000000604482015290519081900360640190fd5b8183816108ad57fe5b049392505050565b60008060008360020b126108cc578260020b6108d4565b8260020b6000035b9050620d89e881111561094857604080517f08c379a000000000000000000000000000000000000000000000000000000000815260206004820152600160248201527f5400000000000000000000000000000000000000000000000000000000000000604482015290519081900360640190fd5b6000600182166109695770010000000000000000000000000000000061097b565b6ffffcb933bd6fad37aa2d162d1a5940015b70ffffffffffffffffffffffffffffffffff16905060028216156109af576ffff97272373d413259a46990580e213a0260801c5b60048216156109ce576ffff2e50f5f656932ef12357cf3c7fdcc0260801c5b60088216156109ed576fffe5caca7e10e4e61c3624eaa0941cd00260801c5b6010821615610a0c576fffcb9843d60f6159c9db58835c9266440260801c5b6020821615610a2b576fff973b41fa98c081472e6896dfb254c00260801c5b6040821615610a4a576fff2ea16466c96a3843ec78b326b528610260801c5b6080821615610a69576ffe5dee046a99a2a811c461f1969c30530260801c5b610100821615610a89576ffcbe86c7900a88aedcffc83b479aa3a40260801c5b610200821615610aa9576ff987a7253ac413176f2b074cf7815e540260801c5b610400821615610ac9576ff3392b0822b70005940c7a398e4b70f30260801c5b610800821615610ae9576fe7159475a2c29b7443b29c7fa6e889d90260801c5b611000821615610b09576fd097f3bdfd2022b8845ad8f792aa58250260801c5b612000821615610b29576fa9f746462d870fdf8a65dc1f90e061e50260801c5b614000821615610b49576f70d869a156d2a1b890bb3df62baf32f70260801c5b618000821615610b69576f31be135f97d08fd981231505542fcfa60260801c5b62010000821615610b8a576f09aa508b5b7a84e1c677de54f3e99bc90260801c5b62020000821615610baa576e5d6af8dedb81196699c329225ee6040260801c5b62040000821615610bc9576d2216e584f5fa1ea926041bedfe980260801c5b62080000821615610be6576b048a170391f7dc42444e8fa20260801c5b60008460020b1315610c1f57807fffffffffffffffffffffffffffffffffffffffffffffffffffffffffffffffff81610c1b57fe5b0490505b640100000000810615610c33576001610c36565b60005b60ff16602082901c0192505050919050565b600080807fffffffffffffffffffffffffffffffffffffffffffffffffffffffffffffffff85870986860292508281109083900303905080610c9c5760008411610c9157600080fd5b50829004905061009f565b808411610ca857600080fd5b6000848688096000868103871696879004966002600389028118808a02820302808a02820302808a02820302808a02820302808a02820302808a02909103029181900381900460010186841190950394909402919094039290920491909117919091029150509392505050565b60008282018381101561082b57604080517f08c379a000000000000000000000000000000000000000000000000000000000815260206004820152601b60248201527f536166654d6174683a206164646974696f6e206f766572666c6f770000000000604482015290519081900360640190fd5b600082821115610dfa57604080517f08c379a000000000000000000000000000000000000000000000000000000000815260206004820152601e60248201527f536166654d6174683a207375627472616374696f6e206f766572666c6f770000604482015290519081900360640190fd5b50900390565b6000808373ffffffffffffffffffffffffffffffffffffffff168573ffffffffffffffffffffffffffffffffffffffff161115610e3b579293925b8473ffffffffffffffffffffffffffffffffffffffff168673ffffffffffffffffffffffffffffffffffffffff1611610e8057610e79858585610eea565b9150610ee1565b8373ffffffffffffffffffffffffffffffffffffffff168673ffffffffffffffffffffffffffffffffffffffff161015610ed357610ebf868585610eea565b9150610ecc858785610f9d565b9050610ee1565b610ede858585610f9d565b90505b94509492505050565b60008273ffffffffffffffffffffffffffffffffffffffff168473ffffffffffffffffffffffffffffffffffffffff161115610f24579192915b8373ffffffffffffffffffffffffffffffffffffffff16610f8d606060ff16846fffffffffffffffffffffffffffffffff16901b86860373ffffffffffffffffffffffffffffffffffffffff168673ffffffffffffffffffffffffffffffffffffffff16610c48565b81610f9457fe5b04949350505050565b60008273ffffffffffffffffffffffffffffffffffffffff168473ffffffffffffffffffffffffffffffffffffffff161115610fd7579192915b611019826fffffffffffffffffffffffffffffffff1685850373ffffffffffffffffffffffffffffffffffffffff166c01000000000000000000000000610c48565b949350505050565b805161ffff8116811461103357600080fd5b919050565b600060208284031215611049578081fd5b815161082b816111b3565b600080600060608486031215611068578182fd5b8335611073816111b3565b92506020840135611083816111b3565b9150604084013562ffffff8116811461109a578182fd5b809150509250925092565b6000602082840312156110b6578081fd5b81516fffffffffffffffffffffffffffffffff8116811461082b578182fd5b600080600080600080600060e0888a0312156110ef578283fd5b87516110fa816111b3565b8097505060208801518060020b8114611111578384fd5b955061111f60408901611021565b945061112d60608901611021565b935061113b60808901611021565b925060a088015160ff81168114611150578283fd5b60c08901519092508015158114611165578182fd5b8091505092959891949750929550565b73ffffffffffffffffffffffffffffffffffffffff938416815291909216602082015262ffffff909116604082015260600190565b90815260200190565b73ffffffffffffffffffffffffffffffffffffffff811681146111d557600080fd5b5056fe536166654d6174683a206d756c7469706c69636174696f6e206f766572666c6f77a26469706673582212205b677a11759a3805f7cf1ca659ccad74cdf9af6ef751692998ca2a731379e79764736f6c6343000706003360a060405234801561001057600080fd5b5060405161091538038061091583398101604081905261002f91610068565b600280546001600160a01b039093166001600160a01b0319909316831790556080819052600091825260208290526040909120556100a0565b6000806040838503121561007a578182fd5b82516001600160a01b0381168114610090578283fd5b6020939093015192949293505050565b60805161085b6100ba6000398061029e525061085b6000f3fe608060405234801561001057600080fd5b50600436106100d45760003560e01c8063313ce5671161008157806395d89b411161005b57806395d89b41146101a2578063a9059cbb146101aa578063dd62ed3e146101bd576100d4565b8063313ce567146101675780635c6581651461017c57806370a082311461018f576100d4565b806318160ddd116100b257806318160ddd1461012c57806323b872dd1461014157806327e235e314610154576100d4565b806306fdde03146100d9578063095ea7b3146100f75780630cf1fd3614610117575b600080fd5b6100e16101d0565b6040516100ee91906106e3565b60405180910390f35b61010a61010536600461068e565b610209565b6040516100ee91906106d8565b61011f610280565b6040516100ee91906106b7565b61013461029c565b6040516100ee919061080e565b61010a61014f366004610653565b6102c0565b610134610162366004610600565b610456565b61016f610468565b6040516100ee9190610817565b61013461018a366004610621565b61046d565b61013461019d366004610600565b61048a565b6100e16104b6565b61010a6101b836600461068e565b6104ef565b6101346101cb366004610621565b6105a4565b6040518060400160405280601081526020017f566f696420496e64657820546f6b656e0000000000000000000000000000000081525081565b33600081815260016020908152604080832073ffffffffffffffffffffffffffffffffffffffff8716808552925280832085905551919290917f8c5be1e5ebec7d5bd14f71427d1e84f3dd0314c0f7b2291e5b200ac8c7c3b9259061026f90869061080e565b60405180910390a350600192915050565b60025473ffffffffffffffffffffffffffffffffffffffff1681565b7f000000000000000000000000000000000000000000000000000000000000000081565b73ffffffffffffffffffffffffffffffffffffffff8316600081815260016020908152604080832033845282528083205493835290829052812054909190831180159061030d5750828110155b61034c576040517f08c379a0000000000000000000000000000000000000000000000000000000008152600401610343906107b1565b60405180910390fd5b73ffffffffffffffffffffffffffffffffffffffff808516600090815260208190526040808220805487019055918716815220805484900390557fffffffffffffffffffffffffffffffffffffffffffffffffffffffffffffffff8110156103e65773ffffffffffffffffffffffffffffffffffffffff851660009081526001602090815260408083203384529091529020805484900390555b8373ffffffffffffffffffffffffffffffffffffffff168573ffffffffffffffffffffffffffffffffffffffff167fddf252ad1be2c89b69c2b068fc378daa952ba7f163c4a11628f55a4df523b3ef85604051610443919061080e565b60405180910390a3506001949350505050565b60006020819052908152604090205481565b601281565b600160209081526000928352604080842090915290825290205481565b73ffffffffffffffffffffffffffffffffffffffff81166000908152602081905260409020545b919050565b6040518060400160405280600381526020017f564944000000000000000000000000000000000000000000000000000000000081525081565b33600090815260208190526040812054821115610538576040517f08c379a000000000000000000000000000000000000000000000000000000000815260040161034390610754565b336000818152602081905260408082208054869003905573ffffffffffffffffffffffffffffffffffffffff861680835291819020805486019055519091907fddf252ad1be2c89b69c2b068fc378daa952ba7f163c4a11628f55a4df523b3ef9061026f90869061080e565b73ffffffffffffffffffffffffffffffffffffffff918216600090815260016020908152604080832093909416825291909152205490565b803573ffffffffffffffffffffffffffffffffffffffff811681146104b157600080fd5b600060208284031215610611578081fd5b61061a826105dc565b9392505050565b60008060408385031215610633578081fd5b61063c836105dc565b915061064a602084016105dc565b90509250929050565b600080600060608486031215610667578081fd5b610670846105dc565b925061067e602085016105dc565b9150604084013590509250925092565b600080604083850312156106a0578182fd5b6106a9836105dc565b946020939093013593505050565b73ffffffffffffffffffffffffffffffffffffffff91909116815260200190565b901515815260200190565b6000602080835283518082850152825b8181101561070f578581018301518582016040015282016106f3565b818111156107205783604083870101525b50601f017fffffffffffffffffffffffffffffffffffffffffffffffffffffffffffffffe016929092016040019392505050565b6020808252602f908201527f746f6b656e2062616c616e6365206973206c6f776572207468616e207468652060408201527f76616c7565207265717565737465640000000000000000000000000000000000606082015260800190565b60208082526039908201527f746f6b656e2062616c616e6365206f7220616c6c6f77616e6365206973206c6f60408201527f776572207468616e20616d6f756e742072657175657374656400000000000000606082015260800190565b90815260200190565b60ff9190911681526020019056fea2646970667358221220dcbe16249e7a33410d7513a06ace2bd79de09641ec7187d8be84533cf412ac0264736f6c63430007060033",
  "immutableReferences": {
    "6471": [
      {
        "length": 32,
        "start": 3147
      },
      {
        "length": 32,
        "start": 5665
      },
      {
        "length": 32,
        "start": 5793
      }
    ],
    "6477": [
      {
        "length": 32,
        "start": 6290
      },
      {
        "length": 32,
        "start": 7955
      },
      {
        "length": 32,
        "start": 11881
      }
    ],
    "6487": [
      {
        "length": 32,
        "start": 2306
      },
      {
        "length": 32,
        "start": 2707
      },
      {
        "length": 32,
        "start": 5346
      },
      {
        "length": 32,
        "start": 5490
      },
      {
        "length": 32,
        "start": 8006
      },
      {
        "length": 32,
        "start": 9273
      }
    ],
    "6492": [
      {
        "length": 32,
        "start": 2344
      },
      {
        "length": 32,
        "start": 2745
      },
      {
        "length": 32,
        "start": 6915
      },
      {
        "length": 32,
        "start": 8044
      },
      {
        "length": 32,
        "start": 8623
      },
      {
        "length": 32,
        "start": 9040
      }
    ],
    "6497": [
      {
        "length": 32,
        "start": 4144
      },
      {
        "length": 32,
        "start": 4422
      }
    ]
  },
  "source": "// SPDX-License-Identifier: MIT\r\npragma solidity 0.7.6;\r\npragma abicoder v2;\r\n\r\nimport \"@openzeppelin/contracts/token/ERC20/ERC20.sol\";\r\nimport \"@openzeppelin/contracts/math/SafeMath.sol\";\r\nimport \"@uniswap/v3-periphery/contracts/libraries/TransferHelper.sol\";\r\nimport \"@uniswap/v3-periphery/contracts/interfaces/ISwapRouter.sol\";\r\nimport \"@uniswap/v3-periphery/contracts/interfaces/INonfungiblePositionManager.sol\";\r\n\r\nimport \"./PriceOracle.sol\";\r\nimport \"../IndexToken.sol\";\r\nimport \"../DebtManager.sol\";\r\nimport \"../../management/BaseProduct.sol\";\r\n\r\n\r\ninterface WETH{\r\n    function deposit() external payable;\r\n    function withdraw(uint wad) external;\r\n}\r\n\r\n\r\ncontract ETHIndex is Product {\r\n    using SafeMath for uint256;\r\n\r\n    struct TokenInfo {\r\n        uint8 indexPercentage;\r\n        address tokenAddress;\r\n        uint24 poolFee;\r\n    }\r\n\r\n    TokenInfo[10] private tokens;\r\n    IndexToken public immutable indexToken;\r\n\r\n    address public buyTokenAddress = 0xC02aaA39b223FE8D0A0e5C4F27eAD9083C756Cc2;\r\n    address private immutable dexRouterAddress = 0xE592427A0AEce92De3Edee1F18E0157C05861564;\r\n    INonfungiblePositionManager private immutable positionManager = INonfungiblePositionManager(\r\n        0x91ae842A5Ffd8d12023116943e72A606179294f3); \r\n\r\n    DebtManager private immutable sellDebtManager = new DebtManager();\r\n    DebtManager private immutable buyDebtManager = new DebtManager();\r\n    PriceOracle private immutable priceOracle = new PriceOracle();\r\n\r\n    uint private lastManagedToken = 0;\r\n    uint public tokensToSell = 0;\r\n    uint public tokensToBuy = 0;\r\n    uint private tokensSold = 0;\r\n    uint private buyAmountRequired = 0;\r\n    bool private allTokensManaged = false;\r\n    bool public cancellationActive = false;\r\n    uint public availableTokens = 1500000000000000000000;\r\n\r\n    function name() external pure override returns (string memory) { return \"Index ETH\"; }\r\n    function symbol() external pure override returns (string memory) { return \"VID(ETH)\"; }\r\n    function getComponents() external view returns (TokenInfo[10] memory) { return tokens; }\r\n\r\n    function shortDescription() external pure override returns (string memory) {\r\n        return \"Void Index(ETH) - fully decentralized index with ETH as the base token\";\r\n    }\r\n\r\n    function longDescription() external pure override returns (string memory) {\r\n        return \"Void Index(ETH) - fully decentralized index with ETH as the base token. It features 10 ERC20 tokens, and allows you to buy or sell them at once. You receive VID tokens as a proof of funds ownership\";\r\n    }\r\n\r\n    function getTokenPrice(TokenInfo memory token) public view returns (uint256) {\r\n        return priceOracle.getPrice(buyTokenAddress, token.tokenAddress, token.poolFee);\r\n    }\r\n\r\n    function image() external pure override returns (string memory) {\r\n        return \"https://voidmanagementstorage.blob.core.windows.net/assets/logo_index.png\";\r\n    }\r\n\r\n    function getTotalLockedValue() external view override returns (uint256) {\r\n        uint totalValue;\r\n\r\n        for (uint i = 0; i < tokens.length; i++) {\r\n            TokenInfo memory tokenInfo = tokens[i];\r\n            totalValue = totalValue.add(\r\n                IERC20(tokenInfo.tokenAddress).balanceOf(address(this)).mul(getTokenPrice(tokenInfo))\r\n            );\r\n        }\r\n\r\n        return totalValue.div(1 ether);\r\n    }\r\n\r\n    function getAvailableLiquidity() public view returns(uint){\r\n        uint minLiquidity;\r\n\r\n        for(uint i = 0; i < tokens.length; i++){\r\n\r\n            TokenInfo memory token = tokens[i];\r\n            uint poolLiquidity = priceOracle.getLiquidity(buyTokenAddress, token.tokenAddress, token.poolFee);\r\n\r\n            if(poolLiquidity < minLiquidity || minLiquidity == 0){\r\n                minLiquidity = poolLiquidity;\r\n            }\r\n        }\r\n\r\n        minLiquidity = minLiquidity.mul(1 ether).div(getPrice());\r\n        return minLiquidity;\r\n    }\r\n\r\n    constructor() {\r\n        indexToken = new IndexToken(address(this), availableTokens);\r\n\r\n        tokens[0] = TokenInfo({ // 2) WBNB\r\n            tokenAddress: 0x418D75f65a02b3D53B2418FB8E1fe493759c7605,\r\n            poolFee: 3000,\r\n            indexPercentage: 25\r\n        });\r\n        tokens[1] = TokenInfo({ // 1) LINK\r\n            tokenAddress: 0x514910771AF9Ca656af840dff83E8264EcF986CA,\r\n            poolFee: 3000,\r\n            indexPercentage: 15\r\n        });\r\n        tokens[2] = TokenInfo({ // 3) UNI\r\n            tokenAddress: 0x1f9840a85d5aF5bf1D1762F925BDADdC4201F984,\r\n            poolFee: 3000,\r\n            indexPercentage: 20\r\n        });\r\n        tokens[3] = TokenInfo({ // 4) 1INCH\r\n            tokenAddress: 0x111111111117dC0aa78b770fA6A738034120C302,\r\n            poolFee: 10000,\r\n            indexPercentage: 10\r\n        });\r\n        tokens[4] = TokenInfo({ // 5) SNX\r\n            tokenAddress: 0xC011a73ee8576Fb46F5E1c5751cA3B9Fe0af2a6F,\r\n            poolFee: 10000,\r\n            indexPercentage: 5\r\n        });\r\n        tokens[5] = TokenInfo({ // 7) COMP\r\n            tokenAddress: 0xc00e94Cb662C3520282E6f5717214004A7f26888,\r\n            poolFee: 3000,\r\n            indexPercentage: 5\r\n        });\r\n        tokens[6] = TokenInfo({ // 8) MKR\r\n            tokenAddress: 0x9f8F72aA9304c8B593d555F12eF6589cC3A579A2,\r\n            poolFee: 3000,\r\n            indexPercentage: 3\r\n        });\r\n        tokens[7] = TokenInfo({ // 10) APE\r\n            tokenAddress: 0x4d224452801ACEd8B2F0aebE155379bb5D594381,\r\n            poolFee: 3000,\r\n            indexPercentage: 7\r\n        });\r\n        tokens[8] = TokenInfo({ // 13) AAVE\r\n            tokenAddress: 0x7Fc66500c84A76Ad7e9c93437bFc5Ac33E2DDaE9,\r\n            poolFee: 3000,\r\n            indexPercentage: 5\r\n        });\r\n        tokens[9] = TokenInfo({ // 14) MATIC\r\n            tokenAddress: 0x7D1AfA7B718fb893dB30A3aBc0Cfc608AaCfeBB0,\r\n            poolFee: 3000,\r\n            indexPercentage: 5\r\n        });\r\n        // tokens[2] = TokenInfo({ // 2) WBNB\r\n        //     tokenAddress: 0x418D75f65a02b3D53B2418FB8E1fe493759c7605,\r\n        //     poolFees: [uint24(3000), uint24(3000)],\r\n        //     intermediateToken: 0xC02aaA39b223FE8D0A0e5C4F27eAD9083C756Cc2,\r\n        //     indexPercentage: 10\r\n        // });\r\n        // tokens[6] = TokenInfo({ // 6) YFI\r\n        //     tokenAddress: 0x0bc529c00C6401aEF6D220BE8C6Ea1667F6Ad93e,\r\n        //     poolFees: [uint24(3000), uint24(3000)],\r\n        //     intermediateToken: 0xC02aaA39b223FE8D0A0e5C4F27eAD9083C756Cc2,\r\n        //     indexPercentage: 2\r\n        // });\r\n        // tokens[9] = TokenInfo({ // 9) SUSHI\r\n        //     tokenAddress: 0x6B3595068778DD592e39A122f4f5a5cF09C90fE2,\r\n        //     poolFees: [uint24(3000), uint24(3000)],\r\n        //     intermediateToken: 0xC02aaA39b223FE8D0A0e5C4F27eAD9083C756Cc2,\r\n        //     indexPercentage: 8\r\n        // });\r\n        // tokens[11] = TokenInfo({ // 11) CRV\r\n        //     tokenAddress: 0xD533a949740bb3306d119CC777fa900bA034cd52,\r\n        //     poolFees: [uint24(3000), 10000],\r\n        //     intermediateToken: 0xC02aaA39b223FE8D0A0e5C4F27eAD9083C756Cc2,\r\n        //     indexPercentage: 5\r\n        // });\r\n        // tokens[12] = TokenInfo({ // 12) LOOKS\r\n        //     tokenAddress: 0xf4d2888d29D722226FafA5d9B24F9164c092421E,\r\n        //     poolFees: [uint24(3000), uint24(3000)],\r\n        //     intermediateToken: 0xC02aaA39b223FE8D0A0e5C4F27eAD9083C756Cc2,\r\n        //     indexPercentage: 2\r\n        // });\r\n        // tokens[15] = TokenInfo({ // 14) FTX\r\n        //     tokenAddress: 0x50D1c9771902476076eCFc8B2A83Ad6b9355a4c9,\r\n        //     poolFees: [uint24(3000), uint24(3000)],\r\n        //     intermediateToken: 0xC02aaA39b223FE8D0A0e5C4F27eAD9083C756Cc2,\r\n        //     indexPercentage: 5\r\n        // });\r\n        // tokens[16] = TokenInfo({ // 15) GNOSIS\r\n        //     tokenAddress: 0x6810e776880C02933D47DB1b9fc05908e5386b96,\r\n        //     poolFees: [uint24(3000), uint24(3000)],\r\n        //     intermediateToken: 0xC02aaA39b223FE8D0A0e5C4F27eAD9083C756Cc2,\r\n        //     indexPercentage: 3\r\n        // });\r\n    }\r\n\r\n    function buy(uint _) external pure override{\r\n        revert(\"Use buyETH function to buy tokens\");\r\n    }\r\n\r\n    function buyETH(uint amount) external payable nonReentrant checkSettlement {\r\n        (uint productFee, uint256 realAmount) = calculateFee(amount);\r\n        uint256 indexPrice = getPrice();\r\n\r\n        require(\r\n            realAmount > 0 &&\r\n            productFee > 0 &&\r\n            amount.mul(indexPrice).div(1 ether) <= msg.value,\r\n            \"Not enough tokens sent\"\r\n        );\r\n\r\n        uint availableLiquidity = getAvailableLiquidity();\r\n        require(\r\n            availableLiquidity >= amount &&\r\n            realAmount <= availableTokens &&\r\n            tokensToBuy.add(tokensToSell) < availableLiquidity,\r\n            \"Not enough liquidity\"\r\n        );\r\n\r\n        availableTokens = availableTokens.sub(realAmount);\r\n        uint buyTokenAmount = realAmount.mul(indexPrice).div(1 ether);\r\n\r\n        tokensToBuy = tokensToBuy.add(buyTokenAmount);\r\n        buyDebtManager.changeDebt(msg.sender, realAmount, true);\r\n\r\n        TransferHelper.safeTransferETH(owner(), productFee.mul(indexPrice).div(1300000000000000000));\r\n        emit ProductBought(msg.sender, buyTokenAmount, realAmount);\r\n    }\r\n\r\n    function changeCancellation() external onlyOwner{ cancellationActive = !cancellationActive; }\r\n\r\n    function cancelDebt(uint amount) external payable nonReentrant {\r\n        require(cancellationActive, \"Cancellation is not active\");\r\n\r\n        (uint productFee, uint256 realAmount) = calculateFee(amount);\r\n        require(realAmount > 0 && productFee > 0, \"Not enough tokens sent\");\r\n\r\n        availableTokens = availableTokens.add(realAmount);\r\n\r\n        uint256 indexPrice = getPrice();\r\n        uint buyTokenAmount = realAmount.mul(indexPrice).div(1 ether);\r\n\r\n        tokensToBuy = tokensToBuy.sub(buyTokenAmount);\r\n        buyDebtManager.changeDebt(msg.sender, realAmount, false);\r\n\r\n        TransferHelper.safeTransferETH(msg.sender, amount.mul(indexPrice).div(1 ether));\r\n        TransferHelper.safeTransferETH(owner(), productFee.mul(indexPrice).div(1300000000000000000));\r\n    }\r\n\r\n    function sell(uint amount) external override nonReentrant checkSettlement{\r\n        (uint productFee, uint256 realAmount) = calculateFee(amount);\r\n        require(realAmount > 0 && productFee > 0, \"You must sell more tokens\");\r\n\r\n        uint availableLiquidity = getAvailableLiquidity();\r\n        require(\r\n            availableLiquidity >= amount &&\r\n            tokensToBuy.add(tokensToSell) < availableLiquidity,\r\n            \"Not enough liquidity\"\r\n        );\r\n\r\n        uint indexPrice = getPrice();\r\n\r\n        tokensToSell = tokensToSell.add(amount);\r\n        sellDebtManager.changeDebt(msg.sender, realAmount.mul(indexPrice).div(1 ether), true);\r\n        sellDebtManager.changeDebt(owner(), productFee.mul(indexPrice).div(1 ether), true);\r\n\r\n        TransferHelper.safeTransferFrom(address(indexToken), msg.sender, address(this), amount);\r\n        emit ProductSold(msg.sender, realAmount.mul(getPrice()), realAmount);\r\n    }\r\n\r\n    function retrieveDebt(uint amount, bool isBuyDebt) external nonReentrant checkSettlement{\r\n        DebtManager manager = isBuyDebt ? buyDebtManager : sellDebtManager;\r\n        require(manager.getTotalDebt() >= amount && manager.getUserDebt(msg.sender) >= amount, \"Not enough debt\");\r\n\r\n        if(isBuyDebt){\r\n            TransferHelper.safeTransfer(address(indexToken), msg.sender, amount);\r\n        } else {\r\n            TransferHelper.safeTransferETH(msg.sender, amount);\r\n        }\r\n\r\n        manager.changeDebt(msg.sender, amount, false);\r\n        manager.changeTotalDebt(amount, false);\r\n    }\r\n\r\n    function getTotalDebt(bool isBuy) external view returns (uint) {\r\n        return (isBuy ? buyDebtManager : sellDebtManager).getTotalDebt();\r\n    }\r\n\r\n    function getUserDebt(address user, bool isBuy) external view returns (uint) {\r\n        return (isBuy ? buyDebtManager : sellDebtManager).getUserDebt(user);\r\n    }\r\n\r\n    function beginSettlement() override external onlyOwner{\r\n        isSettlement = true;\r\n\r\n        uint totalBuyTokens = address(this).balance;\r\n        WETH(buyTokenAddress).deposit{ value: totalBuyTokens }();\r\n        TransferHelper.safeApprove(buyTokenAddress, dexRouterAddress, totalBuyTokens);\r\n    }\r\n\r\n    function endSettlement() override external onlyOwner {\r\n        require(allTokensManaged, \"Not all tokens were managed\");\r\n        buyDebtManager.changeTotalDebt(tokensToBuy.mul(1 ether).div(getPrice()), true);\r\n        sellDebtManager.changeTotalDebt(tokensSold, true);\r\n\r\n        if (buyAmountRequired < tokensToBuy) {\r\n            TransferHelper.safeTransferETH(owner(), tokensToBuy.sub(buyAmountRequired));\r\n        }\r\n\r\n        if(tokensSold > 0){\r\n            WETH(buyTokenAddress).withdraw(tokensSold);\r\n        }\r\n\r\n        tokensToBuy = 0;\r\n        allTokensManaged = false;\r\n        buyAmountRequired = 0;\r\n        tokensToSell = 0;\r\n        tokensSold = 0;\r\n        isSettlement = false;\r\n    }\r\n\r\n    function manageTokensSell(TokenInfo memory token, ISwapRouter dexRouter, uint amount, uint tokenPrice) private {\r\n        uint amountIn = amount.mul(getPrice()).mul(token.indexPercentage).div(100).div(tokenPrice);\r\n        uint usdAmountIn = amountIn.mul(tokenPrice).div(1 ether);\r\n        uint amountOutMinimum = usdAmountIn.sub(usdAmountIn.mul(productFee).mul(10).div(productFeeTotal));\r\n\r\n        TransferHelper.safeApprove(token.tokenAddress, dexRouterAddress, amountIn);\r\n        tokensSold = tokensSold.add(dexRouter.exactInputSingle(\r\n            ISwapRouter.ExactInputSingleParams({\r\n                tokenIn: token.tokenAddress,\r\n                tokenOut: buyTokenAddress,\r\n                fee: token.poolFee,\r\n                recipient: address(this),\r\n                deadline: block.timestamp,\r\n                amountIn: amountIn,\r\n                amountOutMinimum: amountOutMinimum,\r\n                sqrtPriceLimitX96: 0\r\n            })\r\n        ));\r\n    }\r\n\r\n    function manageTokensBuy(\r\n        TokenInfo memory token, ISwapRouter dexRouter, uint amount, uint tokenPrice\r\n    ) private {\r\n        uint amountOut = amount.mul(1 ether).div(tokenPrice);\r\n        uint amountInMaximum = amount.add(amount.mul(productFee).div(productFeeTotal));\r\n\r\n        buyAmountRequired = buyAmountRequired.add(\r\n            dexRouter.exactOutputSingle(\r\n                ISwapRouter.ExactOutputSingleParams({\r\n                    tokenIn: buyTokenAddress,\r\n                    tokenOut: token.tokenAddress,\r\n                    fee: token.poolFee,\r\n                    recipient: address(this),\r\n                    deadline: block.timestamp,\r\n                    amountOut: amountOut,\r\n                    amountInMaximum: amountInMaximum,\r\n                    sqrtPriceLimitX96: 0\r\n                })\r\n            )\r\n        );\r\n\r\n        // positionManager.refundETH();\r\n    }\r\n\r\n    function manageTokens() external onlyOwner {\r\n        require(!allTokensManaged, \"Tokens are already managed or another management transaction is active\");\r\n\r\n        lastManagedToken += 1;\r\n        if(lastManagedToken > tokens.length - 1){\r\n            lastManagedToken = 0;\r\n            allTokensManaged = true;\r\n        }\r\n\r\n        TokenInfo memory token = tokens[lastManagedToken];\r\n        uint tokensToBuyAmount = tokensToBuy.mul(token.indexPercentage).div(100);\r\n        uint tokenPrice = getTokenPrice(token);\r\n        ISwapRouter dexRouter = ISwapRouter(dexRouterAddress);\r\n\r\n        if(tokensToBuyAmount > 0){ manageTokensBuy(token, dexRouter, tokensToBuyAmount, tokenPrice); }\r\n        if(tokensToSell > 0){ manageTokensSell(token, dexRouter, tokensToSell, tokenPrice); }\r\n    }\r\n\r\n    function getPrice() public view override returns (uint) {\r\n        uint indexTotalPrice = 0;\r\n\r\n        for (uint i = 0; i < tokens.length; i++) {\r\n            indexTotalPrice = indexTotalPrice.add(\r\n                getTokenPrice(tokens[i]).mul(tokens[i].indexPercentage)\r\n            );\r\n        }\r\n\r\n        return indexTotalPrice.div(1000);\r\n    }\r\n\r\n}\r\n",
  "sourcePath": "D:\\JavascriptProjects\\crypto-index\\contracts\\indices\\ethIndex\\ETHIndex.sol",
  "compiler": {
    "name": "solc",
    "version": "0.7.6+commit.7338295f.Emscripten.clang"
  },
  "schemaVersion": "3.4.7",
  "updatedAt": "2022-06-20T14:53:36.261Z",
  "devdoc": {
    "kind": "dev",
    "methods": {
      "owner()": {
        "details": "Returns the address of the current owner."
      },
      "renounceOwnership()": {
        "details": "Leaves the contract without owner. It will not be possible to call `onlyOwner` functions anymore. Can only be called by the current owner. NOTE: Renouncing ownership will leave the contract without an owner, thereby removing any functionality that is only available to the owner."
      },
      "transferOwnership(address)": {
        "details": "Transfers ownership of the contract to a new account (`newOwner`). Can only be called by the current owner."
      }
    },
    "version": 1
  },
  "userdoc": {
    "kind": "user",
    "methods": {},
    "version": 1
  }
}