{
  "contractName": "Index",
  "abi": [
    {
      "inputs": [],
      "stateMutability": "nonpayable",
      "type": "constructor"
    },
    {
      "anonymous": false,
      "inputs": [
        {
          "indexed": true,
          "internalType": "address",
          "name": "previousOwner",
          "type": "address"
        },
        {
          "indexed": true,
          "internalType": "address",
          "name": "newOwner",
          "type": "address"
        }
      ],
      "name": "OwnershipTransferred",
      "type": "event"
    },
    {
      "anonymous": false,
      "inputs": [
        {
          "indexed": false,
          "internalType": "address",
          "name": "account",
          "type": "address"
        },
        {
          "indexed": false,
          "internalType": "uint256",
          "name": "buyTokenAmount",
          "type": "uint256"
        },
        {
          "indexed": false,
          "internalType": "uint256",
          "name": "indexTokenAmount",
          "type": "uint256"
        }
      ],
      "name": "ProductBought",
      "type": "event"
    },
    {
      "anonymous": false,
      "inputs": [
        {
          "indexed": false,
          "internalType": "address",
          "name": "account",
          "type": "address"
        },
        {
          "indexed": false,
          "internalType": "uint256",
          "name": "buyTokenAmount",
          "type": "uint256"
        },
        {
          "indexed": false,
          "internalType": "uint256",
          "name": "indexTokenAmount",
          "type": "uint256"
        }
      ],
      "name": "ProductSold",
      "type": "event"
    },
    {
      "inputs": [],
      "name": "availableTokens",
      "outputs": [
        {
          "internalType": "uint256",
          "name": "",
          "type": "uint256"
        }
      ],
      "stateMutability": "view",
      "type": "function"
    },
    {
      "inputs": [],
      "name": "buyTokenAddress",
      "outputs": [
        {
          "internalType": "address",
          "name": "",
          "type": "address"
        }
      ],
      "stateMutability": "view",
      "type": "function"
    },
    {
      "inputs": [
        {
          "internalType": "uint256",
          "name": "amount",
          "type": "uint256"
        }
      ],
      "name": "calculateFee",
      "outputs": [
        {
          "internalType": "uint256",
          "name": "",
          "type": "uint256"
        },
        {
          "internalType": "uint256",
          "name": "",
          "type": "uint256"
        }
      ],
      "stateMutability": "view",
      "type": "function"
    },
    {
      "inputs": [
        {
          "internalType": "uint8",
          "name": "_fee",
          "type": "uint8"
        },
        {
          "internalType": "uint256",
          "name": "_feeTotal",
          "type": "uint256"
        }
      ],
      "name": "changeFee",
      "outputs": [],
      "stateMutability": "nonpayable",
      "type": "function"
    },
    {
      "inputs": [],
      "name": "getFee",
      "outputs": [
        {
          "internalType": "uint256",
          "name": "",
          "type": "uint256"
        },
        {
          "internalType": "uint256",
          "name": "",
          "type": "uint256"
        }
      ],
      "stateMutability": "view",
      "type": "function"
    },
    {
      "inputs": [],
      "name": "indexToken",
      "outputs": [
        {
          "internalType": "contract IndexToken",
          "name": "",
          "type": "address"
        }
      ],
      "stateMutability": "view",
      "type": "function"
    },
    {
      "inputs": [],
      "name": "isSettlementActive",
      "outputs": [
        {
          "internalType": "bool",
          "name": "",
          "type": "bool"
        }
      ],
      "stateMutability": "view",
      "type": "function"
    },
    {
      "inputs": [],
      "name": "maxTokens",
      "outputs": [
        {
          "internalType": "uint256",
          "name": "",
          "type": "uint256"
        }
      ],
      "stateMutability": "view",
      "type": "function"
    },
    {
      "inputs": [],
      "name": "owner",
      "outputs": [
        {
          "internalType": "address",
          "name": "",
          "type": "address"
        }
      ],
      "stateMutability": "view",
      "type": "function"
    },
    {
      "inputs": [],
      "name": "renounceOwnership",
      "outputs": [],
      "stateMutability": "nonpayable",
      "type": "function"
    },
    {
      "inputs": [],
      "name": "tokensToBuy",
      "outputs": [
        {
          "internalType": "uint256",
          "name": "",
          "type": "uint256"
        }
      ],
      "stateMutability": "view",
      "type": "function"
    },
    {
      "inputs": [],
      "name": "tokensToSell",
      "outputs": [
        {
          "internalType": "uint256",
          "name": "",
          "type": "uint256"
        }
      ],
      "stateMutability": "view",
      "type": "function"
    },
    {
      "inputs": [
        {
          "internalType": "address",
          "name": "newOwner",
          "type": "address"
        }
      ],
      "name": "transferOwnership",
      "outputs": [],
      "stateMutability": "nonpayable",
      "type": "function"
    },
    {
      "inputs": [],
      "name": "name",
      "outputs": [
        {
          "internalType": "string",
          "name": "",
          "type": "string"
        }
      ],
      "stateMutability": "pure",
      "type": "function"
    },
    {
      "inputs": [],
      "name": "symbol",
      "outputs": [
        {
          "internalType": "string",
          "name": "",
          "type": "string"
        }
      ],
      "stateMutability": "pure",
      "type": "function"
    },
    {
      "inputs": [],
      "name": "getComponents",
      "outputs": [
        {
          "components": [
            {
              "internalType": "uint8",
              "name": "indexPercentage",
              "type": "uint8"
            },
            {
              "internalType": "address",
              "name": "tokenAddress",
              "type": "address"
            },
            {
              "internalType": "uint24[2]",
              "name": "poolFees",
              "type": "uint24[2]"
            },
            {
              "internalType": "address",
              "name": "intermediateToken",
              "type": "address"
            }
          ],
          "internalType": "struct Index.TokenInfo[10]",
          "name": "",
          "type": "tuple[10]"
        }
      ],
      "stateMutability": "view",
      "type": "function"
    },
    {
      "inputs": [],
      "name": "shortDescription",
      "outputs": [
        {
          "internalType": "string",
          "name": "",
          "type": "string"
        }
      ],
      "stateMutability": "pure",
      "type": "function"
    },
    {
      "inputs": [],
      "name": "longDescription",
      "outputs": [
        {
          "internalType": "string",
          "name": "",
          "type": "string"
        }
      ],
      "stateMutability": "pure",
      "type": "function"
    },
    {
      "inputs": [
        {
          "components": [
            {
              "internalType": "uint8",
              "name": "indexPercentage",
              "type": "uint8"
            },
            {
              "internalType": "address",
              "name": "tokenAddress",
              "type": "address"
            },
            {
              "internalType": "uint24[2]",
              "name": "poolFees",
              "type": "uint24[2]"
            },
            {
              "internalType": "address",
              "name": "intermediateToken",
              "type": "address"
            }
          ],
          "internalType": "struct Index.TokenInfo",
          "name": "token",
          "type": "tuple"
        }
      ],
      "name": "getTokenPrice",
      "outputs": [
        {
          "internalType": "uint256",
          "name": "",
          "type": "uint256"
        }
      ],
      "stateMutability": "view",
      "type": "function"
    },
    {
      "inputs": [],
      "name": "image",
      "outputs": [
        {
          "internalType": "string",
          "name": "",
          "type": "string"
        }
      ],
      "stateMutability": "pure",
      "type": "function"
    },
    {
      "inputs": [],
      "name": "getTotalLockedValue",
      "outputs": [
        {
          "internalType": "uint256",
          "name": "",
          "type": "uint256"
        }
      ],
      "stateMutability": "view",
      "type": "function"
    },
    {
      "inputs": [],
      "name": "getAvailableLiquidity",
      "outputs": [
        {
          "internalType": "uint256",
          "name": "",
          "type": "uint256"
        }
      ],
      "stateMutability": "view",
      "type": "function"
    },
    {
      "inputs": [
        {
          "internalType": "uint256",
          "name": "amount",
          "type": "uint256"
        }
      ],
      "name": "buy",
      "outputs": [],
      "stateMutability": "nonpayable",
      "type": "function"
    },
    {
      "inputs": [
        {
          "internalType": "uint256",
          "name": "amount",
          "type": "uint256"
        }
      ],
      "name": "sell",
      "outputs": [],
      "stateMutability": "nonpayable",
      "type": "function"
    },
    {
      "inputs": [
        {
          "internalType": "uint256",
          "name": "amount",
          "type": "uint256"
        },
        {
          "internalType": "bool",
          "name": "isBuyDebt",
          "type": "bool"
        }
      ],
      "name": "retrieveDebt",
      "outputs": [],
      "stateMutability": "nonpayable",
      "type": "function"
    },
    {
      "inputs": [
        {
          "internalType": "bool",
          "name": "isBuy",
          "type": "bool"
        }
      ],
      "name": "getTotalDebt",
      "outputs": [
        {
          "internalType": "uint256",
          "name": "",
          "type": "uint256"
        }
      ],
      "stateMutability": "view",
      "type": "function"
    },
    {
      "inputs": [
        {
          "internalType": "address",
          "name": "user",
          "type": "address"
        },
        {
          "internalType": "bool",
          "name": "isBuy",
          "type": "bool"
        }
      ],
      "name": "getUserDebt",
      "outputs": [
        {
          "internalType": "uint256",
          "name": "",
          "type": "uint256"
        }
      ],
      "stateMutability": "view",
      "type": "function"
    },
    {
      "inputs": [],
      "name": "beginSettlement",
      "outputs": [],
      "stateMutability": "nonpayable",
      "type": "function"
    },
    {
      "inputs": [],
      "name": "endSettlement",
      "outputs": [],
      "stateMutability": "nonpayable",
      "type": "function"
    },
    {
      "inputs": [],
      "name": "manageTokens",
      "outputs": [],
      "stateMutability": "nonpayable",
      "type": "function"
    },
    {
      "inputs": [],
      "name": "getPrice",
      "outputs": [
        {
          "internalType": "uint256",
          "name": "",
          "type": "uint256"
        }
      ],
      "stateMutability": "view",
      "type": "function"
    }
  ],
  "bytecode": "0x61014060408190526002805460ff1916600517905560646003557fc02aaa39b223fe8d0a0e5c4f27ead9083c756cc200000000000000000000000060a0527fe592427a0aece92de3edee1f18e0157c0586156400000000000000000000000060c0526200006c906200098b565b604051809103906000f08015801562000089573d6000803e3d6000fd5b5060601b6001600160601b03191660e052604051620000a8906200098b565b604051809103906000f080158015620000c5573d6000803e3d6000fd5b5060601b6001600160601b03191661010052604051620000e59062000999565b604051809103906000f08015801562000102573d6000803e3d6000fd5b506001600160a01b0316610120906001600160a01b031660601b81525060006023556000602455600060255560006026556000602755680ad78ebc5ac62000006028553480156200015257600080fd5b5060006200015f62000987565b600080546001600160a01b0319166001600160a01b0383169081178255604051929350917f8be0079c531659141344cd1fd0a4f28419497f9722a3daafe3b4186f6b6457e0908290a350600180556040513090620001bd90620009a7565b620001c9919062000a6c565b604051809103906000f080158015620001e6573d6000803e3d6000fd5b506001600160601b0319606091821b1660809081526040805191820181526019825260008051602062006a84833981519152602080840191825282518084018452610bb88082529181019190915291830182905260009383019390935281516005805494516001600160a01b031661010002610100600160a81b031960ff90931660ff1990961695909517919091169390931783559091906200028e906006906002620009b5565b50606091820151600291820180546001600160a01b0319166001600160a01b0392831617905560408051608081018252600f815273514910771af9ca656af840dff83e8264ecf986ca602080830191825283518085018552610bb88082529181019190915292820183905260008051602062006a8483398151915295820195909552805160088054965190941661010002610100600160a81b031960ff90921660ff19909716969096171694909417825590916200034f91600991620009b5565b50606091820151600291820180546001600160a01b0319166001600160a01b039283161790556040805160808101825260148152731f9840a85d5af5bf1d1762f925bdaddc4201f984602080830191825283518085018552610bb88082529181019190915292820183905260008051602062006a84833981519152958201959095528051600b8054965190941661010002610100600160a81b031960ff90921660ff19909716969096171694909417825590916200041091600c91620009b5565b50606091820151600291820180546001600160a01b0319166001600160a01b0392831617905560408051608081018252600a815273111111111117dc0aa78b770fa6a738034120c302602080830191825283518085018552610bb881526127109181019190915292820183905260008051602062006a84833981519152958201959095528051600e8054965190941661010002610100600160a81b031960ff90921660ff1990971696909617169490941782559091620004d391600f91620009b5565b50606091820151600291820180546001600160a01b0319166001600160a01b03928316179055604080516080810182526005815273c011a73ee8576fb46f5e1c5751ca3b9fe0af2a6f602080830191825283518085018552610bb881526127109181019190915292820183905260008051602062006a8483398151915295820195909552805160118054965190941661010002610100600160a81b031960ff90921660ff19909716969096171694909417825590916200059691601291620009b5565b50606091820151600291820180546001600160a01b0319166001600160a01b03928316179055604080516080810182526005815273c00e94cb662c3520282e6f5717214004a7f26888602080830191825283518085018552610bb88082529181019190915292820183905260008051602062006a8483398151915295820195909552805160148054965190941661010002610100600160a81b031960ff90921660ff19909716969096171694909417825590916200065791601591620009b5565b50606091820151600291820180546001600160a01b0319166001600160a01b039283161790556040805160808101825260038152739f8f72aa9304c8b593d555f12ef6589cc3a579a2602080830191825283518085018552610bb88082529181019190915292820183905260008051602062006a8483398151915295820195909552805160178054965190941661010002610100600160a81b031960ff90921660ff19909716969096171694909417825590916200071891601891620009b5565b50606091820151600291820180546001600160a01b0319166001600160a01b039283161790556040805160808101825260078152734d224452801aced8b2f0aebe155379bb5d594381602080830191825283518085018552610bb88082529181019190915292820183905260008051602062006a84833981519152958201959095528051601a8054965190941661010002610100600160a81b031960ff90921660ff1990971696909617169490941782559091620007d991601b91620009b5565b50606091820151600291820180546001600160a01b0319166001600160a01b039283161790556040805160808101825260058152737fc66500c84a76ad7e9c93437bfc5ac33e2ddae9602080830191825283518085018552610bb88082529181019190915292820183905260008051602062006a84833981519152958201959095528051601d8054965190941661010002610100600160a81b031960ff90921660ff19909716969096171694909417825590916200089a91601e91620009b5565b50606091820151600291820180546001600160a01b039283166001600160a01b03199091161790556040805160808101825260058152737d1afa7b718fb893db30a3abc0cfc608aacfebb0602080830191825283518085018552610bb88082528183015293830184905260008051602062006a848339815191529683019690965281518654915160ff1990921660ff90911617610100600160a81b03191661010091909416029290921784559092916200095791602191620009b5565b5060609190910151600290910180546001600160a01b0319166001600160a01b0390921691909117905562000a80565b3390565b610ae3806200421383390190565b61145c8062004cf683390190565b610932806200615283390190565b60018301918390821562000a435791602002820160005b8382111562000a1057835183826101000a81548162ffffff021916908362ffffff1602179055509260200192600301602081600201049283019260010302620009cc565b801562000a415782816101000a81549062ffffff021916905560030160208160020104928301926001030262000a10565b505b5062000a5192915062000a55565b5090565b5b8082111562000a51576000815560010162000a56565b6001600160a01b0391909116815260200190565b60805160601c60a05160601c60c05160601c60e05160601c6101005160601c6101205160601c6136f662000b1d60003980610e87528061149b52508061064052806107d152806113255280611dae5280611f0952508061061a52806107ab528061167d528061170d5280611d885280611ff2525080611a285280611d4352806129b65250508061097b52806117bc528061183b52506136f66000f3fe608060405234801561001057600080fd5b50600436106101e55760003560e01c80639b745aec1161010f578063e7d015f2116100a2578063f3ccaac011610071578063f3ccaac014610374578063f510d9081461037c578063f76f691c14610384578063fa2dcd9314610397576101e5565b8063e7d015f214610349578063e831574214610351578063ea4c1b4514610359578063f2fde38b14610361576101e5565b8063ced72f87116100de578063ced72f8714610308578063d96a094a14610310578063e43e380314610323578063e4849b3214610336576101e5565b80639b745aec146102db578063b7597914146102e3578063ba25d944146102eb578063c20120b5146102f3576101e5565b80637805d4be1161018757806395d89b411161015657806395d89b411461029557806398d5fdca1461029d57806399a5d747146102a557806399d50d5d146102c6576101e5565b80637805d4be1461025f578063782fa9c9146102725780638da5cb5b146102855780638e96347b1461028d576101e5565b80633d956691116101c35780633d9566911461022557806360ebbf811461023a57806369bb4dc21461024f578063715018a614610257576101e5565b806306fdde03146101ea57806313a7e54e146102085780631da989601461021d575b600080fd5b6101f261039f565b6040516101ff91906133ac565b60405180910390f35b61021b61021636600461305a565b6103d6565b005b6101f26104b6565b61022d6104d6565b6040516101ff919061351a565b6102426104dc565b6040516101ff919061325c565b61022d6104f4565b61021b6104fa565b61022d61026d366004612f23565b610611565b61021b610280366004613038565b6106e5565b610242610ac2565b61022d610ade565b6101f2610ae4565b61022d610b1b565b6102b86102b3366004613008565b610c3f565b6040516101ff929190613533565b6102ce610c78565b6040516101ff9190613321565b61022d610d6e565b61022d610f69565b6101f2611111565b6102fb611131565b6040516101ff91906133a1565b6102b861113a565b61021b61031e366004613008565b611148565b61022d610331366004612f3d565b61144c565b61021b610344366004613008565b6114fe565b610242611839565b61022d61185d565b61021b61186a565b61021b61036f366004612ed7565b611a75565b6101f2611c16565b61021b611c36565b61022d610392366004612ef1565b611d7f565b61021b611e5f565b60408051808201909152600581527f496e646578000000000000000000000000000000000000000000000000000000602082015290565b6103de6120e8565b73ffffffffffffffffffffffffffffffffffffffff166103fc610ac2565b73ffffffffffffffffffffffffffffffffffffffff161461047e57604080517f08c379a000000000000000000000000000000000000000000000000000000000815260206004820181905260248201527f4f776e61626c653a2063616c6c6572206973206e6f7420746865206f776e6572604482015290519081900360640190fd5b600280547fffffffffffffffffffffffffffffffffffffffffffffffffffffffffffffff001660ff9390931692909217909155600355565b606060405180606001604052806026815260200161365260269139905090565b60245481565b736b175474e89094c44da98b954eedeac495271d0f81565b60285481565b6105026120e8565b73ffffffffffffffffffffffffffffffffffffffff16610520610ac2565b73ffffffffffffffffffffffffffffffffffffffff16146105a257604080517f08c379a000000000000000000000000000000000000000000000000000000000815260206004820181905260248201527f4f776e61626c653a2063616c6c6572206973206e6f7420746865206f776e6572604482015290519081900360640190fd5b6000805460405173ffffffffffffffffffffffffffffffffffffffff909116907f8be0079c531659141344cd1fd0a4f28419497f9722a3daafe3b4186f6b6457e0908390a3600080547fffffffffffffffffffffffff0000000000000000000000000000000000000000169055565b60008161063e577f0000000000000000000000000000000000000000000000000000000000000000610660565b7f00000000000000000000000000000000000000000000000000000000000000005b73ffffffffffffffffffffffffffffffffffffffff166334ce998a6040518163ffffffff1660e01b815260040160206040518083038186803b1580156106a557600080fd5b505afa1580156106b9573d6000803e3d6000fd5b505050506040513d601f19601f820116820180604052508101906106dd9190613020565b90505b919050565b6002600154141561075757604080517f08c379a000000000000000000000000000000000000000000000000000000000815260206004820152601f60248201527f5265656e7472616e637947756172643a207265656e7472616e742063616c6c00604482015290519081900360640190fd5b600260015560045460ff16156107a2576040517f08c379a00000000000000000000000000000000000000000000000000000000081526004016107999061342d565b60405180910390fd5b6000816107cf577f00000000000000000000000000000000000000000000000000000000000000006107f1565b7f00000000000000000000000000000000000000000000000000000000000000005b9050828173ffffffffffffffffffffffffffffffffffffffff166334ce998a6040518163ffffffff1660e01b815260040160206040518083038186803b15801561083a57600080fd5b505afa15801561084e573d6000803e3d6000fd5b505050506040513d601f19601f820116820180604052508101906108729190613020565b1015801561092257506040517fe65896c9000000000000000000000000000000000000000000000000000000008152839073ffffffffffffffffffffffffffffffffffffffff83169063e65896c9906108cf90339060040161325c565b60206040518083038186803b1580156108e757600080fd5b505afa1580156108fb573d6000803e3d6000fd5b505050506040513d601f19601f8201168201806040525081019061091f9190613020565b10155b610958576040517f08c379a0000000000000000000000000000000000000000000000000000000008152600401610799906133f6565b60008261097957736b175474e89094c44da98b954eedeac495271d0f61099b565b7f00000000000000000000000000000000000000000000000000000000000000005b90506109a88133866120ec565b6040517fcca5e4b100000000000000000000000000000000000000000000000000000000815273ffffffffffffffffffffffffffffffffffffffff83169063cca5e4b1906109ff903390889060009060040161327d565b600060405180830381600087803b158015610a1957600080fd5b505af1158015610a2d573d6000803e3d6000fd5b50506040517ff8c493d600000000000000000000000000000000000000000000000000000000815273ffffffffffffffffffffffffffffffffffffffff8516925063f8c493d69150610a86908790600090600401613523565b600060405180830381600087803b158015610aa057600080fd5b505af1158015610ab4573d6000803e3d6000fd5b505060018055505050505050565b60005473ffffffffffffffffffffffffffffffffffffffff1690565b60255481565b60408051808201909152600381527f5649440000000000000000000000000000000000000000000000000000000000602082015290565b600080805b600a811015610c2d57610c23610c1c600583600a8110610b3c57fe5b600302015460ff16610c16600585600a8110610b5457fe5b6040805160808101825260039290920292909201805460ff81168352610100900473ffffffffffffffffffffffffffffffffffffffff166020830152825180840180855292939192918401916001840190600290826000855b82829054906101000a900462ffffff1662ffffff1681526020019060030190602082600201049283019260010382029150808411610bad575050509284525050506002919091015473ffffffffffffffffffffffffffffffffffffffff1660209091015261144c565b906122c8565b839061233b565b9150600101610b20565b50610c398160646123af565b91505090565b60025460035460009182918291610c619160ff90911690610c169087906123af565b905080610c6e8582612430565b9250925050915091565b610c80612e1a565b6040805161014081019091526005600a6000835b82821015610d655760408051608081018252600384028601805460ff81168352610100900473ffffffffffffffffffffffffffffffffffffffff166020830152825180840180855292939192918401916001840190600290826000855b82829054906101000a900462ffffff1662ffffff1681526020019060030190602082600201049283019260010382029150808411610cf1575050509284525050506002919091015473ffffffffffffffffffffffffffffffffffffffff166020918201529082526001929092019101610c94565b50505050905090565b60008060005b600a811015610f45576000600582600a8110610d8c57fe5b6040805160808101825260039290920292909201805460ff81168352610100900473ffffffffffffffffffffffffffffffffffffffff166020830152825180840180855292939192918401916001840190600290826000855b82829054906101000a900462ffffff1662ffffff1681526020019060030190602082600201049283019260010382029150808411610de5575050509284525050506002919091015473ffffffffffffffffffffffffffffffffffffffff90811660209283015290820151604080840151606085015191517fad72a0a10000000000000000000000000000000000000000000000000000000081529495506000947f00000000000000000000000000000000000000000000000000000000000000009094169363ad72a0a193610ed493736b175474e89094c44da98b954eedeac495271d0f9391926004016132db565b60206040518083038186803b158015610eec57600080fd5b505afa158015610f00573d6000803e3d6000fd5b505050506040513d601f19601f82011682018060405250810190610f249190613020565b905083811080610f32575083155b15610f3b578093505b5050600101610d74565b50610c39610f51610b1b565b610f6383670de0b6b3a76400006122c8565b906123af565b60008060005b600a81101561110b576000600582600a8110610f8757fe5b6040805160808101825260039290920292909201805460ff81168352610100900473ffffffffffffffffffffffffffffffffffffffff166020830152825180840180855292939192918401916001840190600290826000855b82829054906101000a900462ffffff1662ffffff1681526020019060030190602082600201049283019260010382029150808411610fe0575050509284525050506002919091015473ffffffffffffffffffffffffffffffffffffffff16602090910152905060006110e16110548361144c565b836020015173ffffffffffffffffffffffffffffffffffffffff166370a08231306040518263ffffffff1660e01b8152600401611091919061325c565b60206040518083038186803b1580156110a957600080fd5b505afa1580156110bd573d6000803e3d6000fd5b505050506040513d601f19601f82011682018060405250810190610c169190613020565b90506110ff6110f882670de0b6b3a76400006123af565b859061233b565b93505050600101610f6f565b50905090565b60606040518060e0016040528060a5815260200161356660a59139905090565b60045460ff1690565b60025460035460ff90911691565b600260015414156111ba57604080517f08c379a000000000000000000000000000000000000000000000000000000000815260206004820152601f60248201527f5265656e7472616e637947756172643a207265656e7472616e742063616c6c00604482015290519081900360640190fd5b600260015560045460ff16156111fc576040517f08c379a00000000000000000000000000000000000000000000000000000000081526004016107999061342d565b60008061120883610c3f565b9150915060008111801561121c5750600082115b611252576040517f08c379a0000000000000000000000000000000000000000000000000000000008152600401610799906133bf565b8261125b610d6e565b1015801561126b57506028548111155b6112a1576040517f08c379a00000000000000000000000000000000000000000000000000000000081526004016107999061348a565b6028546112ae9082612430565b60285560006112bb610b1b565b905060006112d5670de0b6b3a7640000610f6385856122c8565b6025549091506112e5908261233b565b6025556040517fcca5e4b100000000000000000000000000000000000000000000000000000000815273ffffffffffffffffffffffffffffffffffffffff7f0000000000000000000000000000000000000000000000000000000000000000169063cca5e4b19061135f903390879060019060040161327d565b600060405180830381600087803b15801561137957600080fd5b505af115801561138d573d6000803e3d6000fd5b505050506113cf736b175474e89094c44da98b954eedeac495271d0f33306113ca670de0b6b3a7640000610f63888c6122c890919063ffffffff16565b6124a7565b611406736b175474e89094c44da98b954eedeac495271d0f306113f0610ac2565b6113ca671bc16d674ec80000610f638a896122c8565b7fc032f62758cac23a902e648ab54b6825665b9bc19e7cd0a8ab915cbf3eea4fa0338285604051611439939291906132ad565b60405180910390a1505060018055505050565b6020810151604080830151606084015191517fc5f0e3b400000000000000000000000000000000000000000000000000000000815260009373ffffffffffffffffffffffffffffffffffffffff7f0000000000000000000000000000000000000000000000000000000000000000169363c5f0e3b4936114e693736b175474e89094c44da98b954eedeac495271d0f9392906004016132db565b60206040518083038186803b1580156106a557600080fd5b6002600154141561157057604080517f08c379a000000000000000000000000000000000000000000000000000000000815260206004820152601f60248201527f5265656e7472616e637947756172643a207265656e7472616e742063616c6c00604482015290519081900360640190fd5b600260015560045460ff16156115b2576040517f08c379a00000000000000000000000000000000000000000000000000000000081526004016107999061342d565b6000806115be83610c3f565b915091506000811180156115d25750600082115b611608576040517f08c379a0000000000000000000000000000000000000000000000000000000008152600401610799906134c1565b82611611610d6e565b1015611649576040517f08c379a00000000000000000000000000000000000000000000000000000000081526004016107999061348a565b6000611653610b1b565b602454909150611663908561233b565b60245573ffffffffffffffffffffffffffffffffffffffff7f00000000000000000000000000000000000000000000000000000000000000001663cca5e4b1336116b9670de0b6b3a7640000610f6387876122c8565b60016040518463ffffffff1660e01b81526004016116d99392919061327d565b600060405180830381600087803b1580156116f357600080fd5b505af1158015611707573d6000803e3d6000fd5b505050507f000000000000000000000000000000000000000000000000000000000000000073ffffffffffffffffffffffffffffffffffffffff1663cca5e4b161174f610ac2565b611765670de0b6b3a7640000610f6388876122c8565b60016040518463ffffffff1660e01b81526004016117859392919061327d565b600060405180830381600087803b15801561179f57600080fd5b505af11580156117b3573d6000803e3d6000fd5b505050506117e37f00000000000000000000000000000000000000000000000000000000000000003330876124a7565b7fc779ed4173ee0a3293a6575326fb4fcb5c81023bbc481cf910100c0fbe836e3333611817611810610b1b565b85906122c8565b84604051611827939291906132ad565b60405180910390a15050600180555050565b7f000000000000000000000000000000000000000000000000000000000000000081565b680ad78ebc5ac620000081565b6118726120e8565b73ffffffffffffffffffffffffffffffffffffffff16611890610ac2565b73ffffffffffffffffffffffffffffffffffffffff161461191257604080517f08c379a000000000000000000000000000000000000000000000000000000000815260206004820181905260248201527f4f776e61626c653a2063616c6c6572206973206e6f7420746865206f776e6572604482015290519081900360640190fd5b60238054600101908190556009101561192b5760006023555b60006005602354600a811061193c57fe5b6040805160808101825260039290920292909201805460ff81168352610100900473ffffffffffffffffffffffffffffffffffffffff166020830152825180840180855292939192918401916001840190600290826000855b82829054906101000a900462ffffff1662ffffff1681526020019060030190602082600201049283019260010382029150808411611995575050509284525050506002919091015473ffffffffffffffffffffffffffffffffffffffff166020909101528051602554919250600091611a1791606491610f639160ff166122c8565b90506000611a248361144c565b90507f00000000000000000000000000000000000000000000000000000000000000008215611a5957611a598482858561268c565b60245415611a6f57611a6f848260245485612938565b50505050565b611a7d6120e8565b73ffffffffffffffffffffffffffffffffffffffff16611a9b610ac2565b73ffffffffffffffffffffffffffffffffffffffff1614611b1d57604080517f08c379a000000000000000000000000000000000000000000000000000000000815260206004820181905260248201527f4f776e61626c653a2063616c6c6572206973206e6f7420746865206f776e6572604482015290519081900360640190fd5b73ffffffffffffffffffffffffffffffffffffffff8116611b89576040517f08c379a000000000000000000000000000000000000000000000000000000000815260040180806020018281038252602681526020018061360b6026913960400191505060405180910390fd5b6000805460405173ffffffffffffffffffffffffffffffffffffffff808516939216917f8be0079c531659141344cd1fd0a4f28419497f9722a3daafe3b4186f6b6457e091a3600080547fffffffffffffffffffffffff00000000000000000000000000000000000000001673ffffffffffffffffffffffffffffffffffffffff92909216919091179055565b606060405180608001604052806049815260200161367860499139905090565b611c3e6120e8565b73ffffffffffffffffffffffffffffffffffffffff16611c5c610ac2565b73ffffffffffffffffffffffffffffffffffffffff1614611cde57604080517f08c379a000000000000000000000000000000000000000000000000000000000815260206004820181905260248201527f4f776e61626c653a2063616c6c6572206973206e6f7420746865206f776e6572604482015290519081900360640190fd5b600480547fffffffffffffffffffffffffffffffffffffffffffffffffffffffffffffff00166001179055600354600254602554600092611d27929091610f639160ff166122c8565b9050611d7c736b175474e89094c44da98b954eedeac495271d0f7f0000000000000000000000000000000000000000000000000000000000000000611d778460255461233b90919063ffffffff16565b612c45565b50565b600081611dac577f0000000000000000000000000000000000000000000000000000000000000000611dce565b7f00000000000000000000000000000000000000000000000000000000000000005b73ffffffffffffffffffffffffffffffffffffffff1663e65896c9846040518263ffffffff1660e01b8152600401611e06919061325c565b60206040518083038186803b158015611e1e57600080fd5b505afa158015611e32573d6000803e3d6000fd5b505050506040513d601f19601f82011682018060405250810190611e569190613020565b90505b92915050565b611e676120e8565b73ffffffffffffffffffffffffffffffffffffffff16611e85610ac2565b73ffffffffffffffffffffffffffffffffffffffff1614611f0757604080517f08c379a000000000000000000000000000000000000000000000000000000000815260206004820181905260248201527f4f776e61626c653a2063616c6c6572206973206e6f7420746865206f776e6572604482015290519081900360640190fd5b7f000000000000000000000000000000000000000000000000000000000000000073ffffffffffffffffffffffffffffffffffffffff1663f8c493d6611f63611f4e610b1b565b602554610f6390670de0b6b3a76400006122c8565b60016040518363ffffffff1660e01b8152600401611f82929190613523565b600060405180830381600087803b158015611f9c57600080fd5b505af1158015611fb0573d6000803e3d6000fd5b50506026546040517ff8c493d600000000000000000000000000000000000000000000000000000000815273ffffffffffffffffffffffffffffffffffffffff7f000000000000000000000000000000000000000000000000000000000000000016935063f8c493d6925061202b9190600190600401613523565b600060405180830381600087803b15801561204557600080fd5b505af1158015612059573d6000803e3d6000fd5b50505050602554602754108015612071575060275415155b156120aa576120aa736b175474e89094c44da98b954eedeac495271d0f612096610ac2565b6027546025546120a591612430565b6120ec565b6000602581905560278190556024819055602655600480547fffffffffffffffffffffffffffffffffffffffffffffffffffffffffffffff00169055565b3390565b6040805173ffffffffffffffffffffffffffffffffffffffff8481166024830152604480830185905283518084039091018152606490920183526020820180517bffffffffffffffffffffffffffffffffffffffffffffffffffffffff167fa9059cbb000000000000000000000000000000000000000000000000000000001781529251825160009485949389169392918291908083835b602083106121c157805182527fffffffffffffffffffffffffffffffffffffffffffffffffffffffffffffffe09092019160209182019101612184565b6001836020036101000a0380198251168184511680821785525050505050509050019150506000604051808303816000865af19150503d8060008114612223576040519150601f19603f3d011682016040523d82523d6000602084013e612228565b606091505b5091509150818015612256575080511580612256575080806020019051602081101561225357600080fd5b50515b6122c157604080517f08c379a000000000000000000000000000000000000000000000000000000000815260206004820152600260248201527f5354000000000000000000000000000000000000000000000000000000000000604482015290519081900360640190fd5b5050505050565b6000826122d757506000611e59565b828202828482816122e457fe5b0414611e56576040517f08c379a00000000000000000000000000000000000000000000000000000000081526004018080602001828103825260218152602001806136316021913960400191505060405180910390fd5b600082820183811015611e5657604080517f08c379a000000000000000000000000000000000000000000000000000000000815260206004820152601b60248201527f536166654d6174683a206164646974696f6e206f766572666c6f770000000000604482015290519081900360640190fd5b600080821161241f57604080517f08c379a000000000000000000000000000000000000000000000000000000000815260206004820152601a60248201527f536166654d6174683a206469766973696f6e206279207a65726f000000000000604482015290519081900360640190fd5b81838161242857fe5b049392505050565b6000828211156124a157604080517f08c379a000000000000000000000000000000000000000000000000000000000815260206004820152601e60248201527f536166654d6174683a207375627472616374696f6e206f766572666c6f770000604482015290519081900360640190fd5b50900390565b6040805173ffffffffffffffffffffffffffffffffffffffff85811660248301528481166044830152606480830185905283518084039091018152608490920183526020820180517bffffffffffffffffffffffffffffffffffffffffffffffffffffffff167f23b872dd00000000000000000000000000000000000000000000000000000000178152925182516000948594938a169392918291908083835b6020831061258457805182527fffffffffffffffffffffffffffffffffffffffffffffffffffffffffffffffe09092019160209182019101612547565b6001836020036101000a0380198251168184511680821785525050505050509050019150506000604051808303816000865af19150503d80600081146125e6576040519150601f19603f3d011682016040523d82523d6000602084013e6125eb565b606091505b5091509150818015612619575080511580612619575080806020019051602081101561261657600080fd5b50515b61268457604080517f08c379a000000000000000000000000000000000000000000000000000000000815260206004820152600360248201527f5354460000000000000000000000000000000000000000000000000000000000604482015290519081900360640190fd5b505050505050565b60006126a482610f6385670de0b6b3a76400006122c8565b6003546002549192506000916126cd916110f891610f6390600a90610c16908a9060ff166122c8565b606087015190915073ffffffffffffffffffffffffffffffffffffffff166128525761284a8573ffffffffffffffffffffffffffffffffffffffff1663db3e2198604051806101000160405280736b175474e89094c44da98b954eedeac495271d0f73ffffffffffffffffffffffffffffffffffffffff1681526020018a6020015173ffffffffffffffffffffffffffffffffffffffff1681526020018a6040015160006002811061277b57fe5b602002015162ffffff1681526020013073ffffffffffffffffffffffffffffffffffffffff168152602001428152602001868152602001858152602001600073ffffffffffffffffffffffffffffffffffffffff168152506040518263ffffffff1660e01b81526004016127ef919061350b565b602060405180830381600087803b15801561280957600080fd5b505af115801561281d573d6000803e3d6000fd5b505050506040513d601f19601f820116820180604052508101906128419190613020565b6027549061233b565b602755612684565b61292d8573ffffffffffffffffffffffffffffffffffffffff1663f28c04986040518060a001604052808a602001518b6040015160016002811061289257fe5b602002015160608d015160408e015160006020020151736b175474e89094c44da98b954eedeac495271d0f6040516020016128d19594939291906131df565b60405160208183030381529060405281526020013073ffffffffffffffffffffffffffffffffffffffff168152602001428152602001868152602001858152506040518263ffffffff1660e01b81526004016127ef91906134f8565b602755505050505050565b600061296082610f636064610f63896000015160ff16610c16612959610b1b565b8a906122c8565b9050600061297a670de0b6b3a7640000610f6384866122c8565b6003546002549192506000916129aa916129a391610f6390600a90610c1690889060ff166122c8565b8390612430565b90506129db87602001517f000000000000000000000000000000000000000000000000000000000000000085612c45565b606087015173ffffffffffffffffffffffffffffffffffffffff16612b5d57612b558673ffffffffffffffffffffffffffffffffffffffff1663414bf3896040518061010001604052808b6020015173ffffffffffffffffffffffffffffffffffffffff168152602001736b175474e89094c44da98b954eedeac495271d0f73ffffffffffffffffffffffffffffffffffffffff1681526020018b60400151600060028110612a8657fe5b602002015162ffffff1681526020013073ffffffffffffffffffffffffffffffffffffffff168152602001428152602001878152602001858152602001600073ffffffffffffffffffffffffffffffffffffffff168152506040518263ffffffff1660e01b8152600401612afa919061350b565b602060405180830381600087803b158015612b1457600080fd5b505af1158015612b28573d6000803e3d6000fd5b505050506040513d601f19601f82011682018060405250810190612b4c9190613020565b6026549061233b565b602655612c3c565b612c388673ffffffffffffffffffffffffffffffffffffffff1663c04b8d596040518060a001604052808b602001518c60400151600160028110612b9d57fe5b602002015160608e015160408f015160006020020151736b175474e89094c44da98b954eedeac495271d0f604051602001612bdc9594939291906131df565b60405160208183030381529060405281526020013073ffffffffffffffffffffffffffffffffffffffff168152602001428152602001878152602001858152506040518263ffffffff1660e01b8152600401612afa91906134f8565b6026555b50505050505050565b6040805173ffffffffffffffffffffffffffffffffffffffff8481166024830152604480830185905283518084039091018152606490920183526020820180517bffffffffffffffffffffffffffffffffffffffffffffffffffffffff167f095ea7b3000000000000000000000000000000000000000000000000000000001781529251825160009485949389169392918291908083835b60208310612d1a57805182527fffffffffffffffffffffffffffffffffffffffffffffffffffffffffffffffe09092019160209182019101612cdd565b6001836020036101000a0380198251168184511680821785525050505050509050019150506000604051808303816000865af19150503d8060008114612d7c576040519150601f19603f3d011682016040523d82523d6000602084013e612d81565b606091505b5091509150818015612daf575080511580612daf5750808060200190516020811015612dac57600080fd5b50515b6122c157604080517f08c379a000000000000000000000000000000000000000000000000000000000815260206004820152600260248201527f5341000000000000000000000000000000000000000000000000000000000000604482015290519081900360640190fd5b604051806101400160405280600a905b612e32612e48565b815260200190600190039081612e2a5790505090565b6040805160808101825260008082526020820152908101612e67612e74565b8152600060209091015290565b60405180604001604052806002906020820280368337509192915050565b803573ffffffffffffffffffffffffffffffffffffffff811681146106e057600080fd5b803580151581146106e057600080fd5b803560ff811681146106e057600080fd5b600060208284031215612ee8578081fd5b611e5682612e92565b60008060408385031215612f03578081fd5b612f0c83612e92565b9150612f1a60208401612eb6565b90509250929050565b600060208284031215612f34578081fd5b611e5682612eb6565b600060a08284031215612f4e578081fd5b6040516080810167ffffffffffffffff81118282101715612f6b57fe5b604052612f7783612ec6565b81526020612f86818501612e92565b8183015284605f850112612f98578283fd5b612fa26040613541565b80604086016080870188811115612fb7578687fd5b865b6002811015612fe657823562ffffff81168114612fd4578889fd5b85529385019391850191600101612fb9565b50826040870152612ff681612e92565b60608701525093979650505050505050565b600060208284031215613019578081fd5b5035919050565b600060208284031215613031578081fd5b5051919050565b6000806040838503121561304a578182fd5b82359150612f1a60208401612eb6565b6000806040838503121561306c578182fd5b61307583612ec6565b946020939093013593505050565b8060005b6002811015611a6f57815162ffffff16845260209384019390910190600101613087565b60008151808452815b818110156130d0576020818501810151868301820152016130b4565b818111156130e15782602083870101525b50601f017fffffffffffffffffffffffffffffffffffffffffffffffffffffffffffffffe0169290920160200192915050565b6000815160a0845261312960a08501826130ab565b60208481015173ffffffffffffffffffffffffffffffffffffffff1690860152604080850151908601526060808501519086015260809384015193909401929092525090919050565b805173ffffffffffffffffffffffffffffffffffffffff908116835260208083015182169084015260408083015162ffffff16908401526060808301518216908401526080808301519084015260a0828101519084015260c0808301519084015260e09182015116910152565b7fffffffffffffffffffffffffffffffffffffffff000000000000000000000000606096871b811682527fffffff000000000000000000000000000000000000000000000000000000000060e896871b8116601484015294871b811660178301529290941b909216602b840152921b909116602e82015260420190565b73ffffffffffffffffffffffffffffffffffffffff91909116815260200190565b73ffffffffffffffffffffffffffffffffffffffff93909316835260208301919091521515604082015260600190565b73ffffffffffffffffffffffffffffffffffffffff9390931683526020830191909152604082015260600190565b73ffffffffffffffffffffffffffffffffffffffff8581168252848116602083015260a082019061330f6040840186613083565b80841660808401525095945050505050565b6106408101818360005b600a811015613398578151805160ff16845260208082015173ffffffffffffffffffffffffffffffffffffffff9081168287015260408084015190919061337483890182613083565b5060609390930151909216608086015260a09094019392909201915060010161332b565b50505092915050565b901515815260200190565b600060208252611e5660208301846130ab565b60208082526016908201527f4e6f7420656e6f75676820746f6b656e732073656e7400000000000000000000604082015260600190565b6020808252600f908201527f4e6f7420656e6f75676820646562740000000000000000000000000000000000604082015260600190565b60208082526029908201527f50726f64756374206973206265696e6720736574746c65642c2074727920616760408201527f61696e206c617465720000000000000000000000000000000000000000000000606082015260800190565b60208082526014908201527f4e6f7420656e6f756768206c6971756964697479000000000000000000000000604082015260600190565b60208082526019908201527f596f75206d7573742073656c6c206d6f726520746f6b656e7300000000000000604082015260600190565b600060208252611e566020830184613114565b6101008101611e598284613172565b90815260200190565b9182521515602082015260400190565b918252602082015260400190565b60405181810167ffffffffffffffff8111828210171561355d57fe5b60405291905056fe566f696420496e646578202d2066756c6c7920646563656e7472616c697a656420696e6465782e20497420666561747572657320313720455243323020746f6b656e732c20616e6420616c6c6f777320796f7520746f20627579206f722073656c6c207468656d206174206f6e63652e20596f7520726563656976652056494420746f6b656e7320617320612070726f6f66206f662066756e6473206f776e6572736869704f776e61626c653a206e6577206f776e657220697320746865207a65726f2061646472657373536166654d6174683a206d756c7469706c69636174696f6e206f766572666c6f77566f696420496e646578202d2066756c6c7920646563656e7472616c697a656420696e64657868747470733a2f2f766f69646d616e6167656d656e7473746f726167652e626c6f622e636f72652e77696e646f77732e6e65742f6173736574732f6c6f676f5f696e6465782e706e67a2646970667358221220ce5016e368a543c3f1f6667580507a74f2bb07b54e13c74849b4af4f8226583764736f6c6343000706003360806040526040516100109061005f565b604051809103906000f08015801561002c573d6000803e3d6000fd5b50600180546001600160a01b0319166001600160a01b039290921691909117905534801561005957600080fd5b5061006c565b61045d8061068683390190565b61060b8061007b6000396000f3fe608060405234801561001057600080fd5b50600436106100675760003560e01c8063e2842d7911610050578063e2842d79146100c9578063e65896c914610121578063f8c493d61461015457610067565b806334ce998a1461006c578063cca5e4b114610086575b600080fd5b610074610179565b60408051918252519081900360200190f35b6100c76004803603606081101561009c57600080fd5b5073ffffffffffffffffffffffffffffffffffffffff8135169060208101359060400135151561017f565b005b6100d1610270565b60408051602080825283518183015283519192839290830191858101910280838360005b8381101561010d5781810151838201526020016100f5565b505050509050019250505060405180910390f35b6100746004803603602081101561013757600080fd5b503573ffffffffffffffffffffffffffffffffffffffff166103c7565b6100c76004803603604081101561016a57600080fd5b50803590602001351515610470565b60005490565b600154604080517fcca5e4b100000000000000000000000000000000000000000000000000000000815273ffffffffffffffffffffffffffffffffffffffff86811660048301526024820186905284151560448301529151919092169163cca5e4b191606480830192600092919082900301818387803b15801561020257600080fd5b505af1158015610216573d6000803e3d6000fd5b50506040805173ffffffffffffffffffffffffffffffffffffffff871681526020810186905281517fbdbcd24495abd6f63a1ff87418df04429000c6f9d53015ef4d5c91f353d827429450908190039091019150a1505050565b600154604080517fe2842d79000000000000000000000000000000000000000000000000000000008152905160609273ffffffffffffffffffffffffffffffffffffffff169163e2842d79916004808301926000929190829003018186803b1580156102db57600080fd5b505afa1580156102ef573d6000803e3d6000fd5b505050506040513d6000823e601f3d9081017fffffffffffffffffffffffffffffffffffffffffffffffffffffffffffffffe0168201604052602081101561033657600080fd5b810190808051604051939291908464010000000082111561035657600080fd5b90830190602082018581111561036b57600080fd5b825186602082028301116401000000008211171561038857600080fd5b82525081516020918201928201910280838360005b838110156103b557818101518382015260200161039d565b50505050905001604052505050905090565b600154604080517fe65896c900000000000000000000000000000000000000000000000000000000815273ffffffffffffffffffffffffffffffffffffffff84811660048301529151600093929092169163e65896c991602480820192602092909190829003018186803b15801561043e57600080fd5b505afa158015610452573d6000803e3d6000fd5b505050506040513d602081101561046857600080fd5b505192915050565b801561048b5760005461048390836104e3565b60005561049c565b600054610498908361055e565b6000555b600054604080519182526020820184905282151582820152517fe3a346931856fab43b7f9bcf4167ed53663e69d0195323a374d0f89a432d0f439181900360600190a15050565b60008282018381101561055757604080517f08c379a000000000000000000000000000000000000000000000000000000000815260206004820152601b60248201527f536166654d6174683a206164646974696f6e206f766572666c6f770000000000604482015290519081900360640190fd5b9392505050565b6000828211156105cf57604080517f08c379a000000000000000000000000000000000000000000000000000000000815260206004820152601e60248201527f536166654d6174683a207375627472616374696f6e206f766572666c6f770000604482015290519081900360640190fd5b5090039056fea2646970667358221220208857a3067afb5832338ff9a6b9dc3d23a3043010bc4cc771ef56da940cc28f64736f6c63430007060033608060405234801561001057600080fd5b5061043d806100206000396000f3fe608060405234801561001057600080fd5b50600436106100415760003560e01c8063cca5e4b114610046578063e2842d7914610089578063e65896c9146100e1575b600080fd5b6100876004803603606081101561005c57600080fd5b5073ffffffffffffffffffffffffffffffffffffffff81351690602081013590604001351515610126565b005b6100916101a7565b60408051602080825283518183015283519192839290830191858101910280838360005b838110156100cd5781810151838201526020016100b5565b505050509050019250505060405180910390f35b610114600480360360208110156100f757600080fd5b503573ffffffffffffffffffffffffffffffffffffffff16610216565b60408051918252519081900360200190f35b73ffffffffffffffffffffffffffffffffffffffff831660009081526020819052604090205481156101635761015c818461023e565b9050610170565b61016d81846102b9565b90505b73ffffffffffffffffffffffffffffffffffffffff841660009081526020819052604090208190556101a184610330565b50505050565b6060600280548060200260200160405190810160405280929190818152602001828054801561020c57602002820191906000526020600020905b815473ffffffffffffffffffffffffffffffffffffffff1681526001909101906020018083116101e1575b5050505050905090565b73ffffffffffffffffffffffffffffffffffffffff1660009081526020819052604090205490565b6000828201838110156102b257604080517f08c379a000000000000000000000000000000000000000000000000000000000815260206004820152601b60248201527f536166654d6174683a206164646974696f6e206f766572666c6f770000000000604482015290519081900360640190fd5b9392505050565b60008282111561032a57604080517f08c379a000000000000000000000000000000000000000000000000000000000815260206004820152601e60248201527f536166654d6174683a207375627472616374696f6e206f766572666c6f770000604482015290519081900360640190fd5b50900390565b73ffffffffffffffffffffffffffffffffffffffff811660009081526001602052604090205460ff166104045773ffffffffffffffffffffffffffffffffffffffff81166000818152600160208190526040822080547fffffffffffffffffffffffffffffffffffffffffffffffffffffffffffffff0016821790556002805491820181559091527f405787fa12a823e0f2b7631cc41b3ba8828b3321ca811111fa75cd3aa3bb5ace0180547fffffffffffffffffffffffff00000000000000000000000000000000000000001690911790555b5056fea2646970667358221220687dc2a43aa21187a93147969b0c6d21b545c3e3424529d1b183d503bc62c18864736f6c634300070600336080604052600080546001600160a01b031916731f98431c8ad98523631ae4a59f267346ea31f98417905534801561003657600080fd5b50611416806100466000396000f3fe608060405234801561001057600080fd5b50600436106100365760003560e01c8063ad72a0a11461003b578063c5f0e3b414610064575b600080fd5b61004e6100493660046111c8565b610077565b60405161005b9190611391565b60405180910390f35b61004e6100723660046111c8565b61011e565b600073ffffffffffffffffffffffffffffffffffffffff82166100ae576100a785858560005b60200201516101c0565b9050610116565b60006100bc8684868461009d565b905060006100cd848787600161009d565b905060006100de888688600061011e565b90506100fc670de0b6b3a76400006100f684846102e3565b9061035f565b915081831115610110575091506101169050565b50909150505b949350505050565b600073ffffffffffffffffffffffffffffffffffffffff821661016d57600061014f868686845b60200201516103e0565b905061016581670de0b6b3a7640000878961051e565b915050610116565b600061017c8386866001610145565b9050600061019482670de0b6b3a7640000888761051e565b905060006101a488868884610145565b905060006101b48284888c61051e565b94506101169350505050565b60008060008060006101d38888886106c7565b93509350935093506000808973ffffffffffffffffffffffffffffffffffffffff168473ffffffffffffffffffffffffffffffffffffffff161415610268576000610245858560405180604001604052808d62ffffff1662ffffff168152602001600062ffffff16815250600061011e565b905061025d670de0b6b3a76400006100f688846102e3565b9250869150506102ba565b600061029b848660405180604001604052808d62ffffff1662ffffff168152602001600062ffffff16815250600061011e565b90506102b3670de0b6b3a76400006100f689846102e3565b9250859150505b818111156102cf575094506102dc9350505050565b95506102dc945050505050565b9392505050565b6000826102f257506000610359565b828202828482816102ff57fe5b0414610356576040517f08c379a00000000000000000000000000000000000000000000000000000000081526004018080602001828103825260218152602001806113c06021913960400191505060405180910390fd5b90505b92915050565b60008082116103cf57604080517f08c379a000000000000000000000000000000000000000000000000000000000815260206004820152601a60248201527f536166654d6174683a206469766973696f6e206279207a65726f000000000000604482015290519081900360640190fd5b8183816103d857fe5b049392505050565b600080546040517f1698ee82000000000000000000000000000000000000000000000000000000008152829173ffffffffffffffffffffffffffffffffffffffff1690631698ee829061043b9088908890889060040161135c565b60206040518083038186803b15801561045357600080fd5b505afa158015610467573d6000803e3d6000fd5b505050506040513d601f19601f8201168201806040525081019061048b91906111ac565b905060008173ffffffffffffffffffffffffffffffffffffffff16633850c7bd6040518163ffffffff1660e01b815260040160e06040518083038186803b1580156104d557600080fd5b505afa1580156104e9573d6000803e3d6000fd5b505050506040513d601f19601f8201168201806040525081019061050d91906112bc565b50939b9a5050505050505050505050565b60008061052a86610a26565b90506fffffffffffffffffffffffffffffffff73ffffffffffffffffffffffffffffffffffffffff8216116105f85773ffffffffffffffffffffffffffffffffffffffff808216800290848116908616106105ba576105b57801000000000000000000000000000000000000000000000000876fffffffffffffffffffffffffffffffff1683610db9565b6105f0565b6105f081876fffffffffffffffffffffffffffffffff167801000000000000000000000000000000000000000000000000610db9565b9250506106be565b600061062473ffffffffffffffffffffffffffffffffffffffff83168068010000000000000000610db9565b90508373ffffffffffffffffffffffffffffffffffffffff168573ffffffffffffffffffffffffffffffffffffffff161061068c57610687700100000000000000000000000000000000876fffffffffffffffffffffffffffffffff1683610db9565b6106ba565b6106ba81876fffffffffffffffffffffffffffffffff16700100000000000000000000000000000000610db9565b9250505b50949350505050565b600080546040517f1698ee82000000000000000000000000000000000000000000000000000000008152829182918291829173ffffffffffffffffffffffffffffffffffffffff90911690631698ee829061072a908b908b908b9060040161135c565b60206040518083038186803b15801561074257600080fd5b505afa158015610756573d6000803e3d6000fd5b505050506040513d601f19601f8201168201806040525081019061077a91906111ac565b905060008173ffffffffffffffffffffffffffffffffffffffff16633850c7bd6040518163ffffffff1660e01b815260040160e06040518083038186803b1580156107c457600080fd5b505afa1580156107d8573d6000803e3d6000fd5b505050506040513d601f19601f820116820180604052508101906107fc91906112bc565b5050505050509050600061083060028373ffffffffffffffffffffffffffffffffffffffff1661035f90919063ffffffff16565b9050600061085773ffffffffffffffffffffffffffffffffffffffff848116908416610e86565b9050600061087e73ffffffffffffffffffffffffffffffffffffffff858116908516610efa565b905060008061090c8684868a73ffffffffffffffffffffffffffffffffffffffff16631a6865026040518163ffffffff1660e01b815260040160206040518083038186803b1580156108cf57600080fd5b505afa1580156108e3573d6000803e3d6000fd5b505050506040513d601f19601f82011682018060405250810190610907919061128c565b610f71565b9150915081818873ffffffffffffffffffffffffffffffffffffffff16630dfe16816040518163ffffffff1660e01b815260040160206040518083038186803b15801561095857600080fd5b505afa15801561096c573d6000803e3d6000fd5b505050506040513d601f19601f8201168201806040525081019061099091906111ac565b8973ffffffffffffffffffffffffffffffffffffffff1663d21220a76040518163ffffffff1660e01b815260040160206040518083038186803b1580156109d657600080fd5b505afa1580156109ea573d6000803e3d6000fd5b505050506040513d601f19601f82011682018060405250810190610a0e91906111ac565b9a509a509a509a505050505050505093509350935093565b60008060008360020b12610a3d578260020b610a45565b8260020b6000035b9050620d89e8811115610ab957604080517f08c379a000000000000000000000000000000000000000000000000000000000815260206004820152600160248201527f5400000000000000000000000000000000000000000000000000000000000000604482015290519081900360640190fd5b600060018216610ada57700100000000000000000000000000000000610aec565b6ffffcb933bd6fad37aa2d162d1a5940015b70ffffffffffffffffffffffffffffffffff1690506002821615610b20576ffff97272373d413259a46990580e213a0260801c5b6004821615610b3f576ffff2e50f5f656932ef12357cf3c7fdcc0260801c5b6008821615610b5e576fffe5caca7e10e4e61c3624eaa0941cd00260801c5b6010821615610b7d576fffcb9843d60f6159c9db58835c9266440260801c5b6020821615610b9c576fff973b41fa98c081472e6896dfb254c00260801c5b6040821615610bbb576fff2ea16466c96a3843ec78b326b528610260801c5b6080821615610bda576ffe5dee046a99a2a811c461f1969c30530260801c5b610100821615610bfa576ffcbe86c7900a88aedcffc83b479aa3a40260801c5b610200821615610c1a576ff987a7253ac413176f2b074cf7815e540260801c5b610400821615610c3a576ff3392b0822b70005940c7a398e4b70f30260801c5b610800821615610c5a576fe7159475a2c29b7443b29c7fa6e889d90260801c5b611000821615610c7a576fd097f3bdfd2022b8845ad8f792aa58250260801c5b612000821615610c9a576fa9f746462d870fdf8a65dc1f90e061e50260801c5b614000821615610cba576f70d869a156d2a1b890bb3df62baf32f70260801c5b618000821615610cda576f31be135f97d08fd981231505542fcfa60260801c5b62010000821615610cfb576f09aa508b5b7a84e1c677de54f3e99bc90260801c5b62020000821615610d1b576e5d6af8dedb81196699c329225ee6040260801c5b62040000821615610d3a576d2216e584f5fa1ea926041bedfe980260801c5b62080000821615610d57576b048a170391f7dc42444e8fa20260801c5b60008460020b1315610d9057807fffffffffffffffffffffffffffffffffffffffffffffffffffffffffffffffff81610d8c57fe5b0490505b640100000000810615610da4576001610da7565b60005b60ff16602082901c0192505050919050565b600080807fffffffffffffffffffffffffffffffffffffffffffffffffffffffffffffffff85870986860292508281109083900303905080610e0d5760008411610e0257600080fd5b5082900490506102dc565b808411610e1957600080fd5b6000848688096000868103871696879004966002600389028118808a02820302808a02820302808a02820302808a02820302808a02820302808a02909103029181900381900460010186841190950394909402919094039290920491909117919091029150509392505050565b60008282018381101561035657604080517f08c379a000000000000000000000000000000000000000000000000000000000815260206004820152601b60248201527f536166654d6174683a206164646974696f6e206f766572666c6f770000000000604482015290519081900360640190fd5b600082821115610f6b57604080517f08c379a000000000000000000000000000000000000000000000000000000000815260206004820152601e60248201527f536166654d6174683a207375627472616374696f6e206f766572666c6f770000604482015290519081900360640190fd5b50900390565b6000808373ffffffffffffffffffffffffffffffffffffffff168573ffffffffffffffffffffffffffffffffffffffff161115610fac579293925b8473ffffffffffffffffffffffffffffffffffffffff168673ffffffffffffffffffffffffffffffffffffffff1611610ff157610fea85858561105b565b9150611052565b8373ffffffffffffffffffffffffffffffffffffffff168673ffffffffffffffffffffffffffffffffffffffff1610156110445761103086858561105b565b915061103d85878561110e565b9050611052565b61104f85858561110e565b90505b94509492505050565b60008273ffffffffffffffffffffffffffffffffffffffff168473ffffffffffffffffffffffffffffffffffffffff161115611095579192915b8373ffffffffffffffffffffffffffffffffffffffff166110fe606060ff16846fffffffffffffffffffffffffffffffff16901b86860373ffffffffffffffffffffffffffffffffffffffff168673ffffffffffffffffffffffffffffffffffffffff16610db9565b8161110557fe5b04949350505050565b60008273ffffffffffffffffffffffffffffffffffffffff168473ffffffffffffffffffffffffffffffffffffffff161115611148579192915b610116826fffffffffffffffffffffffffffffffff1685850373ffffffffffffffffffffffffffffffffffffffff166c01000000000000000000000000610db9565b80356111958161139a565b919050565b805161ffff8116811461119557600080fd5b6000602082840312156111bd578081fd5b81516103568161139a565b60008060008060a085870312156111dd578283fd5b84356111e88161139a565b93506020858101356111f98161139a565b9350605f86018713611209578283fd5b6040805190810167ffffffffffffffff8111828210171561122657fe5b80604052508060408801608089018a811115611240578687fd5b865b600281101561126f57823562ffffff8116811461125d578889fd5b84529285019291850191600101611242565b5083965061127c8161118a565b9550505050505092959194509250565b60006020828403121561129d578081fd5b81516fffffffffffffffffffffffffffffffff81168114610356578182fd5b600080600080600080600060e0888a0312156112d6578283fd5b87516112e18161139a565b8097505060208801518060020b81146112f8578384fd5b95506113066040890161119a565b94506113146060890161119a565b93506113226080890161119a565b925060a088015160ff81168114611337578283fd5b60c0890151909250801515811461134c578182fd5b8091505092959891949750929550565b73ffffffffffffffffffffffffffffffffffffffff938416815291909216602082015262ffffff909116604082015260600190565b90815260200190565b73ffffffffffffffffffffffffffffffffffffffff811681146113bc57600080fd5b5056fe536166654d6174683a206d756c7469706c69636174696f6e206f766572666c6f77a264697066735822122076a9a92d08e86156e9c2f552f816ef84e322bf5c8f7c2b7e1f2fece22429047264736f6c63430007060033608060405234801561001057600080fd5b5060405161093238038061093283398101604081905261002f91610054565b600280546001600160a01b0319166001600160a01b0392909216919091179055610082565b600060208284031215610065578081fd5b81516001600160a01b038116811461007b578182fd5b9392505050565b6108a1806100916000396000f3fe608060405234801561001057600080fd5b50600436106100c95760003560e01c8063313ce5671161008157806395d89b411161005b57806395d89b411461018f578063a9059cbb14610197578063dd62ed3e146101aa576100c9565b8063313ce567146101545780635c6581651461016957806370a082311461017c576100c9565b80630cf1fd36116100b25780630cf1fd361461010c57806323b872dd1461012157806327e235e314610134576100c9565b806306fdde03146100ce578063095ea7b3146100ec575b600080fd5b6100d66101bd565b6040516100e39190610729565b60405180910390f35b6100ff6100fa3660046106d4565b6101f6565b6040516100e3919061071e565b61011461026d565b6040516100e391906106fd565b6100ff61012f366004610699565b610289565b610147610142366004610646565b61041f565b6040516100e39190610854565b61015c610431565b6040516100e3919061085d565b610147610177366004610667565b610436565b61014761018a366004610646565b610453565b6100d661047f565b6100ff6101a53660046106d4565b6104b8565b6101476101b8366004610667565b6105ea565b6040518060400160405280601081526020017f566f696420496e64657820546f6b656e0000000000000000000000000000000081525081565b33600081815260016020908152604080832073ffffffffffffffffffffffffffffffffffffffff8716808552925280832085905551919290917f8c5be1e5ebec7d5bd14f71427d1e84f3dd0314c0f7b2291e5b200ac8c7c3b9259061025c908690610854565b60405180910390a350600192915050565b60025473ffffffffffffffffffffffffffffffffffffffff1681565b73ffffffffffffffffffffffffffffffffffffffff831660008181526001602090815260408083203384528252808320549383529082905281205490919083118015906102d65750828110155b610315576040517f08c379a000000000000000000000000000000000000000000000000000000000815260040161030c906107f7565b60405180910390fd5b73ffffffffffffffffffffffffffffffffffffffff808516600090815260208190526040808220805487019055918716815220805484900390557fffffffffffffffffffffffffffffffffffffffffffffffffffffffffffffffff8110156103af5773ffffffffffffffffffffffffffffffffffffffff851660009081526001602090815260408083203384529091529020805484900390555b8373ffffffffffffffffffffffffffffffffffffffff168573ffffffffffffffffffffffffffffffffffffffff167fddf252ad1be2c89b69c2b068fc378daa952ba7f163c4a11628f55a4df523b3ef8560405161040c9190610854565b60405180910390a3506001949350505050565b60006020819052908152604090205481565b601281565b600160209081526000928352604080842090915290825290205481565b73ffffffffffffffffffffffffffffffffffffffff81166000908152602081905260409020545b919050565b6040518060400160405280600381526020017f564944000000000000000000000000000000000000000000000000000000000081525081565b60025460009073ffffffffffffffffffffffffffffffffffffffff1633141561050b5773ffffffffffffffffffffffffffffffffffffffff8316600090815260208190526040902080548301905561058d565b33600090815260208190526040902054821115610554576040517f08c379a000000000000000000000000000000000000000000000000000000000815260040161030c9061079a565b336000908152602081905260408082208054859003905573ffffffffffffffffffffffffffffffffffffffff8516825290208054830190555b8273ffffffffffffffffffffffffffffffffffffffff163373ffffffffffffffffffffffffffffffffffffffff167fddf252ad1be2c89b69c2b068fc378daa952ba7f163c4a11628f55a4df523b3ef8460405161025c9190610854565b73ffffffffffffffffffffffffffffffffffffffff918216600090815260016020908152604080832093909416825291909152205490565b803573ffffffffffffffffffffffffffffffffffffffff8116811461047a57600080fd5b600060208284031215610657578081fd5b61066082610622565b9392505050565b60008060408385031215610679578081fd5b61068283610622565b915061069060208401610622565b90509250929050565b6000806000606084860312156106ad578081fd5b6106b684610622565b92506106c460208501610622565b9150604084013590509250925092565b600080604083850312156106e6578182fd5b6106ef83610622565b946020939093013593505050565b73ffffffffffffffffffffffffffffffffffffffff91909116815260200190565b901515815260200190565b6000602080835283518082850152825b8181101561075557858101830151858201604001528201610739565b818111156107665783604083870101525b50601f017fffffffffffffffffffffffffffffffffffffffffffffffffffffffffffffffe016929092016040019392505050565b6020808252602f908201527f746f6b656e2062616c616e6365206973206c6f776572207468616e207468652060408201527f76616c7565207265717565737465640000000000000000000000000000000000606082015260800190565b60208082526039908201527f746f6b656e2062616c616e6365206f7220616c6c6f77616e6365206973206c6f60408201527f776572207468616e20616d6f756e742072657175657374656400000000000000606082015260800190565b90815260200190565b60ff9190911681526020019056fea264697066735822122059ef22424247067967322976fc364dd00dbf0cb5c58666214a9862b9adea8cf664736f6c63430007060033000000000000000000000000c02aaa39b223fe8d0a0e5c4f27ead9083c756cc2",
  "immutableReferences": {
    "3751": [
      {
        "length": 32,
        "start": 2427
      },
      {
        "length": 32,
        "start": 6076
      },
      {
        "length": 32,
        "start": 6203
      }
    ],
    "3757": [
      {
        "length": 32,
        "start": 6696
      },
      {
        "length": 32,
        "start": 7491
      },
      {
        "length": 32,
        "start": 10678
      }
    ],
    "3762": [
      {
        "length": 32,
        "start": 1562
      },
      {
        "length": 32,
        "start": 1963
      },
      {
        "length": 32,
        "start": 5757
      },
      {
        "length": 32,
        "start": 5901
      },
      {
        "length": 32,
        "start": 7560
      },
      {
        "length": 32,
        "start": 8178
      }
    ],
    "3767": [
      {
        "length": 32,
        "start": 1600
      },
      {
        "length": 32,
        "start": 2001
      },
      {
        "length": 32,
        "start": 4901
      },
      {
        "length": 32,
        "start": 7598
      },
      {
        "length": 32,
        "start": 7945
      }
    ],
    "3772": [
      {
        "length": 32,
        "start": 3719
      },
      {
        "length": 32,
        "start": 5275
      }
    ]
  },
  "source": "// SPDX-License-Identifier: MIT\r\npragma solidity 0.7.6;\r\npragma abicoder v2;\r\n\r\nimport \"@openzeppelin/contracts/token/ERC20/ERC20.sol\";\r\nimport \"@openzeppelin/contracts/math/SafeMath.sol\";\r\nimport \"@uniswap/v3-periphery/contracts/libraries/TransferHelper.sol\";\r\nimport \"@uniswap/v3-periphery/contracts/interfaces/ISwapRouter.sol\";\r\n\r\nimport \"./PriceOracle.sol\";\r\nimport \"./IndexToken.sol\";\r\nimport \"./DebtManager.sol\";\r\nimport \"../management/BaseProduct.sol\";\r\n\r\n\r\ncontract Index is Product {\r\n    using SafeMath for uint256;\r\n\r\n    struct TokenInfo {\r\n        uint8 indexPercentage;\r\n        address tokenAddress;\r\n        uint24[2] poolFees;\r\n        address intermediateToken;\r\n    }\r\n\r\n    TokenInfo[10] private tokens;\r\n    IndexToken public immutable indexToken;\r\n\r\n    address private immutable WETH = 0xC02aaA39b223FE8D0A0e5C4F27eAD9083C756Cc2;\r\n    address private immutable dexRouterAddress = 0xE592427A0AEce92De3Edee1F18E0157C05861564;\r\n\r\n    DebtManager private immutable sellDebtManager = new DebtManager();\r\n    DebtManager private immutable buyDebtManager = new DebtManager();\r\n    PriceOracle private immutable priceOracle = new PriceOracle();\r\n\r\n    uint private lastManagedToken = 0;\r\n    uint public tokensToSell = 0;\r\n    uint public tokensToBuy = 0;\r\n    uint private tokensSold = 0;\r\n    uint private buyAmountRequired = 0;\r\n    uint public constant maxTokens = 200000000000000000000;\r\n    uint public availableTokens = 200000000000000000000;\r\n\r\n    function name() external pure override returns (string memory) { return \"Index\"; }\r\n    function symbol() external pure override returns (string memory) { return \"VID\"; }\r\n    function getComponents() external view returns (TokenInfo[10] memory) { return tokens; }\r\n\r\n    function shortDescription() external pure override returns (string memory) {\r\n        return \"Void Index - fully decentralized index\";\r\n    }\r\n\r\n    function longDescription() external pure override returns (string memory) {\r\n        return \"Void Index - fully decentralized index. It features 17 ERC20 tokens, and allows you to buy or sell them at once. You receive VID tokens as a proof of funds ownership\";\r\n    }\r\n\r\n    function getTokenPrice(TokenInfo memory token) public view returns (uint256) {\r\n        return priceOracle.getPrice(buyTokenAddress, token.tokenAddress, token.poolFees, token.intermediateToken);\r\n    }\r\n\r\n    function image() external pure override returns (string memory) {\r\n        return \"https://voidmanagementstorage.blob.core.windows.net/assets/logo_index.png\";\r\n    }\r\n\r\n    function getTotalLockedValue() external view override returns (uint256) {\r\n        uint totalValue;\r\n\r\n        for (uint i = 0; i < tokens.length; i++) {\r\n            TokenInfo memory tokenInfo = tokens[i];\r\n            uint tokenUsdBalance = IERC20(tokenInfo.tokenAddress).balanceOf(address(this)).mul(getTokenPrice(tokenInfo));\r\n            totalValue = totalValue.add(tokenUsdBalance.div(1 ether));\r\n        }\r\n\r\n        return totalValue;\r\n    }\r\n\r\n    function getAvailableLiquidity() public view returns(uint){\r\n        uint minLiquidity;\r\n\r\n        for(uint i = 0; i < tokens.length; i++){\r\n\r\n            TokenInfo memory token = tokens[i];\r\n            uint poolLiquidity = priceOracle.getLiquidity(\r\n                buyTokenAddress,\r\n                token.tokenAddress,\r\n                token.poolFees,\r\n                token.intermediateToken\r\n            );\r\n\r\n            if(poolLiquidity < minLiquidity || minLiquidity == 0){\r\n                minLiquidity = poolLiquidity;\r\n            }\r\n        }\r\n\r\n        minLiquidity = minLiquidity.mul(1 ether).div(getPrice());\r\n        return minLiquidity;\r\n    }\r\n\r\n    constructor() {\r\n        indexToken = new IndexToken(address(this));\r\n\r\n        tokens[0] = TokenInfo({ // 0) WETH\r\n            tokenAddress: 0xC02aaA39b223FE8D0A0e5C4F27eAD9083C756Cc2,\r\n            poolFees: [uint24(3000), uint24(3000)],\r\n            intermediateToken: address(0),\r\n            indexPercentage: 25\r\n        });\r\n        tokens[1] = TokenInfo({ // 1) LINK\r\n            tokenAddress: 0x514910771AF9Ca656af840dff83E8264EcF986CA,\r\n            poolFees: [uint24(3000), uint24(3000)],\r\n            intermediateToken: 0xC02aaA39b223FE8D0A0e5C4F27eAD9083C756Cc2,\r\n            indexPercentage: 15\r\n        });\r\n        tokens[2] = TokenInfo({ // 3) UNI\r\n            tokenAddress: 0x1f9840a85d5aF5bf1D1762F925BDADdC4201F984,\r\n            poolFees: [uint24(3000), uint24(3000)],\r\n            intermediateToken: 0xC02aaA39b223FE8D0A0e5C4F27eAD9083C756Cc2,\r\n            indexPercentage: 20\r\n        });\r\n        tokens[3] = TokenInfo({ // 4) 1INCH\r\n            tokenAddress: 0x111111111117dC0aa78b770fA6A738034120C302,\r\n            poolFees: [uint24(3000), 10000],\r\n            intermediateToken: 0xC02aaA39b223FE8D0A0e5C4F27eAD9083C756Cc2,\r\n            indexPercentage: 10\r\n        });\r\n        tokens[4] = TokenInfo({ // 5) SNX\r\n            tokenAddress: 0xC011a73ee8576Fb46F5E1c5751cA3B9Fe0af2a6F,\r\n            poolFees: [uint24(3000), 10000],\r\n            intermediateToken: 0xC02aaA39b223FE8D0A0e5C4F27eAD9083C756Cc2,\r\n            indexPercentage: 5\r\n        });\r\n        tokens[5] = TokenInfo({ // 7) COMP\r\n            tokenAddress: 0xc00e94Cb662C3520282E6f5717214004A7f26888,\r\n            poolFees: [uint24(3000), uint24(3000)],\r\n            intermediateToken: 0xC02aaA39b223FE8D0A0e5C4F27eAD9083C756Cc2,\r\n            indexPercentage: 5\r\n        });\r\n        tokens[6] = TokenInfo({ // 8) MKR\r\n            tokenAddress: 0x9f8F72aA9304c8B593d555F12eF6589cC3A579A2,\r\n            poolFees: [uint24(3000), uint24(3000)],\r\n            intermediateToken: 0xC02aaA39b223FE8D0A0e5C4F27eAD9083C756Cc2,\r\n            indexPercentage: 3\r\n        });\r\n        tokens[7] = TokenInfo({ // 10) APE\r\n            tokenAddress: 0x4d224452801ACEd8B2F0aebE155379bb5D594381,\r\n            poolFees: [uint24(3000), uint24(3000)],\r\n            intermediateToken: 0xC02aaA39b223FE8D0A0e5C4F27eAD9083C756Cc2,\r\n            indexPercentage: 7\r\n        });\r\n        tokens[8] = TokenInfo({ // 13) AAVE\r\n            tokenAddress: 0x7Fc66500c84A76Ad7e9c93437bFc5Ac33E2DDaE9,\r\n            poolFees: [uint24(3000), uint24(3000)],\r\n            intermediateToken: 0xC02aaA39b223FE8D0A0e5C4F27eAD9083C756Cc2,\r\n            indexPercentage: 5\r\n        });\r\n        tokens[9] = TokenInfo({ // 14) MATIC\r\n            tokenAddress: 0x7D1AfA7B718fb893dB30A3aBc0Cfc608AaCfeBB0,\r\n            poolFees: [uint24(3000), uint24(3000)],\r\n            intermediateToken: 0xC02aaA39b223FE8D0A0e5C4F27eAD9083C756Cc2,\r\n            indexPercentage: 5\r\n        });\r\n        // tokens[2] = TokenInfo({ // 2) WBNB\r\n        //     tokenAddress: 0x418D75f65a02b3D53B2418FB8E1fe493759c7605,\r\n        //     poolFees: [uint24(3000), uint24(3000)],\r\n        //     intermediateToken: 0xC02aaA39b223FE8D0A0e5C4F27eAD9083C756Cc2,\r\n        //     indexPercentage: 10\r\n        // });\r\n        // tokens[6] = TokenInfo({ // 6) YFI\r\n        //     tokenAddress: 0x0bc529c00C6401aEF6D220BE8C6Ea1667F6Ad93e,\r\n        //     poolFees: [uint24(3000), uint24(3000)],\r\n        //     intermediateToken: 0xC02aaA39b223FE8D0A0e5C4F27eAD9083C756Cc2,\r\n        //     indexPercentage: 2\r\n        // });\r\n        // tokens[9] = TokenInfo({ // 9) SUSHI\r\n        //     tokenAddress: 0x6B3595068778DD592e39A122f4f5a5cF09C90fE2,\r\n        //     poolFees: [uint24(3000), uint24(3000)],\r\n        //     intermediateToken: 0xC02aaA39b223FE8D0A0e5C4F27eAD9083C756Cc2,\r\n        //     indexPercentage: 8\r\n        // });\r\n        // tokens[11] = TokenInfo({ // 11) CRV\r\n        //     tokenAddress: 0xD533a949740bb3306d119CC777fa900bA034cd52,\r\n        //     poolFees: [uint24(3000), 10000],\r\n        //     intermediateToken: 0xC02aaA39b223FE8D0A0e5C4F27eAD9083C756Cc2,\r\n        //     indexPercentage: 5\r\n        // });\r\n        // tokens[12] = TokenInfo({ // 12) LOOKS\r\n        //     tokenAddress: 0xf4d2888d29D722226FafA5d9B24F9164c092421E,\r\n        //     poolFees: [uint24(3000), uint24(3000)],\r\n        //     intermediateToken: 0xC02aaA39b223FE8D0A0e5C4F27eAD9083C756Cc2,\r\n        //     indexPercentage: 2\r\n        // });\r\n        // tokens[15] = TokenInfo({ // 14) FTX\r\n        //     tokenAddress: 0x50D1c9771902476076eCFc8B2A83Ad6b9355a4c9,\r\n        //     poolFees: [uint24(3000), uint24(3000)],\r\n        //     intermediateToken: 0xC02aaA39b223FE8D0A0e5C4F27eAD9083C756Cc2,\r\n        //     indexPercentage: 5\r\n        // });\r\n        // tokens[16] = TokenInfo({ // 15) GNOSIS\r\n        //     tokenAddress: 0x6810e776880C02933D47DB1b9fc05908e5386b96,\r\n        //     poolFees: [uint24(3000), uint24(3000)],\r\n        //     intermediateToken: 0xC02aaA39b223FE8D0A0e5C4F27eAD9083C756Cc2,\r\n        //     indexPercentage: 3\r\n        // });\r\n    }\r\n\r\n    function buy(uint256 amount) external override nonReentrant checkSettlement {\r\n        (uint productFee, uint256 realAmount) = calculateFee(amount);\r\n        require(realAmount > 0 && productFee > 0, \"Not enough tokens sent\");\r\n        require(getAvailableLiquidity() >= amount && realAmount <= availableTokens, \"Not enough liquidity\");\r\n\r\n        availableTokens = availableTokens.sub(realAmount);\r\n\r\n        uint256 indexPrice = getPrice();\r\n        uint buyTokenAmount = realAmount.mul(indexPrice).div(1 ether);\r\n\r\n        tokensToBuy = tokensToBuy.add(buyTokenAmount);\r\n        buyDebtManager.changeDebt(msg.sender, realAmount, true);\r\n\r\n        TransferHelper.safeTransferFrom(buyTokenAddress, msg.sender, address(this), amount.mul(indexPrice).div(1 ether));\r\n        TransferHelper.safeTransferFrom(buyTokenAddress, address(this), owner(), productFee.mul(indexPrice).div(2 ether));\r\n\r\n        emit ProductBought(msg.sender, buyTokenAmount, realAmount);\r\n    }\r\n\r\n    function sell(uint amount) external override nonReentrant checkSettlement{\r\n        (uint productFee, uint256 realAmount) = calculateFee(amount);\r\n        require(realAmount > 0 && productFee > 0, \"You must sell more tokens\");\r\n        require(getAvailableLiquidity() >= amount, \"Not enough liquidity\");\r\n\r\n        uint indexPrice = getPrice();\r\n\r\n        tokensToSell = tokensToSell.add(amount);\r\n        sellDebtManager.changeDebt(msg.sender, realAmount.mul(indexPrice).div(1 ether), true);\r\n        sellDebtManager.changeDebt(owner(), productFee.mul(indexPrice).div(1 ether), true);\r\n\r\n        TransferHelper.safeTransferFrom(address(indexToken), msg.sender, address(this), amount);\r\n        emit ProductSold(msg.sender, realAmount.mul(getPrice()), realAmount);\r\n    }\r\n\r\n    function retrieveDebt(uint amount, bool isBuyDebt) external nonReentrant checkSettlement{\r\n        DebtManager manager = isBuyDebt ? buyDebtManager : sellDebtManager;\r\n        require(manager.getTotalDebt() >= amount && manager.getUserDebt(msg.sender) >= amount, \"Not enough debt\");\r\n\r\n        address token = isBuyDebt ? address(indexToken) : buyTokenAddress;\r\n\r\n        TransferHelper.safeTransfer(token, msg.sender, amount);\r\n        manager.changeDebt(msg.sender, amount, false);\r\n        manager.changeTotalDebt(amount, false);\r\n    }\r\n\r\n    function getTotalDebt(bool isBuy) external view returns (uint) {\r\n        return (isBuy ? buyDebtManager : sellDebtManager).getTotalDebt();\r\n    }\r\n\r\n    function getUserDebt(address user, bool isBuy) external view returns (uint) {\r\n        return (isBuy ? buyDebtManager : sellDebtManager).getUserDebt(user);\r\n    }\r\n\r\n    function beginSettlement() override external onlyOwner{\r\n        isSettlement = true;\r\n\r\n        uint totalBuyFees = tokensToBuy.mul(productFee).div(productFeeTotal);\r\n        TransferHelper.safeApprove(buyTokenAddress, dexRouterAddress, tokensToBuy.add(totalBuyFees));\r\n    }\r\n\r\n    function endSettlement() override external onlyOwner {\r\n        buyDebtManager.changeTotalDebt(tokensToBuy.mul(1 ether).div(getPrice()), true);\r\n        sellDebtManager.changeTotalDebt(tokensSold, true);\r\n\r\n        if (buyAmountRequired < tokensToBuy && buyAmountRequired != 0) {\r\n            TransferHelper.safeTransfer(buyTokenAddress, owner(), tokensToBuy.sub(buyAmountRequired));\r\n        }\r\n\r\n        tokensToBuy = 0;\r\n        buyAmountRequired = 0;\r\n        tokensToSell = 0;\r\n        tokensSold = 0;\r\n        isSettlement = false;\r\n    }\r\n\r\n    function manageTokensSell(TokenInfo memory token, ISwapRouter dexRouter, uint amount, uint tokenPrice) private {\r\n        uint amountIn = amount.mul(getPrice()).mul(token.indexPercentage).div(100).div(tokenPrice);\r\n\r\n        uint usdAmountIn = amountIn.mul(tokenPrice).div(1 ether);\r\n        uint amountOutMinimum = usdAmountIn.sub(usdAmountIn.mul(productFee).mul(10).div(productFeeTotal));\r\n\r\n        TransferHelper.safeApprove(token.tokenAddress, dexRouterAddress, amountIn);\r\n\r\n        if(token.intermediateToken == address(0)){\r\n            tokensSold = tokensSold.add(dexRouter.exactInputSingle(\r\n                ISwapRouter.ExactInputSingleParams({\r\n                    tokenIn: token.tokenAddress,\r\n                    tokenOut: buyTokenAddress,\r\n                    fee: token.poolFees[0],\r\n                    recipient: address(this),\r\n                    deadline: block.timestamp,\r\n                    amountIn: amountIn,\r\n                    amountOutMinimum: amountOutMinimum,\r\n                    sqrtPriceLimitX96: 0\r\n                })\r\n            ));\r\n        }else{\r\n            tokensSold = tokensSold.add(dexRouter.exactInput(\r\n                ISwapRouter.ExactInputParams({\r\n                    path: abi.encodePacked(\r\n                        token.tokenAddress,\r\n                        token.poolFees[1],\r\n                        token.intermediateToken,\r\n                        token.poolFees[0],\r\n                        buyTokenAddress\r\n                    ),\r\n                    recipient: address(this),\r\n                    deadline: block.timestamp,\r\n                    amountIn: amountIn,\r\n                    amountOutMinimum: amountOutMinimum\r\n                })\r\n            ));\r\n        }\r\n    }\r\n\r\n    function manageTokensBuy(TokenInfo memory token, ISwapRouter dexRouter, uint amount, uint tokenPrice) private {\r\n        uint amountOut = amount.mul(1 ether).div(tokenPrice);\r\n        uint amountInMaximum = amount.add(amount.mul(productFee).mul(10).div(productFeeTotal));\r\n\r\n        if(token.intermediateToken == address(0)){\r\n            buyAmountRequired = buyAmountRequired.add(dexRouter.exactOutputSingle(\r\n                ISwapRouter.ExactOutputSingleParams({\r\n                    tokenIn: buyTokenAddress,\r\n                    tokenOut: token.tokenAddress,\r\n                    fee: token.poolFees[0],\r\n                    recipient: address(this),\r\n                    deadline: block.timestamp,\r\n                    amountOut: amountOut,\r\n                    amountInMaximum: amountInMaximum,\r\n                    sqrtPriceLimitX96: 0\r\n                })\r\n            ));\r\n        }else{\r\n            buyAmountRequired = buyAmountRequired.add(dexRouter.exactOutput(\r\n                ISwapRouter.ExactOutputParams({\r\n                    path: abi.encodePacked(\r\n                        token.tokenAddress,\r\n                        token.poolFees[1],\r\n                        token.intermediateToken,\r\n                        token.poolFees[0],\r\n                        buyTokenAddress\r\n                    ),\r\n                    recipient: address(this),\r\n                    deadline: block.timestamp,\r\n                    amountOut: amountOut,\r\n                    amountInMaximum: amountInMaximum\r\n                })\r\n            ));\r\n        }\r\n    }\r\n\r\n    function manageTokens() external onlyOwner {\r\n        lastManagedToken += 1;\r\n        if(lastManagedToken > tokens.length - 1){ lastManagedToken = 0; }\r\n\r\n        TokenInfo memory token = tokens[lastManagedToken];\r\n        uint tokensToBuyAmount = tokensToBuy.mul(token.indexPercentage).div(100);\r\n        uint tokenPrice = getTokenPrice(token);\r\n        ISwapRouter dexRouter = ISwapRouter(dexRouterAddress);\r\n\r\n        if(tokensToBuyAmount > 0){\r\n            manageTokensBuy(token, dexRouter, tokensToBuyAmount, tokenPrice);\r\n        }\r\n\r\n        if(tokensToSell > 0){\r\n            manageTokensSell(token, dexRouter, tokensToSell, tokenPrice);\r\n        }\r\n    }\r\n\r\n    function getPrice() public view override returns (uint) {\r\n        uint indexTotalPrice = 0;\r\n\r\n        for (uint i = 0; i < tokens.length; i++) {\r\n            indexTotalPrice = indexTotalPrice.add(getTokenPrice(tokens[i]).mul(tokens[i].indexPercentage));\r\n        }\r\n\r\n        return indexTotalPrice.div(100);\r\n    }\r\n\r\n}\r\n",
  "sourcePath": "D:\\JavascriptProjects\\crypto-index\\contracts\\indices\\Index.sol",
  "compiler": {
    "name": "solc",
    "version": "0.7.6+commit.7338295f.Emscripten.clang"
  },
  "schemaVersion": "3.4.7",
  "updatedAt": "2022-06-09T06:37:58.047Z",
  "devdoc": {
    "kind": "dev",
    "methods": {
      "owner()": {
        "details": "Returns the address of the current owner."
      },
      "renounceOwnership()": {
        "details": "Leaves the contract without owner. It will not be possible to call `onlyOwner` functions anymore. Can only be called by the current owner. NOTE: Renouncing ownership will leave the contract without an owner, thereby removing any functionality that is only available to the owner."
      },
      "transferOwnership(address)": {
        "details": "Transfers ownership of the contract to a new account (`newOwner`). Can only be called by the current owner."
      }
    },
    "version": 1
  },
  "userdoc": {
    "kind": "user",
    "methods": {},
    "version": 1
  }
}