{
  "contractName": "Index",
  "abi": [
    {
      "inputs": [],
      "stateMutability": "nonpayable",
      "type": "constructor"
    },
    {
      "anonymous": false,
      "inputs": [
        {
          "indexed": true,
          "internalType": "address",
          "name": "previousOwner",
          "type": "address"
        },
        {
          "indexed": true,
          "internalType": "address",
          "name": "newOwner",
          "type": "address"
        }
      ],
      "name": "OwnershipTransferred",
      "type": "event"
    },
    {
      "anonymous": false,
      "inputs": [
        {
          "indexed": false,
          "internalType": "address",
          "name": "account",
          "type": "address"
        },
        {
          "indexed": false,
          "internalType": "uint256",
          "name": "buyTokenAmount",
          "type": "uint256"
        },
        {
          "indexed": false,
          "internalType": "uint256",
          "name": "indexTokenAmount",
          "type": "uint256"
        }
      ],
      "name": "ProductBought",
      "type": "event"
    },
    {
      "anonymous": false,
      "inputs": [
        {
          "indexed": false,
          "internalType": "address",
          "name": "account",
          "type": "address"
        },
        {
          "indexed": false,
          "internalType": "uint256",
          "name": "buyTokenAmount",
          "type": "uint256"
        },
        {
          "indexed": false,
          "internalType": "uint256",
          "name": "indexTokenAmount",
          "type": "uint256"
        }
      ],
      "name": "ProductSold",
      "type": "event"
    },
    {
      "inputs": [],
      "name": "availableTokens",
      "outputs": [
        {
          "internalType": "uint256",
          "name": "",
          "type": "uint256"
        }
      ],
      "stateMutability": "view",
      "type": "function"
    },
    {
      "inputs": [],
      "name": "buyTokenAddress",
      "outputs": [
        {
          "internalType": "address",
          "name": "",
          "type": "address"
        }
      ],
      "stateMutability": "view",
      "type": "function"
    },
    {
      "inputs": [
        {
          "internalType": "uint256",
          "name": "amount",
          "type": "uint256"
        }
      ],
      "name": "calculateFee",
      "outputs": [
        {
          "internalType": "uint256",
          "name": "",
          "type": "uint256"
        },
        {
          "internalType": "uint256",
          "name": "",
          "type": "uint256"
        }
      ],
      "stateMutability": "view",
      "type": "function"
    },
    {
      "inputs": [
        {
          "internalType": "uint8",
          "name": "_fee",
          "type": "uint8"
        },
        {
          "internalType": "uint256",
          "name": "_feeTotal",
          "type": "uint256"
        }
      ],
      "name": "changeFee",
      "outputs": [],
      "stateMutability": "nonpayable",
      "type": "function"
    },
    {
      "inputs": [],
      "name": "getFee",
      "outputs": [
        {
          "internalType": "uint256",
          "name": "",
          "type": "uint256"
        },
        {
          "internalType": "uint256",
          "name": "",
          "type": "uint256"
        }
      ],
      "stateMutability": "view",
      "type": "function"
    },
    {
      "inputs": [],
      "name": "indexToken",
      "outputs": [
        {
          "internalType": "contract IndexToken",
          "name": "",
          "type": "address"
        }
      ],
      "stateMutability": "view",
      "type": "function"
    },
    {
      "inputs": [],
      "name": "isSettlementActive",
      "outputs": [
        {
          "internalType": "bool",
          "name": "",
          "type": "bool"
        }
      ],
      "stateMutability": "view",
      "type": "function"
    },
    {
      "inputs": [],
      "name": "owner",
      "outputs": [
        {
          "internalType": "address",
          "name": "",
          "type": "address"
        }
      ],
      "stateMutability": "view",
      "type": "function"
    },
    {
      "inputs": [],
      "name": "renounceOwnership",
      "outputs": [],
      "stateMutability": "nonpayable",
      "type": "function"
    },
    {
      "inputs": [],
      "name": "tokensToBuy",
      "outputs": [
        {
          "internalType": "uint256",
          "name": "",
          "type": "uint256"
        }
      ],
      "stateMutability": "view",
      "type": "function"
    },
    {
      "inputs": [],
      "name": "tokensToSell",
      "outputs": [
        {
          "internalType": "uint256",
          "name": "",
          "type": "uint256"
        }
      ],
      "stateMutability": "view",
      "type": "function"
    },
    {
      "inputs": [
        {
          "internalType": "address",
          "name": "newOwner",
          "type": "address"
        }
      ],
      "name": "transferOwnership",
      "outputs": [],
      "stateMutability": "nonpayable",
      "type": "function"
    },
    {
      "inputs": [],
      "name": "name",
      "outputs": [
        {
          "internalType": "string",
          "name": "",
          "type": "string"
        }
      ],
      "stateMutability": "pure",
      "type": "function"
    },
    {
      "inputs": [],
      "name": "symbol",
      "outputs": [
        {
          "internalType": "string",
          "name": "",
          "type": "string"
        }
      ],
      "stateMutability": "pure",
      "type": "function"
    },
    {
      "inputs": [],
      "name": "getComponents",
      "outputs": [
        {
          "components": [
            {
              "internalType": "uint8",
              "name": "indexPercentage",
              "type": "uint8"
            },
            {
              "internalType": "address",
              "name": "tokenAddress",
              "type": "address"
            },
            {
              "internalType": "uint24[2]",
              "name": "poolFees",
              "type": "uint24[2]"
            },
            {
              "internalType": "address",
              "name": "intermediateToken",
              "type": "address"
            }
          ],
          "internalType": "struct Index.TokenInfo[10]",
          "name": "",
          "type": "tuple[10]"
        }
      ],
      "stateMutability": "view",
      "type": "function"
    },
    {
      "inputs": [],
      "name": "shortDescription",
      "outputs": [
        {
          "internalType": "string",
          "name": "",
          "type": "string"
        }
      ],
      "stateMutability": "pure",
      "type": "function"
    },
    {
      "inputs": [],
      "name": "longDescription",
      "outputs": [
        {
          "internalType": "string",
          "name": "",
          "type": "string"
        }
      ],
      "stateMutability": "pure",
      "type": "function"
    },
    {
      "inputs": [
        {
          "components": [
            {
              "internalType": "uint8",
              "name": "indexPercentage",
              "type": "uint8"
            },
            {
              "internalType": "address",
              "name": "tokenAddress",
              "type": "address"
            },
            {
              "internalType": "uint24[2]",
              "name": "poolFees",
              "type": "uint24[2]"
            },
            {
              "internalType": "address",
              "name": "intermediateToken",
              "type": "address"
            }
          ],
          "internalType": "struct Index.TokenInfo",
          "name": "token",
          "type": "tuple"
        }
      ],
      "name": "getTokenPrice",
      "outputs": [
        {
          "internalType": "uint256",
          "name": "",
          "type": "uint256"
        }
      ],
      "stateMutability": "view",
      "type": "function"
    },
    {
      "inputs": [],
      "name": "image",
      "outputs": [
        {
          "internalType": "string",
          "name": "",
          "type": "string"
        }
      ],
      "stateMutability": "pure",
      "type": "function"
    },
    {
      "inputs": [],
      "name": "getTotalLockedValue",
      "outputs": [
        {
          "internalType": "uint256",
          "name": "",
          "type": "uint256"
        }
      ],
      "stateMutability": "view",
      "type": "function"
    },
    {
      "inputs": [],
      "name": "getAvailableLiquidity",
      "outputs": [
        {
          "internalType": "uint256",
          "name": "",
          "type": "uint256"
        }
      ],
      "stateMutability": "view",
      "type": "function"
    },
    {
      "inputs": [
        {
          "internalType": "uint256",
          "name": "amount",
          "type": "uint256"
        }
      ],
      "name": "buy",
      "outputs": [],
      "stateMutability": "nonpayable",
      "type": "function"
    },
    {
      "inputs": [
        {
          "internalType": "uint256",
          "name": "amount",
          "type": "uint256"
        }
      ],
      "name": "sell",
      "outputs": [],
      "stateMutability": "nonpayable",
      "type": "function"
    },
    {
      "inputs": [
        {
          "internalType": "uint256",
          "name": "amount",
          "type": "uint256"
        },
        {
          "internalType": "bool",
          "name": "isBuyDebt",
          "type": "bool"
        }
      ],
      "name": "retrieveDebt",
      "outputs": [],
      "stateMutability": "nonpayable",
      "type": "function"
    },
    {
      "inputs": [
        {
          "internalType": "bool",
          "name": "isBuy",
          "type": "bool"
        }
      ],
      "name": "getTotalDebt",
      "outputs": [
        {
          "internalType": "uint256",
          "name": "",
          "type": "uint256"
        }
      ],
      "stateMutability": "view",
      "type": "function"
    },
    {
      "inputs": [
        {
          "internalType": "address",
          "name": "user",
          "type": "address"
        },
        {
          "internalType": "bool",
          "name": "isBuy",
          "type": "bool"
        }
      ],
      "name": "getUserDebt",
      "outputs": [
        {
          "internalType": "uint256",
          "name": "",
          "type": "uint256"
        }
      ],
      "stateMutability": "view",
      "type": "function"
    },
    {
      "inputs": [],
      "name": "beginSettlement",
      "outputs": [],
      "stateMutability": "nonpayable",
      "type": "function"
    },
    {
      "inputs": [],
      "name": "endSettlement",
      "outputs": [],
      "stateMutability": "nonpayable",
      "type": "function"
    },
    {
      "inputs": [],
      "name": "manageTokens",
      "outputs": [],
      "stateMutability": "nonpayable",
      "type": "function"
    },
    {
      "inputs": [],
      "name": "getPrice",
      "outputs": [
        {
          "internalType": "uint256",
          "name": "",
          "type": "uint256"
        }
      ],
      "stateMutability": "view",
      "type": "function"
    }
  ],
  "bytecode": "0x61014060408190526002805460ff1916600517905560646003557fc02aaa39b223fe8d0a0e5c4f27ead9083c756cc200000000000000000000000060a0527fe592427a0aece92de3edee1f18e0157c0586156400000000000000000000000060c0526200006c906200098f565b604051809103906000f08015801562000089573d6000803e3d6000fd5b5060601b6001600160601b03191660e052604051620000a8906200098f565b604051809103906000f080158015620000c5573d6000803e3d6000fd5b5060601b6001600160601b03191661010052604051620000e5906200099d565b604051809103906000f08015801562000102573d6000803e3d6000fd5b5060601b6001600160601b03191661012052600060238190556024819055602581905560268190556027556028805460ff19169055685150ae84a8cdf000006029553480156200015157600080fd5b5060006200015e6200098b565b600080546001600160a01b0319166001600160a01b0383169081178255604051929350917f8be0079c531659141344cd1fd0a4f28419497f9722a3daafe3b4186f6b6457e0908290a35060018055602954604051309190620001c090620009ab565b620001cd92919062000a70565b604051809103906000f080158015620001ea573d6000803e3d6000fd5b506001600160601b0319606091821b1660809081526040805191820181526019825260008051602062006b6d833981519152602080840191825282518084018452610bb88082529181019190915291830182905260009383019390935281516005805494516001600160a01b031661010002610100600160a81b031960ff90931660ff19909616959095179190911693909317835590919062000292906006906002620009b9565b50606091820151600291820180546001600160a01b0319166001600160a01b0392831617905560408051608081018252600f815273514910771af9ca656af840dff83e8264ecf986ca602080830191825283518085018552610bb88082529181019190915292820183905260008051602062006b6d83398151915295820195909552805160088054965190941661010002610100600160a81b031960ff90921660ff19909716969096171694909417825590916200035391600991620009b9565b50606091820151600291820180546001600160a01b0319166001600160a01b039283161790556040805160808101825260148152731f9840a85d5af5bf1d1762f925bdaddc4201f984602080830191825283518085018552610bb88082529181019190915292820183905260008051602062006b6d833981519152958201959095528051600b8054965190941661010002610100600160a81b031960ff90921660ff19909716969096171694909417825590916200041491600c91620009b9565b50606091820151600291820180546001600160a01b0319166001600160a01b0392831617905560408051608081018252600a815273111111111117dc0aa78b770fa6a738034120c302602080830191825283518085018552610bb881526127109181019190915292820183905260008051602062006b6d833981519152958201959095528051600e8054965190941661010002610100600160a81b031960ff90921660ff1990971696909617169490941782559091620004d791600f91620009b9565b50606091820151600291820180546001600160a01b0319166001600160a01b03928316179055604080516080810182526005815273c011a73ee8576fb46f5e1c5751ca3b9fe0af2a6f602080830191825283518085018552610bb881526127109181019190915292820183905260008051602062006b6d83398151915295820195909552805160118054965190941661010002610100600160a81b031960ff90921660ff19909716969096171694909417825590916200059a91601291620009b9565b50606091820151600291820180546001600160a01b0319166001600160a01b03928316179055604080516080810182526005815273c00e94cb662c3520282e6f5717214004a7f26888602080830191825283518085018552610bb88082529181019190915292820183905260008051602062006b6d83398151915295820195909552805160148054965190941661010002610100600160a81b031960ff90921660ff19909716969096171694909417825590916200065b91601591620009b9565b50606091820151600291820180546001600160a01b0319166001600160a01b039283161790556040805160808101825260038152739f8f72aa9304c8b593d555f12ef6589cc3a579a2602080830191825283518085018552610bb88082529181019190915292820183905260008051602062006b6d83398151915295820195909552805160178054965190941661010002610100600160a81b031960ff90921660ff19909716969096171694909417825590916200071c91601891620009b9565b50606091820151600291820180546001600160a01b0319166001600160a01b039283161790556040805160808101825260078152734d224452801aced8b2f0aebe155379bb5d594381602080830191825283518085018552610bb88082529181019190915292820183905260008051602062006b6d833981519152958201959095528051601a8054965190941661010002610100600160a81b031960ff90921660ff1990971696909617169490941782559091620007dd91601b91620009b9565b50606091820151600291820180546001600160a01b0319166001600160a01b039283161790556040805160808101825260058152737fc66500c84a76ad7e9c93437bfc5ac33e2ddae9602080830191825283518085018552610bb88082529181019190915292820183905260008051602062006b6d833981519152958201959095528051601d8054965190941661010002610100600160a81b031960ff90921660ff19909716969096171694909417825590916200089e91601e91620009b9565b50606091820151600291820180546001600160a01b039283166001600160a01b03199091161790556040805160808101825260058152737d1afa7b718fb893db30a3abc0cfc608aacfebb0602080830191825283518085018552610bb88082528183015293830184905260008051602062006b6d8339815191529683019690965281518654915160ff1990921660ff90911617610100600160a81b03191661010091909416029290921784559092916200095b91602191620009b9565b5060609190910151600290910180546001600160a01b0319166001600160a01b0390921691909117905562000a89565b3390565b610ae3806200431983390190565b61145c8062004dfc83390190565b610915806200625883390190565b60018301918390821562000a475791602002820160005b8382111562000a1457835183826101000a81548162ffffff021916908362ffffff1602179055509260200192600301602081600201049283019260010302620009d0565b801562000a455782816101000a81549062ffffff021916905560030160208160020104928301926001030262000a14565b505b5062000a5592915062000a59565b5090565b5b8082111562000a55576000815560010162000a5a565b6001600160a01b03929092168252602082015260400190565b60805160601c60a05160601c60c05160601c60e05160601c6101005160601c6101205160601c6137f362000b2660003980610e78528061147c52508061062d52806107be52806113065280611dea5280611f815250806106075280610798528061165e52806116ee5280611dc4528061206a525080611a645280611d7f5280612a4552505080610968528061179d528061181c52506137f36000f3fe608060405234801561001057600080fd5b50600436106101da5760003560e01c80639b745aec11610104578063e4849b32116100a2578063f3ccaac011610071578063f3ccaac014610361578063f510d90814610369578063f76f691c14610371578063fa2dcd9314610384576101da565b8063e4849b321461032b578063e7d015f21461033e578063ea4c1b4514610346578063f2fde38b1461034e576101da565b8063c20120b5116100de578063c20120b5146102e8578063ced72f87146102fd578063d96a094a14610305578063e43e380314610318576101da565b80639b745aec146102d0578063b7597914146102d8578063ba25d944146102e0576101da565b80637805d4be1161017c57806395d89b411161014b57806395d89b411461028a57806398d5fdca1461029257806399a5d7471461029a57806399d50d5d146102bb576101da565b80637805d4be14610254578063782fa9c9146102675780638da5cb5b1461027a5780638e96347b14610282576101da565b80633d956691116101b85780633d9566911461021a57806360ebbf811461022f57806369bb4dc214610244578063715018a61461024c576101da565b806306fdde03146101df57806313a7e54e146101fd5780631da9896014610212575b600080fd5b6101e761038c565b6040516101f4919061343b565b60405180910390f35b61021061020b3660046130e9565b6103c3565b005b6101e76104a3565b6102226104c3565b6040516101f49190613617565b6102376104c9565b6040516101f491906132eb565b6102226104e1565b6102106104e7565b610222610262366004612fb2565b6105fe565b6102106102753660046130c7565b6106d2565b610237610aaf565b610222610acb565b6101e7610ad1565b610222610b08565b6102ad6102a8366004613097565b610c2d565b6040516101f4929190613630565b6102c3610c69565b6040516101f491906133b0565b610222610d5f565b610222610f54565b6101e76110f2565b6102f0611112565b6040516101f49190613430565b6102ad61111b565b610210610313366004613097565b611129565b610222610326366004612fcc565b61142d565b610210610339366004613097565b6114df565b61023761181a565b61021061183e565b61021061035c366004612f66565b611ab1565b6101e7611c52565b610210611c72565b61022261037f366004612f80565b611dbb565b610210611e9b565b60408051808201909152600581527f496e646578000000000000000000000000000000000000000000000000000000602082015290565b6103cb612170565b73ffffffffffffffffffffffffffffffffffffffff166103e9610aaf565b73ffffffffffffffffffffffffffffffffffffffff161461046b57604080517f08c379a000000000000000000000000000000000000000000000000000000000815260206004820181905260248201527f4f776e61626c653a2063616c6c6572206973206e6f7420746865206f776e6572604482015290519081900360640190fd5b600280547fffffffffffffffffffffffffffffffffffffffffffffffffffffffffffffff001660ff9390931692909217909155600355565b60606040518060600160405280602681526020016136aa60269139905090565b60245481565b736b175474e89094c44da98b954eedeac495271d0f81565b60295481565b6104ef612170565b73ffffffffffffffffffffffffffffffffffffffff1661050d610aaf565b73ffffffffffffffffffffffffffffffffffffffff161461058f57604080517f08c379a000000000000000000000000000000000000000000000000000000000815260206004820181905260248201527f4f776e61626c653a2063616c6c6572206973206e6f7420746865206f776e6572604482015290519081900360640190fd5b6000805460405173ffffffffffffffffffffffffffffffffffffffff909116907f8be0079c531659141344cd1fd0a4f28419497f9722a3daafe3b4186f6b6457e0908390a3600080547fffffffffffffffffffffffff0000000000000000000000000000000000000000169055565b60008161062b577f000000000000000000000000000000000000000000000000000000000000000061064d565b7f00000000000000000000000000000000000000000000000000000000000000005b73ffffffffffffffffffffffffffffffffffffffff166334ce998a6040518163ffffffff1660e01b815260040160206040518083038186803b15801561069257600080fd5b505afa1580156106a6573d6000803e3d6000fd5b505050506040513d601f19601f820116820180604052508101906106ca91906130af565b90505b919050565b6002600154141561074457604080517f08c379a000000000000000000000000000000000000000000000000000000000815260206004820152601f60248201527f5265656e7472616e637947756172643a207265656e7472616e742063616c6c00604482015290519081900360640190fd5b600260015560045460ff161561078f576040517f08c379a0000000000000000000000000000000000000000000000000000000008152600401610786906134f3565b60405180910390fd5b6000816107bc577f00000000000000000000000000000000000000000000000000000000000000006107de565b7f00000000000000000000000000000000000000000000000000000000000000005b9050828173ffffffffffffffffffffffffffffffffffffffff166334ce998a6040518163ffffffff1660e01b815260040160206040518083038186803b15801561082757600080fd5b505afa15801561083b573d6000803e3d6000fd5b505050506040513d601f19601f8201168201806040525081019061085f91906130af565b1015801561090f57506040517fe65896c9000000000000000000000000000000000000000000000000000000008152839073ffffffffffffffffffffffffffffffffffffffff83169063e65896c9906108bc9033906004016132eb565b60206040518083038186803b1580156108d457600080fd5b505afa1580156108e8573d6000803e3d6000fd5b505050506040513d601f19601f8201168201806040525081019061090c91906130af565b10155b610945576040517f08c379a0000000000000000000000000000000000000000000000000000000008152600401610786906134bc565b60008261096657736b175474e89094c44da98b954eedeac495271d0f610988565b7f00000000000000000000000000000000000000000000000000000000000000005b9050610995813386612174565b6040517fcca5e4b100000000000000000000000000000000000000000000000000000000815273ffffffffffffffffffffffffffffffffffffffff83169063cca5e4b1906109ec903390889060009060040161330c565b600060405180830381600087803b158015610a0657600080fd5b505af1158015610a1a573d6000803e3d6000fd5b50506040517ff8c493d600000000000000000000000000000000000000000000000000000000815273ffffffffffffffffffffffffffffffffffffffff8516925063f8c493d69150610a73908790600090600401613620565b600060405180830381600087803b158015610a8d57600080fd5b505af1158015610aa1573d6000803e3d6000fd5b505060018055505050505050565b60005473ffffffffffffffffffffffffffffffffffffffff1690565b60255481565b60408051808201909152600381527f5649440000000000000000000000000000000000000000000000000000000000602082015290565b600080805b600a811015610c1a57610c10610c09600583600a8110610b2957fe5b600302015460ff16610c03600585600a8110610b4157fe5b6040805160808101825260039290920292909201805460ff81168352610100900473ffffffffffffffffffffffffffffffffffffffff166020830152825180840180855292939192918401916001840190600290826000855b82829054906101000a900462ffffff1662ffffff1681526020019060030190602082600201049283019260010382029150808411610b9a575050509284525050506002919091015473ffffffffffffffffffffffffffffffffffffffff1660209091015261142d565b90612350565b83906123c3565b9150600101610b0d565b50610c27816103e8612437565b91505090565b60035460025460009182918291610c5291610c4c90879060ff16612350565b90612437565b905080610c5f85826124b8565b9250925050915091565b610c71612ea9565b6040805161014081019091526005600a6000835b82821015610d565760408051608081018252600384028601805460ff81168352610100900473ffffffffffffffffffffffffffffffffffffffff166020830152825180840180855292939192918401916001840190600290826000855b82829054906101000a900462ffffff1662ffffff1681526020019060030190602082600201049283019260010382029150808411610ce2575050509284525050506002919091015473ffffffffffffffffffffffffffffffffffffffff166020918201529082526001929092019101610c85565b50505050905090565b60008060005b600a811015610f36576000600582600a8110610d7d57fe5b6040805160808101825260039290920292909201805460ff81168352610100900473ffffffffffffffffffffffffffffffffffffffff166020830152825180840180855292939192918401916001840190600290826000855b82829054906101000a900462ffffff1662ffffff1681526020019060030190602082600201049283019260010382029150808411610dd6575050509284525050506002919091015473ffffffffffffffffffffffffffffffffffffffff90811660209283015290820151604080840151606085015191517fad72a0a10000000000000000000000000000000000000000000000000000000081529495506000947f00000000000000000000000000000000000000000000000000000000000000009094169363ad72a0a193610ec593736b175474e89094c44da98b954eedeac495271d0f93919260040161336a565b60206040518083038186803b158015610edd57600080fd5b505afa158015610ef1573d6000803e3d6000fd5b505050506040513d601f19601f82011682018060405250810190610f1591906130af565b905083811080610f23575083155b15610f2c578093505b5050600101610d65565b50610c27610f42610b08565b610c4c83670de0b6b3a7640000612350565b60008060005b600a8110156110df576000600582600a8110610f7257fe5b6040805160808101825260039290920292909201805460ff81168352610100900473ffffffffffffffffffffffffffffffffffffffff166020830152825180840180855292939192918401916001840190600290826000855b82829054906101000a900462ffffff1662ffffff1681526020019060030190602082600201049283019260010382029150808411610fcb575050509284525050506002919091015473ffffffffffffffffffffffffffffffffffffffff1660209091015290506110d46110cd6110408361142d565b836020015173ffffffffffffffffffffffffffffffffffffffff166370a08231306040518263ffffffff1660e01b815260040161107d91906132eb565b60206040518083038186803b15801561109557600080fd5b505afa1580156110a9573d6000803e3d6000fd5b505050506040513d601f19601f82011682018060405250810190610c0391906130af565b84906123c3565b925050600101610f5a565b50610c2781670de0b6b3a7640000612437565b60606040518060e0016040528060a5815260200161371960a59139905090565b60045460ff1690565b60025460035460ff90911691565b6002600154141561119b57604080517f08c379a000000000000000000000000000000000000000000000000000000000815260206004820152601f60248201527f5265656e7472616e637947756172643a207265656e7472616e742063616c6c00604482015290519081900360640190fd5b600260015560045460ff16156111dd576040517f08c379a0000000000000000000000000000000000000000000000000000000008152600401610786906134f3565b6000806111e983610c2d565b915091506000811180156111fd5750600082115b611233576040517f08c379a00000000000000000000000000000000000000000000000000000000081526004016107869061344e565b8261123c610d5f565b1015801561124c57506029548111155b611282576040517f08c379a000000000000000000000000000000000000000000000000000000000815260040161078690613587565b60295461128f90826124b8565b602955600061129c610b08565b905060006112b6670de0b6b3a7640000610c4c8585612350565b6025549091506112c690826123c3565b6025556040517fcca5e4b100000000000000000000000000000000000000000000000000000000815273ffffffffffffffffffffffffffffffffffffffff7f0000000000000000000000000000000000000000000000000000000000000000169063cca5e4b190611340903390879060019060040161330c565b600060405180830381600087803b15801561135a57600080fd5b505af115801561136e573d6000803e3d6000fd5b505050506113b0736b175474e89094c44da98b954eedeac495271d0f33306113ab670de0b6b3a7640000610c4c888c61235090919063ffffffff16565b61252f565b6113e7736b175474e89094c44da98b954eedeac495271d0f306113d1610aaf565b6113ab671bc16d674ec80000610c4c8a89612350565b7fc032f62758cac23a902e648ab54b6825665b9bc19e7cd0a8ab915cbf3eea4fa033828560405161141a9392919061333c565b60405180910390a1505060018055505050565b6020810151604080830151606084015191517fc5f0e3b400000000000000000000000000000000000000000000000000000000815260009373ffffffffffffffffffffffffffffffffffffffff7f0000000000000000000000000000000000000000000000000000000000000000169363c5f0e3b4936114c793736b175474e89094c44da98b954eedeac495271d0f93929060040161336a565b60206040518083038186803b15801561069257600080fd5b6002600154141561155157604080517f08c379a000000000000000000000000000000000000000000000000000000000815260206004820152601f60248201527f5265656e7472616e637947756172643a207265656e7472616e742063616c6c00604482015290519081900360640190fd5b600260015560045460ff1615611593576040517f08c379a0000000000000000000000000000000000000000000000000000000008152600401610786906134f3565b60008061159f83610c2d565b915091506000811180156115b35750600082115b6115e9576040517f08c379a0000000000000000000000000000000000000000000000000000000008152600401610786906135be565b826115f2610d5f565b101561162a576040517f08c379a000000000000000000000000000000000000000000000000000000000815260040161078690613587565b6000611634610b08565b60245490915061164490856123c3565b60245573ffffffffffffffffffffffffffffffffffffffff7f00000000000000000000000000000000000000000000000000000000000000001663cca5e4b13361169a670de0b6b3a7640000610c4c8787612350565b60016040518463ffffffff1660e01b81526004016116ba9392919061330c565b600060405180830381600087803b1580156116d457600080fd5b505af11580156116e8573d6000803e3d6000fd5b505050507f000000000000000000000000000000000000000000000000000000000000000073ffffffffffffffffffffffffffffffffffffffff1663cca5e4b1611730610aaf565b611746670de0b6b3a7640000610c4c8887612350565b60016040518463ffffffff1660e01b81526004016117669392919061330c565b600060405180830381600087803b15801561178057600080fd5b505af1158015611794573d6000803e3d6000fd5b505050506117c47f000000000000000000000000000000000000000000000000000000000000000033308761252f565b7fc779ed4173ee0a3293a6575326fb4fcb5c81023bbc481cf910100c0fbe836e33336117f86117f1610b08565b8590612350565b846040516118089392919061333c565b60405180910390a15050600180555050565b7f000000000000000000000000000000000000000000000000000000000000000081565b611846612170565b73ffffffffffffffffffffffffffffffffffffffff16611864610aaf565b73ffffffffffffffffffffffffffffffffffffffff16146118e657604080517f08c379a000000000000000000000000000000000000000000000000000000000815260206004820181905260248201527f4f776e61626c653a2063616c6c6572206973206e6f7420746865206f776e6572604482015290519081900360640190fd5b60285460ff1615611923576040517f08c379a000000000000000000000000000000000000000000000000000000000815260040161078690613485565b602380546001019081905560091015611967576000602355602880547fffffffffffffffffffffffffffffffffffffffffffffffffffffffffffffff001660011790555b60006005602354600a811061197857fe5b6040805160808101825260039290920292909201805460ff81168352610100900473ffffffffffffffffffffffffffffffffffffffff166020830152825180840180855292939192918401916001840190600290826000855b82829054906101000a900462ffffff1662ffffff16815260200190600301906020826002010492830192600103820291508084116119d1575050509284525050506002919091015473ffffffffffffffffffffffffffffffffffffffff166020909101528051602554919250600091611a5391606491610c4c9160ff16612350565b90506000611a608361142d565b90507f00000000000000000000000000000000000000000000000000000000000000008215611a9557611a9584828585612714565b60245415611aab57611aab8482602454856129c7565b50505050565b611ab9612170565b73ffffffffffffffffffffffffffffffffffffffff16611ad7610aaf565b73ffffffffffffffffffffffffffffffffffffffff1614611b5957604080517f08c379a000000000000000000000000000000000000000000000000000000000815260206004820181905260248201527f4f776e61626c653a2063616c6c6572206973206e6f7420746865206f776e6572604482015290519081900360640190fd5b73ffffffffffffffffffffffffffffffffffffffff8116611bc5576040517f08c379a00000000000000000000000000000000000000000000000000000000081526004018080602001828103825260268152602001806136636026913960400191505060405180910390fd5b6000805460405173ffffffffffffffffffffffffffffffffffffffff808516939216917f8be0079c531659141344cd1fd0a4f28419497f9722a3daafe3b4186f6b6457e091a3600080547fffffffffffffffffffffffff00000000000000000000000000000000000000001673ffffffffffffffffffffffffffffffffffffffff92909216919091179055565b60606040518060800160405280604981526020016136d060499139905090565b611c7a612170565b73ffffffffffffffffffffffffffffffffffffffff16611c98610aaf565b73ffffffffffffffffffffffffffffffffffffffff1614611d1a57604080517f08c379a000000000000000000000000000000000000000000000000000000000815260206004820181905260248201527f4f776e61626c653a2063616c6c6572206973206e6f7420746865206f776e6572604482015290519081900360640190fd5b600480547fffffffffffffffffffffffffffffffffffffffffffffffffffffffffffffff00166001179055600354600254602554600092611d63929091610c4c9160ff16612350565b9050611db8736b175474e89094c44da98b954eedeac495271d0f7f0000000000000000000000000000000000000000000000000000000000000000611db3846025546123c390919063ffffffff16565b612cd4565b50565b600081611de8577f0000000000000000000000000000000000000000000000000000000000000000611e0a565b7f00000000000000000000000000000000000000000000000000000000000000005b73ffffffffffffffffffffffffffffffffffffffff1663e65896c9846040518263ffffffff1660e01b8152600401611e4291906132eb565b60206040518083038186803b158015611e5a57600080fd5b505afa158015611e6e573d6000803e3d6000fd5b505050506040513d601f19601f82011682018060405250810190611e9291906130af565b90505b92915050565b611ea3612170565b73ffffffffffffffffffffffffffffffffffffffff16611ec1610aaf565b73ffffffffffffffffffffffffffffffffffffffff1614611f4357604080517f08c379a000000000000000000000000000000000000000000000000000000000815260206004820181905260248201527f4f776e61626c653a2063616c6c6572206973206e6f7420746865206f776e6572604482015290519081900360640190fd5b60285460ff16611f7f576040517f08c379a000000000000000000000000000000000000000000000000000000000815260040161078690613550565b7f000000000000000000000000000000000000000000000000000000000000000073ffffffffffffffffffffffffffffffffffffffff1663f8c493d6611fdb611fc6610b08565b602554610c4c90670de0b6b3a7640000612350565b60016040518363ffffffff1660e01b8152600401611ffa929190613620565b600060405180830381600087803b15801561201457600080fd5b505af1158015612028573d6000803e3d6000fd5b50506026546040517ff8c493d600000000000000000000000000000000000000000000000000000000815273ffffffffffffffffffffffffffffffffffffffff7f000000000000000000000000000000000000000000000000000000000000000016935063f8c493d692506120a39190600190600401613620565b600060405180830381600087803b1580156120bd57600080fd5b505af11580156120d1573d6000803e3d6000fd5b505050506025546027541080156120ea575060285460ff165b1561212357612123736b175474e89094c44da98b954eedeac495271d0f61210f610aaf565b60275460255461211e916124b8565b612174565b60006025819055602880547fffffffffffffffffffffffffffffffffffffffffffffffffffffffffffffff0090811690915560278290556024829055602691909155600480549091169055565b3390565b6040805173ffffffffffffffffffffffffffffffffffffffff8481166024830152604480830185905283518084039091018152606490920183526020820180517bffffffffffffffffffffffffffffffffffffffffffffffffffffffff167fa9059cbb000000000000000000000000000000000000000000000000000000001781529251825160009485949389169392918291908083835b6020831061224957805182527fffffffffffffffffffffffffffffffffffffffffffffffffffffffffffffffe0909201916020918201910161220c565b6001836020036101000a0380198251168184511680821785525050505050509050019150506000604051808303816000865af19150503d80600081146122ab576040519150601f19603f3d011682016040523d82523d6000602084013e6122b0565b606091505b50915091508180156122de5750805115806122de57508080602001905160208110156122db57600080fd5b50515b61234957604080517f08c379a000000000000000000000000000000000000000000000000000000000815260206004820152600260248201527f5354000000000000000000000000000000000000000000000000000000000000604482015290519081900360640190fd5b5050505050565b60008261235f57506000611e95565b8282028284828161236c57fe5b0414611e92576040517f08c379a00000000000000000000000000000000000000000000000000000000081526004018080602001828103825260218152602001806136896021913960400191505060405180910390fd5b600082820183811015611e9257604080517f08c379a000000000000000000000000000000000000000000000000000000000815260206004820152601b60248201527f536166654d6174683a206164646974696f6e206f766572666c6f770000000000604482015290519081900360640190fd5b60008082116124a757604080517f08c379a000000000000000000000000000000000000000000000000000000000815260206004820152601a60248201527f536166654d6174683a206469766973696f6e206279207a65726f000000000000604482015290519081900360640190fd5b8183816124b057fe5b049392505050565b60008282111561252957604080517f08c379a000000000000000000000000000000000000000000000000000000000815260206004820152601e60248201527f536166654d6174683a207375627472616374696f6e206f766572666c6f770000604482015290519081900360640190fd5b50900390565b6040805173ffffffffffffffffffffffffffffffffffffffff85811660248301528481166044830152606480830185905283518084039091018152608490920183526020820180517bffffffffffffffffffffffffffffffffffffffffffffffffffffffff167f23b872dd00000000000000000000000000000000000000000000000000000000178152925182516000948594938a169392918291908083835b6020831061260c57805182527fffffffffffffffffffffffffffffffffffffffffffffffffffffffffffffffe090920191602091820191016125cf565b6001836020036101000a0380198251168184511680821785525050505050509050019150506000604051808303816000865af19150503d806000811461266e576040519150601f19603f3d011682016040523d82523d6000602084013e612673565b606091505b50915091508180156126a15750805115806126a1575080806020019051602081101561269e57600080fd5b50515b61270c57604080517f08c379a000000000000000000000000000000000000000000000000000000000815260206004820152600360248201527f5354460000000000000000000000000000000000000000000000000000000000604482015290519081900360640190fd5b505050505050565b600061272c82610c4c85670de0b6b3a7640000612350565b60035460025491925060009161275c9161275591610c4c90600a90610c03908a9060ff16612350565b85906123c3565b606087015190915073ffffffffffffffffffffffffffffffffffffffff166128e1576128d98573ffffffffffffffffffffffffffffffffffffffff1663db3e2198604051806101000160405280736b175474e89094c44da98b954eedeac495271d0f73ffffffffffffffffffffffffffffffffffffffff1681526020018a6020015173ffffffffffffffffffffffffffffffffffffffff1681526020018a6040015160006002811061280a57fe5b602002015162ffffff1681526020013073ffffffffffffffffffffffffffffffffffffffff168152602001428152602001868152602001858152602001600073ffffffffffffffffffffffffffffffffffffffff168152506040518263ffffffff1660e01b815260040161287e9190613608565b602060405180830381600087803b15801561289857600080fd5b505af11580156128ac573d6000803e3d6000fd5b505050506040513d601f19601f820116820180604052508101906128d091906130af565b602754906123c3565b60275561270c565b6129bc8573ffffffffffffffffffffffffffffffffffffffff1663f28c04986040518060a001604052808a602001518b6040015160016002811061292157fe5b602002015160608d015160408e015160006020020151736b175474e89094c44da98b954eedeac495271d0f60405160200161296095949392919061326e565b60405160208183030381529060405281526020013073ffffffffffffffffffffffffffffffffffffffff168152602001428152602001868152602001858152506040518263ffffffff1660e01b815260040161287e91906135f5565b602755505050505050565b60006129ef82610c4c6064610c4c896000015160ff16610c036129e8610b08565b8a90612350565b90506000612a09670de0b6b3a7640000610c4c8486612350565b600354600254919250600091612a3991612a3291610c4c90600a90610c0390889060ff16612350565b83906124b8565b9050612a6a87602001517f000000000000000000000000000000000000000000000000000000000000000085612cd4565b606087015173ffffffffffffffffffffffffffffffffffffffff16612bec57612be48673ffffffffffffffffffffffffffffffffffffffff1663414bf3896040518061010001604052808b6020015173ffffffffffffffffffffffffffffffffffffffff168152602001736b175474e89094c44da98b954eedeac495271d0f73ffffffffffffffffffffffffffffffffffffffff1681526020018b60400151600060028110612b1557fe5b602002015162ffffff1681526020013073ffffffffffffffffffffffffffffffffffffffff168152602001428152602001878152602001858152602001600073ffffffffffffffffffffffffffffffffffffffff168152506040518263ffffffff1660e01b8152600401612b899190613608565b602060405180830381600087803b158015612ba357600080fd5b505af1158015612bb7573d6000803e3d6000fd5b505050506040513d601f19601f82011682018060405250810190612bdb91906130af565b602654906123c3565b602655612ccb565b612cc78673ffffffffffffffffffffffffffffffffffffffff1663c04b8d596040518060a001604052808b602001518c60400151600160028110612c2c57fe5b602002015160608e015160408f015160006020020151736b175474e89094c44da98b954eedeac495271d0f604051602001612c6b95949392919061326e565b60405160208183030381529060405281526020013073ffffffffffffffffffffffffffffffffffffffff168152602001428152602001878152602001858152506040518263ffffffff1660e01b8152600401612b8991906135f5565b6026555b50505050505050565b6040805173ffffffffffffffffffffffffffffffffffffffff8481166024830152604480830185905283518084039091018152606490920183526020820180517bffffffffffffffffffffffffffffffffffffffffffffffffffffffff167f095ea7b3000000000000000000000000000000000000000000000000000000001781529251825160009485949389169392918291908083835b60208310612da957805182527fffffffffffffffffffffffffffffffffffffffffffffffffffffffffffffffe09092019160209182019101612d6c565b6001836020036101000a0380198251168184511680821785525050505050509050019150506000604051808303816000865af19150503d8060008114612e0b576040519150601f19603f3d011682016040523d82523d6000602084013e612e10565b606091505b5091509150818015612e3e575080511580612e3e5750808060200190516020811015612e3b57600080fd5b50515b61234957604080517f08c379a000000000000000000000000000000000000000000000000000000000815260206004820152600260248201527f5341000000000000000000000000000000000000000000000000000000000000604482015290519081900360640190fd5b604051806101400160405280600a905b612ec1612ed7565b815260200190600190039081612eb95790505090565b6040805160808101825260008082526020820152908101612ef6612f03565b8152600060209091015290565b60405180604001604052806002906020820280368337509192915050565b803573ffffffffffffffffffffffffffffffffffffffff811681146106cd57600080fd5b803580151581146106cd57600080fd5b803560ff811681146106cd57600080fd5b600060208284031215612f77578081fd5b611e9282612f21565b60008060408385031215612f92578081fd5b612f9b83612f21565b9150612fa960208401612f45565b90509250929050565b600060208284031215612fc3578081fd5b611e9282612f45565b600060a08284031215612fdd578081fd5b6040516080810167ffffffffffffffff81118282101715612ffa57fe5b60405261300683612f55565b81526020613015818501612f21565b8183015284605f850112613027578283fd5b613031604061363e565b80604086016080870188811115613046578687fd5b865b600281101561307557823562ffffff81168114613063578889fd5b85529385019391850191600101613048565b5082604087015261308581612f21565b60608701525093979650505050505050565b6000602082840312156130a8578081fd5b5035919050565b6000602082840312156130c0578081fd5b5051919050565b600080604083850312156130d9578182fd5b82359150612fa960208401612f45565b600080604083850312156130fb578182fd5b61310483612f55565b946020939093013593505050565b8060005b6002811015611aab57815162ffffff16845260209384019390910190600101613116565b60008151808452815b8181101561315f57602081850181015186830182015201613143565b818111156131705782602083870101525b50601f017fffffffffffffffffffffffffffffffffffffffffffffffffffffffffffffffe0169290920160200192915050565b6000815160a084526131b860a085018261313a565b60208481015173ffffffffffffffffffffffffffffffffffffffff1690860152604080850151908601526060808501519086015260809384015193909401929092525090919050565b805173ffffffffffffffffffffffffffffffffffffffff908116835260208083015182169084015260408083015162ffffff16908401526060808301518216908401526080808301519084015260a0828101519084015260c0808301519084015260e09182015116910152565b7fffffffffffffffffffffffffffffffffffffffff000000000000000000000000606096871b811682527fffffff000000000000000000000000000000000000000000000000000000000060e896871b8116601484015294871b811660178301529290941b909216602b840152921b909116602e82015260420190565b73ffffffffffffffffffffffffffffffffffffffff91909116815260200190565b73ffffffffffffffffffffffffffffffffffffffff93909316835260208301919091521515604082015260600190565b73ffffffffffffffffffffffffffffffffffffffff9390931683526020830191909152604082015260600190565b73ffffffffffffffffffffffffffffffffffffffff8581168252848116602083015260a082019061339e6040840186613112565b80841660808401525095945050505050565b6106408101818360005b600a811015613427578151805160ff16845260208082015173ffffffffffffffffffffffffffffffffffffffff9081168287015260408084015190919061340383890182613112565b5060609390930151909216608086015260a0909401939290920191506001016133ba565b50505092915050565b901515815260200190565b600060208252611e92602083018461313a565b60208082526016908201527f4e6f7420656e6f75676820746f6b656e732073656e7400000000000000000000604082015260600190565b60208082526016908201527f546f6b656e7320616c7265616479206d616e6167656400000000000000000000604082015260600190565b6020808252600f908201527f4e6f7420656e6f75676820646562740000000000000000000000000000000000604082015260600190565b60208082526029908201527f50726f64756374206973206265696e6720736574746c65642c2074727920616760408201527f61696e206c617465720000000000000000000000000000000000000000000000606082015260800190565b6020808252601b908201527f4e6f7420616c6c20746f6b656e732077657265206d616e616765640000000000604082015260600190565b60208082526014908201527f4e6f7420656e6f756768206c6971756964697479000000000000000000000000604082015260600190565b60208082526019908201527f596f75206d7573742073656c6c206d6f726520746f6b656e7300000000000000604082015260600190565b600060208252611e9260208301846131a3565b6101008101611e958284613201565b90815260200190565b9182521515602082015260400190565b918252602082015260400190565b60405181810167ffffffffffffffff8111828210171561365a57fe5b60405291905056fe4f776e61626c653a206e6577206f776e657220697320746865207a65726f2061646472657373536166654d6174683a206d756c7469706c69636174696f6e206f766572666c6f77566f696420496e646578202d2066756c6c7920646563656e7472616c697a656420696e64657868747470733a2f2f766f69646d616e6167656d656e7473746f726167652e626c6f622e636f72652e77696e646f77732e6e65742f6173736574732f6c6f676f5f696e6465782e706e67566f696420496e646578202d2066756c6c7920646563656e7472616c697a656420696e6465782e20497420666561747572657320313020455243323020746f6b656e732c20616e6420616c6c6f777320796f7520746f20627579206f722073656c6c207468656d206174206f6e63652e20596f7520726563656976652056494420746f6b656e7320617320612070726f6f66206f662066756e6473206f776e657273686970a26469706673582212201c5e6ed26e50d68e7bd24670bc3e19d981584922176c4386831b744d760f239664736f6c6343000706003360806040526040516100109061005f565b604051809103906000f08015801561002c573d6000803e3d6000fd5b50600180546001600160a01b0319166001600160a01b039290921691909117905534801561005957600080fd5b5061006c565b61045d8061068683390190565b61060b8061007b6000396000f3fe608060405234801561001057600080fd5b50600436106100675760003560e01c8063e2842d7911610050578063e2842d79146100c9578063e65896c914610121578063f8c493d61461015457610067565b806334ce998a1461006c578063cca5e4b114610086575b600080fd5b610074610179565b60408051918252519081900360200190f35b6100c76004803603606081101561009c57600080fd5b5073ffffffffffffffffffffffffffffffffffffffff8135169060208101359060400135151561017f565b005b6100d1610270565b60408051602080825283518183015283519192839290830191858101910280838360005b8381101561010d5781810151838201526020016100f5565b505050509050019250505060405180910390f35b6100746004803603602081101561013757600080fd5b503573ffffffffffffffffffffffffffffffffffffffff166103c7565b6100c76004803603604081101561016a57600080fd5b50803590602001351515610470565b60005490565b600154604080517fcca5e4b100000000000000000000000000000000000000000000000000000000815273ffffffffffffffffffffffffffffffffffffffff86811660048301526024820186905284151560448301529151919092169163cca5e4b191606480830192600092919082900301818387803b15801561020257600080fd5b505af1158015610216573d6000803e3d6000fd5b50506040805173ffffffffffffffffffffffffffffffffffffffff871681526020810186905281517fbdbcd24495abd6f63a1ff87418df04429000c6f9d53015ef4d5c91f353d827429450908190039091019150a1505050565b600154604080517fe2842d79000000000000000000000000000000000000000000000000000000008152905160609273ffffffffffffffffffffffffffffffffffffffff169163e2842d79916004808301926000929190829003018186803b1580156102db57600080fd5b505afa1580156102ef573d6000803e3d6000fd5b505050506040513d6000823e601f3d9081017fffffffffffffffffffffffffffffffffffffffffffffffffffffffffffffffe0168201604052602081101561033657600080fd5b810190808051604051939291908464010000000082111561035657600080fd5b90830190602082018581111561036b57600080fd5b825186602082028301116401000000008211171561038857600080fd5b82525081516020918201928201910280838360005b838110156103b557818101518382015260200161039d565b50505050905001604052505050905090565b600154604080517fe65896c900000000000000000000000000000000000000000000000000000000815273ffffffffffffffffffffffffffffffffffffffff84811660048301529151600093929092169163e65896c991602480820192602092909190829003018186803b15801561043e57600080fd5b505afa158015610452573d6000803e3d6000fd5b505050506040513d602081101561046857600080fd5b505192915050565b801561048b5760005461048390836104e3565b60005561049c565b600054610498908361055e565b6000555b600054604080519182526020820184905282151582820152517fe3a346931856fab43b7f9bcf4167ed53663e69d0195323a374d0f89a432d0f439181900360600190a15050565b60008282018381101561055757604080517f08c379a000000000000000000000000000000000000000000000000000000000815260206004820152601b60248201527f536166654d6174683a206164646974696f6e206f766572666c6f770000000000604482015290519081900360640190fd5b9392505050565b6000828211156105cf57604080517f08c379a000000000000000000000000000000000000000000000000000000000815260206004820152601e60248201527f536166654d6174683a207375627472616374696f6e206f766572666c6f770000604482015290519081900360640190fd5b5090039056fea2646970667358221220208857a3067afb5832338ff9a6b9dc3d23a3043010bc4cc771ef56da940cc28f64736f6c63430007060033608060405234801561001057600080fd5b5061043d806100206000396000f3fe608060405234801561001057600080fd5b50600436106100415760003560e01c8063cca5e4b114610046578063e2842d7914610089578063e65896c9146100e1575b600080fd5b6100876004803603606081101561005c57600080fd5b5073ffffffffffffffffffffffffffffffffffffffff81351690602081013590604001351515610126565b005b6100916101a7565b60408051602080825283518183015283519192839290830191858101910280838360005b838110156100cd5781810151838201526020016100b5565b505050509050019250505060405180910390f35b610114600480360360208110156100f757600080fd5b503573ffffffffffffffffffffffffffffffffffffffff16610216565b60408051918252519081900360200190f35b73ffffffffffffffffffffffffffffffffffffffff831660009081526020819052604090205481156101635761015c818461023e565b9050610170565b61016d81846102b9565b90505b73ffffffffffffffffffffffffffffffffffffffff841660009081526020819052604090208190556101a184610330565b50505050565b6060600280548060200260200160405190810160405280929190818152602001828054801561020c57602002820191906000526020600020905b815473ffffffffffffffffffffffffffffffffffffffff1681526001909101906020018083116101e1575b5050505050905090565b73ffffffffffffffffffffffffffffffffffffffff1660009081526020819052604090205490565b6000828201838110156102b257604080517f08c379a000000000000000000000000000000000000000000000000000000000815260206004820152601b60248201527f536166654d6174683a206164646974696f6e206f766572666c6f770000000000604482015290519081900360640190fd5b9392505050565b60008282111561032a57604080517f08c379a000000000000000000000000000000000000000000000000000000000815260206004820152601e60248201527f536166654d6174683a207375627472616374696f6e206f766572666c6f770000604482015290519081900360640190fd5b50900390565b73ffffffffffffffffffffffffffffffffffffffff811660009081526001602052604090205460ff166104045773ffffffffffffffffffffffffffffffffffffffff81166000818152600160208190526040822080547fffffffffffffffffffffffffffffffffffffffffffffffffffffffffffffff0016821790556002805491820181559091527f405787fa12a823e0f2b7631cc41b3ba8828b3321ca811111fa75cd3aa3bb5ace0180547fffffffffffffffffffffffff00000000000000000000000000000000000000001690911790555b5056fea2646970667358221220687dc2a43aa21187a93147969b0c6d21b545c3e3424529d1b183d503bc62c18864736f6c634300070600336080604052600080546001600160a01b031916731f98431c8ad98523631ae4a59f267346ea31f98417905534801561003657600080fd5b50611416806100466000396000f3fe608060405234801561001057600080fd5b50600436106100365760003560e01c8063ad72a0a11461003b578063c5f0e3b414610064575b600080fd5b61004e6100493660046111c8565b610077565b60405161005b9190611391565b60405180910390f35b61004e6100723660046111c8565b61011e565b600073ffffffffffffffffffffffffffffffffffffffff82166100ae576100a785858560005b60200201516101c0565b9050610116565b60006100bc8684868461009d565b905060006100cd848787600161009d565b905060006100de888688600061011e565b90506100fc670de0b6b3a76400006100f684846102e3565b9061035f565b915081831115610110575091506101169050565b50909150505b949350505050565b600073ffffffffffffffffffffffffffffffffffffffff821661016d57600061014f868686845b60200201516103e0565b905061016581670de0b6b3a7640000878961051e565b915050610116565b600061017c8386866001610145565b9050600061019482670de0b6b3a7640000888761051e565b905060006101a488868884610145565b905060006101b48284888c61051e565b94506101169350505050565b60008060008060006101d38888886106c7565b93509350935093506000808973ffffffffffffffffffffffffffffffffffffffff168473ffffffffffffffffffffffffffffffffffffffff161415610268576000610245858560405180604001604052808d62ffffff1662ffffff168152602001600062ffffff16815250600061011e565b905061025d670de0b6b3a76400006100f688846102e3565b9250869150506102ba565b600061029b848660405180604001604052808d62ffffff1662ffffff168152602001600062ffffff16815250600061011e565b90506102b3670de0b6b3a76400006100f689846102e3565b9250859150505b818111156102cf575094506102dc9350505050565b95506102dc945050505050565b9392505050565b6000826102f257506000610359565b828202828482816102ff57fe5b0414610356576040517f08c379a00000000000000000000000000000000000000000000000000000000081526004018080602001828103825260218152602001806113c06021913960400191505060405180910390fd5b90505b92915050565b60008082116103cf57604080517f08c379a000000000000000000000000000000000000000000000000000000000815260206004820152601a60248201527f536166654d6174683a206469766973696f6e206279207a65726f000000000000604482015290519081900360640190fd5b8183816103d857fe5b049392505050565b600080546040517f1698ee82000000000000000000000000000000000000000000000000000000008152829173ffffffffffffffffffffffffffffffffffffffff1690631698ee829061043b9088908890889060040161135c565b60206040518083038186803b15801561045357600080fd5b505afa158015610467573d6000803e3d6000fd5b505050506040513d601f19601f8201168201806040525081019061048b91906111ac565b905060008173ffffffffffffffffffffffffffffffffffffffff16633850c7bd6040518163ffffffff1660e01b815260040160e06040518083038186803b1580156104d557600080fd5b505afa1580156104e9573d6000803e3d6000fd5b505050506040513d601f19601f8201168201806040525081019061050d91906112bc565b50939b9a5050505050505050505050565b60008061052a86610a26565b90506fffffffffffffffffffffffffffffffff73ffffffffffffffffffffffffffffffffffffffff8216116105f85773ffffffffffffffffffffffffffffffffffffffff808216800290848116908616106105ba576105b57801000000000000000000000000000000000000000000000000876fffffffffffffffffffffffffffffffff1683610db9565b6105f0565b6105f081876fffffffffffffffffffffffffffffffff167801000000000000000000000000000000000000000000000000610db9565b9250506106be565b600061062473ffffffffffffffffffffffffffffffffffffffff83168068010000000000000000610db9565b90508373ffffffffffffffffffffffffffffffffffffffff168573ffffffffffffffffffffffffffffffffffffffff161061068c57610687700100000000000000000000000000000000876fffffffffffffffffffffffffffffffff1683610db9565b6106ba565b6106ba81876fffffffffffffffffffffffffffffffff16700100000000000000000000000000000000610db9565b9250505b50949350505050565b600080546040517f1698ee82000000000000000000000000000000000000000000000000000000008152829182918291829173ffffffffffffffffffffffffffffffffffffffff90911690631698ee829061072a908b908b908b9060040161135c565b60206040518083038186803b15801561074257600080fd5b505afa158015610756573d6000803e3d6000fd5b505050506040513d601f19601f8201168201806040525081019061077a91906111ac565b905060008173ffffffffffffffffffffffffffffffffffffffff16633850c7bd6040518163ffffffff1660e01b815260040160e06040518083038186803b1580156107c457600080fd5b505afa1580156107d8573d6000803e3d6000fd5b505050506040513d601f19601f820116820180604052508101906107fc91906112bc565b5050505050509050600061083060028373ffffffffffffffffffffffffffffffffffffffff1661035f90919063ffffffff16565b9050600061085773ffffffffffffffffffffffffffffffffffffffff848116908416610e86565b9050600061087e73ffffffffffffffffffffffffffffffffffffffff858116908516610efa565b905060008061090c8684868a73ffffffffffffffffffffffffffffffffffffffff16631a6865026040518163ffffffff1660e01b815260040160206040518083038186803b1580156108cf57600080fd5b505afa1580156108e3573d6000803e3d6000fd5b505050506040513d601f19601f82011682018060405250810190610907919061128c565b610f71565b9150915081818873ffffffffffffffffffffffffffffffffffffffff16630dfe16816040518163ffffffff1660e01b815260040160206040518083038186803b15801561095857600080fd5b505afa15801561096c573d6000803e3d6000fd5b505050506040513d601f19601f8201168201806040525081019061099091906111ac565b8973ffffffffffffffffffffffffffffffffffffffff1663d21220a76040518163ffffffff1660e01b815260040160206040518083038186803b1580156109d657600080fd5b505afa1580156109ea573d6000803e3d6000fd5b505050506040513d601f19601f82011682018060405250810190610a0e91906111ac565b9a509a509a509a505050505050505093509350935093565b60008060008360020b12610a3d578260020b610a45565b8260020b6000035b9050620d89e8811115610ab957604080517f08c379a000000000000000000000000000000000000000000000000000000000815260206004820152600160248201527f5400000000000000000000000000000000000000000000000000000000000000604482015290519081900360640190fd5b600060018216610ada57700100000000000000000000000000000000610aec565b6ffffcb933bd6fad37aa2d162d1a5940015b70ffffffffffffffffffffffffffffffffff1690506002821615610b20576ffff97272373d413259a46990580e213a0260801c5b6004821615610b3f576ffff2e50f5f656932ef12357cf3c7fdcc0260801c5b6008821615610b5e576fffe5caca7e10e4e61c3624eaa0941cd00260801c5b6010821615610b7d576fffcb9843d60f6159c9db58835c9266440260801c5b6020821615610b9c576fff973b41fa98c081472e6896dfb254c00260801c5b6040821615610bbb576fff2ea16466c96a3843ec78b326b528610260801c5b6080821615610bda576ffe5dee046a99a2a811c461f1969c30530260801c5b610100821615610bfa576ffcbe86c7900a88aedcffc83b479aa3a40260801c5b610200821615610c1a576ff987a7253ac413176f2b074cf7815e540260801c5b610400821615610c3a576ff3392b0822b70005940c7a398e4b70f30260801c5b610800821615610c5a576fe7159475a2c29b7443b29c7fa6e889d90260801c5b611000821615610c7a576fd097f3bdfd2022b8845ad8f792aa58250260801c5b612000821615610c9a576fa9f746462d870fdf8a65dc1f90e061e50260801c5b614000821615610cba576f70d869a156d2a1b890bb3df62baf32f70260801c5b618000821615610cda576f31be135f97d08fd981231505542fcfa60260801c5b62010000821615610cfb576f09aa508b5b7a84e1c677de54f3e99bc90260801c5b62020000821615610d1b576e5d6af8dedb81196699c329225ee6040260801c5b62040000821615610d3a576d2216e584f5fa1ea926041bedfe980260801c5b62080000821615610d57576b048a170391f7dc42444e8fa20260801c5b60008460020b1315610d9057807fffffffffffffffffffffffffffffffffffffffffffffffffffffffffffffffff81610d8c57fe5b0490505b640100000000810615610da4576001610da7565b60005b60ff16602082901c0192505050919050565b600080807fffffffffffffffffffffffffffffffffffffffffffffffffffffffffffffffff85870986860292508281109083900303905080610e0d5760008411610e0257600080fd5b5082900490506102dc565b808411610e1957600080fd5b6000848688096000868103871696879004966002600389028118808a02820302808a02820302808a02820302808a02820302808a02820302808a02909103029181900381900460010186841190950394909402919094039290920491909117919091029150509392505050565b60008282018381101561035657604080517f08c379a000000000000000000000000000000000000000000000000000000000815260206004820152601b60248201527f536166654d6174683a206164646974696f6e206f766572666c6f770000000000604482015290519081900360640190fd5b600082821115610f6b57604080517f08c379a000000000000000000000000000000000000000000000000000000000815260206004820152601e60248201527f536166654d6174683a207375627472616374696f6e206f766572666c6f770000604482015290519081900360640190fd5b50900390565b6000808373ffffffffffffffffffffffffffffffffffffffff168573ffffffffffffffffffffffffffffffffffffffff161115610fac579293925b8473ffffffffffffffffffffffffffffffffffffffff168673ffffffffffffffffffffffffffffffffffffffff1611610ff157610fea85858561105b565b9150611052565b8373ffffffffffffffffffffffffffffffffffffffff168673ffffffffffffffffffffffffffffffffffffffff1610156110445761103086858561105b565b915061103d85878561110e565b9050611052565b61104f85858561110e565b90505b94509492505050565b60008273ffffffffffffffffffffffffffffffffffffffff168473ffffffffffffffffffffffffffffffffffffffff161115611095579192915b8373ffffffffffffffffffffffffffffffffffffffff166110fe606060ff16846fffffffffffffffffffffffffffffffff16901b86860373ffffffffffffffffffffffffffffffffffffffff168673ffffffffffffffffffffffffffffffffffffffff16610db9565b8161110557fe5b04949350505050565b60008273ffffffffffffffffffffffffffffffffffffffff168473ffffffffffffffffffffffffffffffffffffffff161115611148579192915b610116826fffffffffffffffffffffffffffffffff1685850373ffffffffffffffffffffffffffffffffffffffff166c01000000000000000000000000610db9565b80356111958161139a565b919050565b805161ffff8116811461119557600080fd5b6000602082840312156111bd578081fd5b81516103568161139a565b60008060008060a085870312156111dd578283fd5b84356111e88161139a565b93506020858101356111f98161139a565b9350605f86018713611209578283fd5b6040805190810167ffffffffffffffff8111828210171561122657fe5b80604052508060408801608089018a811115611240578687fd5b865b600281101561126f57823562ffffff8116811461125d578889fd5b84529285019291850191600101611242565b5083965061127c8161118a565b9550505050505092959194509250565b60006020828403121561129d578081fd5b81516fffffffffffffffffffffffffffffffff81168114610356578182fd5b600080600080600080600060e0888a0312156112d6578283fd5b87516112e18161139a565b8097505060208801518060020b81146112f8578384fd5b95506113066040890161119a565b94506113146060890161119a565b93506113226080890161119a565b925060a088015160ff81168114611337578283fd5b60c0890151909250801515811461134c578182fd5b8091505092959891949750929550565b73ffffffffffffffffffffffffffffffffffffffff938416815291909216602082015262ffffff909116604082015260600190565b90815260200190565b73ffffffffffffffffffffffffffffffffffffffff811681146113bc57600080fd5b5056fe536166654d6174683a206d756c7469706c69636174696f6e206f766572666c6f77a264697066735822122076a9a92d08e86156e9c2f552f816ef84e322bf5c8f7c2b7e1f2fece22429047264736f6c6343000706003360a060405234801561001057600080fd5b5060405161091538038061091583398101604081905261002f91610068565b600280546001600160a01b039093166001600160a01b0319909316831790556080819052600091825260208290526040909120556100a0565b6000806040838503121561007a578182fd5b82516001600160a01b0381168114610090578283fd5b6020939093015192949293505050565b60805161085b6100ba6000398061029e525061085b6000f3fe608060405234801561001057600080fd5b50600436106100d45760003560e01c8063313ce5671161008157806395d89b411161005b57806395d89b41146101a2578063a9059cbb146101aa578063dd62ed3e146101bd576100d4565b8063313ce567146101675780635c6581651461017c57806370a082311461018f576100d4565b806318160ddd116100b257806318160ddd1461012c57806323b872dd1461014157806327e235e314610154576100d4565b806306fdde03146100d9578063095ea7b3146100f75780630cf1fd3614610117575b600080fd5b6100e16101d0565b6040516100ee91906106e3565b60405180910390f35b61010a61010536600461068e565b610209565b6040516100ee91906106d8565b61011f610280565b6040516100ee91906106b7565b61013461029c565b6040516100ee919061080e565b61010a61014f366004610653565b6102c0565b610134610162366004610600565b610456565b61016f610468565b6040516100ee9190610817565b61013461018a366004610621565b61046d565b61013461019d366004610600565b61048a565b6100e16104b6565b61010a6101b836600461068e565b6104ef565b6101346101cb366004610621565b6105a4565b6040518060400160405280601081526020017f566f696420496e64657820546f6b656e0000000000000000000000000000000081525081565b33600081815260016020908152604080832073ffffffffffffffffffffffffffffffffffffffff8716808552925280832085905551919290917f8c5be1e5ebec7d5bd14f71427d1e84f3dd0314c0f7b2291e5b200ac8c7c3b9259061026f90869061080e565b60405180910390a350600192915050565b60025473ffffffffffffffffffffffffffffffffffffffff1681565b7f000000000000000000000000000000000000000000000000000000000000000081565b73ffffffffffffffffffffffffffffffffffffffff8316600081815260016020908152604080832033845282528083205493835290829052812054909190831180159061030d5750828110155b61034c576040517f08c379a0000000000000000000000000000000000000000000000000000000008152600401610343906107b1565b60405180910390fd5b73ffffffffffffffffffffffffffffffffffffffff808516600090815260208190526040808220805487019055918716815220805484900390557fffffffffffffffffffffffffffffffffffffffffffffffffffffffffffffffff8110156103e65773ffffffffffffffffffffffffffffffffffffffff851660009081526001602090815260408083203384529091529020805484900390555b8373ffffffffffffffffffffffffffffffffffffffff168573ffffffffffffffffffffffffffffffffffffffff167fddf252ad1be2c89b69c2b068fc378daa952ba7f163c4a11628f55a4df523b3ef85604051610443919061080e565b60405180910390a3506001949350505050565b60006020819052908152604090205481565b601281565b600160209081526000928352604080842090915290825290205481565b73ffffffffffffffffffffffffffffffffffffffff81166000908152602081905260409020545b919050565b6040518060400160405280600381526020017f564944000000000000000000000000000000000000000000000000000000000081525081565b33600090815260208190526040812054821115610538576040517f08c379a000000000000000000000000000000000000000000000000000000000815260040161034390610754565b336000818152602081905260408082208054869003905573ffffffffffffffffffffffffffffffffffffffff861680835291819020805486019055519091907fddf252ad1be2c89b69c2b068fc378daa952ba7f163c4a11628f55a4df523b3ef9061026f90869061080e565b73ffffffffffffffffffffffffffffffffffffffff918216600090815260016020908152604080832093909416825291909152205490565b803573ffffffffffffffffffffffffffffffffffffffff811681146104b157600080fd5b600060208284031215610611578081fd5b61061a826105dc565b9392505050565b60008060408385031215610633578081fd5b61063c836105dc565b915061064a602084016105dc565b90509250929050565b600080600060608486031215610667578081fd5b610670846105dc565b925061067e602085016105dc565b9150604084013590509250925092565b600080604083850312156106a0578182fd5b6106a9836105dc565b946020939093013593505050565b73ffffffffffffffffffffffffffffffffffffffff91909116815260200190565b901515815260200190565b6000602080835283518082850152825b8181101561070f578581018301518582016040015282016106f3565b818111156107205783604083870101525b50601f017fffffffffffffffffffffffffffffffffffffffffffffffffffffffffffffffe016929092016040019392505050565b6020808252602f908201527f746f6b656e2062616c616e6365206973206c6f776572207468616e207468652060408201527f76616c7565207265717565737465640000000000000000000000000000000000606082015260800190565b60208082526039908201527f746f6b656e2062616c616e6365206f7220616c6c6f77616e6365206973206c6f60408201527f776572207468616e20616d6f756e742072657175657374656400000000000000606082015260800190565b90815260200190565b60ff9190911681526020019056fea2646970667358221220dcbe16249e7a33410d7513a06ace2bd79de09641ec7187d8be84533cf412ac0264736f6c63430007060033000000000000000000000000c02aaa39b223fe8d0a0e5c4f27ead9083c756cc2",
  "immutableReferences": {
    "3751": [
      {
        "length": 32,
        "start": 2408
      },
      {
        "length": 32,
        "start": 6045
      },
      {
        "length": 32,
        "start": 6172
      }
    ],
    "3757": [
      {
        "length": 32,
        "start": 6756
      },
      {
        "length": 32,
        "start": 7551
      },
      {
        "length": 32,
        "start": 10821
      }
    ],
    "3762": [
      {
        "length": 32,
        "start": 1543
      },
      {
        "length": 32,
        "start": 1944
      },
      {
        "length": 32,
        "start": 5726
      },
      {
        "length": 32,
        "start": 5870
      },
      {
        "length": 32,
        "start": 7620
      },
      {
        "length": 32,
        "start": 8298
      }
    ],
    "3767": [
      {
        "length": 32,
        "start": 1581
      },
      {
        "length": 32,
        "start": 1982
      },
      {
        "length": 32,
        "start": 4870
      },
      {
        "length": 32,
        "start": 7658
      },
      {
        "length": 32,
        "start": 8065
      }
    ],
    "3772": [
      {
        "length": 32,
        "start": 3704
      },
      {
        "length": 32,
        "start": 5244
      }
    ]
  },
  "source": "// SPDX-License-Identifier: MIT\r\npragma solidity 0.7.6;\r\npragma abicoder v2;\r\n\r\nimport \"@openzeppelin/contracts/token/ERC20/ERC20.sol\";\r\nimport \"@openzeppelin/contracts/math/SafeMath.sol\";\r\nimport \"@uniswap/v3-periphery/contracts/libraries/TransferHelper.sol\";\r\nimport \"@uniswap/v3-periphery/contracts/interfaces/ISwapRouter.sol\";\r\n\r\nimport \"./PriceOracle.sol\";\r\nimport \"./IndexToken.sol\";\r\nimport \"./DebtManager.sol\";\r\nimport \"../management/BaseProduct.sol\";\r\n\r\n\r\ncontract Index is Product {\r\n    using SafeMath for uint256;\r\n\r\n    struct TokenInfo {\r\n        uint8 indexPercentage;\r\n        address tokenAddress;\r\n        uint24[2] poolFees;\r\n        address intermediateToken;\r\n    }\r\n\r\n    TokenInfo[10] private tokens;\r\n    IndexToken public immutable indexToken;\r\n\r\n    address private immutable WETH = 0xC02aaA39b223FE8D0A0e5C4F27eAD9083C756Cc2;\r\n    address private immutable dexRouterAddress = 0xE592427A0AEce92De3Edee1F18E0157C05861564;\r\n\r\n    DebtManager private immutable sellDebtManager = new DebtManager();\r\n    DebtManager private immutable buyDebtManager = new DebtManager();\r\n    PriceOracle private immutable priceOracle = new PriceOracle();\r\n\r\n    uint private lastManagedToken = 0;\r\n    uint public tokensToSell = 0;\r\n    uint public tokensToBuy = 0;\r\n    uint private tokensSold = 0;\r\n    uint private buyAmountRequired = 0;\r\n    bool private allTokensManaged = false;\r\n    uint public availableTokens = 1500000000000000000000;\r\n\r\n    function name() external pure override returns (string memory) { return \"Index\"; }\r\n    function symbol() external pure override returns (string memory) { return \"VID\"; }\r\n    function getComponents() external view returns (TokenInfo[10] memory) { return tokens; }\r\n\r\n    function shortDescription() external pure override returns (string memory) {\r\n        return \"Void Index - fully decentralized index\";\r\n    }\r\n\r\n    function longDescription() external pure override returns (string memory) {\r\n        return \"Void Index - fully decentralized index. It features 10 ERC20 tokens, and allows you to buy or sell them at once. You receive VID tokens as a proof of funds ownership\";\r\n    }\r\n\r\n    function getTokenPrice(TokenInfo memory token) public view returns (uint256) {\r\n        return priceOracle.getPrice(buyTokenAddress, token.tokenAddress, token.poolFees, token.intermediateToken);\r\n    }\r\n\r\n    function image() external pure override returns (string memory) {\r\n        return \"https://voidmanagementstorage.blob.core.windows.net/assets/logo_index.png\";\r\n    }\r\n\r\n    function getTotalLockedValue() external view override returns (uint256) {\r\n        uint totalValue;\r\n\r\n        for (uint i = 0; i < tokens.length; i++) {\r\n            TokenInfo memory tokenInfo = tokens[i];\r\n            totalValue = totalValue.add(\r\n                IERC20(tokenInfo.tokenAddress).balanceOf(address(this)).mul(getTokenPrice(tokenInfo))\r\n            );\r\n        }\r\n\r\n        return totalValue.div(1 ether);\r\n    }\r\n\r\n    function getAvailableLiquidity() public view returns(uint){\r\n        uint minLiquidity;\r\n\r\n        for(uint i = 0; i < tokens.length; i++){\r\n\r\n            TokenInfo memory token = tokens[i];\r\n            uint poolLiquidity = priceOracle.getLiquidity(\r\n                buyTokenAddress,\r\n                token.tokenAddress,\r\n                token.poolFees,\r\n                token.intermediateToken\r\n            );\r\n\r\n            if(poolLiquidity < minLiquidity || minLiquidity == 0){\r\n                minLiquidity = poolLiquidity;\r\n            }\r\n        }\r\n\r\n        minLiquidity = minLiquidity.mul(1 ether).div(getPrice());\r\n        return minLiquidity;\r\n    }\r\n\r\n    constructor() {\r\n        indexToken = new IndexToken(address(this), availableTokens);\r\n\r\n        tokens[0] = TokenInfo({ // 0) WETH\r\n            tokenAddress: 0xC02aaA39b223FE8D0A0e5C4F27eAD9083C756Cc2,\r\n            poolFees: [uint24(3000), uint24(3000)],\r\n            intermediateToken: address(0),\r\n            indexPercentage: 25\r\n        });\r\n        tokens[1] = TokenInfo({ // 1) LINK\r\n            tokenAddress: 0x514910771AF9Ca656af840dff83E8264EcF986CA,\r\n            poolFees: [uint24(3000), uint24(3000)],\r\n            intermediateToken: 0xC02aaA39b223FE8D0A0e5C4F27eAD9083C756Cc2,\r\n            indexPercentage: 15\r\n        });\r\n        tokens[2] = TokenInfo({ // 3) UNI\r\n            tokenAddress: 0x1f9840a85d5aF5bf1D1762F925BDADdC4201F984,\r\n            poolFees: [uint24(3000), uint24(3000)],\r\n            intermediateToken: 0xC02aaA39b223FE8D0A0e5C4F27eAD9083C756Cc2,\r\n            indexPercentage: 20\r\n        });\r\n        tokens[3] = TokenInfo({ // 4) 1INCH\r\n            tokenAddress: 0x111111111117dC0aa78b770fA6A738034120C302,\r\n            poolFees: [uint24(3000), 10000],\r\n            intermediateToken: 0xC02aaA39b223FE8D0A0e5C4F27eAD9083C756Cc2,\r\n            indexPercentage: 10\r\n        });\r\n        tokens[4] = TokenInfo({ // 5) SNX\r\n            tokenAddress: 0xC011a73ee8576Fb46F5E1c5751cA3B9Fe0af2a6F,\r\n            poolFees: [uint24(3000), 10000],\r\n            intermediateToken: 0xC02aaA39b223FE8D0A0e5C4F27eAD9083C756Cc2,\r\n            indexPercentage: 5\r\n        });\r\n        tokens[5] = TokenInfo({ // 7) COMP\r\n            tokenAddress: 0xc00e94Cb662C3520282E6f5717214004A7f26888,\r\n            poolFees: [uint24(3000), uint24(3000)],\r\n            intermediateToken: 0xC02aaA39b223FE8D0A0e5C4F27eAD9083C756Cc2,\r\n            indexPercentage: 5\r\n        });\r\n        tokens[6] = TokenInfo({ // 8) MKR\r\n            tokenAddress: 0x9f8F72aA9304c8B593d555F12eF6589cC3A579A2,\r\n            poolFees: [uint24(3000), uint24(3000)],\r\n            intermediateToken: 0xC02aaA39b223FE8D0A0e5C4F27eAD9083C756Cc2,\r\n            indexPercentage: 3\r\n        });\r\n        tokens[7] = TokenInfo({ // 10) APE\r\n            tokenAddress: 0x4d224452801ACEd8B2F0aebE155379bb5D594381,\r\n            poolFees: [uint24(3000), uint24(3000)],\r\n            intermediateToken: 0xC02aaA39b223FE8D0A0e5C4F27eAD9083C756Cc2,\r\n            indexPercentage: 7\r\n        });\r\n        tokens[8] = TokenInfo({ // 13) AAVE\r\n            tokenAddress: 0x7Fc66500c84A76Ad7e9c93437bFc5Ac33E2DDaE9,\r\n            poolFees: [uint24(3000), uint24(3000)],\r\n            intermediateToken: 0xC02aaA39b223FE8D0A0e5C4F27eAD9083C756Cc2,\r\n            indexPercentage: 5\r\n        });\r\n        tokens[9] = TokenInfo({ // 14) MATIC\r\n            tokenAddress: 0x7D1AfA7B718fb893dB30A3aBc0Cfc608AaCfeBB0,\r\n            poolFees: [uint24(3000), uint24(3000)],\r\n            intermediateToken: 0xC02aaA39b223FE8D0A0e5C4F27eAD9083C756Cc2,\r\n            indexPercentage: 5\r\n        });\r\n        // tokens[2] = TokenInfo({ // 2) WBNB\r\n        //     tokenAddress: 0x418D75f65a02b3D53B2418FB8E1fe493759c7605,\r\n        //     poolFees: [uint24(3000), uint24(3000)],\r\n        //     intermediateToken: 0xC02aaA39b223FE8D0A0e5C4F27eAD9083C756Cc2,\r\n        //     indexPercentage: 10\r\n        // });\r\n        // tokens[6] = TokenInfo({ // 6) YFI\r\n        //     tokenAddress: 0x0bc529c00C6401aEF6D220BE8C6Ea1667F6Ad93e,\r\n        //     poolFees: [uint24(3000), uint24(3000)],\r\n        //     intermediateToken: 0xC02aaA39b223FE8D0A0e5C4F27eAD9083C756Cc2,\r\n        //     indexPercentage: 2\r\n        // });\r\n        // tokens[9] = TokenInfo({ // 9) SUSHI\r\n        //     tokenAddress: 0x6B3595068778DD592e39A122f4f5a5cF09C90fE2,\r\n        //     poolFees: [uint24(3000), uint24(3000)],\r\n        //     intermediateToken: 0xC02aaA39b223FE8D0A0e5C4F27eAD9083C756Cc2,\r\n        //     indexPercentage: 8\r\n        // });\r\n        // tokens[11] = TokenInfo({ // 11) CRV\r\n        //     tokenAddress: 0xD533a949740bb3306d119CC777fa900bA034cd52,\r\n        //     poolFees: [uint24(3000), 10000],\r\n        //     intermediateToken: 0xC02aaA39b223FE8D0A0e5C4F27eAD9083C756Cc2,\r\n        //     indexPercentage: 5\r\n        // });\r\n        // tokens[12] = TokenInfo({ // 12) LOOKS\r\n        //     tokenAddress: 0xf4d2888d29D722226FafA5d9B24F9164c092421E,\r\n        //     poolFees: [uint24(3000), uint24(3000)],\r\n        //     intermediateToken: 0xC02aaA39b223FE8D0A0e5C4F27eAD9083C756Cc2,\r\n        //     indexPercentage: 2\r\n        // });\r\n        // tokens[15] = TokenInfo({ // 14) FTX\r\n        //     tokenAddress: 0x50D1c9771902476076eCFc8B2A83Ad6b9355a4c9,\r\n        //     poolFees: [uint24(3000), uint24(3000)],\r\n        //     intermediateToken: 0xC02aaA39b223FE8D0A0e5C4F27eAD9083C756Cc2,\r\n        //     indexPercentage: 5\r\n        // });\r\n        // tokens[16] = TokenInfo({ // 15) GNOSIS\r\n        //     tokenAddress: 0x6810e776880C02933D47DB1b9fc05908e5386b96,\r\n        //     poolFees: [uint24(3000), uint24(3000)],\r\n        //     intermediateToken: 0xC02aaA39b223FE8D0A0e5C4F27eAD9083C756Cc2,\r\n        //     indexPercentage: 3\r\n        // });\r\n    }\r\n\r\n    function buy(uint256 amount) external override nonReentrant checkSettlement {\r\n        (uint productFee, uint256 realAmount) = calculateFee(amount);\r\n        require(realAmount > 0 && productFee > 0, \"Not enough tokens sent\");\r\n        require(getAvailableLiquidity() >= amount && realAmount <= availableTokens, \"Not enough liquidity\");\r\n\r\n        availableTokens = availableTokens.sub(realAmount);\r\n\r\n        uint256 indexPrice = getPrice();\r\n        uint buyTokenAmount = realAmount.mul(indexPrice).div(1 ether);\r\n\r\n        tokensToBuy = tokensToBuy.add(buyTokenAmount);\r\n        buyDebtManager.changeDebt(msg.sender, realAmount, true);\r\n\r\n        TransferHelper.safeTransferFrom(buyTokenAddress, msg.sender, address(this), amount.mul(indexPrice).div(1 ether));\r\n        TransferHelper.safeTransferFrom(buyTokenAddress, address(this), owner(), productFee.mul(indexPrice).div(2 ether));\r\n\r\n        emit ProductBought(msg.sender, buyTokenAmount, realAmount);\r\n    }\r\n\r\n    function sell(uint amount) external override nonReentrant checkSettlement{\r\n        (uint productFee, uint256 realAmount) = calculateFee(amount);\r\n        require(realAmount > 0 && productFee > 0, \"You must sell more tokens\");\r\n        require(getAvailableLiquidity() >= amount, \"Not enough liquidity\");\r\n\r\n        uint indexPrice = getPrice();\r\n\r\n        tokensToSell = tokensToSell.add(amount);\r\n        sellDebtManager.changeDebt(msg.sender, realAmount.mul(indexPrice).div(1 ether), true);\r\n        sellDebtManager.changeDebt(owner(), productFee.mul(indexPrice).div(1 ether), true);\r\n\r\n        TransferHelper.safeTransferFrom(address(indexToken), msg.sender, address(this), amount);\r\n        emit ProductSold(msg.sender, realAmount.mul(getPrice()), realAmount);\r\n    }\r\n\r\n    function retrieveDebt(uint amount, bool isBuyDebt) external nonReentrant checkSettlement{\r\n        DebtManager manager = isBuyDebt ? buyDebtManager : sellDebtManager;\r\n        require(manager.getTotalDebt() >= amount && manager.getUserDebt(msg.sender) >= amount, \"Not enough debt\");\r\n\r\n        address token = isBuyDebt ? address(indexToken) : buyTokenAddress;\r\n\r\n        TransferHelper.safeTransfer(token, msg.sender, amount);\r\n        manager.changeDebt(msg.sender, amount, false);\r\n        manager.changeTotalDebt(amount, false);\r\n    }\r\n\r\n    function getTotalDebt(bool isBuy) external view returns (uint) {\r\n        return (isBuy ? buyDebtManager : sellDebtManager).getTotalDebt();\r\n    }\r\n\r\n    function getUserDebt(address user, bool isBuy) external view returns (uint) {\r\n        return (isBuy ? buyDebtManager : sellDebtManager).getUserDebt(user);\r\n    }\r\n\r\n    function beginSettlement() override external onlyOwner{\r\n        isSettlement = true;\r\n\r\n        uint totalBuyFees = tokensToBuy.mul(productFee).div(productFeeTotal);\r\n        TransferHelper.safeApprove(buyTokenAddress, dexRouterAddress, tokensToBuy.add(totalBuyFees));\r\n    }\r\n\r\n    function endSettlement() override external onlyOwner {\r\n        require(allTokensManaged, \"Not all tokens were managed\");\r\n        buyDebtManager.changeTotalDebt(tokensToBuy.mul(1 ether).div(getPrice()), true);\r\n        sellDebtManager.changeTotalDebt(tokensSold, true);\r\n\r\n        if (buyAmountRequired < tokensToBuy && allTokensManaged) {\r\n            TransferHelper.safeTransfer(buyTokenAddress, owner(), tokensToBuy.sub(buyAmountRequired));\r\n        }\r\n\r\n        tokensToBuy = 0;\r\n        allTokensManaged = false;\r\n        buyAmountRequired = 0;\r\n        tokensToSell = 0;\r\n        tokensSold = 0;\r\n        isSettlement = false;\r\n    }\r\n\r\n    function manageTokensSell(TokenInfo memory token, ISwapRouter dexRouter, uint amount, uint tokenPrice) private {\r\n        uint amountIn = amount.mul(getPrice()).mul(token.indexPercentage).div(100).div(tokenPrice);\r\n\r\n        uint usdAmountIn = amountIn.mul(tokenPrice).div(1 ether);\r\n        uint amountOutMinimum = usdAmountIn.sub(usdAmountIn.mul(productFee).mul(10).div(productFeeTotal));\r\n\r\n        TransferHelper.safeApprove(token.tokenAddress, dexRouterAddress, amountIn);\r\n\r\n        if(token.intermediateToken == address(0)){\r\n            tokensSold = tokensSold.add(dexRouter.exactInputSingle(\r\n                ISwapRouter.ExactInputSingleParams({\r\n                    tokenIn: token.tokenAddress,\r\n                    tokenOut: buyTokenAddress,\r\n                    fee: token.poolFees[0],\r\n                    recipient: address(this),\r\n                    deadline: block.timestamp,\r\n                    amountIn: amountIn,\r\n                    amountOutMinimum: amountOutMinimum,\r\n                    sqrtPriceLimitX96: 0\r\n                })\r\n            ));\r\n        }else{\r\n            tokensSold = tokensSold.add(dexRouter.exactInput(\r\n                ISwapRouter.ExactInputParams({\r\n                    path: abi.encodePacked(\r\n                        token.tokenAddress,\r\n                        token.poolFees[1],\r\n                        token.intermediateToken,\r\n                        token.poolFees[0],\r\n                        buyTokenAddress\r\n                    ),\r\n                    recipient: address(this),\r\n                    deadline: block.timestamp,\r\n                    amountIn: amountIn,\r\n                    amountOutMinimum: amountOutMinimum\r\n                })\r\n            ));\r\n        }\r\n    }\r\n\r\n    function manageTokensBuy(TokenInfo memory token, ISwapRouter dexRouter, uint amount, uint tokenPrice) private {\r\n        uint amountOut = amount.mul(1 ether).div(tokenPrice);\r\n        uint amountInMaximum = amount.add(amount.mul(productFee).mul(10).div(productFeeTotal));\r\n\r\n        if(token.intermediateToken == address(0)){\r\n            buyAmountRequired = buyAmountRequired.add(dexRouter.exactOutputSingle(\r\n                ISwapRouter.ExactOutputSingleParams({\r\n                    tokenIn: buyTokenAddress,\r\n                    tokenOut: token.tokenAddress,\r\n                    fee: token.poolFees[0],\r\n                    recipient: address(this),\r\n                    deadline: block.timestamp,\r\n                    amountOut: amountOut,\r\n                    amountInMaximum: amountInMaximum,\r\n                    sqrtPriceLimitX96: 0\r\n                })\r\n            ));\r\n        }else{\r\n            buyAmountRequired = buyAmountRequired.add(dexRouter.exactOutput(\r\n                ISwapRouter.ExactOutputParams({\r\n                    path: abi.encodePacked(\r\n                        token.tokenAddress,\r\n                        token.poolFees[1],\r\n                        token.intermediateToken,\r\n                        token.poolFees[0],\r\n                        buyTokenAddress\r\n                    ),\r\n                    recipient: address(this),\r\n                    deadline: block.timestamp,\r\n                    amountOut: amountOut,\r\n                    amountInMaximum: amountInMaximum\r\n                })\r\n            ));\r\n        }\r\n    }\r\n\r\n    function manageTokens() external onlyOwner {\r\n        require(!allTokensManaged, \"Tokens already managed\");\r\n\r\n        lastManagedToken += 1;\r\n        if(lastManagedToken > tokens.length - 1){\r\n            lastManagedToken = 0;\r\n            allTokensManaged = true;\r\n        }\r\n\r\n        TokenInfo memory token = tokens[lastManagedToken];\r\n        uint tokensToBuyAmount = tokensToBuy.mul(token.indexPercentage).div(100);\r\n        uint tokenPrice = getTokenPrice(token);\r\n        ISwapRouter dexRouter = ISwapRouter(dexRouterAddress);\r\n\r\n        if(tokensToBuyAmount > 0){ manageTokensBuy(token, dexRouter, tokensToBuyAmount, tokenPrice); }\r\n        if(tokensToSell > 0){ manageTokensSell(token, dexRouter, tokensToSell, tokenPrice); }\r\n    }\r\n\r\n    function getPrice() public view override returns (uint) {\r\n        uint indexTotalPrice = 0;\r\n\r\n        for (uint i = 0; i < tokens.length; i++) {\r\n            indexTotalPrice = indexTotalPrice.add(getTokenPrice(tokens[i]).mul(tokens[i].indexPercentage));\r\n        }\r\n\r\n        return indexTotalPrice.div(1000);\r\n    }\r\n\r\n}\r\n",
  "sourcePath": "D:\\JavascriptProjects\\crypto-index\\contracts\\indices\\Index.sol",
  "compiler": {
    "name": "solc",
    "version": "0.7.6+commit.7338295f.Emscripten.clang"
  },
  "schemaVersion": "3.4.7",
  "updatedAt": "2022-06-11T09:25:05.850Z",
  "devdoc": {
    "kind": "dev",
    "methods": {
      "owner()": {
        "details": "Returns the address of the current owner."
      },
      "renounceOwnership()": {
        "details": "Leaves the contract without owner. It will not be possible to call `onlyOwner` functions anymore. Can only be called by the current owner. NOTE: Renouncing ownership will leave the contract without an owner, thereby removing any functionality that is only available to the owner."
      },
      "transferOwnership(address)": {
        "details": "Transfers ownership of the contract to a new account (`newOwner`). Can only be called by the current owner."
      }
    },
    "version": 1
  },
  "userdoc": {
    "kind": "user",
    "methods": {},
    "version": 1
  }
}