{
  "contractName": "Observer",
  "abi": [
    {
      "anonymous": false,
      "inputs": [
        {
          "indexed": true,
          "internalType": "address",
          "name": "previousOwner",
          "type": "address"
        },
        {
          "indexed": true,
          "internalType": "address",
          "name": "newOwner",
          "type": "address"
        }
      ],
      "name": "OwnershipTransferred",
      "type": "event"
    },
    {
      "anonymous": false,
      "inputs": [
        {
          "indexed": false,
          "internalType": "address",
          "name": "product",
          "type": "address"
        },
        {
          "indexed": false,
          "internalType": "string",
          "name": "productType",
          "type": "string"
        }
      ],
      "name": "ProductAdded",
      "type": "event"
    },
    {
      "anonymous": false,
      "inputs": [
        {
          "indexed": false,
          "internalType": "address",
          "name": "product",
          "type": "address"
        }
      ],
      "name": "ProductDeleted",
      "type": "event"
    },
    {
      "inputs": [],
      "name": "owner",
      "outputs": [
        {
          "internalType": "address",
          "name": "",
          "type": "address"
        }
      ],
      "stateMutability": "view",
      "type": "function"
    },
    {
      "inputs": [],
      "name": "renounceOwnership",
      "outputs": [],
      "stateMutability": "nonpayable",
      "type": "function"
    },
    {
      "inputs": [
        {
          "internalType": "address",
          "name": "newOwner",
          "type": "address"
        }
      ],
      "name": "transferOwnership",
      "outputs": [],
      "stateMutability": "nonpayable",
      "type": "function"
    },
    {
      "inputs": [
        {
          "internalType": "address",
          "name": "productAddress",
          "type": "address"
        },
        {
          "internalType": "string",
          "name": "productType",
          "type": "string"
        }
      ],
      "name": "addProduct",
      "outputs": [],
      "stateMutability": "nonpayable",
      "type": "function"
    },
    {
      "inputs": [
        {
          "internalType": "address",
          "name": "productAddress",
          "type": "address"
        }
      ],
      "name": "checkProductExists",
      "outputs": [
        {
          "internalType": "bool",
          "name": "",
          "type": "bool"
        }
      ],
      "stateMutability": "view",
      "type": "function"
    },
    {
      "inputs": [
        {
          "internalType": "address",
          "name": "productAddress",
          "type": "address"
        }
      ],
      "name": "removeProduct",
      "outputs": [],
      "stateMutability": "nonpayable",
      "type": "function"
    },
    {
      "inputs": [],
      "name": "getProducts",
      "outputs": [
        {
          "components": [
            {
              "internalType": "address",
              "name": "productAddress",
              "type": "address"
            },
            {
              "internalType": "string",
              "name": "productType",
              "type": "string"
            }
          ],
          "internalType": "struct Observer.ProductInfo[]",
          "name": "",
          "type": "tuple[]"
        }
      ],
      "stateMutability": "view",
      "type": "function"
    },
    {
      "inputs": [
        {
          "internalType": "uint256",
          "name": "index",
          "type": "uint256"
        }
      ],
      "name": "getProductByIndex",
      "outputs": [
        {
          "components": [
            {
              "internalType": "address",
              "name": "productAddress",
              "type": "address"
            },
            {
              "internalType": "string",
              "name": "productType",
              "type": "string"
            }
          ],
          "internalType": "struct Observer.ProductInfo",
          "name": "",
          "type": "tuple"
        }
      ],
      "stateMutability": "view",
      "type": "function"
    }
  ],
  "bytecode": "0x608060405234801561001057600080fd5b5060006100216100c460201b60201c565b9050806000806101000a81548173ffffffffffffffffffffffffffffffffffffffff021916908373ffffffffffffffffffffffffffffffffffffffff1602179055508073ffffffffffffffffffffffffffffffffffffffff16600073ffffffffffffffffffffffffffffffffffffffff167f8be0079c531659141344cd1fd0a4f28419497f9722a3daafe3b4186f6b6457e060405160405180910390a3506100cc565b600033905090565b611230806100db6000396000f3fe608060405234801561001057600080fd5b50600436106100785760003560e01c80635c60a4291461007d578063715018a614610099578063787b6725146100a357806384d35cc9146100bf5780638da5cb5b146100ef578063b61944bd1461010d578063c29b2f201461013d578063f2fde38b1461015b575b600080fd5b61009760048036038101906100929190610d79565b610177565b005b6100a161031f565b005b6100bd60048036038101906100b89190610d50565b61048c565b005b6100d960048036038101906100d49190610dcd565b61065f565b6040516100e69190611020565b60405180910390f35b6100f761078c565b6040516101049190610f98565b60405180910390f35b61012760048036038101906101229190610d50565b6107b5565b6040516101349190611005565b60405180910390f35b61014561085e565b6040516101529190610fe3565b60405180910390f35b61017560048036038101906101709190610d50565b6109b5565b005b61017f610ba7565b73ffffffffffffffffffffffffffffffffffffffff1661019d61078c565b73ffffffffffffffffffffffffffffffffffffffff1614610226576040517f08c379a00000000000000000000000000000000000000000000000000000000081526004018080602001828103825260208152602001807f4f776e61626c653a2063616c6c6572206973206e6f7420746865206f776e657281525060200191505060405180910390fd5b600160405180604001604052808473ffffffffffffffffffffffffffffffffffffffff16815260200183815250908060018154018082558091505060019003906000526020600020906002020160009091909190915060008201518160000160006101000a81548173ffffffffffffffffffffffffffffffffffffffff021916908373ffffffffffffffffffffffffffffffffffffffff16021790555060208201518160010190805190602001906102df929190610baf565b5050507fa518d00b5a9101dfe2b168171d7513ff8da187b2c1a2945971af4fd8ea2791878282604051610313929190610fb3565b60405180910390a15050565b610327610ba7565b73ffffffffffffffffffffffffffffffffffffffff1661034561078c565b73ffffffffffffffffffffffffffffffffffffffff16146103ce576040517f08c379a00000000000000000000000000000000000000000000000000000000081526004018080602001828103825260208152602001807f4f776e61626c653a2063616c6c6572206973206e6f7420746865206f776e657281525060200191505060405180910390fd5b600073ffffffffffffffffffffffffffffffffffffffff1660008054906101000a900473ffffffffffffffffffffffffffffffffffffffff1673ffffffffffffffffffffffffffffffffffffffff167f8be0079c531659141344cd1fd0a4f28419497f9722a3daafe3b4186f6b6457e060405160405180910390a360008060006101000a81548173ffffffffffffffffffffffffffffffffffffffff021916908373ffffffffffffffffffffffffffffffffffffffff160217905550565b610494610ba7565b73ffffffffffffffffffffffffffffffffffffffff166104b261078c565b73ffffffffffffffffffffffffffffffffffffffff161461053b576040517f08c379a00000000000000000000000000000000000000000000000000000000081526004018080602001828103825260208152602001807f4f776e61626c653a2063616c6c6572206973206e6f7420746865206f776e657281525060200191505060405180910390fd5b60005b60018054905081101561065b578173ffffffffffffffffffffffffffffffffffffffff166001828154811061056f57fe5b906000526020600020906002020160000160009054906101000a900473ffffffffffffffffffffffffffffffffffffffff1673ffffffffffffffffffffffffffffffffffffffff16141561064e57600181815481106105ca57fe5b9060005260206000209060020201600080820160006101000a81549073ffffffffffffffffffffffffffffffffffffffff02191690556001820160006106109190610c3d565b50507ffa0d82212023d711b71ba3811216053fe26db94fe33a9039fb205d2168512469826040516106419190610f98565b60405180910390a161065b565b808060010191505061053e565b5050565b610667610c85565b6001828154811061067457fe5b90600052602060002090600202016040518060400160405290816000820160009054906101000a900473ffffffffffffffffffffffffffffffffffffffff1673ffffffffffffffffffffffffffffffffffffffff1673ffffffffffffffffffffffffffffffffffffffff168152602001600182018054600181600116156101000203166002900480601f01602080910402602001604051908101604052809291908181526020018280546001816001161561010002031660029004801561077c5780601f106107515761010080835404028352916020019161077c565b820191906000526020600020905b81548152906001019060200180831161075f57829003601f168201915b5050505050815250509050919050565b60008060009054906101000a900473ffffffffffffffffffffffffffffffffffffffff16905090565b600080600090505b600180549050811015610853578273ffffffffffffffffffffffffffffffffffffffff16600182815481106107ee57fe5b906000526020600020906002020160000160009054906101000a900473ffffffffffffffffffffffffffffffffffffffff1673ffffffffffffffffffffffffffffffffffffffff161415610846576001915050610859565b80806001019150506107bd565b50600090505b919050565b60606001805480602002602001604051908101604052809291908181526020016000905b828210156109ac57838290600052602060002090600202016040518060400160405290816000820160009054906101000a900473ffffffffffffffffffffffffffffffffffffffff1673ffffffffffffffffffffffffffffffffffffffff1673ffffffffffffffffffffffffffffffffffffffff168152602001600182018054600181600116156101000203166002900480601f0160208091040260200160405190810160405280929190818152602001828054600181600116156101000203166002900480156109945780601f1061096957610100808354040283529160200191610994565b820191906000526020600020905b81548152906001019060200180831161097757829003601f168201915b50505050508152505081526020019060010190610882565b50505050905090565b6109bd610ba7565b73ffffffffffffffffffffffffffffffffffffffff166109db61078c565b73ffffffffffffffffffffffffffffffffffffffff1614610a64576040517f08c379a00000000000000000000000000000000000000000000000000000000081526004018080602001828103825260208152602001807f4f776e61626c653a2063616c6c6572206973206e6f7420746865206f776e657281525060200191505060405180910390fd5b600073ffffffffffffffffffffffffffffffffffffffff168173ffffffffffffffffffffffffffffffffffffffff161415610aea576040517f08c379a00000000000000000000000000000000000000000000000000000000081526004018080602001828103825260268152602001806111d56026913960400191505060405180910390fd5b8073ffffffffffffffffffffffffffffffffffffffff1660008054906101000a900473ffffffffffffffffffffffffffffffffffffffff1673ffffffffffffffffffffffffffffffffffffffff167f8be0079c531659141344cd1fd0a4f28419497f9722a3daafe3b4186f6b6457e060405160405180910390a3806000806101000a81548173ffffffffffffffffffffffffffffffffffffffff021916908373ffffffffffffffffffffffffffffffffffffffff16021790555050565b600033905090565b828054600181600116156101000203166002900490600052602060002090601f016020900481019282610be55760008555610c2c565b82601f10610bfe57805160ff1916838001178555610c2c565b82800160010185558215610c2c579182015b82811115610c2b578251825591602001919060010190610c10565b5b509050610c399190610cb5565b5090565b50805460018160011615610100020316600290046000825580601f10610c635750610c82565b601f016020900490600052602060002090810190610c819190610cb5565b5b50565b6040518060400160405280600073ffffffffffffffffffffffffffffffffffffffff168152602001606081525090565b5b80821115610cce576000816000905550600101610cb6565b5090565b600081359050610ce1816111a6565b92915050565b600082601f830112610cf857600080fd5b8135610d0b610d0682611073565b611042565b91508082526020830160208301858383011115610d2757600080fd5b610d32838284611151565b50505092915050565b600081359050610d4a816111bd565b92915050565b600060208284031215610d6257600080fd5b6000610d7084828501610cd2565b91505092915050565b60008060408385031215610d8c57600080fd5b6000610d9a85828601610cd2565b925050602083013567ffffffffffffffff811115610db757600080fd5b610dc385828601610ce7565b9150509250929050565b600060208284031215610ddf57600080fd5b6000610ded84828501610d3b565b91505092915050565b6000610e028383610f1e565b905092915050565b610e1381611109565b82525050565b610e2281611109565b82525050565b6000610e33826110b3565b610e3d81856110d6565b935083602082028501610e4f856110a3565b8060005b85811015610e8b5784840389528151610e6c8582610df6565b9450610e77836110c9565b925060208a01995050600181019050610e53565b50829750879550505050505092915050565b610ea68161111b565b82525050565b6000610eb7826110be565b610ec181856110e7565b9350610ed1818560208601611160565b610eda81611195565b840191505092915050565b6000610ef0826110be565b610efa81856110f8565b9350610f0a818560208601611160565b610f1381611195565b840191505092915050565b6000604083016000830151610f366000860182610e0a565b5060208301518482036020860152610f4e8282610eac565b9150508091505092915050565b6000604083016000830151610f736000860182610e0a565b5060208301518482036020860152610f8b8282610eac565b9150508091505092915050565b6000602082019050610fad6000830184610e19565b92915050565b6000604082019050610fc86000830185610e19565b8181036020830152610fda8184610ee5565b90509392505050565b60006020820190508181036000830152610ffd8184610e28565b905092915050565b600060208201905061101a6000830184610e9d565b92915050565b6000602082019050818103600083015261103a8184610f5b565b905092915050565b6000604051905081810181811067ffffffffffffffff8211171561106957611068611193565b5b8060405250919050565b600067ffffffffffffffff82111561108e5761108d611193565b5b601f19601f8301169050602081019050919050565b6000819050602082019050919050565b600081519050919050565b600081519050919050565b6000602082019050919050565b600082825260208201905092915050565b600082825260208201905092915050565b600082825260208201905092915050565b600061111482611127565b9050919050565b60008115159050919050565b600073ffffffffffffffffffffffffffffffffffffffff82169050919050565b6000819050919050565b82818337600083830152505050565b60005b8381101561117e578082015181840152602081019050611163565b8381111561118d576000848401525b50505050565bfe5b6000601f19601f8301169050919050565b6111af81611109565b81146111ba57600080fd5b50565b6111c681611147565b81146111d157600080fd5b5056fe4f776e61626c653a206e6577206f776e657220697320746865207a65726f2061646472657373a2646970667358221220e9b8720cb155588967cbfdc234738fd4df59ea6f31a1b1fe712b7e34ae2aa57764736f6c63430007050033",
  "immutableReferences": {},
  "source": "// SPDX-License-Identifier: MIT\r\npragma solidity 0.7.5;\r\npragma abicoder v2;\r\n\r\nimport \"@openzeppelin/contracts/access/Ownable.sol\";\r\nimport \"./BaseProduct.sol\";\r\n\r\n\r\ncontract Observer is Ownable{\r\n\r\n    event ProductAdded(address product, string productType);\r\n    event ProductDeleted(address product);\r\n\r\n    struct ProductInfo{\r\n        address productAddress;\r\n        string productType;\r\n    }\r\n\r\n    ProductInfo[] private products;\r\n\r\n    function addProduct(address productAddress, string memory productType) external onlyOwner {\r\n        products.push(ProductInfo(productAddress, productType));\r\n        emit ProductAdded(productAddress, productType);\r\n    }\r\n\r\n    function checkProductExists(address productAddress) public view returns (bool) {\r\n        for (uint256 index = 0; index < products.length; index++) {\r\n            if (products[index].productAddress == productAddress) {\r\n                return true;\r\n            }\r\n        }\r\n\r\n        return false;\r\n    }\r\n\r\n    function removeProduct(address productAddress) external onlyOwner{\r\n\r\n        for (uint256 index = 0; index < products.length; index++) {\r\n            if (products[index].productAddress == productAddress) {\r\n                delete products[index];\r\n                emit ProductDeleted(productAddress);\r\n                break;\r\n            }\r\n        }\r\n\r\n    }\r\n\r\n    function getProducts() external view returns (ProductInfo[] memory){\r\n        return products;\r\n    }\r\n\r\n    function getProductByIndex(uint index) external view returns(ProductInfo memory){\r\n        return products[index];\r\n    }\r\n\r\n}\r\n",
  "sourcePath": "D:\\JavascriptProjects\\crypto-index\\contracts\\management\\Observer.sol",
  "compiler": {
    "name": "solc",
    "version": "0.7.5+commit.eb77ed08.Linux.g++"
  },
  "schemaVersion": "3.4.6",
  "updatedAt": "2022-05-11T13:22:38.078Z",
  "devdoc": {
    "kind": "dev",
    "methods": {
      "owner()": {
        "details": "Returns the address of the current owner."
      },
      "renounceOwnership()": {
        "details": "Leaves the contract without owner. It will not be possible to call `onlyOwner` functions anymore. Can only be called by the current owner. NOTE: Renouncing ownership will leave the contract without an owner, thereby removing any functionality that is only available to the owner."
      },
      "transferOwnership(address)": {
        "details": "Transfers ownership of the contract to a new account (`newOwner`). Can only be called by the current owner."
      }
    },
    "version": 1
  },
  "userdoc": {
    "kind": "user",
    "methods": {},
    "version": 1
  }
}