{
  "contractName": "Observer",
  "abi": [
    {
      "anonymous": false,
      "inputs": [
        {
          "indexed": true,
          "internalType": "address",
          "name": "previousOwner",
          "type": "address"
        },
        {
          "indexed": true,
          "internalType": "address",
          "name": "newOwner",
          "type": "address"
        }
      ],
      "name": "OwnershipTransferred",
      "type": "event"
    },
    {
      "anonymous": false,
      "inputs": [
        {
          "indexed": false,
          "internalType": "address",
          "name": "product",
          "type": "address"
        },
        {
          "indexed": false,
          "internalType": "string",
          "name": "productType",
          "type": "string"
        }
      ],
      "name": "ProductAdded",
      "type": "event"
    },
    {
      "anonymous": false,
      "inputs": [
        {
          "indexed": false,
          "internalType": "address",
          "name": "product",
          "type": "address"
        }
      ],
      "name": "ProductDeleted",
      "type": "event"
    },
    {
      "inputs": [],
      "name": "owner",
      "outputs": [
        {
          "internalType": "address",
          "name": "",
          "type": "address"
        }
      ],
      "stateMutability": "view",
      "type": "function"
    },
    {
      "inputs": [
        {
          "internalType": "uint256",
          "name": "",
          "type": "uint256"
        }
      ],
      "name": "products",
      "outputs": [
        {
          "internalType": "address",
          "name": "productAddress",
          "type": "address"
        },
        {
          "internalType": "string",
          "name": "productType",
          "type": "string"
        }
      ],
      "stateMutability": "view",
      "type": "function"
    },
    {
      "inputs": [],
      "name": "renounceOwnership",
      "outputs": [],
      "stateMutability": "nonpayable",
      "type": "function"
    },
    {
      "inputs": [
        {
          "internalType": "address",
          "name": "newOwner",
          "type": "address"
        }
      ],
      "name": "transferOwnership",
      "outputs": [],
      "stateMutability": "nonpayable",
      "type": "function"
    },
    {
      "inputs": [
        {
          "internalType": "address",
          "name": "productAddress",
          "type": "address"
        },
        {
          "internalType": "string",
          "name": "productType",
          "type": "string"
        }
      ],
      "name": "addProduct",
      "outputs": [],
      "stateMutability": "nonpayable",
      "type": "function"
    },
    {
      "inputs": [
        {
          "internalType": "address",
          "name": "productAddress",
          "type": "address"
        }
      ],
      "name": "removeProduct",
      "outputs": [],
      "stateMutability": "nonpayable",
      "type": "function"
    },
    {
      "inputs": [],
      "name": "getProducts",
      "outputs": [
        {
          "components": [
            {
              "internalType": "address",
              "name": "productAddress",
              "type": "address"
            },
            {
              "internalType": "string",
              "name": "productType",
              "type": "string"
            }
          ],
          "internalType": "struct Observer.ProductInfo[]",
          "name": "",
          "type": "tuple[]"
        }
      ],
      "stateMutability": "view",
      "type": "function"
    },
    {
      "inputs": [
        {
          "internalType": "uint256",
          "name": "index",
          "type": "uint256"
        }
      ],
      "name": "getProductByIndex",
      "outputs": [
        {
          "components": [
            {
              "internalType": "address",
              "name": "productAddress",
              "type": "address"
            },
            {
              "internalType": "string",
              "name": "productType",
              "type": "string"
            }
          ],
          "internalType": "struct Observer.ProductInfo",
          "name": "",
          "type": "tuple"
        }
      ],
      "stateMutability": "view",
      "type": "function"
    }
  ],
  "bytecode": "0x608060405234801561001057600080fd5b5060006100216100c460201b60201c565b9050806000806101000a81548173ffffffffffffffffffffffffffffffffffffffff021916908373ffffffffffffffffffffffffffffffffffffffff1602179055508073ffffffffffffffffffffffffffffffffffffffff16600073ffffffffffffffffffffffffffffffffffffffff167f8be0079c531659141344cd1fd0a4f28419497f9722a3daafe3b4186f6b6457e060405160405180910390a3506100cc565b600033905090565b61123e806100db6000396000f3fe608060405234801561001057600080fd5b50600436106100785760003560e01c80635c60a4291461007d578063715018a614610099578063787b6725146100a35780637acc0b20146100bf57806384d35cc9146100f05780638da5cb5b14610120578063c29b2f201461013e578063f2fde38b1461015c575b600080fd5b61009760048036038101906100929190610dbd565b610178565b005b6100a1610320565b005b6100bd60048036038101906100b89190610d94565b61048d565b005b6100d960048036038101906100d49190610e11565b610660565b6040516100e7929190610fe8565b60405180910390f35b61010a60048036038101906101059190610e11565b61074c565b604051610117919061103a565b60405180910390f35b610128610879565b6040516101359190610fcd565b60405180910390f35b6101466108a2565b6040516101539190611018565b60405180910390f35b61017660048036038101906101719190610d94565b6109f9565b005b610180610beb565b73ffffffffffffffffffffffffffffffffffffffff1661019e610879565b73ffffffffffffffffffffffffffffffffffffffff1614610227576040517f08c379a00000000000000000000000000000000000000000000000000000000081526004018080602001828103825260208152602001807f4f776e61626c653a2063616c6c6572206973206e6f7420746865206f776e657281525060200191505060405180910390fd5b600160405180604001604052808473ffffffffffffffffffffffffffffffffffffffff16815260200183815250908060018154018082558091505060019003906000526020600020906002020160009091909190915060008201518160000160006101000a81548173ffffffffffffffffffffffffffffffffffffffff021916908373ffffffffffffffffffffffffffffffffffffffff16021790555060208201518160010190805190602001906102e0929190610bf3565b5050507fa518d00b5a9101dfe2b168171d7513ff8da187b2c1a2945971af4fd8ea2791878282604051610314929190610fe8565b60405180910390a15050565b610328610beb565b73ffffffffffffffffffffffffffffffffffffffff16610346610879565b73ffffffffffffffffffffffffffffffffffffffff16146103cf576040517f08c379a00000000000000000000000000000000000000000000000000000000081526004018080602001828103825260208152602001807f4f776e61626c653a2063616c6c6572206973206e6f7420746865206f776e657281525060200191505060405180910390fd5b600073ffffffffffffffffffffffffffffffffffffffff1660008054906101000a900473ffffffffffffffffffffffffffffffffffffffff1673ffffffffffffffffffffffffffffffffffffffff167f8be0079c531659141344cd1fd0a4f28419497f9722a3daafe3b4186f6b6457e060405160405180910390a360008060006101000a81548173ffffffffffffffffffffffffffffffffffffffff021916908373ffffffffffffffffffffffffffffffffffffffff160217905550565b610495610beb565b73ffffffffffffffffffffffffffffffffffffffff166104b3610879565b73ffffffffffffffffffffffffffffffffffffffff161461053c576040517f08c379a00000000000000000000000000000000000000000000000000000000081526004018080602001828103825260208152602001807f4f776e61626c653a2063616c6c6572206973206e6f7420746865206f776e657281525060200191505060405180910390fd5b60005b60018054905081101561065c578173ffffffffffffffffffffffffffffffffffffffff166001828154811061057057fe5b906000526020600020906002020160000160009054906101000a900473ffffffffffffffffffffffffffffffffffffffff1673ffffffffffffffffffffffffffffffffffffffff16141561064f57600181815481106105cb57fe5b9060005260206000209060020201600080820160006101000a81549073ffffffffffffffffffffffffffffffffffffffff02191690556001820160006106119190610c81565b50507ffa0d82212023d711b71ba3811216053fe26db94fe33a9039fb205d2168512469826040516106429190610fcd565b60405180910390a161065c565b808060010191505061053f565b5050565b6001818154811061067057600080fd5b90600052602060002090600202016000915090508060000160009054906101000a900473ffffffffffffffffffffffffffffffffffffffff1690806001018054600181600116156101000203166002900480601f0160208091040260200160405190810160405280929190818152602001828054600181600116156101000203166002900480156107425780601f1061071757610100808354040283529160200191610742565b820191906000526020600020905b81548152906001019060200180831161072557829003601f168201915b5050505050905082565b610754610cc9565b6001828154811061076157fe5b90600052602060002090600202016040518060400160405290816000820160009054906101000a900473ffffffffffffffffffffffffffffffffffffffff1673ffffffffffffffffffffffffffffffffffffffff1673ffffffffffffffffffffffffffffffffffffffff168152602001600182018054600181600116156101000203166002900480601f0160208091040260200160405190810160405280929190818152602001828054600181600116156101000203166002900480156108695780601f1061083e57610100808354040283529160200191610869565b820191906000526020600020905b81548152906001019060200180831161084c57829003601f168201915b5050505050815250509050919050565b60008060009054906101000a900473ffffffffffffffffffffffffffffffffffffffff16905090565b60606001805480602002602001604051908101604052809291908181526020016000905b828210156109f057838290600052602060002090600202016040518060400160405290816000820160009054906101000a900473ffffffffffffffffffffffffffffffffffffffff1673ffffffffffffffffffffffffffffffffffffffff1673ffffffffffffffffffffffffffffffffffffffff168152602001600182018054600181600116156101000203166002900480601f0160208091040260200160405190810160405280929190818152602001828054600181600116156101000203166002900480156109d85780601f106109ad576101008083540402835291602001916109d8565b820191906000526020600020905b8154815290600101906020018083116109bb57829003601f168201915b505050505081525050815260200190600101906108c6565b50505050905090565b610a01610beb565b73ffffffffffffffffffffffffffffffffffffffff16610a1f610879565b73ffffffffffffffffffffffffffffffffffffffff1614610aa8576040517f08c379a00000000000000000000000000000000000000000000000000000000081526004018080602001828103825260208152602001807f4f776e61626c653a2063616c6c6572206973206e6f7420746865206f776e657281525060200191505060405180910390fd5b600073ffffffffffffffffffffffffffffffffffffffff168173ffffffffffffffffffffffffffffffffffffffff161415610b2e576040517f08c379a00000000000000000000000000000000000000000000000000000000081526004018080602001828103825260268152602001806111e36026913960400191505060405180910390fd5b8073ffffffffffffffffffffffffffffffffffffffff1660008054906101000a900473ffffffffffffffffffffffffffffffffffffffff1673ffffffffffffffffffffffffffffffffffffffff167f8be0079c531659141344cd1fd0a4f28419497f9722a3daafe3b4186f6b6457e060405160405180910390a3806000806101000a81548173ffffffffffffffffffffffffffffffffffffffff021916908373ffffffffffffffffffffffffffffffffffffffff16021790555050565b600033905090565b828054600181600116156101000203166002900490600052602060002090601f016020900481019282610c295760008555610c70565b82601f10610c4257805160ff1916838001178555610c70565b82800160010185558215610c70579182015b82811115610c6f578251825591602001919060010190610c54565b5b509050610c7d9190610cf9565b5090565b50805460018160011615610100020316600290046000825580601f10610ca75750610cc6565b601f016020900490600052602060002090810190610cc59190610cf9565b5b50565b6040518060400160405280600073ffffffffffffffffffffffffffffffffffffffff168152602001606081525090565b5b80821115610d12576000816000905550600101610cfa565b5090565b600081359050610d25816111b4565b92915050565b600082601f830112610d3c57600080fd5b8135610d4f610d4a8261108d565b61105c565b91508082526020830160208301858383011115610d6b57600080fd5b610d7683828461115f565b50505092915050565b600081359050610d8e816111cb565b92915050565b600060208284031215610da657600080fd5b6000610db484828501610d16565b91505092915050565b60008060408385031215610dd057600080fd5b6000610dde85828601610d16565b925050602083013567ffffffffffffffff811115610dfb57600080fd5b610e0785828601610d2b565b9150509250929050565b600060208284031215610e2357600080fd5b6000610e3184828501610d7f565b91505092915050565b6000610e468383610f53565b905092915050565b610e5781611123565b82525050565b610e6681611123565b82525050565b6000610e77826110cd565b610e8181856110f0565b935083602082028501610e93856110bd565b8060005b85811015610ecf5784840389528151610eb08582610e3a565b9450610ebb836110e3565b925060208a01995050600181019050610e97565b50829750879550505050505092915050565b6000610eec826110d8565b610ef68185611101565b9350610f0681856020860161116e565b610f0f816111a3565b840191505092915050565b6000610f25826110d8565b610f2f8185611112565b9350610f3f81856020860161116e565b610f48816111a3565b840191505092915050565b6000604083016000830151610f6b6000860182610e4e565b5060208301518482036020860152610f838282610ee1565b9150508091505092915050565b6000604083016000830151610fa86000860182610e4e565b5060208301518482036020860152610fc08282610ee1565b9150508091505092915050565b6000602082019050610fe26000830184610e5d565b92915050565b6000604082019050610ffd6000830185610e5d565b818103602083015261100f8184610f1a565b90509392505050565b600060208201905081810360008301526110328184610e6c565b905092915050565b600060208201905081810360008301526110548184610f90565b905092915050565b6000604051905081810181811067ffffffffffffffff82111715611083576110826111a1565b5b8060405250919050565b600067ffffffffffffffff8211156110a8576110a76111a1565b5b601f19601f8301169050602081019050919050565b6000819050602082019050919050565b600081519050919050565b600081519050919050565b6000602082019050919050565b600082825260208201905092915050565b600082825260208201905092915050565b600082825260208201905092915050565b600061112e82611135565b9050919050565b600073ffffffffffffffffffffffffffffffffffffffff82169050919050565b6000819050919050565b82818337600083830152505050565b60005b8381101561118c578082015181840152602081019050611171565b8381111561119b576000848401525b50505050565bfe5b6000601f19601f8301169050919050565b6111bd81611123565b81146111c857600080fd5b50565b6111d481611155565b81146111df57600080fd5b5056fe4f776e61626c653a206e6577206f776e657220697320746865207a65726f2061646472657373a264697066735822122071aa6ecd41f9a517b7cd8033f617b22031bb7f19f8421b45a110fd9783bc371864736f6c63430007050033",
  "immutableReferences": {},
  "source": "// SPDX-License-Identifier: MIT\r\npragma solidity >=0.7.5;\r\npragma abicoder v2;\r\n\r\nimport \"@openzeppelin/contracts/access/Ownable.sol\";\r\nimport \"./BaseProduct.sol\";\r\n\r\n\r\ncontract Observer is Ownable{\r\n\r\n    event ProductAdded(address product, string productType);\r\n    event ProductDeleted(address product);\r\n\r\n    struct ProductInfo{\r\n        address productAddress;\r\n        string productType;\r\n    }\r\n\r\n    ProductInfo[] public products;\r\n\r\n    function addProduct(address productAddress, string memory productType) external onlyOwner {\r\n        products.push(ProductInfo(productAddress, productType));\r\n        emit ProductAdded(productAddress, productType);\r\n    }\r\n\r\n    function removeProduct(address productAddress) external onlyOwner{\r\n\r\n        for (uint256 index = 0; index < products.length; index++) {\r\n            if (products[index].productAddress == productAddress) {\r\n                delete products[index];\r\n                emit ProductDeleted(productAddress);\r\n                break;\r\n            }\r\n        }\r\n\r\n    }\r\n\r\n    function getProducts() external view returns (ProductInfo[] memory){\r\n        return products;\r\n    }\r\n\r\n    function getProductByIndex(uint index) external view returns(ProductInfo memory){\r\n        return products[index];\r\n    }\r\n\r\n}\r\n",
  "sourcePath": "D:\\JavascriptProjects\\crypto-index\\contracts\\management\\Observer.sol",
  "compiler": {
    "name": "solc",
    "version": "0.7.5+commit.eb77ed08.Linux.g++"
  },
  "schemaVersion": "3.4.6",
  "updatedAt": "2022-04-15T08:49:40.083Z",
  "devdoc": {
    "kind": "dev",
    "methods": {
      "owner()": {
        "details": "Returns the address of the current owner."
      },
      "renounceOwnership()": {
        "details": "Leaves the contract without owner. It will not be possible to call `onlyOwner` functions anymore. Can only be called by the current owner. NOTE: Renouncing ownership will leave the contract without an owner, thereby removing any functionality that is only available to the owner."
      },
      "transferOwnership(address)": {
        "details": "Transfers ownership of the contract to a new account (`newOwner`). Can only be called by the current owner."
      }
    },
    "version": 1
  },
  "userdoc": {
    "kind": "user",
    "methods": {},
    "version": 1
  }
}