{
  "contractName": "SafeMinter",
  "abi": [
    {
      "inputs": [
        {
          "internalType": "uint256",
          "name": "_maxSupplyTransferPercentage",
          "type": "uint256"
        },
        {
          "internalType": "uint256",
          "name": "_totalSupply",
          "type": "uint256"
        },
        {
          "internalType": "uint256",
          "name": "_epochDelay",
          "type": "uint256"
        }
      ],
      "stateMutability": "nonpayable",
      "type": "constructor"
    },
    {
      "anonymous": false,
      "inputs": [
        {
          "indexed": true,
          "internalType": "address",
          "name": "previousOwner",
          "type": "address"
        },
        {
          "indexed": true,
          "internalType": "address",
          "name": "newOwner",
          "type": "address"
        }
      ],
      "name": "OwnershipTransferred",
      "type": "event"
    },
    {
      "inputs": [],
      "name": "owner",
      "outputs": [
        {
          "internalType": "address",
          "name": "",
          "type": "address"
        }
      ],
      "stateMutability": "view",
      "type": "function"
    },
    {
      "inputs": [],
      "name": "renounceOwnership",
      "outputs": [],
      "stateMutability": "nonpayable",
      "type": "function"
    },
    {
      "inputs": [],
      "name": "token",
      "outputs": [
        {
          "internalType": "contract SafeToken",
          "name": "",
          "type": "address"
        }
      ],
      "stateMutability": "view",
      "type": "function"
    },
    {
      "inputs": [
        {
          "internalType": "address",
          "name": "newOwner",
          "type": "address"
        }
      ],
      "name": "transferOwnership",
      "outputs": [],
      "stateMutability": "nonpayable",
      "type": "function"
    },
    {
      "inputs": [],
      "name": "mint",
      "outputs": [],
      "stateMutability": "payable",
      "type": "function"
    }
  ],
  "bytecode": "0x608060405234801561001057600080fd5b5060405161191338038061191383398101604081905261002f9161010d565b610038336100b0565b3083838360405161004890610100565b6001600160a01b039094168452602084019290925260408301526060820152608001604051809103906000f080158015610086573d6000803e3d6000fd5b50600180546001600160a01b0319166001600160a01b03929092169190911790555061013b915050565b600080546001600160a01b038381166001600160a01b0319831681178455604051919092169283917f8be0079c531659141344cd1fd0a4f28419497f9722a3daafe3b4186f6b6457e09190a35050565b611144806107cf83390190565b60008060006060848603121561012257600080fd5b8351925060208401519150604084015190509250925092565b6106858061014a6000396000f3fe60806040526004361061005a5760003560e01c80638da5cb5b116100435780638da5cb5b1461007e578063f2fde38b146100ce578063fc0c546a146100ee57600080fd5b80631249c58b1461005f578063715018a614610069575b600080fd5b61006761011b565b005b34801561007557600080fd5b50610067610341565b34801561008a57600080fd5b5060005473ffffffffffffffffffffffffffffffffffffffff165b60405173ffffffffffffffffffffffffffffffffffffffff909116815260200160405180910390f35b3480156100da57600080fd5b506100676100e9366004610573565b6103ce565b3480156100fa57600080fd5b506001546100a59073ffffffffffffffffffffffffffffffffffffffff1681565b6000341180156101bb57506001546040517f70a08231000000000000000000000000000000000000000000000000000000008152306004820152349173ffffffffffffffffffffffffffffffffffffffff16906370a0823190602401602060405180830381865afa158015610194573d6000803e3d6000fd5b505050506040513d601f19601f820116820180604052508101906101b891906105b0565b10155b610226576040517f08c379a000000000000000000000000000000000000000000000000000000000815260206004820152601960248201527f53656e6420616e6f7468657220746f6b656e20616d6f756e740000000000000060448201526064015b60405180910390fd5b600061023334600a6105c9565b6001546040517fa9059cbb0000000000000000000000000000000000000000000000000000000081523360048201526024810183905291925073ffffffffffffffffffffffffffffffffffffffff169063a9059cbb906044016020604051808303816000875af11580156102ab573d6000803e3d6000fd5b505050506040513d601f19601f820116820180604052508101906102cf919061062d565b506000805460405173ffffffffffffffffffffffffffffffffffffffff9091169034908381818185875af1925050503d806000811461032a576040519150601f19603f3d011682016040523d82523d6000602084013e61032f565b606091505b505090508061033d57600080fd5b5050565b60005473ffffffffffffffffffffffffffffffffffffffff1633146103c2576040517f08c379a000000000000000000000000000000000000000000000000000000000815260206004820181905260248201527f4f776e61626c653a2063616c6c6572206973206e6f7420746865206f776e6572604482015260640161021d565b6103cc60006104fe565b565b60005473ffffffffffffffffffffffffffffffffffffffff16331461044f576040517f08c379a000000000000000000000000000000000000000000000000000000000815260206004820181905260248201527f4f776e61626c653a2063616c6c6572206973206e6f7420746865206f776e6572604482015260640161021d565b73ffffffffffffffffffffffffffffffffffffffff81166104f2576040517f08c379a000000000000000000000000000000000000000000000000000000000815260206004820152602660248201527f4f776e61626c653a206e6577206f776e657220697320746865207a65726f206160448201527f6464726573730000000000000000000000000000000000000000000000000000606482015260840161021d565b6104fb816104fe565b50565b6000805473ffffffffffffffffffffffffffffffffffffffff8381167fffffffffffffffffffffffff0000000000000000000000000000000000000000831681178455604051919092169283917f8be0079c531659141344cd1fd0a4f28419497f9722a3daafe3b4186f6b6457e09190a35050565b60006020828403121561058557600080fd5b813573ffffffffffffffffffffffffffffffffffffffff811681146105a957600080fd5b9392505050565b6000602082840312156105c257600080fd5b5051919050565b6000817fffffffffffffffffffffffffffffffffffffffffffffffffffffffffffffffff0483118215151615610628577f4e487b7100000000000000000000000000000000000000000000000000000000600052601160045260246000fd5b500290565b60006020828403121561063f57600080fd5b815180151581146105a957600080fdfea26469706673582212203a43d21fdc615f8f68f17e82f5ba7dc5f13d3a7256994ebff9e23f1c8e72034e64736f6c634300080f003360c0604052600a60809081526929b0b332903a37b5b2b760b11b60a0526002906200002b90826200018c565b506003805460ff19166012179055604080518082019091526004808252635341464560e01b6020830152906200006290826200018c565b506000600b553480156200007557600080fd5b506040516200114438038062001144833981016040819052620000989162000258565b6005829055600680546001600160a01b039095166001600160a01b031990951685179055600a5542600755600092835260208390526040832055600c80546001018155909152600955620002a5565b634e487b7160e01b600052604160045260246000fd5b600181811c908216806200011257607f821691505b6020821081036200013357634e487b7160e01b600052602260045260246000fd5b50919050565b601f8211156200018757600081815260208120601f850160051c81016020861015620001625750805b601f850160051c820191505b8181101562000183578281556001016200016e565b5050505b505050565b81516001600160401b03811115620001a857620001a8620000e7565b620001c081620001b98454620000fd565b8462000139565b602080601f831160018114620001f85760008415620001df5750858301515b600019600386901b1c1916600185901b17855562000183565b600085815260208120601f198616915b82811015620002295788860151825594840194600190910190840162000208565b5085821015620002485787850151600019600388901b60f8161c191681555b5050505050600190811b01905550565b600080600080608085870312156200026f57600080fd5b84516001600160a01b03811681146200028757600080fd5b60208601516040870151606090970151919890975090945092505050565b610e8f80620002b56000396000f3fe608060405234801561001057600080fd5b50600436106101825760003560e01c806342966c68116100d8578063b145d8591161008c578063cd10825811610066578063cd1082581461034b578063dd62ed3e14610353578063f35aa7b51461039957600080fd5b8063b145d85914610327578063bd8da9171461032f578063c9a34c871461033857600080fd5b806370a08231116100bd57806370a08231146102d657806395d89b411461030c578063a9059cbb1461031457600080fd5b806342966c68146102965780635c658165146102ab57600080fd5b80630e85fa721161013a57806327e235e31161011457806327e235e31461024e578063300ed35e1461026e578063313ce5671461027757600080fd5b80630e85fa721461022957806318160ddd1461023257806323b872dd1461023b57600080fd5b8063075461721161016b57806307546172146101b8578063095ea7b3146101fd5780630b6232521461022057600080fd5b8063065e53601461018757806306fdde03146101a3575b600080fd5b610190600b5481565b6040519081526020015b60405180910390f35b6101ab6103a1565b60405161019a9190610b36565b6006546101d89073ffffffffffffffffffffffffffffffffffffffff1681565b60405173ffffffffffffffffffffffffffffffffffffffff909116815260200161019a565b61021061020b366004610bd2565b61042f565b604051901515815260200161019a565b61019060095481565b61019060075481565b61019060055481565b610210610249366004610bfc565b6104a8565b61019061025c366004610c38565b60006020819052908152604090205481565b61019060085481565b6003546102849060ff1681565b60405160ff909116815260200161019a565b6102a96102a4366004610c5a565b6106bd565b005b6101906102b9366004610c73565b600160209081526000928352604080842090915290825290205481565b6101906102e4366004610c38565b73ffffffffffffffffffffffffffffffffffffffff1660009081526020819052604090205490565b6101ab61077f565b610210610322366004610bd2565b61078c565b6101906108b6565b610190600a5481565b610190610346366004610ca6565b6108d9565b61019061090a565b610190610361366004610c73565b73ffffffffffffffffffffffffffffffffffffffff918216600090815260016020908152604080832093909416825291909152205490565b61021061091f565b600280546103ae90610cc9565b80601f01602080910402602001604051908101604052809291908181526020018280546103da90610cc9565b80156104275780601f106103fc57610100808354040283529160200191610427565b820191906000526020600020905b81548152906001019060200180831161040a57829003601f168201915b505050505081565b33600081815260016020908152604080832073ffffffffffffffffffffffffffffffffffffffff8716808552925280832085905551919290917f8c5be1e5ebec7d5bd14f71427d1e84f3dd0314c0f7b2291e5b200ac8c7c3b925906104979086815260200190565b60405180910390a350600192915050565b73ffffffffffffffffffffffffffffffffffffffff831660008181526001602090815260408083203384528252808320549383529082905281205490919083118015906104f55750828110155b610560576040517f08c379a000000000000000000000000000000000000000000000000000000000815260206004820152600260248201527f4c4200000000000000000000000000000000000000000000000000000000000060448201526064015b60405180910390fd5b61056983610939565b73ffffffffffffffffffffffffffffffffffffffff84166000908152602081905260408120805485929061059e908490610d4b565b909155505073ffffffffffffffffffffffffffffffffffffffff8516600090815260208190526040812080548592906105d8908490610d63565b90915550507fffffffffffffffffffffffffffffffffffffffffffffffffffffffffffffffff81101561064b5773ffffffffffffffffffffffffffffffffffffffff8516600090815260016020908152604080832033845290915281208054859290610645908490610d63565b90915550505b8373ffffffffffffffffffffffffffffffffffffffff168573ffffffffffffffffffffffffffffffffffffffff167fddf252ad1be2c89b69c2b068fc378daa952ba7f163c4a11628f55a4df523b3ef856040516106aa91815260200190565b60405180910390a3506001949350505050565b33600090815260208190526040902054811115610736576040517f08c379a000000000000000000000000000000000000000000000000000000000815260206004820152600260248201527f4c420000000000000000000000000000000000000000000000000000000000006044820152606401610557565b61073f81610939565b336000908152602081905260408120805483929061075e908490610d63565b9250508190555080600560008282546107779190610d63565b909155505050565b600480546103ae90610cc9565b33600090815260208190526040812054821115610805576040517f08c379a000000000000000000000000000000000000000000000000000000000815260206004820152600260248201527f4c420000000000000000000000000000000000000000000000000000000000006044820152606401610557565b61080e82610939565b336000908152602081905260408120805484929061082d908490610d63565b909155505073ffffffffffffffffffffffffffffffffffffffff831660009081526020819052604081208054849290610867908490610d4b565b909155505060405182815273ffffffffffffffffffffffffffffffffffffffff84169033907fddf252ad1be2c89b69c2b068fc378daa952ba7f163c4a11628f55a4df523b3ef90602001610497565b600060646009546005546108ca9190610d7a565b6108d49190610db7565b905090565b600c82815481106108e957600080fd5b90600052602060002001602052806000526040600020600091509150505481565b60006127106009546005546108ca9190610d7a565b6000600a54600754426109329190610d63565b1015905090565b60065473ffffffffffffffffffffffffffffffffffffffff16330361095b5750565b806008600082825461096d9190610d4b565b909155506000905061097d61090a565b905081600c600b548154811061099557610995610df2565b6000918252602080832033845290910190526040812080549091906109bb908490610d4b565b9250508190555080600c600b54815481106109d8576109d8610df2565b60009182526020808320338452909101905260409020541115610a57576040517f08c379a000000000000000000000000000000000000000000000000000000000815260206004820152600260248201527f4c450000000000000000000000000000000000000000000000000000000000006044820152606401610557565b610a5f61091f565b15610ac057600b8054906000610a7483610e21565b9091555050600882905542600755600c80546001018082556000829052600b548492918110610aa557610aa5610df2565b60009182526020808320338452909101905260409020555050565b610ac86108b6565b60085410610b32576040517f08c379a000000000000000000000000000000000000000000000000000000000815260206004820152600360248201527f544c4500000000000000000000000000000000000000000000000000000000006044820152606401610557565b5050565b600060208083528351808285015260005b81811015610b6357858101830151858201604001528201610b47565b81811115610b75576000604083870101525b50601f017fffffffffffffffffffffffffffffffffffffffffffffffffffffffffffffffe016929092016040019392505050565b803573ffffffffffffffffffffffffffffffffffffffff81168114610bcd57600080fd5b919050565b60008060408385031215610be557600080fd5b610bee83610ba9565b946020939093013593505050565b600080600060608486031215610c1157600080fd5b610c1a84610ba9565b9250610c2860208501610ba9565b9150604084013590509250925092565b600060208284031215610c4a57600080fd5b610c5382610ba9565b9392505050565b600060208284031215610c6c57600080fd5b5035919050565b60008060408385031215610c8657600080fd5b610c8f83610ba9565b9150610c9d60208401610ba9565b90509250929050565b60008060408385031215610cb957600080fd5b82359150610c9d60208401610ba9565b600181811c90821680610cdd57607f821691505b602082108103610d16577f4e487b7100000000000000000000000000000000000000000000000000000000600052602260045260246000fd5b50919050565b7f4e487b7100000000000000000000000000000000000000000000000000000000600052601160045260246000fd5b60008219821115610d5e57610d5e610d1c565b500190565b600082821015610d7557610d75610d1c565b500390565b6000817fffffffffffffffffffffffffffffffffffffffffffffffffffffffffffffffff0483118215151615610db257610db2610d1c565b500290565b600082610ded577f4e487b7100000000000000000000000000000000000000000000000000000000600052601260045260246000fd5b500490565b7f4e487b7100000000000000000000000000000000000000000000000000000000600052603260045260246000fd5b60007fffffffffffffffffffffffffffffffffffffffffffffffffffffffffffffffff8203610e5257610e52610d1c565b506001019056fea264697066735822122095405cc9ab6dace16be5645c6e3a4b624bf25e109814ada3ceebdecd645cb38d64736f6c634300080f0033",
  "immutableReferences": {},
  "source": "// SPDX-License-Identifier: MIT\r\npragma solidity 0.8.15;\r\npragma abicoder v2;\r\n\r\nimport \"@openzeppelin/contracts/access/Ownable.sol\";\r\nimport \"./SafeToken.sol\";\r\n\r\n\r\ncontract SafeMinter is Ownable {\r\n    SafeToken public token;\r\n    \r\n    constructor(uint _maxSupplyTransferPercentage, uint _totalSupply, uint _epochDelay) {\r\n        token = new SafeToken(address(this), _maxSupplyTransferPercentage, _totalSupply, _epochDelay);\r\n    }\r\n\r\n    function mint() external payable {\r\n        require(msg.value > 0 && token.balanceOf(address(this)) >= msg.value, \"Send another token amount\");\r\n\r\n        uint mintAmount = msg.value * 10;\r\n        token.transfer(msg.sender, mintAmount);\r\n\r\n        (bool isSent, ) = address(owner()).call{ value: msg.value }(\"\");\r\n        require(isSent);\r\n    }\r\n\r\n}\r\n",
  "sourcePath": "D:\\JavascriptProjects\\society_token\\contracts\\SafeMinter.sol",
  "compiler": {
    "name": "solc",
    "version": "0.8.15+commit.e14f2714.Emscripten.clang"
  },
  "schemaVersion": "3.4.7",
  "updatedAt": "2022-07-25T05:55:45.289Z",
  "devdoc": {
    "kind": "dev",
    "methods": {
      "owner()": {
        "details": "Returns the address of the current owner."
      },
      "renounceOwnership()": {
        "details": "Leaves the contract without owner. It will not be possible to call `onlyOwner` functions anymore. Can only be called by the current owner. NOTE: Renouncing ownership will leave the contract without an owner, thereby removing any functionality that is only available to the owner."
      },
      "transferOwnership(address)": {
        "details": "Transfers ownership of the contract to a new account (`newOwner`). Can only be called by the current owner."
      }
    },
    "version": 1
  },
  "userdoc": {
    "kind": "user",
    "methods": {},
    "version": 1
  }
}