{
  "contractName": "SafeToken",
  "abi": [
    {
      "inputs": [
        {
          "internalType": "address",
          "name": "_minter",
          "type": "address"
        },
        {
          "internalType": "uint256",
          "name": "_maxSupplyTransferPercentage",
          "type": "uint256"
        },
        {
          "internalType": "uint256",
          "name": "_totalSupply",
          "type": "uint256"
        },
        {
          "internalType": "uint256",
          "name": "_epochDelay",
          "type": "uint256"
        }
      ],
      "stateMutability": "nonpayable",
      "type": "constructor"
    },
    {
      "anonymous": false,
      "inputs": [
        {
          "indexed": true,
          "internalType": "address",
          "name": "_owner",
          "type": "address"
        },
        {
          "indexed": true,
          "internalType": "address",
          "name": "_spender",
          "type": "address"
        },
        {
          "indexed": false,
          "internalType": "uint256",
          "name": "_value",
          "type": "uint256"
        }
      ],
      "name": "Approval",
      "type": "event"
    },
    {
      "anonymous": false,
      "inputs": [
        {
          "indexed": true,
          "internalType": "address",
          "name": "_from",
          "type": "address"
        },
        {
          "indexed": true,
          "internalType": "address",
          "name": "_to",
          "type": "address"
        },
        {
          "indexed": false,
          "internalType": "uint256",
          "name": "_value",
          "type": "uint256"
        }
      ],
      "name": "Transfer",
      "type": "event"
    },
    {
      "inputs": [
        {
          "internalType": "address",
          "name": "",
          "type": "address"
        },
        {
          "internalType": "address",
          "name": "",
          "type": "address"
        }
      ],
      "name": "allowed",
      "outputs": [
        {
          "internalType": "uint256",
          "name": "",
          "type": "uint256"
        }
      ],
      "stateMutability": "view",
      "type": "function"
    },
    {
      "inputs": [
        {
          "internalType": "address",
          "name": "",
          "type": "address"
        }
      ],
      "name": "balances",
      "outputs": [
        {
          "internalType": "uint256",
          "name": "",
          "type": "uint256"
        }
      ],
      "stateMutability": "view",
      "type": "function"
    },
    {
      "inputs": [],
      "name": "currentTick",
      "outputs": [
        {
          "internalType": "uint256",
          "name": "",
          "type": "uint256"
        }
      ],
      "stateMutability": "view",
      "type": "function"
    },
    {
      "inputs": [],
      "name": "decimals",
      "outputs": [
        {
          "internalType": "uint8",
          "name": "",
          "type": "uint8"
        }
      ],
      "stateMutability": "view",
      "type": "function"
    },
    {
      "inputs": [],
      "name": "epochDelay",
      "outputs": [
        {
          "internalType": "uint256",
          "name": "",
          "type": "uint256"
        }
      ],
      "stateMutability": "view",
      "type": "function"
    },
    {
      "inputs": [],
      "name": "epochTokensTransferred",
      "outputs": [
        {
          "internalType": "uint256",
          "name": "",
          "type": "uint256"
        }
      ],
      "stateMutability": "view",
      "type": "function"
    },
    {
      "inputs": [],
      "name": "lastTransferTime",
      "outputs": [
        {
          "internalType": "uint256",
          "name": "",
          "type": "uint256"
        }
      ],
      "stateMutability": "view",
      "type": "function"
    },
    {
      "inputs": [],
      "name": "maxSupplyTransferPercentage",
      "outputs": [
        {
          "internalType": "uint256",
          "name": "",
          "type": "uint256"
        }
      ],
      "stateMutability": "view",
      "type": "function"
    },
    {
      "inputs": [],
      "name": "minter",
      "outputs": [
        {
          "internalType": "address",
          "name": "",
          "type": "address"
        }
      ],
      "stateMutability": "view",
      "type": "function"
    },
    {
      "inputs": [],
      "name": "name",
      "outputs": [
        {
          "internalType": "string",
          "name": "",
          "type": "string"
        }
      ],
      "stateMutability": "view",
      "type": "function"
    },
    {
      "inputs": [],
      "name": "symbol",
      "outputs": [
        {
          "internalType": "string",
          "name": "",
          "type": "string"
        }
      ],
      "stateMutability": "view",
      "type": "function"
    },
    {
      "inputs": [],
      "name": "totalSupply",
      "outputs": [
        {
          "internalType": "uint256",
          "name": "",
          "type": "uint256"
        }
      ],
      "stateMutability": "view",
      "type": "function"
    },
    {
      "inputs": [
        {
          "internalType": "address",
          "name": "account",
          "type": "address"
        }
      ],
      "name": "getTodayTransferAmount",
      "outputs": [
        {
          "internalType": "uint256",
          "name": "",
          "type": "uint256"
        }
      ],
      "stateMutability": "view",
      "type": "function"
    },
    {
      "inputs": [
        {
          "internalType": "uint256",
          "name": "amount",
          "type": "uint256"
        }
      ],
      "name": "burn",
      "outputs": [],
      "stateMutability": "nonpayable",
      "type": "function"
    },
    {
      "inputs": [],
      "name": "getUserTransferLimit",
      "outputs": [
        {
          "internalType": "uint256",
          "name": "",
          "type": "uint256"
        }
      ],
      "stateMutability": "view",
      "type": "function"
    },
    {
      "inputs": [],
      "name": "isEpochOver",
      "outputs": [
        {
          "internalType": "bool",
          "name": "",
          "type": "bool"
        }
      ],
      "stateMutability": "view",
      "type": "function"
    },
    {
      "inputs": [
        {
          "internalType": "address",
          "name": "_to",
          "type": "address"
        },
        {
          "internalType": "uint256",
          "name": "_value",
          "type": "uint256"
        }
      ],
      "name": "transfer",
      "outputs": [
        {
          "internalType": "bool",
          "name": "success",
          "type": "bool"
        }
      ],
      "stateMutability": "nonpayable",
      "type": "function"
    },
    {
      "inputs": [
        {
          "internalType": "address",
          "name": "_from",
          "type": "address"
        },
        {
          "internalType": "address",
          "name": "_to",
          "type": "address"
        },
        {
          "internalType": "uint256",
          "name": "_value",
          "type": "uint256"
        }
      ],
      "name": "transferFrom",
      "outputs": [
        {
          "internalType": "bool",
          "name": "success",
          "type": "bool"
        }
      ],
      "stateMutability": "nonpayable",
      "type": "function"
    },
    {
      "inputs": [
        {
          "internalType": "address",
          "name": "_owner",
          "type": "address"
        }
      ],
      "name": "balanceOf",
      "outputs": [
        {
          "internalType": "uint256",
          "name": "balance",
          "type": "uint256"
        }
      ],
      "stateMutability": "view",
      "type": "function"
    },
    {
      "inputs": [
        {
          "internalType": "address",
          "name": "_spender",
          "type": "address"
        },
        {
          "internalType": "uint256",
          "name": "_value",
          "type": "uint256"
        }
      ],
      "name": "approve",
      "outputs": [
        {
          "internalType": "bool",
          "name": "success",
          "type": "bool"
        }
      ],
      "stateMutability": "nonpayable",
      "type": "function"
    },
    {
      "inputs": [
        {
          "internalType": "address",
          "name": "_owner",
          "type": "address"
        },
        {
          "internalType": "address",
          "name": "_spender",
          "type": "address"
        }
      ],
      "name": "allowance",
      "outputs": [
        {
          "internalType": "uint256",
          "name": "remaining",
          "type": "uint256"
        }
      ],
      "stateMutability": "view",
      "type": "function"
    }
  ],
  "bytecode": "0x60c0604052600a60809081526929b0b332903a37b5b2b760b11b60a0526002906200002b90826200018d565b506003805460ff19166012179055604080518082019091526004808252635341464560e01b6020830152906200006290826200018d565b506000600b553480156200007557600080fd5b50604051620010ff380380620010ff833981016040819052620000989162000259565b6009929092556005819055600680546001600160a01b039094166001600160a01b031990941684179055600a91909155600091825260208290526040822055600c805460010181559052620002a6565b634e487b7160e01b600052604160045260246000fd5b600181811c908216806200011357607f821691505b6020821081036200013457634e487b7160e01b600052602260045260246000fd5b50919050565b601f8211156200018857600081815260208120601f850160051c81016020861015620001635750805b601f850160051c820191505b8181101562000184578281556001016200016f565b5050505b505050565b81516001600160401b03811115620001a957620001a9620000e8565b620001c181620001ba8454620000fe565b846200013a565b602080601f831160018114620001f95760008415620001e05750858301515b600019600386901b1c1916600185901b17855562000184565b600085815260208120601f198616915b828110156200022a5788860151825594840194600190910190840162000209565b5085821015620002495787850151600019600388901b60f8161c191681555b5050505050600190811b01905550565b600080600080608085870312156200027057600080fd5b84516001600160a01b03811681146200028857600080fd5b60208601516040870151606090970151919890975090945092505050565b610e4980620002b66000396000f3fe608060405234801561001057600080fd5b50600436106101775760003560e01c8063337ca554116100d857806395d89b411161008c578063cd10825811610066578063cd10825814610338578063dd62ed3e14610340578063f35aa7b51461038657600080fd5b806395d89b4114610314578063a9059cbb1461031c578063bd8da9171461032f57600080fd5b80634bf0e868116100bd5780634bf0e868146102aa5780635c658165146102b357806370a08231146102de57600080fd5b8063337ca5541461028257806342966c681461029557600080fd5b806318160ddd1161012f57806327e235e31161011457806327e235e31461023a578063300ed35e1461025a578063313ce5671461026357600080fd5b806318160ddd1461021e57806323b872dd1461022757600080fd5b8063075461721161016057806307546172146101ad578063095ea7b3146101f25780630b6232521461021557600080fd5b8063065e53601461017c57806306fdde0314610198575b600080fd5b610185600b5481565b6040519081526020015b60405180910390f35b6101a061038e565b60405161018f9190610b13565b6006546101cd9073ffffffffffffffffffffffffffffffffffffffff1681565b60405173ffffffffffffffffffffffffffffffffffffffff909116815260200161018f565b610205610200366004610baf565b61041c565b604051901515815260200161018f565b61018560095481565b61018560055481565b610205610235366004610bd9565b610495565b610185610248366004610c15565b60006020819052908152604090205481565b61018560085481565b6003546102709060ff1681565b60405160ff909116815260200161018f565b610185610290366004610c15565b6106aa565b6102a86102a3366004610c37565b6106f3565b005b61018560075481565b6101856102c1366004610c50565b600160209081526000928352604080842090915290825290205481565b6101856102ec366004610c15565b73ffffffffffffffffffffffffffffffffffffffff1660009081526020819052604090205490565b6101a06107b5565b61020561032a366004610baf565b6107c2565b610185600a5481565b6101856108ec565b61018561034e366004610c50565b73ffffffffffffffffffffffffffffffffffffffff918216600090815260016020908152604080832093909416825291909152205490565b610205610910565b6002805461039b90610c83565b80601f01602080910402602001604051908101604052809291908181526020018280546103c790610c83565b80156104145780601f106103e957610100808354040283529160200191610414565b820191906000526020600020905b8154815290600101906020018083116103f757829003601f168201915b505050505081565b33600081815260016020908152604080832073ffffffffffffffffffffffffffffffffffffffff8716808552925280832085905551919290917f8c5be1e5ebec7d5bd14f71427d1e84f3dd0314c0f7b2291e5b200ac8c7c3b925906104849086815260200190565b60405180910390a350600192915050565b73ffffffffffffffffffffffffffffffffffffffff831660008181526001602090815260408083203384528252808320549383529082905281205490919083118015906104e25750828110155b61054d576040517f08c379a000000000000000000000000000000000000000000000000000000000815260206004820152600260248201527f4c4200000000000000000000000000000000000000000000000000000000000060448201526064015b60405180910390fd5b61055683610929565b73ffffffffffffffffffffffffffffffffffffffff84166000908152602081905260408120805485929061058b908490610d05565b909155505073ffffffffffffffffffffffffffffffffffffffff8516600090815260208190526040812080548592906105c5908490610d1d565b90915550507fffffffffffffffffffffffffffffffffffffffffffffffffffffffffffffffff8110156106385773ffffffffffffffffffffffffffffffffffffffff8516600090815260016020908152604080832033845290915281208054859290610632908490610d1d565b90915550505b8373ffffffffffffffffffffffffffffffffffffffff168573ffffffffffffffffffffffffffffffffffffffff167fddf252ad1be2c89b69c2b068fc378daa952ba7f163c4a11628f55a4df523b3ef8560405161069791815260200190565b60405180910390a3506001949350505050565b6000600c600b54815481106106c1576106c1610d34565b6000918252602080832073ffffffffffffffffffffffffffffffffffffffff9095168352930190925250604090205490565b3360009081526020819052604090205481111561076c576040517f08c379a000000000000000000000000000000000000000000000000000000000815260206004820152600260248201527f4c420000000000000000000000000000000000000000000000000000000000006044820152606401610544565b61077581610929565b3360009081526020819052604081208054839290610794908490610d1d565b9250508190555080600560008282546107ad9190610d1d565b909155505050565b6004805461039b90610c83565b3360009081526020819052604081205482111561083b576040517f08c379a000000000000000000000000000000000000000000000000000000000815260206004820152600260248201527f4c420000000000000000000000000000000000000000000000000000000000006044820152606401610544565b61084482610929565b3360009081526020819052604081208054849290610863908490610d1d565b909155505073ffffffffffffffffffffffffffffffffffffffff83166000908152602081905260408120805484929061089d908490610d05565b909155505060405182815273ffffffffffffffffffffffffffffffffffffffff84169033907fddf252ad1be2c89b69c2b068fc378daa952ba7f163c4a11628f55a4df523b3ef90602001610484565b60006127106009546005546109019190610d63565b61090b9190610da0565b905090565b6000600a54600754426109239190610d1d565b11905090565b4260075560065473ffffffffffffffffffffffffffffffffffffffff16330361094f5750565b80600860008282546109619190610d05565b90915550600090506109716108ec565b905081600c600b548154811061098957610989610d34565b6000918252602080832033845290910190526040812080549091906109af908490610d05565b9250508190555080600c600b54815481106109cc576109cc610d34565b60009182526020808320338452909101905260409020541115610a4b576040517f08c379a000000000000000000000000000000000000000000000000000000000815260206004820152600260248201527f4c450000000000000000000000000000000000000000000000000000000000006044820152606401610544565b6000610a55610910565b90508015610a8857600c8054600101815560009081526008819055600b805491610a7e83610ddb565b9190505550505050565b6064600954600554610a9a9190610d63565b610aa49190610da0565b60085410610b0e576040517f08c379a000000000000000000000000000000000000000000000000000000000815260206004820152600360248201527f544c4500000000000000000000000000000000000000000000000000000000006044820152606401610544565b505050565b600060208083528351808285015260005b81811015610b4057858101830151858201604001528201610b24565b81811115610b52576000604083870101525b50601f017fffffffffffffffffffffffffffffffffffffffffffffffffffffffffffffffe016929092016040019392505050565b803573ffffffffffffffffffffffffffffffffffffffff81168114610baa57600080fd5b919050565b60008060408385031215610bc257600080fd5b610bcb83610b86565b946020939093013593505050565b600080600060608486031215610bee57600080fd5b610bf784610b86565b9250610c0560208501610b86565b9150604084013590509250925092565b600060208284031215610c2757600080fd5b610c3082610b86565b9392505050565b600060208284031215610c4957600080fd5b5035919050565b60008060408385031215610c6357600080fd5b610c6c83610b86565b9150610c7a60208401610b86565b90509250929050565b600181811c90821680610c9757607f821691505b602082108103610cd0577f4e487b7100000000000000000000000000000000000000000000000000000000600052602260045260246000fd5b50919050565b7f4e487b7100000000000000000000000000000000000000000000000000000000600052601160045260246000fd5b60008219821115610d1857610d18610cd6565b500190565b600082821015610d2f57610d2f610cd6565b500390565b7f4e487b7100000000000000000000000000000000000000000000000000000000600052603260045260246000fd5b6000817fffffffffffffffffffffffffffffffffffffffffffffffffffffffffffffffff0483118215151615610d9b57610d9b610cd6565b500290565b600082610dd6577f4e487b7100000000000000000000000000000000000000000000000000000000600052601260045260246000fd5b500490565b60007fffffffffffffffffffffffffffffffffffffffffffffffffffffffffffffffff8203610e0c57610e0c610cd6565b506001019056fea264697066735822122043266101f6b3245f539d3abcfcbf3ca5688d4cc5d5d0275d10349151b9a7a68264736f6c634300080f0033",
  "immutableReferences": {},
  "source": "// SPDX-License-Identifier: MIT\r\npragma solidity 0.8.15;\r\npragma abicoder v2;\r\n\r\n\r\ncontract SafeToken{\r\n\r\n    uint256 constant private MAX_UINT256 = 2**256 - 1;\r\n    mapping (address => uint256) public balances;\r\n    mapping (address => mapping (address => uint256)) public allowed;\r\n\r\n    event Transfer(address indexed _from, address indexed _to, uint256 _value);\r\n    event Approval(address indexed _owner, address indexed _spender, uint256 _value);\r\n\r\n    string public name = \"Safe token\";\r\n    uint8 public decimals = 18;\r\n    string public symbol = \"SAFE\";\r\n    uint public totalSupply;\r\n\r\n    address public minter;\r\n    uint public lastTransferTime;\r\n    uint public epochTokensTransferred;\r\n    uint public maxSupplyTransferPercentage;\r\n    uint public epochDelay;\r\n\r\n    uint public currentTick = 0;\r\n    mapping(address => uint)[] private todayTransfers;\r\n\r\n    constructor(address _minter, uint _maxSupplyTransferPercentage, uint _totalSupply, uint _epochDelay){\r\n        maxSupplyTransferPercentage = _maxSupplyTransferPercentage;\r\n        totalSupply = _totalSupply;\r\n        minter = _minter;\r\n        epochDelay = _epochDelay;\r\n        balances[_minter] = _totalSupply;\r\n        todayTransfers.push({});\r\n    }\r\n\r\n    function getTodayTransferAmount(address account) external view returns(uint){\r\n        return todayTransfers[currentTick][account];\r\n    }\r\n\r\n    function burn(uint amount) external{\r\n        require(balances[msg.sender] >= amount, \"LB\");\r\n        transferLock(amount);\r\n        balances[msg.sender] -= amount;\r\n        totalSupply -= amount;\r\n    }\r\n\r\n    function getUserTransferLimit() public view returns(uint){\r\n        return totalSupply * maxSupplyTransferPercentage / 10000;   // TODO: calculate max transfers\r\n    }\r\n\r\n    function isEpochOver() public view returns(bool){\r\n        return uint(block.timestamp) - lastTransferTime > epochDelay;\r\n    }\r\n\r\n    function transferLock(uint transferAmount) private {\r\n        lastTransferTime = block.timestamp;\r\n\r\n        if(msg.sender == minter){   // minter contract can transfer as many tokens as it wants\r\n            return;\r\n        }\r\n\r\n        epochTokensTransferred += transferAmount;\r\n        uint transferLimit = getUserTransferLimit();\r\n\r\n        todayTransfers[currentTick][msg.sender] += transferAmount;\r\n        require(todayTransfers[currentTick][msg.sender] <= transferLimit, \"LE\");    // LIMIT EXCEEDED\r\n\r\n        bool _isEpochOver = isEpochOver();\r\n\r\n        if(_isEpochOver){\r\n            todayTransfers.push({});\r\n            epochTokensTransferred = 0;\r\n            currentTick++;\r\n        }else if(epochTokensTransferred >= (totalSupply * maxSupplyTransferPercentage) / 100){\r\n            revert(\"TLE\");  // TOTAL LIMIT EXCEEDED\r\n        }\r\n\r\n    }\r\n\r\n    function transfer(address _to, uint256 _value) external returns (bool success) {\r\n        require(balances[msg.sender] >= _value, \"LB\");\r\n        transferLock(_value);\r\n\r\n        balances[msg.sender] -= _value;\r\n        balances[_to] += _value;        \r\n\r\n        emit Transfer(msg.sender, _to, _value); //solhint-disable-line indent, no-unused-vars\r\n        return true;\r\n    }\r\n\r\n    function transferFrom(address _from, address _to, uint256 _value) external returns (bool success) {\r\n        uint256 allowance_ = allowed[_from][msg.sender];\r\n        require(balances[_from] >= _value && allowance_ >= _value, \"LB\");\r\n        transferLock(_value);\r\n\r\n        balances[_to] += _value;\r\n        balances[_from] -= _value;\r\n\r\n        if (allowance_ < MAX_UINT256) {\r\n            allowed[_from][msg.sender] -= _value;\r\n        }\r\n\r\n        emit Transfer(_from, _to, _value); //solhint-disable-line indent, no-unused-vars\r\n        return true;\r\n    }\r\n\r\n    function balanceOf(address _owner) external view returns (uint256 balance) {\r\n        return balances[_owner];\r\n    }\r\n\r\n    function approve(address _spender, uint256 _value) external returns (bool success) {\r\n        allowed[msg.sender][_spender] = _value;\r\n        emit Approval(msg.sender, _spender, _value); //solhint-disable-line indent, no-unused-vars\r\n        return true;\r\n    }\r\n\r\n    function allowance(address _owner, address _spender) external view returns (uint256 remaining) {\r\n        return allowed[_owner][_spender];\r\n    }\r\n\r\n}\r\n",
  "sourcePath": "D:\\JavascriptProjects\\society_token\\contracts\\SafeToken.sol",
  "compiler": {
    "name": "solc",
    "version": "0.8.15+commit.e14f2714.Emscripten.clang"
  },
  "schemaVersion": "3.4.7",
  "updatedAt": "2022-07-22T05:35:34.038Z",
  "devdoc": {
    "kind": "dev",
    "methods": {},
    "version": 1
  },
  "userdoc": {
    "kind": "user",
    "methods": {},
    "version": 1
  }
}